{
	"Gem_Mine.sol": {
		"GemMine": {
			"abi": [
				{
					"inputs": [
						{
							"internalType": "string",
							"name": "location",
							"type": "string"
						}
					],
					"name": "addMine",
					"outputs": [],
					"stateMutability": "nonpayable",
					"type": "function"
				},
				{
					"inputs": [],
					"name": "checkStatus",
					"outputs": [
						{
							"internalType": "string",
							"name": "",
							"type": "string"
						}
					],
					"stateMutability": "pure",
					"type": "function"
				},
				{
					"inputs": [],
					"name": "counter",
					"outputs": [
						{
							"internalType": "uint256",
							"name": "",
							"type": "uint256"
						}
					],
					"stateMutability": "view",
					"type": "function"
				},
				{
					"inputs": [
						{
							"internalType": "uint256",
							"name": "id",
							"type": "uint256"
						}
					],
					"name": "getLocation",
					"outputs": [
						{
							"internalType": "uint256",
							"name": "mineID",
							"type": "uint256"
						},
						{
							"internalType": "string",
							"name": "location",
							"type": "string"
						}
					],
					"stateMutability": "view",
					"type": "function"
				}
			],
			"devdoc": {
				"kind": "dev",
				"methods": {},
				"version": 1
			},
			"evm": {
				"assembly": "    /* \"Gem_Mine.sol\":223:1268  contract GemMine {... */\n  mstore(0x40, 0x80)\n    /* \"Gem_Mine.sol\":845:846  0 */\n  0x00\n    /* \"Gem_Mine.sol\":820:846  uint256 public counter = 0 */\n  0x01\n  sstore\n    /* \"Gem_Mine.sol\":223:1268  contract GemMine {... */\n  callvalue\n  dup1\n  iszero\n  tag_1\n  jumpi\n  0x00\n  dup1\n  revert\ntag_1:\n  pop\n  dataSize(sub_0)\n  dup1\n  dataOffset(sub_0)\n  0x00\n  codecopy\n  0x00\n  return\nstop\n\nsub_0: assembly {\n        /* \"Gem_Mine.sol\":223:1268  contract GemMine {... */\n      mstore(0x40, 0x80)\n      callvalue\n      dup1\n      iszero\n      tag_1\n      jumpi\n      0x00\n      dup1\n      revert\n    tag_1:\n      pop\n      jumpi(tag_2, lt(calldatasize, 0x04))\n      shr(0xe0, calldataload(0x00))\n      dup1\n      0x051baa6f\n      eq\n      tag_3\n      jumpi\n      dup1\n      0x3b7104f2\n      eq\n      tag_4\n      jumpi\n      dup1\n      0x61bc221a\n      eq\n      tag_5\n      jumpi\n      dup1\n      0x7f7b1393\n      eq\n      tag_6\n      jumpi\n    tag_2:\n      0x00\n      dup1\n      revert\n        /* \"Gem_Mine.sol\":973:1103  function addMine(string memory location) public {... */\n    tag_3:\n      tag_7\n      0x04\n      dup1\n      calldatasize\n      sub\n      dup2\n      add\n      swap1\n      tag_8\n      swap2\n      swap1\n      tag_9\n      jump\t// in\n    tag_8:\n      tag_10\n      jump\t// in\n    tag_7:\n      stop\n        /* \"Gem_Mine.sol\":610:731  function checkStatus() public pure returns (string memory) {... */\n    tag_4:\n      tag_11\n      tag_12\n      jump\t// in\n    tag_11:\n      mload(0x40)\n      tag_13\n      swap2\n      swap1\n      tag_14\n      jump\t// in\n    tag_13:\n      mload(0x40)\n      dup1\n      swap2\n      sub\n      swap1\n      return\n        /* \"Gem_Mine.sol\":820:846  uint256 public counter = 0 */\n    tag_5:\n      tag_15\n      tag_16\n      jump\t// in\n    tag_15:\n      mload(0x40)\n      tag_17\n      swap2\n      swap1\n      tag_18\n      jump\t// in\n    tag_17:\n      mload(0x40)\n      dup1\n      swap2\n      sub\n      swap1\n      return\n        /* \"Gem_Mine.sol\":1111:1265  function getLocation(uint256 id) public view returns (uint256 mineID, string memory location) {... */\n    tag_6:\n      tag_19\n      0x04\n      dup1\n      calldatasize\n      sub\n      dup2\n      add\n      swap1\n      tag_20\n      swap2\n      swap1\n      tag_21\n      jump\t// in\n    tag_20:\n      tag_22\n      jump\t// in\n    tag_19:\n      mload(0x40)\n      tag_23\n      swap3\n      swap2\n      swap1\n      tag_24\n      jump\t// in\n    tag_23:\n      mload(0x40)\n      dup1\n      swap2\n      sub\n      swap1\n      return\n        /* \"Gem_Mine.sol\":973:1103  function addMine(string memory location) public {... */\n    tag_10:\n        /* \"Gem_Mine.sol\":1043:1044  1 */\n      0x01\n        /* \"Gem_Mine.sol\":1032:1039  counter */\n      dup1\n      0x00\n        /* \"Gem_Mine.sol\":1032:1044  counter += 1 */\n      dup3\n      dup3\n      sload\n      tag_26\n      swap2\n      swap1\n      tag_27\n      jump\t// in\n    tag_26:\n      swap3\n      pop\n      pop\n      dup2\n      swap1\n      sstore\n      pop\n        /* \"Gem_Mine.sol\":1072:1095  Mine(counter, location) */\n      mload(0x40)\n      dup1\n      0x40\n      add\n      0x40\n      mstore\n      dup1\n        /* \"Gem_Mine.sol\":1077:1084  counter */\n      sload(0x01)\n        /* \"Gem_Mine.sol\":1072:1095  Mine(counter, location) */\n      dup2\n      mstore\n      0x20\n      add\n        /* \"Gem_Mine.sol\":1086:1094  location */\n      dup3\n        /* \"Gem_Mine.sol\":1072:1095  Mine(counter, location) */\n      dup2\n      mstore\n      pop\n        /* \"Gem_Mine.sol\":1055:1060  mines */\n      0x00\n        /* \"Gem_Mine.sol\":1055:1069  mines[counter] */\n      dup1\n        /* \"Gem_Mine.sol\":1061:1068  counter */\n      sload(0x01)\n        /* \"Gem_Mine.sol\":1055:1069  mines[counter] */\n      dup2\n      mstore\n      0x20\n      add\n      swap1\n      dup2\n      mstore\n      0x20\n      add\n      0x00\n      keccak256\n        /* \"Gem_Mine.sol\":1055:1095  mines[counter] = Mine(counter, location) */\n      0x00\n      dup3\n      add\n      mload\n      dup2\n      0x00\n      add\n      sstore\n      0x20\n      dup3\n      add\n      mload\n      dup2\n      0x01\n      add\n      swap1\n      dup2\n      tag_28\n      swap2\n      swap1\n      tag_29\n      jump\t// in\n    tag_28:\n      pop\n      swap1\n      pop\n      pop\n        /* \"Gem_Mine.sol\":973:1103  function addMine(string memory location) public {... */\n      pop\n      jump\t// out\n        /* \"Gem_Mine.sol\":610:731  function checkStatus() public pure returns (string memory) {... */\n    tag_12:\n        /* \"Gem_Mine.sol\":654:667  string memory */\n      0x60\n        /* \"Gem_Mine.sol\":680:723  return \"Mine is working with 100% accuracy\" */\n      mload(0x40)\n      dup1\n      0x60\n      add\n      0x40\n      mstore\n      dup1\n      0x22\n      dup2\n      mstore\n      0x20\n      add\n      data_b74f1fcf72739bdf1f9d4206912981749c137c73165f18de0d5858ef7753f8ed\n      0x22\n      swap2\n      codecopy\n      swap1\n      pop\n        /* \"Gem_Mine.sol\":610:731  function checkStatus() public pure returns (string memory) {... */\n      swap1\n      jump\t// out\n        /* \"Gem_Mine.sol\":820:846  uint256 public counter = 0 */\n    tag_16:\n      sload(0x01)\n      dup2\n      jump\t// out\n        /* \"Gem_Mine.sol\":1111:1265  function getLocation(uint256 id) public view returns (uint256 mineID, string memory location) {... */\n    tag_22:\n        /* \"Gem_Mine.sol\":1165:1179  uint256 mineID */\n      0x00\n        /* \"Gem_Mine.sol\":1181:1203  string memory location */\n      0x60\n        /* \"Gem_Mine.sol\":1224:1229  mines */\n      0x00\n        /* \"Gem_Mine.sol\":1224:1233  mines[id] */\n      dup1\n        /* \"Gem_Mine.sol\":1230:1232  id */\n      dup5\n        /* \"Gem_Mine.sol\":1224:1233  mines[id] */\n      dup2\n      mstore\n      0x20\n      add\n      swap1\n      dup2\n      mstore\n      0x20\n      add\n      0x00\n      keccak256\n        /* \"Gem_Mine.sol\":1224:1236  mines[id].id */\n      0x00\n      add\n      sload\n        /* \"Gem_Mine.sol\":1238:1243  mines */\n      0x00\n        /* \"Gem_Mine.sol\":1238:1247  mines[id] */\n      dup1\n        /* \"Gem_Mine.sol\":1244:1246  id */\n      dup6\n        /* \"Gem_Mine.sol\":1238:1247  mines[id] */\n      dup2\n      mstore\n      0x20\n      add\n      swap1\n      dup2\n      mstore\n      0x20\n      add\n      0x00\n      keccak256\n        /* \"Gem_Mine.sol\":1238:1256  mines[id].location */\n      0x01\n      add\n        /* \"Gem_Mine.sol\":1216:1257  return (mines[id].id, mines[id].location) */\n      dup1\n      dup1\n      sload\n      tag_32\n      swap1\n      tag_33\n      jump\t// in\n    tag_32:\n      dup1\n      0x1f\n      add\n      0x20\n      dup1\n      swap2\n      div\n      mul\n      0x20\n      add\n      mload(0x40)\n      swap1\n      dup2\n      add\n      0x40\n      mstore\n      dup1\n      swap3\n      swap2\n      swap1\n      dup2\n      dup2\n      mstore\n      0x20\n      add\n      dup3\n      dup1\n      sload\n      tag_34\n      swap1\n      tag_33\n      jump\t// in\n    tag_34:\n      dup1\n      iszero\n      tag_35\n      jumpi\n      dup1\n      0x1f\n      lt\n      tag_36\n      jumpi\n      0x0100\n      dup1\n      dup4\n      sload\n      div\n      mul\n      dup4\n      mstore\n      swap2\n      0x20\n      add\n      swap2\n      jump(tag_35)\n    tag_36:\n      dup3\n      add\n      swap2\n      swap1\n      0x00\n      mstore\n      keccak256(0x00, 0x20)\n      swap1\n    tag_37:\n      dup2\n      sload\n      dup2\n      mstore\n      swap1\n      0x01\n      add\n      swap1\n      0x20\n      add\n      dup1\n      dup4\n      gt\n      tag_37\n      jumpi\n      dup3\n      swap1\n      sub\n      0x1f\n      and\n      dup3\n      add\n      swap2\n    tag_35:\n      pop\n      pop\n      pop\n      pop\n      pop\n      swap1\n      pop\n      swap2\n      pop\n      swap2\n      pop\n        /* \"Gem_Mine.sol\":1111:1265  function getLocation(uint256 id) public view returns (uint256 mineID, string memory location) {... */\n      swap2\n      pop\n      swap2\n      jump\t// out\n        /* \"#utility.yul\":7:82   */\n    tag_38:\n        /* \"#utility.yul\":40:46   */\n      0x00\n        /* \"#utility.yul\":73:75   */\n      0x40\n        /* \"#utility.yul\":67:76   */\n      mload\n        /* \"#utility.yul\":57:76   */\n      swap1\n      pop\n        /* \"#utility.yul\":7:82   */\n      swap1\n      jump\t// out\n        /* \"#utility.yul\":88:205   */\n    tag_39:\n        /* \"#utility.yul\":197:198   */\n      0x00\n        /* \"#utility.yul\":194:195   */\n      dup1\n        /* \"#utility.yul\":187:199   */\n      revert\n        /* \"#utility.yul\":211:328   */\n    tag_40:\n        /* \"#utility.yul\":320:321   */\n      0x00\n        /* \"#utility.yul\":317:318   */\n      dup1\n        /* \"#utility.yul\":310:322   */\n      revert\n        /* \"#utility.yul\":334:451   */\n    tag_41:\n        /* \"#utility.yul\":443:444   */\n      0x00\n        /* \"#utility.yul\":440:441   */\n      dup1\n        /* \"#utility.yul\":433:445   */\n      revert\n        /* \"#utility.yul\":457:574   */\n    tag_42:\n        /* \"#utility.yul\":566:567   */\n      0x00\n        /* \"#utility.yul\":563:564   */\n      dup1\n        /* \"#utility.yul\":556:568   */\n      revert\n        /* \"#utility.yul\":580:682   */\n    tag_43:\n        /* \"#utility.yul\":621:627   */\n      0x00\n        /* \"#utility.yul\":672:674   */\n      0x1f\n        /* \"#utility.yul\":668:675   */\n      not\n        /* \"#utility.yul\":663:665   */\n      0x1f\n        /* \"#utility.yul\":656:661   */\n      dup4\n        /* \"#utility.yul\":652:666   */\n      add\n        /* \"#utility.yul\":648:676   */\n      and\n        /* \"#utility.yul\":638:676   */\n      swap1\n      pop\n        /* \"#utility.yul\":580:682   */\n      swap2\n      swap1\n      pop\n      jump\t// out\n        /* \"#utility.yul\":688:868   */\n    tag_44:\n        /* \"#utility.yul\":736:813   */\n      0x4e487b7100000000000000000000000000000000000000000000000000000000\n        /* \"#utility.yul\":733:734   */\n      0x00\n        /* \"#utility.yul\":726:814   */\n      mstore\n        /* \"#utility.yul\":833:837   */\n      0x41\n        /* \"#utility.yul\":830:831   */\n      0x04\n        /* \"#utility.yul\":823:838   */\n      mstore\n        /* \"#utility.yul\":857:861   */\n      0x24\n        /* \"#utility.yul\":854:855   */\n      0x00\n        /* \"#utility.yul\":847:862   */\n      revert\n        /* \"#utility.yul\":874:1155   */\n    tag_45:\n        /* \"#utility.yul\":957:984   */\n      tag_85\n        /* \"#utility.yul\":979:983   */\n      dup3\n        /* \"#utility.yul\":957:984   */\n      tag_43\n      jump\t// in\n    tag_85:\n        /* \"#utility.yul\":949:955   */\n      dup2\n        /* \"#utility.yul\":945:985   */\n      add\n        /* \"#utility.yul\":1087:1093   */\n      dup2\n        /* \"#utility.yul\":1075:1085   */\n      dup2\n        /* \"#utility.yul\":1072:1094   */\n      lt\n        /* \"#utility.yul\":1051:1069   */\n      0xffffffffffffffff\n        /* \"#utility.yul\":1039:1049   */\n      dup3\n        /* \"#utility.yul\":1036:1070   */\n      gt\n        /* \"#utility.yul\":1033:1095   */\n      or\n        /* \"#utility.yul\":1030:1118   */\n      iszero\n      tag_86\n      jumpi\n        /* \"#utility.yul\":1098:1116   */\n      tag_87\n      tag_44\n      jump\t// in\n    tag_87:\n        /* \"#utility.yul\":1030:1118   */\n    tag_86:\n        /* \"#utility.yul\":1138:1148   */\n      dup1\n        /* \"#utility.yul\":1134:1136   */\n      0x40\n        /* \"#utility.yul\":1127:1149   */\n      mstore\n        /* \"#utility.yul\":917:1155   */\n      pop\n        /* \"#utility.yul\":874:1155   */\n      pop\n      pop\n      jump\t// out\n        /* \"#utility.yul\":1161:1290   */\n    tag_46:\n        /* \"#utility.yul\":1195:1201   */\n      0x00\n        /* \"#utility.yul\":1222:1242   */\n      tag_89\n      tag_38\n      jump\t// in\n    tag_89:\n        /* \"#utility.yul\":1212:1242   */\n      swap1\n      pop\n        /* \"#utility.yul\":1251:1284   */\n      tag_90\n        /* \"#utility.yul\":1279:1283   */\n      dup3\n        /* \"#utility.yul\":1271:1277   */\n      dup3\n        /* \"#utility.yul\":1251:1284   */\n      tag_45\n      jump\t// in\n    tag_90:\n        /* \"#utility.yul\":1161:1290   */\n      swap2\n      swap1\n      pop\n      jump\t// out\n        /* \"#utility.yul\":1296:1604   */\n    tag_47:\n        /* \"#utility.yul\":1358:1362   */\n      0x00\n        /* \"#utility.yul\":1448:1466   */\n      0xffffffffffffffff\n        /* \"#utility.yul\":1440:1446   */\n      dup3\n        /* \"#utility.yul\":1437:1467   */\n      gt\n        /* \"#utility.yul\":1434:1490   */\n      iszero\n      tag_92\n      jumpi\n        /* \"#utility.yul\":1470:1488   */\n      tag_93\n      tag_44\n      jump\t// in\n    tag_93:\n        /* \"#utility.yul\":1434:1490   */\n    tag_92:\n        /* \"#utility.yul\":1508:1537   */\n      tag_94\n        /* \"#utility.yul\":1530:1536   */\n      dup3\n        /* \"#utility.yul\":1508:1537   */\n      tag_43\n      jump\t// in\n    tag_94:\n        /* \"#utility.yul\":1500:1537   */\n      swap1\n      pop\n        /* \"#utility.yul\":1592:1596   */\n      0x20\n        /* \"#utility.yul\":1586:1590   */\n      dup2\n        /* \"#utility.yul\":1582:1597   */\n      add\n        /* \"#utility.yul\":1574:1597   */\n      swap1\n      pop\n        /* \"#utility.yul\":1296:1604   */\n      swap2\n      swap1\n      pop\n      jump\t// out\n        /* \"#utility.yul\":1610:1756   */\n    tag_48:\n        /* \"#utility.yul\":1707:1713   */\n      dup3\n        /* \"#utility.yul\":1702:1705   */\n      dup2\n        /* \"#utility.yul\":1697:1700   */\n      dup4\n        /* \"#utility.yul\":1684:1714   */\n      calldatacopy\n        /* \"#utility.yul\":1748:1749   */\n      0x00\n        /* \"#utility.yul\":1739:1745   */\n      dup4\n        /* \"#utility.yul\":1734:1737   */\n      dup4\n        /* \"#utility.yul\":1730:1746   */\n      add\n        /* \"#utility.yul\":1723:1750   */\n      mstore\n        /* \"#utility.yul\":1610:1756   */\n      pop\n      pop\n      pop\n      jump\t// out\n        /* \"#utility.yul\":1762:2187   */\n    tag_49:\n        /* \"#utility.yul\":1840:1845   */\n      0x00\n        /* \"#utility.yul\":1865:1931   */\n      tag_97\n        /* \"#utility.yul\":1881:1930   */\n      tag_98\n        /* \"#utility.yul\":1923:1929   */\n      dup5\n        /* \"#utility.yul\":1881:1930   */\n      tag_47\n      jump\t// in\n    tag_98:\n        /* \"#utility.yul\":1865:1931   */\n      tag_46\n      jump\t// in\n    tag_97:\n        /* \"#utility.yul\":1856:1931   */\n      swap1\n      pop\n        /* \"#utility.yul\":1954:1960   */\n      dup3\n        /* \"#utility.yul\":1947:1952   */\n      dup2\n        /* \"#utility.yul\":1940:1961   */\n      mstore\n        /* \"#utility.yul\":1992:1996   */\n      0x20\n        /* \"#utility.yul\":1985:1990   */\n      dup2\n        /* \"#utility.yul\":1981:1997   */\n      add\n        /* \"#utility.yul\":2030:2033   */\n      dup5\n        /* \"#utility.yul\":2021:2027   */\n      dup5\n        /* \"#utility.yul\":2016:2019   */\n      dup5\n        /* \"#utility.yul\":2012:2028   */\n      add\n        /* \"#utility.yul\":2009:2034   */\n      gt\n        /* \"#utility.yul\":2006:2118   */\n      iszero\n      tag_99\n      jumpi\n        /* \"#utility.yul\":2037:2116   */\n      tag_100\n      tag_42\n      jump\t// in\n    tag_100:\n        /* \"#utility.yul\":2006:2118   */\n    tag_99:\n        /* \"#utility.yul\":2127:2181   */\n      tag_101\n        /* \"#utility.yul\":2174:2180   */\n      dup5\n        /* \"#utility.yul\":2169:2172   */\n      dup3\n        /* \"#utility.yul\":2164:2167   */\n      dup6\n        /* \"#utility.yul\":2127:2181   */\n      tag_48\n      jump\t// in\n    tag_101:\n        /* \"#utility.yul\":1846:2187   */\n      pop\n        /* \"#utility.yul\":1762:2187   */\n      swap4\n      swap3\n      pop\n      pop\n      pop\n      jump\t// out\n        /* \"#utility.yul\":2207:2547   */\n    tag_50:\n        /* \"#utility.yul\":2263:2268   */\n      0x00\n        /* \"#utility.yul\":2312:2315   */\n      dup3\n        /* \"#utility.yul\":2305:2309   */\n      0x1f\n        /* \"#utility.yul\":2297:2303   */\n      dup4\n        /* \"#utility.yul\":2293:2310   */\n      add\n        /* \"#utility.yul\":2289:2316   */\n      slt\n        /* \"#utility.yul\":2279:2401   */\n      tag_103\n      jumpi\n        /* \"#utility.yul\":2320:2399   */\n      tag_104\n      tag_41\n      jump\t// in\n    tag_104:\n        /* \"#utility.yul\":2279:2401   */\n    tag_103:\n        /* \"#utility.yul\":2437:2443   */\n      dup2\n        /* \"#utility.yul\":2424:2444   */\n      calldataload\n        /* \"#utility.yul\":2462:2541   */\n      tag_105\n        /* \"#utility.yul\":2537:2540   */\n      dup5\n        /* \"#utility.yul\":2529:2535   */\n      dup3\n        /* \"#utility.yul\":2522:2526   */\n      0x20\n        /* \"#utility.yul\":2514:2520   */\n      dup7\n        /* \"#utility.yul\":2510:2527   */\n      add\n        /* \"#utility.yul\":2462:2541   */\n      tag_49\n      jump\t// in\n    tag_105:\n        /* \"#utility.yul\":2453:2541   */\n      swap2\n      pop\n        /* \"#utility.yul\":2269:2547   */\n      pop\n        /* \"#utility.yul\":2207:2547   */\n      swap3\n      swap2\n      pop\n      pop\n      jump\t// out\n        /* \"#utility.yul\":2553:3062   */\n    tag_9:\n        /* \"#utility.yul\":2622:2628   */\n      0x00\n        /* \"#utility.yul\":2671:2673   */\n      0x20\n        /* \"#utility.yul\":2659:2668   */\n      dup3\n        /* \"#utility.yul\":2650:2657   */\n      dup5\n        /* \"#utility.yul\":2646:2669   */\n      sub\n        /* \"#utility.yul\":2642:2674   */\n      slt\n        /* \"#utility.yul\":2639:2758   */\n      iszero\n      tag_107\n      jumpi\n        /* \"#utility.yul\":2677:2756   */\n      tag_108\n      tag_39\n      jump\t// in\n    tag_108:\n        /* \"#utility.yul\":2639:2758   */\n    tag_107:\n        /* \"#utility.yul\":2825:2826   */\n      0x00\n        /* \"#utility.yul\":2814:2823   */\n      dup3\n        /* \"#utility.yul\":2810:2827   */\n      add\n        /* \"#utility.yul\":2797:2828   */\n      calldataload\n        /* \"#utility.yul\":2855:2873   */\n      0xffffffffffffffff\n        /* \"#utility.yul\":2847:2853   */\n      dup2\n        /* \"#utility.yul\":2844:2874   */\n      gt\n        /* \"#utility.yul\":2841:2958   */\n      iszero\n      tag_109\n      jumpi\n        /* \"#utility.yul\":2877:2956   */\n      tag_110\n      tag_40\n      jump\t// in\n    tag_110:\n        /* \"#utility.yul\":2841:2958   */\n    tag_109:\n        /* \"#utility.yul\":2982:3045   */\n      tag_111\n        /* \"#utility.yul\":3037:3044   */\n      dup5\n        /* \"#utility.yul\":3028:3034   */\n      dup3\n        /* \"#utility.yul\":3017:3026   */\n      dup6\n        /* \"#utility.yul\":3013:3035   */\n      add\n        /* \"#utility.yul\":2982:3045   */\n      tag_50\n      jump\t// in\n    tag_111:\n        /* \"#utility.yul\":2972:3045   */\n      swap2\n      pop\n        /* \"#utility.yul\":2768:3055   */\n      pop\n        /* \"#utility.yul\":2553:3062   */\n      swap3\n      swap2\n      pop\n      pop\n      jump\t// out\n        /* \"#utility.yul\":3068:3167   */\n    tag_51:\n        /* \"#utility.yul\":3120:3126   */\n      0x00\n        /* \"#utility.yul\":3154:3159   */\n      dup2\n        /* \"#utility.yul\":3148:3160   */\n      mload\n        /* \"#utility.yul\":3138:3160   */\n      swap1\n      pop\n        /* \"#utility.yul\":3068:3167   */\n      swap2\n      swap1\n      pop\n      jump\t// out\n        /* \"#utility.yul\":3173:3342   */\n    tag_52:\n        /* \"#utility.yul\":3257:3268   */\n      0x00\n        /* \"#utility.yul\":3291:3297   */\n      dup3\n        /* \"#utility.yul\":3286:3289   */\n      dup3\n        /* \"#utility.yul\":3279:3298   */\n      mstore\n        /* \"#utility.yul\":3331:3335   */\n      0x20\n        /* \"#utility.yul\":3326:3329   */\n      dup3\n        /* \"#utility.yul\":3322:3336   */\n      add\n        /* \"#utility.yul\":3307:3336   */\n      swap1\n      pop\n        /* \"#utility.yul\":3173:3342   */\n      swap3\n      swap2\n      pop\n      pop\n      jump\t// out\n        /* \"#utility.yul\":3348:3594   */\n    tag_53:\n        /* \"#utility.yul\":3429:3430   */\n      0x00\n        /* \"#utility.yul\":3439:3552   */\n    tag_115:\n        /* \"#utility.yul\":3453:3459   */\n      dup4\n        /* \"#utility.yul\":3450:3451   */\n      dup2\n        /* \"#utility.yul\":3447:3460   */\n      lt\n        /* \"#utility.yul\":3439:3552   */\n      iszero\n      tag_117\n      jumpi\n        /* \"#utility.yul\":3538:3539   */\n      dup1\n        /* \"#utility.yul\":3533:3536   */\n      dup3\n        /* \"#utility.yul\":3529:3540   */\n      add\n        /* \"#utility.yul\":3523:3541   */\n      mload\n        /* \"#utility.yul\":3519:3520   */\n      dup2\n        /* \"#utility.yul\":3514:3517   */\n      dup5\n        /* \"#utility.yul\":3510:3521   */\n      add\n        /* \"#utility.yul\":3503:3542   */\n      mstore\n        /* \"#utility.yul\":3475:3477   */\n      0x20\n        /* \"#utility.yul\":3472:3473   */\n      dup2\n        /* \"#utility.yul\":3468:3478   */\n      add\n        /* \"#utility.yul\":3463:3478   */\n      swap1\n      pop\n        /* \"#utility.yul\":3439:3552   */\n      jump(tag_115)\n    tag_117:\n        /* \"#utility.yul\":3586:3587   */\n      0x00\n        /* \"#utility.yul\":3577:3583   */\n      dup5\n        /* \"#utility.yul\":3572:3575   */\n      dup5\n        /* \"#utility.yul\":3568:3584   */\n      add\n        /* \"#utility.yul\":3561:3588   */\n      mstore\n        /* \"#utility.yul\":3410:3594   */\n      pop\n        /* \"#utility.yul\":3348:3594   */\n      pop\n      pop\n      pop\n      jump\t// out\n        /* \"#utility.yul\":3600:3977   */\n    tag_54:\n        /* \"#utility.yul\":3688:3691   */\n      0x00\n        /* \"#utility.yul\":3716:3755   */\n      tag_119\n        /* \"#utility.yul\":3749:3754   */\n      dup3\n        /* \"#utility.yul\":3716:3755   */\n      tag_51\n      jump\t// in\n    tag_119:\n        /* \"#utility.yul\":3771:3842   */\n      tag_120\n        /* \"#utility.yul\":3835:3841   */\n      dup2\n        /* \"#utility.yul\":3830:3833   */\n      dup6\n        /* \"#utility.yul\":3771:3842   */\n      tag_52\n      jump\t// in\n    tag_120:\n        /* \"#utility.yul\":3764:3842   */\n      swap4\n      pop\n        /* \"#utility.yul\":3851:3916   */\n      tag_121\n        /* \"#utility.yul\":3909:3915   */\n      dup2\n        /* \"#utility.yul\":3904:3907   */\n      dup6\n        /* \"#utility.yul\":3897:3901   */\n      0x20\n        /* \"#utility.yul\":3890:3895   */\n      dup7\n        /* \"#utility.yul\":3886:3902   */\n      add\n        /* \"#utility.yul\":3851:3916   */\n      tag_53\n      jump\t// in\n    tag_121:\n        /* \"#utility.yul\":3941:3970   */\n      tag_122\n        /* \"#utility.yul\":3963:3969   */\n      dup2\n        /* \"#utility.yul\":3941:3970   */\n      tag_43\n      jump\t// in\n    tag_122:\n        /* \"#utility.yul\":3936:3939   */\n      dup5\n        /* \"#utility.yul\":3932:3971   */\n      add\n        /* \"#utility.yul\":3925:3971   */\n      swap2\n      pop\n        /* \"#utility.yul\":3692:3977   */\n      pop\n        /* \"#utility.yul\":3600:3977   */\n      swap3\n      swap2\n      pop\n      pop\n      jump\t// out\n        /* \"#utility.yul\":3983:4296   */\n    tag_14:\n        /* \"#utility.yul\":4096:4100   */\n      0x00\n        /* \"#utility.yul\":4134:4136   */\n      0x20\n        /* \"#utility.yul\":4123:4132   */\n      dup3\n        /* \"#utility.yul\":4119:4137   */\n      add\n        /* \"#utility.yul\":4111:4137   */\n      swap1\n      pop\n        /* \"#utility.yul\":4183:4192   */\n      dup2\n        /* \"#utility.yul\":4177:4181   */\n      dup2\n        /* \"#utility.yul\":4173:4193   */\n      sub\n        /* \"#utility.yul\":4169:4170   */\n      0x00\n        /* \"#utility.yul\":4158:4167   */\n      dup4\n        /* \"#utility.yul\":4154:4171   */\n      add\n        /* \"#utility.yul\":4147:4194   */\n      mstore\n        /* \"#utility.yul\":4211:4289   */\n      tag_124\n        /* \"#utility.yul\":4284:4288   */\n      dup2\n        /* \"#utility.yul\":4275:4281   */\n      dup5\n        /* \"#utility.yul\":4211:4289   */\n      tag_54\n      jump\t// in\n    tag_124:\n        /* \"#utility.yul\":4203:4289   */\n      swap1\n      pop\n        /* \"#utility.yul\":3983:4296   */\n      swap3\n      swap2\n      pop\n      pop\n      jump\t// out\n        /* \"#utility.yul\":4302:4379   */\n    tag_55:\n        /* \"#utility.yul\":4339:4346   */\n      0x00\n        /* \"#utility.yul\":4368:4373   */\n      dup2\n        /* \"#utility.yul\":4357:4373   */\n      swap1\n      pop\n        /* \"#utility.yul\":4302:4379   */\n      swap2\n      swap1\n      pop\n      jump\t// out\n        /* \"#utility.yul\":4385:4503   */\n    tag_56:\n        /* \"#utility.yul\":4472:4496   */\n      tag_127\n        /* \"#utility.yul\":4490:4495   */\n      dup2\n        /* \"#utility.yul\":4472:4496   */\n      tag_55\n      jump\t// in\n    tag_127:\n        /* \"#utility.yul\":4467:4470   */\n      dup3\n        /* \"#utility.yul\":4460:4497   */\n      mstore\n        /* \"#utility.yul\":4385:4503   */\n      pop\n      pop\n      jump\t// out\n        /* \"#utility.yul\":4509:4731   */\n    tag_18:\n        /* \"#utility.yul\":4602:4606   */\n      0x00\n        /* \"#utility.yul\":4640:4642   */\n      0x20\n        /* \"#utility.yul\":4629:4638   */\n      dup3\n        /* \"#utility.yul\":4625:4643   */\n      add\n        /* \"#utility.yul\":4617:4643   */\n      swap1\n      pop\n        /* \"#utility.yul\":4653:4724   */\n      tag_129\n        /* \"#utility.yul\":4721:4722   */\n      0x00\n        /* \"#utility.yul\":4710:4719   */\n      dup4\n        /* \"#utility.yul\":4706:4723   */\n      add\n        /* \"#utility.yul\":4697:4703   */\n      dup5\n        /* \"#utility.yul\":4653:4724   */\n      tag_56\n      jump\t// in\n    tag_129:\n        /* \"#utility.yul\":4509:4731   */\n      swap3\n      swap2\n      pop\n      pop\n      jump\t// out\n        /* \"#utility.yul\":4737:4859   */\n    tag_57:\n        /* \"#utility.yul\":4810:4834   */\n      tag_131\n        /* \"#utility.yul\":4828:4833   */\n      dup2\n        /* \"#utility.yul\":4810:4834   */\n      tag_55\n      jump\t// in\n    tag_131:\n        /* \"#utility.yul\":4803:4808   */\n      dup2\n        /* \"#utility.yul\":4800:4835   */\n      eq\n        /* \"#utility.yul\":4790:4853   */\n      tag_132\n      jumpi\n        /* \"#utility.yul\":4849:4850   */\n      0x00\n        /* \"#utility.yul\":4846:4847   */\n      dup1\n        /* \"#utility.yul\":4839:4851   */\n      revert\n        /* \"#utility.yul\":4790:4853   */\n    tag_132:\n        /* \"#utility.yul\":4737:4859   */\n      pop\n      jump\t// out\n        /* \"#utility.yul\":4865:5004   */\n    tag_58:\n        /* \"#utility.yul\":4911:4916   */\n      0x00\n        /* \"#utility.yul\":4949:4955   */\n      dup2\n        /* \"#utility.yul\":4936:4956   */\n      calldataload\n        /* \"#utility.yul\":4927:4956   */\n      swap1\n      pop\n        /* \"#utility.yul\":4965:4998   */\n      tag_134\n        /* \"#utility.yul\":4992:4997   */\n      dup2\n        /* \"#utility.yul\":4965:4998   */\n      tag_57\n      jump\t// in\n    tag_134:\n        /* \"#utility.yul\":4865:5004   */\n      swap3\n      swap2\n      pop\n      pop\n      jump\t// out\n        /* \"#utility.yul\":5010:5339   */\n    tag_21:\n        /* \"#utility.yul\":5069:5075   */\n      0x00\n        /* \"#utility.yul\":5118:5120   */\n      0x20\n        /* \"#utility.yul\":5106:5115   */\n      dup3\n        /* \"#utility.yul\":5097:5104   */\n      dup5\n        /* \"#utility.yul\":5093:5116   */\n      sub\n        /* \"#utility.yul\":5089:5121   */\n      slt\n        /* \"#utility.yul\":5086:5205   */\n      iszero\n      tag_136\n      jumpi\n        /* \"#utility.yul\":5124:5203   */\n      tag_137\n      tag_39\n      jump\t// in\n    tag_137:\n        /* \"#utility.yul\":5086:5205   */\n    tag_136:\n        /* \"#utility.yul\":5244:5245   */\n      0x00\n        /* \"#utility.yul\":5269:5322   */\n      tag_138\n        /* \"#utility.yul\":5314:5321   */\n      dup5\n        /* \"#utility.yul\":5305:5311   */\n      dup3\n        /* \"#utility.yul\":5294:5303   */\n      dup6\n        /* \"#utility.yul\":5290:5312   */\n      add\n        /* \"#utility.yul\":5269:5322   */\n      tag_58\n      jump\t// in\n    tag_138:\n        /* \"#utility.yul\":5259:5322   */\n      swap2\n      pop\n        /* \"#utility.yul\":5215:5332   */\n      pop\n        /* \"#utility.yul\":5010:5339   */\n      swap3\n      swap2\n      pop\n      pop\n      jump\t// out\n        /* \"#utility.yul\":5345:5768   */\n    tag_24:\n        /* \"#utility.yul\":5486:5490   */\n      0x00\n        /* \"#utility.yul\":5524:5526   */\n      0x40\n        /* \"#utility.yul\":5513:5522   */\n      dup3\n        /* \"#utility.yul\":5509:5527   */\n      add\n        /* \"#utility.yul\":5501:5527   */\n      swap1\n      pop\n        /* \"#utility.yul\":5537:5608   */\n      tag_140\n        /* \"#utility.yul\":5605:5606   */\n      0x00\n        /* \"#utility.yul\":5594:5603   */\n      dup4\n        /* \"#utility.yul\":5590:5607   */\n      add\n        /* \"#utility.yul\":5581:5587   */\n      dup6\n        /* \"#utility.yul\":5537:5608   */\n      tag_56\n      jump\t// in\n    tag_140:\n        /* \"#utility.yul\":5655:5664   */\n      dup2\n        /* \"#utility.yul\":5649:5653   */\n      dup2\n        /* \"#utility.yul\":5645:5665   */\n      sub\n        /* \"#utility.yul\":5640:5642   */\n      0x20\n        /* \"#utility.yul\":5629:5638   */\n      dup4\n        /* \"#utility.yul\":5625:5643   */\n      add\n        /* \"#utility.yul\":5618:5666   */\n      mstore\n        /* \"#utility.yul\":5683:5761   */\n      tag_141\n        /* \"#utility.yul\":5756:5760   */\n      dup2\n        /* \"#utility.yul\":5747:5753   */\n      dup5\n        /* \"#utility.yul\":5683:5761   */\n      tag_54\n      jump\t// in\n    tag_141:\n        /* \"#utility.yul\":5675:5761   */\n      swap1\n      pop\n        /* \"#utility.yul\":5345:5768   */\n      swap4\n      swap3\n      pop\n      pop\n      pop\n      jump\t// out\n        /* \"#utility.yul\":5774:5954   */\n    tag_59:\n        /* \"#utility.yul\":5822:5899   */\n      0x4e487b7100000000000000000000000000000000000000000000000000000000\n        /* \"#utility.yul\":5819:5820   */\n      0x00\n        /* \"#utility.yul\":5812:5900   */\n      mstore\n        /* \"#utility.yul\":5919:5923   */\n      0x11\n        /* \"#utility.yul\":5916:5917   */\n      0x04\n        /* \"#utility.yul\":5909:5924   */\n      mstore\n        /* \"#utility.yul\":5943:5947   */\n      0x24\n        /* \"#utility.yul\":5940:5941   */\n      0x00\n        /* \"#utility.yul\":5933:5948   */\n      revert\n        /* \"#utility.yul\":5960:6151   */\n    tag_27:\n        /* \"#utility.yul\":6000:6003   */\n      0x00\n        /* \"#utility.yul\":6019:6039   */\n      tag_144\n        /* \"#utility.yul\":6037:6038   */\n      dup3\n        /* \"#utility.yul\":6019:6039   */\n      tag_55\n      jump\t// in\n    tag_144:\n        /* \"#utility.yul\":6014:6039   */\n      swap2\n      pop\n        /* \"#utility.yul\":6053:6073   */\n      tag_145\n        /* \"#utility.yul\":6071:6072   */\n      dup4\n        /* \"#utility.yul\":6053:6073   */\n      tag_55\n      jump\t// in\n    tag_145:\n        /* \"#utility.yul\":6048:6073   */\n      swap3\n      pop\n        /* \"#utility.yul\":6096:6097   */\n      dup3\n        /* \"#utility.yul\":6093:6094   */\n      dup3\n        /* \"#utility.yul\":6089:6098   */\n      add\n        /* \"#utility.yul\":6082:6098   */\n      swap1\n      pop\n        /* \"#utility.yul\":6117:6120   */\n      dup1\n        /* \"#utility.yul\":6114:6115   */\n      dup3\n        /* \"#utility.yul\":6111:6121   */\n      gt\n        /* \"#utility.yul\":6108:6144   */\n      iszero\n      tag_146\n      jumpi\n        /* \"#utility.yul\":6124:6142   */\n      tag_147\n      tag_59\n      jump\t// in\n    tag_147:\n        /* \"#utility.yul\":6108:6144   */\n    tag_146:\n        /* \"#utility.yul\":5960:6151   */\n      swap3\n      swap2\n      pop\n      pop\n      jump\t// out\n        /* \"#utility.yul\":6157:6337   */\n    tag_60:\n        /* \"#utility.yul\":6205:6282   */\n      0x4e487b7100000000000000000000000000000000000000000000000000000000\n        /* \"#utility.yul\":6202:6203   */\n      0x00\n        /* \"#utility.yul\":6195:6283   */\n      mstore\n        /* \"#utility.yul\":6302:6306   */\n      0x22\n        /* \"#utility.yul\":6299:6300   */\n      0x04\n        /* \"#utility.yul\":6292:6307   */\n      mstore\n        /* \"#utility.yul\":6326:6330   */\n      0x24\n        /* \"#utility.yul\":6323:6324   */\n      0x00\n        /* \"#utility.yul\":6316:6331   */\n      revert\n        /* \"#utility.yul\":6343:6663   */\n    tag_33:\n        /* \"#utility.yul\":6387:6393   */\n      0x00\n        /* \"#utility.yul\":6424:6425   */\n      0x02\n        /* \"#utility.yul\":6418:6422   */\n      dup3\n        /* \"#utility.yul\":6414:6426   */\n      div\n        /* \"#utility.yul\":6404:6426   */\n      swap1\n      pop\n        /* \"#utility.yul\":6471:6472   */\n      0x01\n        /* \"#utility.yul\":6465:6469   */\n      dup3\n        /* \"#utility.yul\":6461:6473   */\n      and\n        /* \"#utility.yul\":6492:6510   */\n      dup1\n        /* \"#utility.yul\":6482:6563   */\n      tag_150\n      jumpi\n        /* \"#utility.yul\":6548:6552   */\n      0x7f\n        /* \"#utility.yul\":6540:6546   */\n      dup3\n        /* \"#utility.yul\":6536:6553   */\n      and\n        /* \"#utility.yul\":6526:6553   */\n      swap2\n      pop\n        /* \"#utility.yul\":6482:6563   */\n    tag_150:\n        /* \"#utility.yul\":6610:6612   */\n      0x20\n        /* \"#utility.yul\":6602:6608   */\n      dup3\n        /* \"#utility.yul\":6599:6613   */\n      lt\n        /* \"#utility.yul\":6579:6597   */\n      dup2\n        /* \"#utility.yul\":6576:6614   */\n      sub\n        /* \"#utility.yul\":6573:6657   */\n      tag_151\n      jumpi\n        /* \"#utility.yul\":6629:6647   */\n      tag_152\n      tag_60\n      jump\t// in\n    tag_152:\n        /* \"#utility.yul\":6573:6657   */\n    tag_151:\n        /* \"#utility.yul\":6394:6663   */\n      pop\n        /* \"#utility.yul\":6343:6663   */\n      swap2\n      swap1\n      pop\n      jump\t// out\n        /* \"#utility.yul\":6669:6810   */\n    tag_61:\n        /* \"#utility.yul\":6718:6722   */\n      0x00\n        /* \"#utility.yul\":6741:6744   */\n      dup2\n        /* \"#utility.yul\":6733:6744   */\n      swap1\n      pop\n        /* \"#utility.yul\":6764:6767   */\n      dup2\n        /* \"#utility.yul\":6761:6762   */\n      0x00\n        /* \"#utility.yul\":6754:6768   */\n      mstore\n        /* \"#utility.yul\":6798:6802   */\n      0x20\n        /* \"#utility.yul\":6795:6796   */\n      0x00\n        /* \"#utility.yul\":6785:6803   */\n      keccak256\n        /* \"#utility.yul\":6777:6803   */\n      swap1\n      pop\n        /* \"#utility.yul\":6669:6810   */\n      swap2\n      swap1\n      pop\n      jump\t// out\n        /* \"#utility.yul\":6816:6909   */\n    tag_62:\n        /* \"#utility.yul\":6853:6859   */\n      0x00\n        /* \"#utility.yul\":6900:6902   */\n      0x20\n        /* \"#utility.yul\":6895:6897   */\n      0x1f\n        /* \"#utility.yul\":6888:6893   */\n      dup4\n        /* \"#utility.yul\":6884:6898   */\n      add\n        /* \"#utility.yul\":6880:6903   */\n      div\n        /* \"#utility.yul\":6870:6903   */\n      swap1\n      pop\n        /* \"#utility.yul\":6816:6909   */\n      swap2\n      swap1\n      pop\n      jump\t// out\n        /* \"#utility.yul\":6915:7022   */\n    tag_63:\n        /* \"#utility.yul\":6959:6967   */\n      0x00\n        /* \"#utility.yul\":7009:7014   */\n      dup3\n        /* \"#utility.yul\":7003:7007   */\n      dup3\n        /* \"#utility.yul\":6999:7015   */\n      shl\n        /* \"#utility.yul\":6978:7015   */\n      swap1\n      pop\n        /* \"#utility.yul\":6915:7022   */\n      swap3\n      swap2\n      pop\n      pop\n      jump\t// out\n        /* \"#utility.yul\":7028:7421   */\n    tag_64:\n        /* \"#utility.yul\":7097:7103   */\n      0x00\n        /* \"#utility.yul\":7147:7148   */\n      0x08\n        /* \"#utility.yul\":7135:7145   */\n      dup4\n        /* \"#utility.yul\":7131:7149   */\n      mul\n        /* \"#utility.yul\":7170:7267   */\n      tag_157\n        /* \"#utility.yul\":7200:7266   */\n      0xffffffffffffffffffffffffffffffffffffffffffffffffffffffffffffffff\n        /* \"#utility.yul\":7189:7198   */\n      dup3\n        /* \"#utility.yul\":7170:7267   */\n      tag_63\n      jump\t// in\n    tag_157:\n        /* \"#utility.yul\":7288:7327   */\n      tag_158\n        /* \"#utility.yul\":7318:7326   */\n      dup7\n        /* \"#utility.yul\":7307:7316   */\n      dup4\n        /* \"#utility.yul\":7288:7327   */\n      tag_63\n      jump\t// in\n    tag_158:\n        /* \"#utility.yul\":7276:7327   */\n      swap6\n      pop\n        /* \"#utility.yul\":7360:7364   */\n      dup1\n        /* \"#utility.yul\":7356:7365   */\n      not\n        /* \"#utility.yul\":7349:7354   */\n      dup5\n        /* \"#utility.yul\":7345:7366   */\n      and\n        /* \"#utility.yul\":7336:7366   */\n      swap4\n      pop\n        /* \"#utility.yul\":7409:7413   */\n      dup1\n        /* \"#utility.yul\":7399:7407   */\n      dup7\n        /* \"#utility.yul\":7395:7414   */\n      and\n        /* \"#utility.yul\":7388:7393   */\n      dup5\n        /* \"#utility.yul\":7385:7415   */\n      or\n        /* \"#utility.yul\":7375:7415   */\n      swap3\n      pop\n        /* \"#utility.yul\":7104:7421   */\n      pop\n      pop\n        /* \"#utility.yul\":7028:7421   */\n      swap4\n      swap3\n      pop\n      pop\n      pop\n      jump\t// out\n        /* \"#utility.yul\":7427:7487   */\n    tag_65:\n        /* \"#utility.yul\":7455:7458   */\n      0x00\n        /* \"#utility.yul\":7476:7481   */\n      dup2\n        /* \"#utility.yul\":7469:7481   */\n      swap1\n      pop\n        /* \"#utility.yul\":7427:7487   */\n      swap2\n      swap1\n      pop\n      jump\t// out\n        /* \"#utility.yul\":7493:7635   */\n    tag_66:\n        /* \"#utility.yul\":7543:7552   */\n      0x00\n        /* \"#utility.yul\":7576:7629   */\n      tag_161\n        /* \"#utility.yul\":7594:7628   */\n      tag_162\n        /* \"#utility.yul\":7603:7627   */\n      tag_163\n        /* \"#utility.yul\":7621:7626   */\n      dup5\n        /* \"#utility.yul\":7603:7627   */\n      tag_55\n      jump\t// in\n    tag_163:\n        /* \"#utility.yul\":7594:7628   */\n      tag_65\n      jump\t// in\n    tag_162:\n        /* \"#utility.yul\":7576:7629   */\n      tag_55\n      jump\t// in\n    tag_161:\n        /* \"#utility.yul\":7563:7629   */\n      swap1\n      pop\n        /* \"#utility.yul\":7493:7635   */\n      swap2\n      swap1\n      pop\n      jump\t// out\n        /* \"#utility.yul\":7641:7716   */\n    tag_67:\n        /* \"#utility.yul\":7684:7687   */\n      0x00\n        /* \"#utility.yul\":7705:7710   */\n      dup2\n        /* \"#utility.yul\":7698:7710   */\n      swap1\n      pop\n        /* \"#utility.yul\":7641:7716   */\n      swap2\n      swap1\n      pop\n      jump\t// out\n        /* \"#utility.yul\":7722:7991   */\n    tag_68:\n        /* \"#utility.yul\":7832:7871   */\n      tag_166\n        /* \"#utility.yul\":7863:7870   */\n      dup4\n        /* \"#utility.yul\":7832:7871   */\n      tag_66\n      jump\t// in\n    tag_166:\n        /* \"#utility.yul\":7893:7984   */\n      tag_167\n        /* \"#utility.yul\":7942:7983   */\n      tag_168\n        /* \"#utility.yul\":7966:7982   */\n      dup3\n        /* \"#utility.yul\":7942:7983   */\n      tag_67\n      jump\t// in\n    tag_168:\n        /* \"#utility.yul\":7934:7940   */\n      dup5\n        /* \"#utility.yul\":7927:7931   */\n      dup5\n        /* \"#utility.yul\":7921:7932   */\n      sload\n        /* \"#utility.yul\":7893:7984   */\n      tag_64\n      jump\t// in\n    tag_167:\n        /* \"#utility.yul\":7887:7891   */\n      dup3\n        /* \"#utility.yul\":7880:7985   */\n      sstore\n        /* \"#utility.yul\":7798:7991   */\n      pop\n        /* \"#utility.yul\":7722:7991   */\n      pop\n      pop\n      pop\n      jump\t// out\n        /* \"#utility.yul\":7997:8070   */\n    tag_69:\n        /* \"#utility.yul\":8042:8045   */\n      0x00\n        /* \"#utility.yul\":7997:8070   */\n      swap1\n      jump\t// out\n        /* \"#utility.yul\":8076:8265   */\n    tag_70:\n        /* \"#utility.yul\":8153:8185   */\n      tag_171\n      tag_69\n      jump\t// in\n    tag_171:\n        /* \"#utility.yul\":8194:8259   */\n      tag_172\n        /* \"#utility.yul\":8252:8258   */\n      dup2\n        /* \"#utility.yul\":8244:8250   */\n      dup5\n        /* \"#utility.yul\":8238:8242   */\n      dup5\n        /* \"#utility.yul\":8194:8259   */\n      tag_68\n      jump\t// in\n    tag_172:\n        /* \"#utility.yul\":8129:8265   */\n      pop\n        /* \"#utility.yul\":8076:8265   */\n      pop\n      pop\n      jump\t// out\n        /* \"#utility.yul\":8271:8457   */\n    tag_71:\n        /* \"#utility.yul\":8331:8451   */\n    tag_174:\n        /* \"#utility.yul\":8348:8351   */\n      dup2\n        /* \"#utility.yul\":8341:8346   */\n      dup2\n        /* \"#utility.yul\":8338:8352   */\n      lt\n        /* \"#utility.yul\":8331:8451   */\n      iszero\n      tag_176\n      jumpi\n        /* \"#utility.yul\":8402:8441   */\n      tag_177\n        /* \"#utility.yul\":8439:8440   */\n      0x00\n        /* \"#utility.yul\":8432:8437   */\n      dup3\n        /* \"#utility.yul\":8402:8441   */\n      tag_70\n      jump\t// in\n    tag_177:\n        /* \"#utility.yul\":8375:8376   */\n      0x01\n        /* \"#utility.yul\":8368:8373   */\n      dup2\n        /* \"#utility.yul\":8364:8377   */\n      add\n        /* \"#utility.yul\":8355:8377   */\n      swap1\n      pop\n        /* \"#utility.yul\":8331:8451   */\n      jump(tag_174)\n    tag_176:\n        /* \"#utility.yul\":8271:8457   */\n      pop\n      pop\n      jump\t// out\n        /* \"#utility.yul\":8463:9006   */\n    tag_72:\n        /* \"#utility.yul\":8564:8566   */\n      0x1f\n        /* \"#utility.yul\":8559:8562   */\n      dup3\n        /* \"#utility.yul\":8556:8567   */\n      gt\n        /* \"#utility.yul\":8553:8999   */\n      iszero\n      tag_179\n      jumpi\n        /* \"#utility.yul\":8598:8636   */\n      tag_180\n        /* \"#utility.yul\":8630:8635   */\n      dup2\n        /* \"#utility.yul\":8598:8636   */\n      tag_61\n      jump\t// in\n    tag_180:\n        /* \"#utility.yul\":8682:8711   */\n      tag_181\n        /* \"#utility.yul\":8700:8710   */\n      dup5\n        /* \"#utility.yul\":8682:8711   */\n      tag_62\n      jump\t// in\n    tag_181:\n        /* \"#utility.yul\":8672:8680   */\n      dup2\n        /* \"#utility.yul\":8668:8712   */\n      add\n        /* \"#utility.yul\":8865:8867   */\n      0x20\n        /* \"#utility.yul\":8853:8863   */\n      dup6\n        /* \"#utility.yul\":8850:8868   */\n      lt\n        /* \"#utility.yul\":8847:8896   */\n      iszero\n      tag_182\n      jumpi\n        /* \"#utility.yul\":8886:8894   */\n      dup2\n        /* \"#utility.yul\":8871:8894   */\n      swap1\n      pop\n        /* \"#utility.yul\":8847:8896   */\n    tag_182:\n        /* \"#utility.yul\":8909:8989   */\n      tag_183\n        /* \"#utility.yul\":8965:8987   */\n      tag_184\n        /* \"#utility.yul\":8983:8986   */\n      dup6\n        /* \"#utility.yul\":8965:8987   */\n      tag_62\n      jump\t// in\n    tag_184:\n        /* \"#utility.yul\":8955:8963   */\n      dup4\n        /* \"#utility.yul\":8951:8988   */\n      add\n        /* \"#utility.yul\":8938:8949   */\n      dup3\n        /* \"#utility.yul\":8909:8989   */\n      tag_71\n      jump\t// in\n    tag_183:\n        /* \"#utility.yul\":8568:8999   */\n      pop\n      pop\n        /* \"#utility.yul\":8553:8999   */\n    tag_179:\n        /* \"#utility.yul\":8463:9006   */\n      pop\n      pop\n      pop\n      jump\t// out\n        /* \"#utility.yul\":9012:9129   */\n    tag_73:\n        /* \"#utility.yul\":9066:9074   */\n      0x00\n        /* \"#utility.yul\":9116:9121   */\n      dup3\n        /* \"#utility.yul\":9110:9114   */\n      dup3\n        /* \"#utility.yul\":9106:9122   */\n      shr\n        /* \"#utility.yul\":9085:9122   */\n      swap1\n      pop\n        /* \"#utility.yul\":9012:9129   */\n      swap3\n      swap2\n      pop\n      pop\n      jump\t// out\n        /* \"#utility.yul\":9135:9304   */\n    tag_74:\n        /* \"#utility.yul\":9179:9185   */\n      0x00\n        /* \"#utility.yul\":9212:9263   */\n      tag_187\n        /* \"#utility.yul\":9260:9261   */\n      0x00\n        /* \"#utility.yul\":9256:9262   */\n      not\n        /* \"#utility.yul\":9248:9253   */\n      dup5\n        /* \"#utility.yul\":9245:9246   */\n      0x08\n        /* \"#utility.yul\":9241:9254   */\n      mul\n        /* \"#utility.yul\":9212:9263   */\n      tag_73\n      jump\t// in\n    tag_187:\n        /* \"#utility.yul\":9208:9264   */\n      not\n        /* \"#utility.yul\":9293:9297   */\n      dup1\n        /* \"#utility.yul\":9287:9291   */\n      dup4\n        /* \"#utility.yul\":9283:9298   */\n      and\n        /* \"#utility.yul\":9273:9298   */\n      swap2\n      pop\n        /* \"#utility.yul\":9186:9304   */\n      pop\n        /* \"#utility.yul\":9135:9304   */\n      swap3\n      swap2\n      pop\n      pop\n      jump\t// out\n        /* \"#utility.yul\":9309:9604   */\n    tag_75:\n        /* \"#utility.yul\":9385:9389   */\n      0x00\n        /* \"#utility.yul\":9531:9560   */\n      tag_189\n        /* \"#utility.yul\":9556:9559   */\n      dup4\n        /* \"#utility.yul\":9550:9554   */\n      dup4\n        /* \"#utility.yul\":9531:9560   */\n      tag_74\n      jump\t// in\n    tag_189:\n        /* \"#utility.yul\":9523:9560   */\n      swap2\n      pop\n        /* \"#utility.yul\":9593:9596   */\n      dup3\n        /* \"#utility.yul\":9590:9591   */\n      0x02\n        /* \"#utility.yul\":9586:9597   */\n      mul\n        /* \"#utility.yul\":9580:9584   */\n      dup3\n        /* \"#utility.yul\":9577:9598   */\n      or\n        /* \"#utility.yul\":9569:9598   */\n      swap1\n      pop\n        /* \"#utility.yul\":9309:9604   */\n      swap3\n      swap2\n      pop\n      pop\n      jump\t// out\n        /* \"#utility.yul\":9609:11004   */\n    tag_29:\n        /* \"#utility.yul\":9726:9763   */\n      tag_191\n        /* \"#utility.yul\":9759:9762   */\n      dup3\n        /* \"#utility.yul\":9726:9763   */\n      tag_51\n      jump\t// in\n    tag_191:\n        /* \"#utility.yul\":9828:9846   */\n      0xffffffffffffffff\n        /* \"#utility.yul\":9820:9826   */\n      dup2\n        /* \"#utility.yul\":9817:9847   */\n      gt\n        /* \"#utility.yul\":9814:9870   */\n      iszero\n      tag_192\n      jumpi\n        /* \"#utility.yul\":9850:9868   */\n      tag_193\n      tag_44\n      jump\t// in\n    tag_193:\n        /* \"#utility.yul\":9814:9870   */\n    tag_192:\n        /* \"#utility.yul\":9894:9932   */\n      tag_194\n        /* \"#utility.yul\":9926:9930   */\n      dup3\n        /* \"#utility.yul\":9920:9931   */\n      sload\n        /* \"#utility.yul\":9894:9932   */\n      tag_33\n      jump\t// in\n    tag_194:\n        /* \"#utility.yul\":9979:10046   */\n      tag_195\n        /* \"#utility.yul\":10039:10045   */\n      dup3\n        /* \"#utility.yul\":10031:10037   */\n      dup3\n        /* \"#utility.yul\":10025:10029   */\n      dup6\n        /* \"#utility.yul\":9979:10046   */\n      tag_72\n      jump\t// in\n    tag_195:\n        /* \"#utility.yul\":10073:10074   */\n      0x00\n        /* \"#utility.yul\":10097:10101   */\n      0x20\n        /* \"#utility.yul\":10084:10101   */\n      swap1\n      pop\n        /* \"#utility.yul\":10129:10131   */\n      0x1f\n        /* \"#utility.yul\":10121:10127   */\n      dup4\n        /* \"#utility.yul\":10118:10132   */\n      gt\n        /* \"#utility.yul\":10146:10147   */\n      0x01\n        /* \"#utility.yul\":10141:10759   */\n      dup2\n      eq\n      tag_197\n      jumpi\n        /* \"#utility.yul\":10803:10804   */\n      0x00\n        /* \"#utility.yul\":10820:10826   */\n      dup5\n        /* \"#utility.yul\":10817:10894   */\n      iszero\n      tag_198\n      jumpi\n        /* \"#utility.yul\":10869:10878   */\n      dup3\n        /* \"#utility.yul\":10864:10867   */\n      dup8\n        /* \"#utility.yul\":10860:10879   */\n      add\n        /* \"#utility.yul\":10854:10880   */\n      mload\n        /* \"#utility.yul\":10845:10880   */\n      swap1\n      pop\n        /* \"#utility.yul\":10817:10894   */\n    tag_198:\n        /* \"#utility.yul\":10920:10987   */\n      tag_199\n        /* \"#utility.yul\":10980:10986   */\n      dup6\n        /* \"#utility.yul\":10973:10978   */\n      dup3\n        /* \"#utility.yul\":10920:10987   */\n      tag_75\n      jump\t// in\n    tag_199:\n        /* \"#utility.yul\":10914:10918   */\n      dup7\n        /* \"#utility.yul\":10907:10988   */\n      sstore\n        /* \"#utility.yul\":10776:10998   */\n      pop\n        /* \"#utility.yul\":10111:10998   */\n      jump(tag_196)\n        /* \"#utility.yul\":10141:10759   */\n    tag_197:\n        /* \"#utility.yul\":10193:10197   */\n      0x1f\n        /* \"#utility.yul\":10189:10198   */\n      not\n        /* \"#utility.yul\":10181:10187   */\n      dup5\n        /* \"#utility.yul\":10177:10199   */\n      and\n        /* \"#utility.yul\":10227:10264   */\n      tag_200\n        /* \"#utility.yul\":10259:10263   */\n      dup7\n        /* \"#utility.yul\":10227:10264   */\n      tag_61\n      jump\t// in\n    tag_200:\n        /* \"#utility.yul\":10286:10287   */\n      0x00\n        /* \"#utility.yul\":10300:10508   */\n    tag_201:\n        /* \"#utility.yul\":10314:10321   */\n      dup3\n        /* \"#utility.yul\":10311:10312   */\n      dup2\n        /* \"#utility.yul\":10308:10322   */\n      lt\n        /* \"#utility.yul\":10300:10508   */\n      iszero\n      tag_203\n      jumpi\n        /* \"#utility.yul\":10393:10402   */\n      dup5\n        /* \"#utility.yul\":10388:10391   */\n      dup10\n        /* \"#utility.yul\":10384:10403   */\n      add\n        /* \"#utility.yul\":10378:10404   */\n      mload\n        /* \"#utility.yul\":10370:10376   */\n      dup3\n        /* \"#utility.yul\":10363:10405   */\n      sstore\n        /* \"#utility.yul\":10444:10445   */\n      0x01\n        /* \"#utility.yul\":10436:10442   */\n      dup3\n        /* \"#utility.yul\":10432:10446   */\n      add\n        /* \"#utility.yul\":10422:10446   */\n      swap2\n      pop\n        /* \"#utility.yul\":10491:10493   */\n      0x20\n        /* \"#utility.yul\":10480:10489   */\n      dup6\n        /* \"#utility.yul\":10476:10494   */\n      add\n        /* \"#utility.yul\":10463:10494   */\n      swap5\n      pop\n        /* \"#utility.yul\":10337:10341   */\n      0x20\n        /* \"#utility.yul\":10334:10335   */\n      dup2\n        /* \"#utility.yul\":10330:10342   */\n      add\n        /* \"#utility.yul\":10325:10342   */\n      swap1\n      pop\n        /* \"#utility.yul\":10300:10508   */\n      jump(tag_201)\n    tag_203:\n        /* \"#utility.yul\":10536:10542   */\n      dup7\n        /* \"#utility.yul\":10527:10534   */\n      dup4\n        /* \"#utility.yul\":10524:10543   */\n      lt\n        /* \"#utility.yul\":10521:10700   */\n      iszero\n      tag_204\n      jumpi\n        /* \"#utility.yul\":10594:10603   */\n      dup5\n        /* \"#utility.yul\":10589:10592   */\n      dup10\n        /* \"#utility.yul\":10585:10604   */\n      add\n        /* \"#utility.yul\":10579:10605   */\n      mload\n        /* \"#utility.yul\":10637:10685   */\n      tag_205\n        /* \"#utility.yul\":10679:10683   */\n      0x1f\n        /* \"#utility.yul\":10671:10677   */\n      dup10\n        /* \"#utility.yul\":10667:10684   */\n      and\n        /* \"#utility.yul\":10656:10665   */\n      dup3\n        /* \"#utility.yul\":10637:10685   */\n      tag_74\n      jump\t// in\n    tag_205:\n        /* \"#utility.yul\":10629:10635   */\n      dup4\n        /* \"#utility.yul\":10622:10686   */\n      sstore\n        /* \"#utility.yul\":10544:10700   */\n      pop\n        /* \"#utility.yul\":10521:10700   */\n    tag_204:\n        /* \"#utility.yul\":10746:10747   */\n      0x01\n        /* \"#utility.yul\":10742:10743   */\n      0x02\n        /* \"#utility.yul\":10734:10740   */\n      dup9\n        /* \"#utility.yul\":10730:10744   */\n      mul\n        /* \"#utility.yul\":10726:10748   */\n      add\n        /* \"#utility.yul\":10720:10724   */\n      dup9\n        /* \"#utility.yul\":10713:10749   */\n      sstore\n        /* \"#utility.yul\":10148:10759   */\n      pop\n      pop\n      pop\n        /* \"#utility.yul\":10111:10998   */\n    tag_196:\n      pop\n        /* \"#utility.yul\":9701:11004   */\n      pop\n      pop\n      pop\n        /* \"#utility.yul\":9609:11004   */\n      pop\n      pop\n      jump\t// out\n    stop\n    data_b74f1fcf72739bdf1f9d4206912981749c137c73165f18de0d5858ef7753f8ed 4d696e6520697320776f726b696e6720776974682031303025206163637572616379\n\n    auxdata: 0xa2646970667358221220b0b743f50a380a147a15c08aa375c385faf387e1f9401c2672445e110788783f64736f6c63430008160033\n}\n",
				"bytecode": {
					"linkReferences": {},
					"object": "60806040525f600155348015610013575f80fd5b50610881806100215f395ff3fe608060405234801561000f575f80fd5b506004361061004a575f3560e01c8063051baa6f1461004e5780633b7104f21461006a57806361bc221a146100885780637f7b1393146100a6575b5f80fd5b6100686004803603810190610063919061036b565b6100d7565b005b61007261013c565b60405161007f919061042c565b60405180910390f35b61009061015c565b60405161009d9190610464565b60405180910390f35b6100c060048036038101906100bb91906104a7565b610162565b6040516100ce9291906104d2565b60405180910390f35b6001805f8282546100e8919061052d565b9250508190555060405180604001604052806001548152602001828152505f8060015481526020019081526020015f205f820151815f01556020820151816001019081610135919061075a565b5090505050565b606060405180606001604052806022815260200161082a60229139905090565b60015481565b5f60605f808481526020019081526020015f205f01545f808581526020019081526020015f206001018080546101979061058d565b80601f01602080910402602001604051908101604052809291908181526020018280546101c39061058d565b801561020e5780601f106101e55761010080835404028352916020019161020e565b820191905f5260205f20905b8154815290600101906020018083116101f157829003601f168201915b5050505050905091509150915091565b5f604051905090565b5f80fd5b5f80fd5b5f80fd5b5f80fd5b5f601f19601f8301169050919050565b7f4e487b71000000000000000000000000000000000000000000000000000000005f52604160045260245ffd5b61027d82610237565b810181811067ffffffffffffffff8211171561029c5761029b610247565b5b80604052505050565b5f6102ae61021e565b90506102ba8282610274565b919050565b5f67ffffffffffffffff8211156102d9576102d8610247565b5b6102e282610237565b9050602081019050919050565b828183375f83830152505050565b5f61030f61030a846102bf565b6102a5565b90508281526020810184848401111561032b5761032a610233565b5b6103368482856102ef565b509392505050565b5f82601f8301126103525761035161022f565b5b81356103628482602086016102fd565b91505092915050565b5f602082840312156103805761037f610227565b5b5f82013567ffffffffffffffff81111561039d5761039c61022b565b5b6103a98482850161033e565b91505092915050565b5f81519050919050565b5f82825260208201905092915050565b5f5b838110156103e95780820151818401526020810190506103ce565b5f8484015250505050565b5f6103fe826103b2565b61040881856103bc565b93506104188185602086016103cc565b61042181610237565b840191505092915050565b5f6020820190508181035f83015261044481846103f4565b905092915050565b5f819050919050565b61045e8161044c565b82525050565b5f6020820190506104775f830184610455565b92915050565b6104868161044c565b8114610490575f80fd5b50565b5f813590506104a18161047d565b92915050565b5f602082840312156104bc576104bb610227565b5b5f6104c984828501610493565b91505092915050565b5f6040820190506104e55f830185610455565b81810360208301526104f781846103f4565b90509392505050565b7f4e487b71000000000000000000000000000000000000000000000000000000005f52601160045260245ffd5b5f6105378261044c565b91506105428361044c565b925082820190508082111561055a57610559610500565b5b92915050565b7f4e487b71000000000000000000000000000000000000000000000000000000005f52602260045260245ffd5b5f60028204905060018216806105a457607f821691505b6020821081036105b7576105b6610560565b5b50919050565b5f819050815f5260205f209050919050565b5f6020601f8301049050919050565b5f82821b905092915050565b5f600883026106197fffffffffffffffffffffffffffffffffffffffffffffffffffffffffffffffff826105de565b61062386836105de565b95508019841693508086168417925050509392505050565b5f819050919050565b5f61065e6106596106548461044c565b61063b565b61044c565b9050919050565b5f819050919050565b61067783610644565b61068b61068382610665565b8484546105ea565b825550505050565b5f90565b61069f610693565b6106aa81848461066e565b505050565b5b818110156106cd576106c25f82610697565b6001810190506106b0565b5050565b601f821115610712576106e3816105bd565b6106ec846105cf565b810160208510156106fb578190505b61070f610707856105cf565b8301826106af565b50505b505050565b5f82821c905092915050565b5f6107325f1984600802610717565b1980831691505092915050565b5f61074a8383610723565b9150826002028217905092915050565b610763826103b2565b67ffffffffffffffff81111561077c5761077b610247565b5b610786825461058d565b6107918282856106d1565b5f60209050601f8311600181146107c2575f84156107b0578287015190505b6107ba858261073f565b865550610821565b601f1984166107d0866105bd565b5f5b828110156107f7578489015182556001820191506020850194506020810190506107d2565b868310156108145784890151610810601f891682610723565b8355505b6001600288020188555050505b50505050505056fe4d696e6520697320776f726b696e6720776974682031303025206163637572616379a2646970667358221220b0b743f50a380a147a15c08aa375c385faf387e1f9401c2672445e110788783f64736f6c63430008160033",
					"opcodes": "PUSH1 0x80 PUSH1 0x40 MSTORE PUSH0 PUSH1 0x1 SSTORE CALLVALUE DUP1 ISZERO PUSH2 0x13 JUMPI PUSH0 DUP1 REVERT JUMPDEST POP PUSH2 0x881 DUP1 PUSH2 0x21 PUSH0 CODECOPY PUSH0 RETURN INVALID PUSH1 0x80 PUSH1 0x40 MSTORE CALLVALUE DUP1 ISZERO PUSH2 0xF JUMPI PUSH0 DUP1 REVERT JUMPDEST POP PUSH1 0x4 CALLDATASIZE LT PUSH2 0x4A JUMPI PUSH0 CALLDATALOAD PUSH1 0xE0 SHR DUP1 PUSH4 0x51BAA6F EQ PUSH2 0x4E JUMPI DUP1 PUSH4 0x3B7104F2 EQ PUSH2 0x6A JUMPI DUP1 PUSH4 0x61BC221A EQ PUSH2 0x88 JUMPI DUP1 PUSH4 0x7F7B1393 EQ PUSH2 0xA6 JUMPI JUMPDEST PUSH0 DUP1 REVERT JUMPDEST PUSH2 0x68 PUSH1 0x4 DUP1 CALLDATASIZE SUB DUP2 ADD SWAP1 PUSH2 0x63 SWAP2 SWAP1 PUSH2 0x36B JUMP JUMPDEST PUSH2 0xD7 JUMP JUMPDEST STOP JUMPDEST PUSH2 0x72 PUSH2 0x13C JUMP JUMPDEST PUSH1 0x40 MLOAD PUSH2 0x7F SWAP2 SWAP1 PUSH2 0x42C JUMP JUMPDEST PUSH1 0x40 MLOAD DUP1 SWAP2 SUB SWAP1 RETURN JUMPDEST PUSH2 0x90 PUSH2 0x15C JUMP JUMPDEST PUSH1 0x40 MLOAD PUSH2 0x9D SWAP2 SWAP1 PUSH2 0x464 JUMP JUMPDEST PUSH1 0x40 MLOAD DUP1 SWAP2 SUB SWAP1 RETURN JUMPDEST PUSH2 0xC0 PUSH1 0x4 DUP1 CALLDATASIZE SUB DUP2 ADD SWAP1 PUSH2 0xBB SWAP2 SWAP1 PUSH2 0x4A7 JUMP JUMPDEST PUSH2 0x162 JUMP JUMPDEST PUSH1 0x40 MLOAD PUSH2 0xCE SWAP3 SWAP2 SWAP1 PUSH2 0x4D2 JUMP JUMPDEST PUSH1 0x40 MLOAD DUP1 SWAP2 SUB SWAP1 RETURN JUMPDEST PUSH1 0x1 DUP1 PUSH0 DUP3 DUP3 SLOAD PUSH2 0xE8 SWAP2 SWAP1 PUSH2 0x52D JUMP JUMPDEST SWAP3 POP POP DUP2 SWAP1 SSTORE POP PUSH1 0x40 MLOAD DUP1 PUSH1 0x40 ADD PUSH1 0x40 MSTORE DUP1 PUSH1 0x1 SLOAD DUP2 MSTORE PUSH1 0x20 ADD DUP3 DUP2 MSTORE POP PUSH0 DUP1 PUSH1 0x1 SLOAD DUP2 MSTORE PUSH1 0x20 ADD SWAP1 DUP2 MSTORE PUSH1 0x20 ADD PUSH0 KECCAK256 PUSH0 DUP3 ADD MLOAD DUP2 PUSH0 ADD SSTORE PUSH1 0x20 DUP3 ADD MLOAD DUP2 PUSH1 0x1 ADD SWAP1 DUP2 PUSH2 0x135 SWAP2 SWAP1 PUSH2 0x75A JUMP JUMPDEST POP SWAP1 POP POP POP JUMP JUMPDEST PUSH1 0x60 PUSH1 0x40 MLOAD DUP1 PUSH1 0x60 ADD PUSH1 0x40 MSTORE DUP1 PUSH1 0x22 DUP2 MSTORE PUSH1 0x20 ADD PUSH2 0x82A PUSH1 0x22 SWAP2 CODECOPY SWAP1 POP SWAP1 JUMP JUMPDEST PUSH1 0x1 SLOAD DUP2 JUMP JUMPDEST PUSH0 PUSH1 0x60 PUSH0 DUP1 DUP5 DUP2 MSTORE PUSH1 0x20 ADD SWAP1 DUP2 MSTORE PUSH1 0x20 ADD PUSH0 KECCAK256 PUSH0 ADD SLOAD PUSH0 DUP1 DUP6 DUP2 MSTORE PUSH1 0x20 ADD SWAP1 DUP2 MSTORE PUSH1 0x20 ADD PUSH0 KECCAK256 PUSH1 0x1 ADD DUP1 DUP1 SLOAD PUSH2 0x197 SWAP1 PUSH2 0x58D JUMP JUMPDEST DUP1 PUSH1 0x1F ADD PUSH1 0x20 DUP1 SWAP2 DIV MUL PUSH1 0x20 ADD PUSH1 0x40 MLOAD SWAP1 DUP2 ADD PUSH1 0x40 MSTORE DUP1 SWAP3 SWAP2 SWAP1 DUP2 DUP2 MSTORE PUSH1 0x20 ADD DUP3 DUP1 SLOAD PUSH2 0x1C3 SWAP1 PUSH2 0x58D JUMP JUMPDEST DUP1 ISZERO PUSH2 0x20E JUMPI DUP1 PUSH1 0x1F LT PUSH2 0x1E5 JUMPI PUSH2 0x100 DUP1 DUP4 SLOAD DIV MUL DUP4 MSTORE SWAP2 PUSH1 0x20 ADD SWAP2 PUSH2 0x20E JUMP JUMPDEST DUP3 ADD SWAP2 SWAP1 PUSH0 MSTORE PUSH1 0x20 PUSH0 KECCAK256 SWAP1 JUMPDEST DUP2 SLOAD DUP2 MSTORE SWAP1 PUSH1 0x1 ADD SWAP1 PUSH1 0x20 ADD DUP1 DUP4 GT PUSH2 0x1F1 JUMPI DUP3 SWAP1 SUB PUSH1 0x1F AND DUP3 ADD SWAP2 JUMPDEST POP POP POP POP POP SWAP1 POP SWAP2 POP SWAP2 POP SWAP2 POP SWAP2 JUMP JUMPDEST PUSH0 PUSH1 0x40 MLOAD SWAP1 POP SWAP1 JUMP JUMPDEST PUSH0 DUP1 REVERT JUMPDEST PUSH0 DUP1 REVERT JUMPDEST PUSH0 DUP1 REVERT JUMPDEST PUSH0 DUP1 REVERT JUMPDEST PUSH0 PUSH1 0x1F NOT PUSH1 0x1F DUP4 ADD AND SWAP1 POP SWAP2 SWAP1 POP JUMP JUMPDEST PUSH32 0x4E487B7100000000000000000000000000000000000000000000000000000000 PUSH0 MSTORE PUSH1 0x41 PUSH1 0x4 MSTORE PUSH1 0x24 PUSH0 REVERT JUMPDEST PUSH2 0x27D DUP3 PUSH2 0x237 JUMP JUMPDEST DUP2 ADD DUP2 DUP2 LT PUSH8 0xFFFFFFFFFFFFFFFF DUP3 GT OR ISZERO PUSH2 0x29C JUMPI PUSH2 0x29B PUSH2 0x247 JUMP JUMPDEST JUMPDEST DUP1 PUSH1 0x40 MSTORE POP POP POP JUMP JUMPDEST PUSH0 PUSH2 0x2AE PUSH2 0x21E JUMP JUMPDEST SWAP1 POP PUSH2 0x2BA DUP3 DUP3 PUSH2 0x274 JUMP JUMPDEST SWAP2 SWAP1 POP JUMP JUMPDEST PUSH0 PUSH8 0xFFFFFFFFFFFFFFFF DUP3 GT ISZERO PUSH2 0x2D9 JUMPI PUSH2 0x2D8 PUSH2 0x247 JUMP JUMPDEST JUMPDEST PUSH2 0x2E2 DUP3 PUSH2 0x237 JUMP JUMPDEST SWAP1 POP PUSH1 0x20 DUP2 ADD SWAP1 POP SWAP2 SWAP1 POP JUMP JUMPDEST DUP3 DUP2 DUP4 CALLDATACOPY PUSH0 DUP4 DUP4 ADD MSTORE POP POP POP JUMP JUMPDEST PUSH0 PUSH2 0x30F PUSH2 0x30A DUP5 PUSH2 0x2BF JUMP JUMPDEST PUSH2 0x2A5 JUMP JUMPDEST SWAP1 POP DUP3 DUP2 MSTORE PUSH1 0x20 DUP2 ADD DUP5 DUP5 DUP5 ADD GT ISZERO PUSH2 0x32B JUMPI PUSH2 0x32A PUSH2 0x233 JUMP JUMPDEST JUMPDEST PUSH2 0x336 DUP5 DUP3 DUP6 PUSH2 0x2EF JUMP JUMPDEST POP SWAP4 SWAP3 POP POP POP JUMP JUMPDEST PUSH0 DUP3 PUSH1 0x1F DUP4 ADD SLT PUSH2 0x352 JUMPI PUSH2 0x351 PUSH2 0x22F JUMP JUMPDEST JUMPDEST DUP2 CALLDATALOAD PUSH2 0x362 DUP5 DUP3 PUSH1 0x20 DUP7 ADD PUSH2 0x2FD JUMP JUMPDEST SWAP2 POP POP SWAP3 SWAP2 POP POP JUMP JUMPDEST PUSH0 PUSH1 0x20 DUP3 DUP5 SUB SLT ISZERO PUSH2 0x380 JUMPI PUSH2 0x37F PUSH2 0x227 JUMP JUMPDEST JUMPDEST PUSH0 DUP3 ADD CALLDATALOAD PUSH8 0xFFFFFFFFFFFFFFFF DUP2 GT ISZERO PUSH2 0x39D JUMPI PUSH2 0x39C PUSH2 0x22B JUMP JUMPDEST JUMPDEST PUSH2 0x3A9 DUP5 DUP3 DUP6 ADD PUSH2 0x33E JUMP JUMPDEST SWAP2 POP POP SWAP3 SWAP2 POP POP JUMP JUMPDEST PUSH0 DUP2 MLOAD SWAP1 POP SWAP2 SWAP1 POP JUMP JUMPDEST PUSH0 DUP3 DUP3 MSTORE PUSH1 0x20 DUP3 ADD SWAP1 POP SWAP3 SWAP2 POP POP JUMP JUMPDEST PUSH0 JUMPDEST DUP4 DUP2 LT ISZERO PUSH2 0x3E9 JUMPI DUP1 DUP3 ADD MLOAD DUP2 DUP5 ADD MSTORE PUSH1 0x20 DUP2 ADD SWAP1 POP PUSH2 0x3CE JUMP JUMPDEST PUSH0 DUP5 DUP5 ADD MSTORE POP POP POP POP JUMP JUMPDEST PUSH0 PUSH2 0x3FE DUP3 PUSH2 0x3B2 JUMP JUMPDEST PUSH2 0x408 DUP2 DUP6 PUSH2 0x3BC JUMP JUMPDEST SWAP4 POP PUSH2 0x418 DUP2 DUP6 PUSH1 0x20 DUP7 ADD PUSH2 0x3CC JUMP JUMPDEST PUSH2 0x421 DUP2 PUSH2 0x237 JUMP JUMPDEST DUP5 ADD SWAP2 POP POP SWAP3 SWAP2 POP POP JUMP JUMPDEST PUSH0 PUSH1 0x20 DUP3 ADD SWAP1 POP DUP2 DUP2 SUB PUSH0 DUP4 ADD MSTORE PUSH2 0x444 DUP2 DUP5 PUSH2 0x3F4 JUMP JUMPDEST SWAP1 POP SWAP3 SWAP2 POP POP JUMP JUMPDEST PUSH0 DUP2 SWAP1 POP SWAP2 SWAP1 POP JUMP JUMPDEST PUSH2 0x45E DUP2 PUSH2 0x44C JUMP JUMPDEST DUP3 MSTORE POP POP JUMP JUMPDEST PUSH0 PUSH1 0x20 DUP3 ADD SWAP1 POP PUSH2 0x477 PUSH0 DUP4 ADD DUP5 PUSH2 0x455 JUMP JUMPDEST SWAP3 SWAP2 POP POP JUMP JUMPDEST PUSH2 0x486 DUP2 PUSH2 0x44C JUMP JUMPDEST DUP2 EQ PUSH2 0x490 JUMPI PUSH0 DUP1 REVERT JUMPDEST POP JUMP JUMPDEST PUSH0 DUP2 CALLDATALOAD SWAP1 POP PUSH2 0x4A1 DUP2 PUSH2 0x47D JUMP JUMPDEST SWAP3 SWAP2 POP POP JUMP JUMPDEST PUSH0 PUSH1 0x20 DUP3 DUP5 SUB SLT ISZERO PUSH2 0x4BC JUMPI PUSH2 0x4BB PUSH2 0x227 JUMP JUMPDEST JUMPDEST PUSH0 PUSH2 0x4C9 DUP5 DUP3 DUP6 ADD PUSH2 0x493 JUMP JUMPDEST SWAP2 POP POP SWAP3 SWAP2 POP POP JUMP JUMPDEST PUSH0 PUSH1 0x40 DUP3 ADD SWAP1 POP PUSH2 0x4E5 PUSH0 DUP4 ADD DUP6 PUSH2 0x455 JUMP JUMPDEST DUP2 DUP2 SUB PUSH1 0x20 DUP4 ADD MSTORE PUSH2 0x4F7 DUP2 DUP5 PUSH2 0x3F4 JUMP JUMPDEST SWAP1 POP SWAP4 SWAP3 POP POP POP JUMP JUMPDEST PUSH32 0x4E487B7100000000000000000000000000000000000000000000000000000000 PUSH0 MSTORE PUSH1 0x11 PUSH1 0x4 MSTORE PUSH1 0x24 PUSH0 REVERT JUMPDEST PUSH0 PUSH2 0x537 DUP3 PUSH2 0x44C JUMP JUMPDEST SWAP2 POP PUSH2 0x542 DUP4 PUSH2 0x44C JUMP JUMPDEST SWAP3 POP DUP3 DUP3 ADD SWAP1 POP DUP1 DUP3 GT ISZERO PUSH2 0x55A JUMPI PUSH2 0x559 PUSH2 0x500 JUMP JUMPDEST JUMPDEST SWAP3 SWAP2 POP POP JUMP JUMPDEST PUSH32 0x4E487B7100000000000000000000000000000000000000000000000000000000 PUSH0 MSTORE PUSH1 0x22 PUSH1 0x4 MSTORE PUSH1 0x24 PUSH0 REVERT JUMPDEST PUSH0 PUSH1 0x2 DUP3 DIV SWAP1 POP PUSH1 0x1 DUP3 AND DUP1 PUSH2 0x5A4 JUMPI PUSH1 0x7F DUP3 AND SWAP2 POP JUMPDEST PUSH1 0x20 DUP3 LT DUP2 SUB PUSH2 0x5B7 JUMPI PUSH2 0x5B6 PUSH2 0x560 JUMP JUMPDEST JUMPDEST POP SWAP2 SWAP1 POP JUMP JUMPDEST PUSH0 DUP2 SWAP1 POP DUP2 PUSH0 MSTORE PUSH1 0x20 PUSH0 KECCAK256 SWAP1 POP SWAP2 SWAP1 POP JUMP JUMPDEST PUSH0 PUSH1 0x20 PUSH1 0x1F DUP4 ADD DIV SWAP1 POP SWAP2 SWAP1 POP JUMP JUMPDEST PUSH0 DUP3 DUP3 SHL SWAP1 POP SWAP3 SWAP2 POP POP JUMP JUMPDEST PUSH0 PUSH1 0x8 DUP4 MUL PUSH2 0x619 PUSH32 0xFFFFFFFFFFFFFFFFFFFFFFFFFFFFFFFFFFFFFFFFFFFFFFFFFFFFFFFFFFFFFFFF DUP3 PUSH2 0x5DE JUMP JUMPDEST PUSH2 0x623 DUP7 DUP4 PUSH2 0x5DE JUMP JUMPDEST SWAP6 POP DUP1 NOT DUP5 AND SWAP4 POP DUP1 DUP7 AND DUP5 OR SWAP3 POP POP POP SWAP4 SWAP3 POP POP POP JUMP JUMPDEST PUSH0 DUP2 SWAP1 POP SWAP2 SWAP1 POP JUMP JUMPDEST PUSH0 PUSH2 0x65E PUSH2 0x659 PUSH2 0x654 DUP5 PUSH2 0x44C JUMP JUMPDEST PUSH2 0x63B JUMP JUMPDEST PUSH2 0x44C JUMP JUMPDEST SWAP1 POP SWAP2 SWAP1 POP JUMP JUMPDEST PUSH0 DUP2 SWAP1 POP SWAP2 SWAP1 POP JUMP JUMPDEST PUSH2 0x677 DUP4 PUSH2 0x644 JUMP JUMPDEST PUSH2 0x68B PUSH2 0x683 DUP3 PUSH2 0x665 JUMP JUMPDEST DUP5 DUP5 SLOAD PUSH2 0x5EA JUMP JUMPDEST DUP3 SSTORE POP POP POP POP JUMP JUMPDEST PUSH0 SWAP1 JUMP JUMPDEST PUSH2 0x69F PUSH2 0x693 JUMP JUMPDEST PUSH2 0x6AA DUP2 DUP5 DUP5 PUSH2 0x66E JUMP JUMPDEST POP POP POP JUMP JUMPDEST JUMPDEST DUP2 DUP2 LT ISZERO PUSH2 0x6CD JUMPI PUSH2 0x6C2 PUSH0 DUP3 PUSH2 0x697 JUMP JUMPDEST PUSH1 0x1 DUP2 ADD SWAP1 POP PUSH2 0x6B0 JUMP JUMPDEST POP POP JUMP JUMPDEST PUSH1 0x1F DUP3 GT ISZERO PUSH2 0x712 JUMPI PUSH2 0x6E3 DUP2 PUSH2 0x5BD JUMP JUMPDEST PUSH2 0x6EC DUP5 PUSH2 0x5CF JUMP JUMPDEST DUP2 ADD PUSH1 0x20 DUP6 LT ISZERO PUSH2 0x6FB JUMPI DUP2 SWAP1 POP JUMPDEST PUSH2 0x70F PUSH2 0x707 DUP6 PUSH2 0x5CF JUMP JUMPDEST DUP4 ADD DUP3 PUSH2 0x6AF JUMP JUMPDEST POP POP JUMPDEST POP POP POP JUMP JUMPDEST PUSH0 DUP3 DUP3 SHR SWAP1 POP SWAP3 SWAP2 POP POP JUMP JUMPDEST PUSH0 PUSH2 0x732 PUSH0 NOT DUP5 PUSH1 0x8 MUL PUSH2 0x717 JUMP JUMPDEST NOT DUP1 DUP4 AND SWAP2 POP POP SWAP3 SWAP2 POP POP JUMP JUMPDEST PUSH0 PUSH2 0x74A DUP4 DUP4 PUSH2 0x723 JUMP JUMPDEST SWAP2 POP DUP3 PUSH1 0x2 MUL DUP3 OR SWAP1 POP SWAP3 SWAP2 POP POP JUMP JUMPDEST PUSH2 0x763 DUP3 PUSH2 0x3B2 JUMP JUMPDEST PUSH8 0xFFFFFFFFFFFFFFFF DUP2 GT ISZERO PUSH2 0x77C JUMPI PUSH2 0x77B PUSH2 0x247 JUMP JUMPDEST JUMPDEST PUSH2 0x786 DUP3 SLOAD PUSH2 0x58D JUMP JUMPDEST PUSH2 0x791 DUP3 DUP3 DUP6 PUSH2 0x6D1 JUMP JUMPDEST PUSH0 PUSH1 0x20 SWAP1 POP PUSH1 0x1F DUP4 GT PUSH1 0x1 DUP2 EQ PUSH2 0x7C2 JUMPI PUSH0 DUP5 ISZERO PUSH2 0x7B0 JUMPI DUP3 DUP8 ADD MLOAD SWAP1 POP JUMPDEST PUSH2 0x7BA DUP6 DUP3 PUSH2 0x73F JUMP JUMPDEST DUP7 SSTORE POP PUSH2 0x821 JUMP JUMPDEST PUSH1 0x1F NOT DUP5 AND PUSH2 0x7D0 DUP7 PUSH2 0x5BD JUMP JUMPDEST PUSH0 JUMPDEST DUP3 DUP2 LT ISZERO PUSH2 0x7F7 JUMPI DUP5 DUP10 ADD MLOAD DUP3 SSTORE PUSH1 0x1 DUP3 ADD SWAP2 POP PUSH1 0x20 DUP6 ADD SWAP5 POP PUSH1 0x20 DUP2 ADD SWAP1 POP PUSH2 0x7D2 JUMP JUMPDEST DUP7 DUP4 LT ISZERO PUSH2 0x814 JUMPI DUP5 DUP10 ADD MLOAD PUSH2 0x810 PUSH1 0x1F DUP10 AND DUP3 PUSH2 0x723 JUMP JUMPDEST DUP4 SSTORE POP JUMPDEST PUSH1 0x1 PUSH1 0x2 DUP9 MUL ADD DUP9 SSTORE POP POP POP JUMPDEST POP POP POP POP POP POP JUMP INVALID 0x4D PUSH10 0x6E6520697320776F726B PUSH10 0x6E672077697468203130 ADDRESS 0x25 KECCAK256 PUSH2 0x6363 PUSH22 0x72616379A2646970667358221220B0B743F50A380A14 PUSH27 0x15C08AA375C385FAF387E1F9401C2672445E110788783F64736F6C PUSH4 0x43000816 STOP CALLER "
				},
				"gasEstimates": {
					"creation": {
						"codeDepositCost": "435400",
						"executionCost": "5477",
						"totalCost": "440877"
					},
					"external": {
						"addMine(string)": "infinite",
						"checkStatus()": "infinite",
						"counter()": "2447",
						"getLocation(uint256)": "infinite"
					}
				},
				"methodIdentifiers": {
					"addMine(string)": "051baa6f",
					"checkStatus()": "3b7104f2",
					"counter()": "61bc221a",
					"getLocation(uint256)": "7f7b1393"
				}
			},
			"storageLayout": {
				"storage": [
					{
						"astId": 14,
						"contract": "Gem_Mine.sol:GemMine",
						"label": "mines",
						"offset": 0,
						"slot": "0",
						"type": "t_mapping(t_uint256,t_struct(Mine)22_storage)"
					},
					{
						"astId": 17,
						"contract": "Gem_Mine.sol:GemMine",
						"label": "counter",
						"offset": 0,
						"slot": "1",
						"type": "t_uint256"
					}
				],
				"types": {
					"t_mapping(t_uint256,t_struct(Mine)22_storage)": {
						"encoding": "mapping",
						"key": "t_uint256",
						"label": "mapping(uint256 => struct GemMine.Mine)",
						"numberOfBytes": "32",
						"value": "t_struct(Mine)22_storage"
					},
					"t_string_storage": {
						"encoding": "bytes",
						"label": "string",
						"numberOfBytes": "32"
					},
					"t_struct(Mine)22_storage": {
						"encoding": "inplace",
						"label": "struct GemMine.Mine",
						"members": [
							{
								"astId": 19,
								"contract": "Gem_Mine.sol:GemMine",
								"label": "id",
								"offset": 0,
								"slot": "0",
								"type": "t_uint256"
							},
							{
								"astId": 21,
								"contract": "Gem_Mine.sol:GemMine",
								"label": "location",
								"offset": 0,
								"slot": "1",
								"type": "t_string_storage"
							}
						],
						"numberOfBytes": "64"
					},
					"t_uint256": {
						"encoding": "inplace",
						"label": "uint256",
						"numberOfBytes": "32"
					}
				}
			},
			"userdoc": {
				"kind": "user",
				"methods": {},
				"version": 1
			}
		}
	}
}