{
	"Hostel.sol": {
		"Hostel": {
			"abi": [
				{
					"inputs": [
						{
							"internalType": "uint256",
							"name": "",
							"type": "uint256"
						}
					],
					"name": "RentMap",
					"outputs": [
						{
							"internalType": "uint256",
							"name": "rent_no",
							"type": "uint256"
						},
						{
							"internalType": "uint256",
							"name": "room_id",
							"type": "uint256"
						},
						{
							"internalType": "uint256",
							"name": "agreement_id",
							"type": "uint256"
						},
						{
							"internalType": "string",
							"name": "room_name",
							"type": "string"
						},
						{
							"internalType": "string",
							"name": "room_address",
							"type": "string"
						},
						{
							"internalType": "uint256",
							"name": "rent_per_month",
							"type": "uint256"
						},
						{
							"internalType": "uint256",
							"name": "timestamp",
							"type": "uint256"
						},
						{
							"internalType": "address payable",
							"name": "tenant_address",
							"type": "address"
						},
						{
							"internalType": "address payable",
							"name": "landlord_address",
							"type": "address"
						}
					],
					"stateMutability": "view",
					"type": "function"
				},
				{
					"inputs": [
						{
							"internalType": "uint256",
							"name": "",
							"type": "uint256"
						}
					],
					"name": "RoomAgreementMap",
					"outputs": [
						{
							"internalType": "uint256",
							"name": "room_id",
							"type": "uint256"
						},
						{
							"internalType": "uint256",
							"name": "agreement_id",
							"type": "uint256"
						},
						{
							"internalType": "string",
							"name": "room_name",
							"type": "string"
						},
						{
							"internalType": "string",
							"name": "room_address",
							"type": "string"
						},
						{
							"internalType": "uint256",
							"name": "rent_per_month",
							"type": "uint256"
						},
						{
							"internalType": "uint256",
							"name": "security_deposit",
							"type": "uint256"
						},
						{
							"internalType": "uint256",
							"name": "lock_in_period",
							"type": "uint256"
						},
						{
							"internalType": "uint256",
							"name": "timestamp",
							"type": "uint256"
						},
						{
							"internalType": "address payable",
							"name": "tenant_address",
							"type": "address"
						},
						{
							"internalType": "address payable",
							"name": "landlord_address",
							"type": "address"
						}
					],
					"stateMutability": "view",
					"type": "function"
				},
				{
					"inputs": [
						{
							"internalType": "uint256",
							"name": "",
							"type": "uint256"
						}
					],
					"name": "RoomMap",
					"outputs": [
						{
							"internalType": "uint256",
							"name": "room_id",
							"type": "uint256"
						},
						{
							"internalType": "uint256",
							"name": "agreement_id",
							"type": "uint256"
						},
						{
							"internalType": "string",
							"name": "room_name",
							"type": "string"
						},
						{
							"internalType": "string",
							"name": "room_address",
							"type": "string"
						},
						{
							"internalType": "uint256",
							"name": "rent_per_month",
							"type": "uint256"
						},
						{
							"internalType": "uint256",
							"name": "security_deposit",
							"type": "uint256"
						},
						{
							"internalType": "uint256",
							"name": "timestamp",
							"type": "uint256"
						},
						{
							"internalType": "bool",
							"name": "vacant",
							"type": "bool"
						},
						{
							"internalType": "address payable",
							"name": "tenant_address",
							"type": "address"
						},
						{
							"internalType": "address payable",
							"name": "landlord_address",
							"type": "address"
						}
					],
					"stateMutability": "view",
					"type": "function"
				},
				{
					"inputs": [
						{
							"internalType": "string",
							"name": "_room_name",
							"type": "string"
						},
						{
							"internalType": "string",
							"name": "_room_address",
							"type": "string"
						},
						{
							"internalType": "uint256",
							"name": "_rent_cost",
							"type": "uint256"
						},
						{
							"internalType": "uint256",
							"name": "_security_deposit",
							"type": "uint256"
						}
					],
					"name": "addRoom",
					"outputs": [],
					"stateMutability": "nonpayable",
					"type": "function"
				},
				{
					"inputs": [
						{
							"internalType": "uint256",
							"name": "_index",
							"type": "uint256"
						}
					],
					"name": "agreementCompleted",
					"outputs": [],
					"stateMutability": "payable",
					"type": "function"
				},
				{
					"inputs": [
						{
							"internalType": "uint256",
							"name": "_index",
							"type": "uint256"
						}
					],
					"name": "agreementTerminated",
					"outputs": [],
					"stateMutability": "nonpayable",
					"type": "function"
				},
				{
					"inputs": [],
					"name": "agreement_idx",
					"outputs": [
						{
							"internalType": "uint256",
							"name": "",
							"type": "uint256"
						}
					],
					"stateMutability": "view",
					"type": "function"
				},
				{
					"inputs": [
						{
							"internalType": "uint256",
							"name": "_index",
							"type": "uint256"
						}
					],
					"name": "payRent",
					"outputs": [],
					"stateMutability": "payable",
					"type": "function"
				},
				{
					"inputs": [],
					"name": "rent_idx",
					"outputs": [
						{
							"internalType": "uint256",
							"name": "",
							"type": "uint256"
						}
					],
					"stateMutability": "view",
					"type": "function"
				},
				{
					"inputs": [],
					"name": "room_idx",
					"outputs": [
						{
							"internalType": "uint256",
							"name": "",
							"type": "uint256"
						}
					],
					"stateMutability": "view",
					"type": "function"
				},
				{
					"inputs": [
						{
							"internalType": "uint256",
							"name": "_index",
							"type": "uint256"
						}
					],
					"name": "signAgreement",
					"outputs": [],
					"stateMutability": "payable",
					"type": "function"
				}
			],
			"devdoc": {
				"kind": "dev",
				"methods": {},
				"version": 1
			},
			"evm": {
				"assembly": "    /* \"Hostel.sol\":63:6007  contract Hostel{... */\n  mstore(0x40, 0x80)\n    /* \"Hostel.sol\":287:288  0 */\n  0x00\n    /* \"Hostel.sol\":264:288  uint public room_idx = 0 */\n  0x02\n  sstore\n    /* \"Hostel.sol\":323:324  0 */\n  0x00\n    /* \"Hostel.sol\":295:324  uint public agreement_idx = 0 */\n  0x03\n  sstore\n    /* \"Hostel.sol\":354:355  0 */\n  0x00\n    /* \"Hostel.sol\":331:355  uint public rent_idx = 0 */\n  0x04\n  sstore\n    /* \"Hostel.sol\":63:6007  contract Hostel{... */\n  callvalue\n  dup1\n  iszero\n  tag_1\n  jumpi\n  0x00\n  dup1\n  revert\ntag_1:\n  pop\n  dataSize(sub_0)\n  dup1\n  dataOffset(sub_0)\n  0x00\n  codecopy\n  0x00\n  return\nstop\n\nsub_0: assembly {\n        /* \"Hostel.sol\":63:6007  contract Hostel{... */\n      mstore(0x40, 0x80)\n      jumpi(tag_1, lt(calldatasize, 0x04))\n      shr(0xe0, calldataload(0x00))\n      dup1\n      0x5ee6086f\n      gt\n      tag_13\n      jumpi\n      dup1\n      0x5ee6086f\n      eq\n      tag_7\n      jumpi\n      dup1\n      0x63e475bd\n      eq\n      tag_8\n      jumpi\n      dup1\n      0x649ad814\n      eq\n      tag_9\n      jumpi\n      dup1\n      0x7681e6d9\n      eq\n      tag_10\n      jumpi\n      dup1\n      0x8cdb3955\n      eq\n      tag_11\n      jumpi\n      dup1\n      0xd9e8843f\n      eq\n      tag_12\n      jumpi\n      jump(tag_1)\n    tag_13:\n      dup1\n      0x03742de0\n      eq\n      tag_2\n      jumpi\n      dup1\n      0x16abb8a1\n      eq\n      tag_3\n      jumpi\n      dup1\n      0x2788137e\n      eq\n      tag_4\n      jumpi\n      dup1\n      0x465d80f8\n      eq\n      tag_5\n      jumpi\n      dup1\n      0x4f5e4428\n      eq\n      tag_6\n      jumpi\n    tag_1:\n      0x00\n      dup1\n      revert\n        /* \"Hostel.sol\":3571:4680  function signAgreement(uint _index) public payable notLandlord(_index) enoughAgreementFee(_index) onlyWhileVacant(_index) {... */\n    tag_2:\n      tag_14\n      0x04\n      dup1\n      calldatasize\n      sub\n      dup2\n      add\n      swap1\n      tag_15\n      swap2\n      swap1\n      tag_16\n      jump\t// in\n    tag_15:\n      tag_17\n      jump\t// in\n    tag_14:\n      stop\n        /* \"Hostel.sol\":5355:5810  function agreementCompleted(uint _index) public payable onlyLandlord(_index) agreementTimesUp(_index){... */\n    tag_3:\n      tag_18\n      0x04\n      dup1\n      calldatasize\n      sub\n      dup2\n      add\n      swap1\n      tag_19\n      swap2\n      swap1\n      tag_16\n      jump\t// in\n    tag_19:\n      tag_20\n      jump\t// in\n    tag_18:\n      stop\n        /* \"Hostel.sol\":264:288  uint public room_idx = 0 */\n    tag_4:\n      callvalue\n      dup1\n      iszero\n      tag_21\n      jumpi\n      0x00\n      dup1\n      revert\n    tag_21:\n      pop\n      tag_22\n      tag_23\n      jump\t// in\n    tag_22:\n      mload(0x40)\n      tag_24\n      swap2\n      swap1\n      tag_25\n      jump\t// in\n    tag_24:\n      mload(0x40)\n      dup1\n      swap2\n      sub\n      swap1\n      return\n        /* \"Hostel.sol\":295:324  uint public agreement_idx = 0 */\n    tag_5:\n      callvalue\n      dup1\n      iszero\n      tag_26\n      jumpi\n      0x00\n      dup1\n      revert\n    tag_26:\n      pop\n      tag_27\n      tag_28\n      jump\t// in\n    tag_27:\n      mload(0x40)\n      tag_29\n      swap2\n      swap1\n      tag_25\n      jump\t// in\n    tag_29:\n      mload(0x40)\n      dup1\n      swap2\n      sub\n      swap1\n      return\n        /* \"Hostel.sol\":5818:6004  function agreementTerminated(uint _index) public onlyLandlord(_index) agreementTimesUp(_index){... */\n    tag_6:\n      callvalue\n      dup1\n      iszero\n      tag_30\n      jumpi\n      0x00\n      dup1\n      revert\n    tag_30:\n      pop\n      tag_31\n      0x04\n      dup1\n      calldatasize\n      sub\n      dup2\n      add\n      swap1\n      tag_32\n      swap2\n      swap1\n      tag_16\n      jump\t// in\n    tag_32:\n      tag_33\n      jump\t// in\n    tag_31:\n      stop\n        /* \"Hostel.sol\":1083:1137  mapping(uint => RoomAgreement) public RoomAgreementMap */\n    tag_7:\n      callvalue\n      dup1\n      iszero\n      tag_34\n      jumpi\n      0x00\n      dup1\n      revert\n    tag_34:\n      pop\n      tag_35\n      0x04\n      dup1\n      calldatasize\n      sub\n      dup2\n      add\n      swap1\n      tag_36\n      swap2\n      swap1\n      tag_16\n      jump\t// in\n    tag_36:\n      tag_37\n      jump\t// in\n    tag_35:\n      mload(0x40)\n      tag_38\n      swap11\n      swap10\n      swap9\n      swap8\n      swap7\n      swap6\n      swap5\n      swap4\n      swap3\n      swap2\n      swap1\n      tag_39\n      jump\t// in\n    tag_38:\n      mload(0x40)\n      dup1\n      swap2\n      sub\n      swap1\n      return\n        /* \"Hostel.sol\":3083:3563  function addRoom(string memory _room_name, string memory _room_address, uint _rent_cost, uint _security_deposit) public {... */\n    tag_8:\n      callvalue\n      dup1\n      iszero\n      tag_40\n      jumpi\n      0x00\n      dup1\n      revert\n    tag_40:\n      pop\n      tag_41\n      0x04\n      dup1\n      calldatasize\n      sub\n      dup2\n      add\n      swap1\n      tag_42\n      swap2\n      swap1\n      tag_43\n      jump\t// in\n    tag_42:\n      tag_44\n      jump\t// in\n    tag_41:\n      stop\n        /* \"Hostel.sol\":1443:1479  mapping(uint => Rent) public RentMap */\n    tag_9:\n      callvalue\n      dup1\n      iszero\n      tag_45\n      jumpi\n      0x00\n      dup1\n      revert\n    tag_45:\n      pop\n      tag_46\n      0x04\n      dup1\n      calldatasize\n      sub\n      dup2\n      add\n      swap1\n      tag_47\n      swap2\n      swap1\n      tag_16\n      jump\t// in\n    tag_47:\n      tag_48\n      jump\t// in\n    tag_46:\n      mload(0x40)\n      tag_49\n      swap10\n      swap9\n      swap8\n      swap7\n      swap6\n      swap5\n      swap4\n      swap3\n      swap2\n      swap1\n      tag_50\n      jump\t// in\n    tag_49:\n      mload(0x40)\n      dup1\n      swap2\n      sub\n      swap1\n      return\n        /* \"Hostel.sol\":331:355  uint public rent_idx = 0 */\n    tag_10:\n      callvalue\n      dup1\n      iszero\n      tag_51\n      jumpi\n      0x00\n      dup1\n      revert\n    tag_51:\n      pop\n      tag_52\n      tag_53\n      jump\t// in\n    tag_52:\n      mload(0x40)\n      tag_54\n      swap2\n      swap1\n      tag_25\n      jump\t// in\n    tag_54:\n      mload(0x40)\n      dup1\n      swap2\n      sub\n      swap1\n      return\n        /* \"Hostel.sol\":692:728  mapping(uint => Room) public RoomMap */\n    tag_11:\n      callvalue\n      dup1\n      iszero\n      tag_55\n      jumpi\n      0x00\n      dup1\n      revert\n    tag_55:\n      pop\n      tag_56\n      0x04\n      dup1\n      calldatasize\n      sub\n      dup2\n      add\n      swap1\n      tag_57\n      swap2\n      swap1\n      tag_16\n      jump\t// in\n    tag_57:\n      tag_58\n      jump\t// in\n    tag_56:\n      mload(0x40)\n      tag_59\n      swap11\n      swap10\n      swap9\n      swap8\n      swap7\n      swap6\n      swap5\n      swap4\n      swap3\n      swap2\n      swap1\n      tag_60\n      jump\t// in\n    tag_59:\n      mload(0x40)\n      dup1\n      swap2\n      sub\n      swap1\n      return\n        /* \"Hostel.sol\":4688:5347  function payRent(uint _index) public payable sameTenant(_index) rentTimesUp(_index) enoughRent(_index){... */\n    tag_12:\n      tag_61\n      0x04\n      dup1\n      calldatasize\n      sub\n      dup2\n      add\n      swap1\n      tag_62\n      swap2\n      swap1\n      tag_16\n      jump\t// in\n    tag_62:\n      tag_63\n      jump\t// in\n    tag_61:\n      stop\n        /* \"Hostel.sol\":3571:4680  function signAgreement(uint _index) public payable notLandlord(_index) enoughAgreementFee(_index) onlyWhileVacant(_index) {... */\n    tag_17:\n        /* \"Hostel.sol\":3634:3640  _index */\n      dup1\n        /* \"Hostel.sol\":1774:1781  RoomMap */\n      0x05\n        /* \"Hostel.sol\":1774:1789  RoomMap[_index] */\n      0x00\n        /* \"Hostel.sol\":1782:1788  _index */\n      dup3\n        /* \"Hostel.sol\":1774:1789  RoomMap[_index] */\n      dup2\n      mstore\n      0x20\n      add\n      swap1\n      dup2\n      mstore\n      0x20\n      add\n      0x00\n      keccak256\n        /* \"Hostel.sol\":1774:1806  RoomMap[_index].landlord_address */\n      0x08\n      add\n      0x00\n      swap1\n      sload\n      swap1\n      0x0100\n      exp\n      swap1\n      div\n      0xffffffffffffffffffffffffffffffffffffffff\n      and\n        /* \"Hostel.sol\":1760:1806  msg.sender != RoomMap[_index].landlord_address */\n      0xffffffffffffffffffffffffffffffffffffffff\n      and\n        /* \"Hostel.sol\":1760:1770  msg.sender */\n      caller\n        /* \"Hostel.sol\":1760:1806  msg.sender != RoomMap[_index].landlord_address */\n      0xffffffffffffffffffffffffffffffffffffffff\n      and\n      sub\n        /* \"Hostel.sol\":1752:1838  require(msg.sender != RoomMap[_index].landlord_address, \"Only tenant can access this\") */\n      tag_65\n      jumpi\n      mload(0x40)\n      0x08c379a000000000000000000000000000000000000000000000000000000000\n      dup2\n      mstore\n      0x04\n      add\n      tag_66\n      swap1\n      tag_67\n      jump\t// in\n    tag_66:\n      mload(0x40)\n      dup1\n      swap2\n      sub\n      swap1\n      revert\n    tag_65:\n        /* \"Hostel.sol\":3661:3667  _index */\n      dup2\n        /* \"Hostel.sol\":2298:2305  RoomMap */\n      0x05\n        /* \"Hostel.sol\":2298:2313  RoomMap[_index] */\n      0x00\n        /* \"Hostel.sol\":2306:2312  _index */\n      dup3\n        /* \"Hostel.sol\":2298:2313  RoomMap[_index] */\n      dup2\n      mstore\n      0x20\n      add\n      swap1\n      dup2\n      mstore\n      0x20\n      add\n      0x00\n      keccak256\n        /* \"Hostel.sol\":2298:2330  RoomMap[_index].security_deposit */\n      0x05\n      add\n      sload\n        /* \"Hostel.sol\":2259:2266  RoomMap */\n      0x05\n        /* \"Hostel.sol\":2259:2274  RoomMap[_index] */\n      0x00\n        /* \"Hostel.sol\":2267:2273  _index */\n      dup4\n        /* \"Hostel.sol\":2259:2274  RoomMap[_index] */\n      dup2\n      mstore\n      0x20\n      add\n      swap1\n      dup2\n      mstore\n      0x20\n      add\n      0x00\n      keccak256\n        /* \"Hostel.sol\":2259:2289  RoomMap[_index].rent_per_month */\n      0x04\n      add\n      sload\n        /* \"Hostel.sol\":2254:2331  uint(RoomMap[_index].rent_per_month) + uint(RoomMap[_index].security_deposit) */\n      tag_69\n      swap2\n      swap1\n      tag_70\n      jump\t// in\n    tag_69:\n        /* \"Hostel.sol\":2236:2245  msg.value */\n      callvalue\n        /* \"Hostel.sol\":2236:2332  msg.value >= uint(uint(RoomMap[_index].rent_per_month) + uint(RoomMap[_index].security_deposit)) */\n      lt\n      iszero\n        /* \"Hostel.sol\":2228:2368  require(msg.value >= uint(uint(RoomMap[_index].rent_per_month) + uint(RoomMap[_index].security_deposit)), \"Not enough Ether in your wallet\") */\n      tag_71\n      jumpi\n      mload(0x40)\n      0x08c379a000000000000000000000000000000000000000000000000000000000\n      dup2\n      mstore\n      0x04\n      add\n      tag_72\n      swap1\n      tag_73\n      jump\t// in\n    tag_72:\n      mload(0x40)\n      dup1\n      swap2\n      sub\n      swap1\n      revert\n    tag_71:\n        /* \"Hostel.sol\":3685:3691  _index */\n      dup3\n        /* \"Hostel.sol\":1948:1952  true */\n      0x01\n        /* \"Hostel.sol\":1922:1952  RoomMap[_index].vacant == true */\n      iszero\n      iszero\n        /* \"Hostel.sol\":1922:1929  RoomMap */\n      0x05\n        /* \"Hostel.sol\":1922:1937  RoomMap[_index] */\n      0x00\n        /* \"Hostel.sol\":1930:1936  _index */\n      dup4\n        /* \"Hostel.sol\":1922:1937  RoomMap[_index] */\n      dup2\n      mstore\n      0x20\n      add\n      swap1\n      dup2\n      mstore\n      0x20\n      add\n      0x00\n      keccak256\n        /* \"Hostel.sol\":1922:1944  RoomMap[_index].vacant */\n      0x07\n      add\n      0x00\n      swap1\n      sload\n      swap1\n      0x0100\n      exp\n      swap1\n      div\n      0xff\n      and\n        /* \"Hostel.sol\":1922:1952  RoomMap[_index].vacant == true */\n      iszero\n      iszero\n      eq\n        /* \"Hostel.sol\":1914:1983  require(RoomMap[_index].vacant == true, \"Room is currently occupied\") */\n      tag_75\n      jumpi\n      mload(0x40)\n      0x08c379a000000000000000000000000000000000000000000000000000000000\n      dup2\n      mstore\n      0x04\n      add\n      tag_76\n      swap1\n      tag_77\n      jump\t// in\n    tag_76:\n      mload(0x40)\n      dup1\n      swap2\n      sub\n      swap1\n      revert\n    tag_75:\n        /* \"Hostel.sol\":3734:3735  0 */\n      0x00\n        /* \"Hostel.sol\":3712:3736  msg.sender != address(0) */\n      0xffffffffffffffffffffffffffffffffffffffff\n      and\n        /* \"Hostel.sol\":3712:3722  msg.sender */\n      caller\n        /* \"Hostel.sol\":3712:3736  msg.sender != address(0) */\n      0xffffffffffffffffffffffffffffffffffffffff\n      and\n      sub\n        /* \"Hostel.sol\":3704:3737  require(msg.sender != address(0)) */\n      tag_79\n      jumpi\n      0x00\n      dup1\n      revert\n    tag_79:\n        /* \"Hostel.sol\":3748:3773  address payable _landlord */\n      0x00\n        /* \"Hostel.sol\":3776:3783  RoomMap */\n      0x05\n        /* \"Hostel.sol\":3776:3791  RoomMap[_index] */\n      0x00\n        /* \"Hostel.sol\":3784:3790  _index */\n      dup7\n        /* \"Hostel.sol\":3776:3791  RoomMap[_index] */\n      dup2\n      mstore\n      0x20\n      add\n      swap1\n      dup2\n      mstore\n      0x20\n      add\n      0x00\n      keccak256\n        /* \"Hostel.sol\":3776:3808  RoomMap[_index].landlord_address */\n      0x08\n      add\n      0x00\n      swap1\n      sload\n      swap1\n      0x0100\n      exp\n      swap1\n      div\n      0xffffffffffffffffffffffffffffffffffffffff\n      and\n        /* \"Hostel.sol\":3748:3808  address payable _landlord = RoomMap[_index].landlord_address */\n      swap1\n      pop\n        /* \"Hostel.sol\":3819:3834  uint _total_fee */\n      0x00\n        /* \"Hostel.sol\":3870:3877  RoomMap */\n      0x05\n        /* \"Hostel.sol\":3870:3885  RoomMap[_index] */\n      0x00\n        /* \"Hostel.sol\":3878:3884  _index */\n      dup8\n        /* \"Hostel.sol\":3870:3885  RoomMap[_index] */\n      dup2\n      mstore\n      0x20\n      add\n      swap1\n      dup2\n      mstore\n      0x20\n      add\n      0x00\n      keccak256\n        /* \"Hostel.sol\":3870:3902  RoomMap[_index].security_deposit */\n      0x05\n      add\n      sload\n        /* \"Hostel.sol\":3837:3844  RoomMap */\n      0x05\n        /* \"Hostel.sol\":3837:3852  RoomMap[_index] */\n      0x00\n        /* \"Hostel.sol\":3845:3851  _index */\n      dup9\n        /* \"Hostel.sol\":3837:3852  RoomMap[_index] */\n      dup2\n      mstore\n      0x20\n      add\n      swap1\n      dup2\n      mstore\n      0x20\n      add\n      0x00\n      keccak256\n        /* \"Hostel.sol\":3837:3867  RoomMap[_index].rent_per_month */\n      0x04\n      add\n      sload\n        /* \"Hostel.sol\":3837:3902  RoomMap[_index].rent_per_month + RoomMap[_index].security_deposit */\n      tag_80\n      swap2\n      swap1\n      tag_70\n      jump\t// in\n    tag_80:\n        /* \"Hostel.sol\":3819:3902  uint _total_fee = RoomMap[_index].rent_per_month + RoomMap[_index].security_deposit */\n      swap1\n      pop\n        /* \"Hostel.sol\":3913:3922  _landlord */\n      dup2\n        /* \"Hostel.sol\":3913:3931  _landlord.transfer */\n      0xffffffffffffffffffffffffffffffffffffffff\n      and\n        /* \"Hostel.sol\":3913:3943  _landlord.transfer(_total_fee) */\n      0x08fc\n        /* \"Hostel.sol\":3932:3942  _total_fee */\n      dup3\n        /* \"Hostel.sol\":3913:3943  _landlord.transfer(_total_fee) */\n      swap1\n      dup2\n      iszero\n      mul\n      swap1\n      mload(0x40)\n      0x00\n      mload(0x40)\n      dup1\n      dup4\n      sub\n      dup2\n      dup6\n      dup9\n      dup9\n      call\n      swap4\n      pop\n      pop\n      pop\n      pop\n      iszero\n      dup1\n      iszero\n      tag_82\n      jumpi\n      returndatasize\n      0x00\n      dup1\n      returndatacopy\n      revert(0x00, returndatasize)\n    tag_82:\n      pop\n        /* \"Hostel.sol\":3954:3967  agreement_idx */\n      0x03\n      0x00\n        /* \"Hostel.sol\":3954:3969  agreement_idx++ */\n      dup2\n      sload\n      dup1\n      swap3\n      swap2\n      swap1\n      tag_83\n      swap1\n      tag_84\n      jump\t// in\n    tag_83:\n      swap2\n      swap1\n      pop\n      sstore\n      pop\n        /* \"Hostel.sol\":4021:4031  msg.sender */\n      caller\n        /* \"Hostel.sol\":3980:3987  RoomMap */\n      0x05\n        /* \"Hostel.sol\":3980:3995  RoomMap[_index] */\n      0x00\n        /* \"Hostel.sol\":3988:3994  _index */\n      dup9\n        /* \"Hostel.sol\":3980:3995  RoomMap[_index] */\n      dup2\n      mstore\n      0x20\n      add\n      swap1\n      dup2\n      mstore\n      0x20\n      add\n      0x00\n      keccak256\n        /* \"Hostel.sol\":3980:4010  RoomMap[_index].tenant_address */\n      0x07\n      add\n      0x01\n        /* \"Hostel.sol\":3980:4032  RoomMap[_index].tenant_address = payable(msg.sender) */\n      0x0100\n      exp\n      dup2\n      sload\n      dup2\n      0xffffffffffffffffffffffffffffffffffffffff\n      mul\n      not\n      and\n      swap1\n      dup4\n      0xffffffffffffffffffffffffffffffffffffffff\n      and\n      mul\n      or\n      swap1\n      sstore\n      pop\n        /* \"Hostel.sol\":4068:4073  false */\n      0x00\n        /* \"Hostel.sol\":4043:4050  RoomMap */\n      0x05\n        /* \"Hostel.sol\":4043:4058  RoomMap[_index] */\n      0x00\n        /* \"Hostel.sol\":4051:4057  _index */\n      dup9\n        /* \"Hostel.sol\":4043:4058  RoomMap[_index] */\n      dup2\n      mstore\n      0x20\n      add\n      swap1\n      dup2\n      mstore\n      0x20\n      add\n      0x00\n      keccak256\n        /* \"Hostel.sol\":4043:4065  RoomMap[_index].vacant */\n      0x07\n      add\n      0x00\n        /* \"Hostel.sol\":4043:4073  RoomMap[_index].vacant = false */\n      0x0100\n      exp\n      dup2\n      sload\n      dup2\n      0xff\n      mul\n      not\n      and\n      swap1\n      dup4\n      iszero\n      iszero\n      mul\n      or\n      swap1\n      sstore\n      pop\n        /* \"Hostel.sol\":4112:4127  block.timestamp */\n      timestamp\n        /* \"Hostel.sol\":4084:4091  RoomMap */\n      0x05\n        /* \"Hostel.sol\":4084:4099  RoomMap[_index] */\n      0x00\n        /* \"Hostel.sol\":4092:4098  _index */\n      dup9\n        /* \"Hostel.sol\":4084:4099  RoomMap[_index] */\n      dup2\n      mstore\n      0x20\n      add\n      swap1\n      dup2\n      mstore\n      0x20\n      add\n      0x00\n      keccak256\n        /* \"Hostel.sol\":4084:4109  RoomMap[_index].timestamp */\n      0x06\n      add\n        /* \"Hostel.sol\":4084:4127  RoomMap[_index].timestamp = block.timestamp */\n      dup2\n      swap1\n      sstore\n      pop\n        /* \"Hostel.sol\":4169:4182  agreement_idx */\n      sload(0x03)\n        /* \"Hostel.sol\":4138:4145  RoomMap */\n      0x05\n        /* \"Hostel.sol\":4138:4153  RoomMap[_index] */\n      0x00\n        /* \"Hostel.sol\":4146:4152  _index */\n      dup9\n        /* \"Hostel.sol\":4138:4153  RoomMap[_index] */\n      dup2\n      mstore\n      0x20\n      add\n      swap1\n      dup2\n      mstore\n      0x20\n      add\n      0x00\n      keccak256\n        /* \"Hostel.sol\":4138:4166  RoomMap[_index].agreement_id */\n      0x01\n      add\n        /* \"Hostel.sol\":4138:4182  RoomMap[_index].agreement_id = agreement_idx */\n      dup2\n      swap1\n      sstore\n      pop\n        /* \"Hostel.sol\":4227:4445  RoomAgreement(_index, agreement_idx, RoomMap[_index].room_name, RoomMap[_index].room_address, RoomMap[_index].rent_per_month, RoomMap[_index].security_deposit, 365 days, block.timestamp, payable(msg.sender), _landlord) */\n      mload(0x40)\n      dup1\n      0x0140\n      add\n      0x40\n      mstore\n      dup1\n        /* \"Hostel.sol\":4241:4247  _index */\n      dup8\n        /* \"Hostel.sol\":4227:4445  RoomAgreement(_index, agreement_idx, RoomMap[_index].room_name, RoomMap[_index].room_address, RoomMap[_index].rent_per_month, RoomMap[_index].security_deposit, 365 days, block.timestamp, payable(msg.sender), _landlord) */\n      dup2\n      mstore\n      0x20\n      add\n        /* \"Hostel.sol\":4249:4262  agreement_idx */\n      sload(0x03)\n        /* \"Hostel.sol\":4227:4445  RoomAgreement(_index, agreement_idx, RoomMap[_index].room_name, RoomMap[_index].room_address, RoomMap[_index].rent_per_month, RoomMap[_index].security_deposit, 365 days, block.timestamp, payable(msg.sender), _landlord) */\n      dup2\n      mstore\n      0x20\n      add\n        /* \"Hostel.sol\":4264:4271  RoomMap */\n      0x05\n        /* \"Hostel.sol\":4264:4279  RoomMap[_index] */\n      0x00\n        /* \"Hostel.sol\":4272:4278  _index */\n      dup10\n        /* \"Hostel.sol\":4264:4279  RoomMap[_index] */\n      dup2\n      mstore\n      0x20\n      add\n      swap1\n      dup2\n      mstore\n      0x20\n      add\n      0x00\n      keccak256\n        /* \"Hostel.sol\":4264:4289  RoomMap[_index].room_name */\n      0x02\n      add\n        /* \"Hostel.sol\":4227:4445  RoomAgreement(_index, agreement_idx, RoomMap[_index].room_name, RoomMap[_index].room_address, RoomMap[_index].rent_per_month, RoomMap[_index].security_deposit, 365 days, block.timestamp, payable(msg.sender), _landlord) */\n      dup1\n      sload\n      tag_85\n      swap1\n      tag_86\n      jump\t// in\n    tag_85:\n      dup1\n      0x1f\n      add\n      0x20\n      dup1\n      swap2\n      div\n      mul\n      0x20\n      add\n      mload(0x40)\n      swap1\n      dup2\n      add\n      0x40\n      mstore\n      dup1\n      swap3\n      swap2\n      swap1\n      dup2\n      dup2\n      mstore\n      0x20\n      add\n      dup3\n      dup1\n      sload\n      tag_87\n      swap1\n      tag_86\n      jump\t// in\n    tag_87:\n      dup1\n      iszero\n      tag_88\n      jumpi\n      dup1\n      0x1f\n      lt\n      tag_89\n      jumpi\n      0x0100\n      dup1\n      dup4\n      sload\n      div\n      mul\n      dup4\n      mstore\n      swap2\n      0x20\n      add\n      swap2\n      jump(tag_88)\n    tag_89:\n      dup3\n      add\n      swap2\n      swap1\n      0x00\n      mstore\n      keccak256(0x00, 0x20)\n      swap1\n    tag_90:\n      dup2\n      sload\n      dup2\n      mstore\n      swap1\n      0x01\n      add\n      swap1\n      0x20\n      add\n      dup1\n      dup4\n      gt\n      tag_90\n      jumpi\n      dup3\n      swap1\n      sub\n      0x1f\n      and\n      dup3\n      add\n      swap2\n    tag_88:\n      pop\n      pop\n      pop\n      pop\n      pop\n      dup2\n      mstore\n      0x20\n      add\n        /* \"Hostel.sol\":4291:4298  RoomMap */\n      0x05\n        /* \"Hostel.sol\":4291:4306  RoomMap[_index] */\n      0x00\n        /* \"Hostel.sol\":4299:4305  _index */\n      dup10\n        /* \"Hostel.sol\":4291:4306  RoomMap[_index] */\n      dup2\n      mstore\n      0x20\n      add\n      swap1\n      dup2\n      mstore\n      0x20\n      add\n      0x00\n      keccak256\n        /* \"Hostel.sol\":4291:4319  RoomMap[_index].room_address */\n      0x03\n      add\n        /* \"Hostel.sol\":4227:4445  RoomAgreement(_index, agreement_idx, RoomMap[_index].room_name, RoomMap[_index].room_address, RoomMap[_index].rent_per_month, RoomMap[_index].security_deposit, 365 days, block.timestamp, payable(msg.sender), _landlord) */\n      dup1\n      sload\n      tag_91\n      swap1\n      tag_86\n      jump\t// in\n    tag_91:\n      dup1\n      0x1f\n      add\n      0x20\n      dup1\n      swap2\n      div\n      mul\n      0x20\n      add\n      mload(0x40)\n      swap1\n      dup2\n      add\n      0x40\n      mstore\n      dup1\n      swap3\n      swap2\n      swap1\n      dup2\n      dup2\n      mstore\n      0x20\n      add\n      dup3\n      dup1\n      sload\n      tag_92\n      swap1\n      tag_86\n      jump\t// in\n    tag_92:\n      dup1\n      iszero\n      tag_93\n      jumpi\n      dup1\n      0x1f\n      lt\n      tag_94\n      jumpi\n      0x0100\n      dup1\n      dup4\n      sload\n      div\n      mul\n      dup4\n      mstore\n      swap2\n      0x20\n      add\n      swap2\n      jump(tag_93)\n    tag_94:\n      dup3\n      add\n      swap2\n      swap1\n      0x00\n      mstore\n      keccak256(0x00, 0x20)\n      swap1\n    tag_95:\n      dup2\n      sload\n      dup2\n      mstore\n      swap1\n      0x01\n      add\n      swap1\n      0x20\n      add\n      dup1\n      dup4\n      gt\n      tag_95\n      jumpi\n      dup3\n      swap1\n      sub\n      0x1f\n      and\n      dup3\n      add\n      swap2\n    tag_93:\n      pop\n      pop\n      pop\n      pop\n      pop\n      dup2\n      mstore\n      0x20\n      add\n        /* \"Hostel.sol\":4321:4328  RoomMap */\n      0x05\n        /* \"Hostel.sol\":4321:4336  RoomMap[_index] */\n      0x00\n        /* \"Hostel.sol\":4329:4335  _index */\n      dup10\n        /* \"Hostel.sol\":4321:4336  RoomMap[_index] */\n      dup2\n      mstore\n      0x20\n      add\n      swap1\n      dup2\n      mstore\n      0x20\n      add\n      0x00\n      keccak256\n        /* \"Hostel.sol\":4321:4351  RoomMap[_index].rent_per_month */\n      0x04\n      add\n      sload\n        /* \"Hostel.sol\":4227:4445  RoomAgreement(_index, agreement_idx, RoomMap[_index].room_name, RoomMap[_index].room_address, RoomMap[_index].rent_per_month, RoomMap[_index].security_deposit, 365 days, block.timestamp, payable(msg.sender), _landlord) */\n      dup2\n      mstore\n      0x20\n      add\n        /* \"Hostel.sol\":4353:4360  RoomMap */\n      0x05\n        /* \"Hostel.sol\":4353:4368  RoomMap[_index] */\n      0x00\n        /* \"Hostel.sol\":4361:4367  _index */\n      dup10\n        /* \"Hostel.sol\":4353:4368  RoomMap[_index] */\n      dup2\n      mstore\n      0x20\n      add\n      swap1\n      dup2\n      mstore\n      0x20\n      add\n      0x00\n      keccak256\n        /* \"Hostel.sol\":4353:4385  RoomMap[_index].security_deposit */\n      0x05\n      add\n      sload\n        /* \"Hostel.sol\":4227:4445  RoomAgreement(_index, agreement_idx, RoomMap[_index].room_name, RoomMap[_index].room_address, RoomMap[_index].rent_per_month, RoomMap[_index].security_deposit, 365 days, block.timestamp, payable(msg.sender), _landlord) */\n      dup2\n      mstore\n      0x20\n      add\n        /* \"Hostel.sol\":4387:4395  365 days */\n      0x01e13380\n        /* \"Hostel.sol\":4227:4445  RoomAgreement(_index, agreement_idx, RoomMap[_index].room_name, RoomMap[_index].room_address, RoomMap[_index].rent_per_month, RoomMap[_index].security_deposit, 365 days, block.timestamp, payable(msg.sender), _landlord) */\n      dup2\n      mstore\n      0x20\n      add\n        /* \"Hostel.sol\":4397:4412  block.timestamp */\n      timestamp\n        /* \"Hostel.sol\":4227:4445  RoomAgreement(_index, agreement_idx, RoomMap[_index].room_name, RoomMap[_index].room_address, RoomMap[_index].rent_per_month, RoomMap[_index].security_deposit, 365 days, block.timestamp, payable(msg.sender), _landlord) */\n      dup2\n      mstore\n      0x20\n      add\n        /* \"Hostel.sol\":4422:4432  msg.sender */\n      caller\n        /* \"Hostel.sol\":4227:4445  RoomAgreement(_index, agreement_idx, RoomMap[_index].room_name, RoomMap[_index].room_address, RoomMap[_index].rent_per_month, RoomMap[_index].security_deposit, 365 days, block.timestamp, payable(msg.sender), _landlord) */\n      0xffffffffffffffffffffffffffffffffffffffff\n      and\n      dup2\n      mstore\n      0x20\n      add\n        /* \"Hostel.sol\":4435:4444  _landlord */\n      dup4\n        /* \"Hostel.sol\":4227:4445  RoomAgreement(_index, agreement_idx, RoomMap[_index].room_name, RoomMap[_index].room_address, RoomMap[_index].rent_per_month, RoomMap[_index].security_deposit, 365 days, block.timestamp, payable(msg.sender), _landlord) */\n      0xffffffffffffffffffffffffffffffffffffffff\n      and\n      dup2\n      mstore\n      pop\n        /* \"Hostel.sol\":4193:4209  RoomAgreementMap */\n      0x06\n        /* \"Hostel.sol\":4193:4224  RoomAgreementMap[agreement_idx] */\n      0x00\n        /* \"Hostel.sol\":4210:4223  agreement_idx */\n      sload(0x03)\n        /* \"Hostel.sol\":4193:4224  RoomAgreementMap[agreement_idx] */\n      dup2\n      mstore\n      0x20\n      add\n      swap1\n      dup2\n      mstore\n      0x20\n      add\n      0x00\n      keccak256\n        /* \"Hostel.sol\":4193:4445  RoomAgreementMap[agreement_idx] = RoomAgreement(_index, agreement_idx, RoomMap[_index].room_name, RoomMap[_index].room_address, RoomMap[_index].rent_per_month, RoomMap[_index].security_deposit, 365 days, block.timestamp, payable(msg.sender), _landlord) */\n      0x00\n      dup3\n      add\n      mload\n      dup2\n      0x00\n      add\n      sstore\n      0x20\n      dup3\n      add\n      mload\n      dup2\n      0x01\n      add\n      sstore\n      0x40\n      dup3\n      add\n      mload\n      dup2\n      0x02\n      add\n      swap1\n      dup2\n      tag_96\n      swap2\n      swap1\n      tag_97\n      jump\t// in\n    tag_96:\n      pop\n      0x60\n      dup3\n      add\n      mload\n      dup2\n      0x03\n      add\n      swap1\n      dup2\n      tag_98\n      swap2\n      swap1\n      tag_97\n      jump\t// in\n    tag_98:\n      pop\n      0x80\n      dup3\n      add\n      mload\n      dup2\n      0x04\n      add\n      sstore\n      0xa0\n      dup3\n      add\n      mload\n      dup2\n      0x05\n      add\n      sstore\n      0xc0\n      dup3\n      add\n      mload\n      dup2\n      0x06\n      add\n      sstore\n      0xe0\n      dup3\n      add\n      mload\n      dup2\n      0x07\n      add\n      sstore\n      0x0100\n      dup3\n      add\n      mload\n      dup2\n      0x08\n      add\n      exp(0x0100, 0x00)\n      dup2\n      sload\n      dup2\n      0xffffffffffffffffffffffffffffffffffffffff\n      mul\n      not\n      and\n      swap1\n      dup4\n      0xffffffffffffffffffffffffffffffffffffffff\n      and\n      mul\n      or\n      swap1\n      sstore\n      pop\n      0x0120\n      dup3\n      add\n      mload\n      dup2\n      0x09\n      add\n      exp(0x0100, 0x00)\n      dup2\n      sload\n      dup2\n      0xffffffffffffffffffffffffffffffffffffffff\n      mul\n      not\n      and\n      swap1\n      dup4\n      0xffffffffffffffffffffffffffffffffffffffff\n      and\n      mul\n      or\n      swap1\n      sstore\n      pop\n      swap1\n      pop\n      pop\n        /* \"Hostel.sol\":4456:4464  rent_idx */\n      0x04\n      0x00\n        /* \"Hostel.sol\":4456:4466  rent_idx++ */\n      dup2\n      sload\n      dup1\n      swap3\n      swap2\n      swap1\n      tag_99\n      swap1\n      tag_84\n      jump\t// in\n    tag_99:\n      swap2\n      swap1\n      pop\n      sstore\n      pop\n        /* \"Hostel.sol\":4497:4672  Rent(rent_idx, _index, agreement_idx, RoomMap[_index].room_name, RoomMap[_index].room_address, RoomMap[_index].rent_per_month, block.timestamp, payable(msg.sender), _landlord) */\n      mload(0x40)\n      dup1\n      0x0120\n      add\n      0x40\n      mstore\n      dup1\n        /* \"Hostel.sol\":4502:4510  rent_idx */\n      sload(0x04)\n        /* \"Hostel.sol\":4497:4672  Rent(rent_idx, _index, agreement_idx, RoomMap[_index].room_name, RoomMap[_index].room_address, RoomMap[_index].rent_per_month, block.timestamp, payable(msg.sender), _landlord) */\n      dup2\n      mstore\n      0x20\n      add\n        /* \"Hostel.sol\":4512:4518  _index */\n      dup8\n        /* \"Hostel.sol\":4497:4672  Rent(rent_idx, _index, agreement_idx, RoomMap[_index].room_name, RoomMap[_index].room_address, RoomMap[_index].rent_per_month, block.timestamp, payable(msg.sender), _landlord) */\n      dup2\n      mstore\n      0x20\n      add\n        /* \"Hostel.sol\":4520:4533  agreement_idx */\n      sload(0x03)\n        /* \"Hostel.sol\":4497:4672  Rent(rent_idx, _index, agreement_idx, RoomMap[_index].room_name, RoomMap[_index].room_address, RoomMap[_index].rent_per_month, block.timestamp, payable(msg.sender), _landlord) */\n      dup2\n      mstore\n      0x20\n      add\n        /* \"Hostel.sol\":4535:4542  RoomMap */\n      0x05\n        /* \"Hostel.sol\":4535:4550  RoomMap[_index] */\n      0x00\n        /* \"Hostel.sol\":4543:4549  _index */\n      dup10\n        /* \"Hostel.sol\":4535:4550  RoomMap[_index] */\n      dup2\n      mstore\n      0x20\n      add\n      swap1\n      dup2\n      mstore\n      0x20\n      add\n      0x00\n      keccak256\n        /* \"Hostel.sol\":4535:4560  RoomMap[_index].room_name */\n      0x02\n      add\n        /* \"Hostel.sol\":4497:4672  Rent(rent_idx, _index, agreement_idx, RoomMap[_index].room_name, RoomMap[_index].room_address, RoomMap[_index].rent_per_month, block.timestamp, payable(msg.sender), _landlord) */\n      dup1\n      sload\n      tag_100\n      swap1\n      tag_86\n      jump\t// in\n    tag_100:\n      dup1\n      0x1f\n      add\n      0x20\n      dup1\n      swap2\n      div\n      mul\n      0x20\n      add\n      mload(0x40)\n      swap1\n      dup2\n      add\n      0x40\n      mstore\n      dup1\n      swap3\n      swap2\n      swap1\n      dup2\n      dup2\n      mstore\n      0x20\n      add\n      dup3\n      dup1\n      sload\n      tag_101\n      swap1\n      tag_86\n      jump\t// in\n    tag_101:\n      dup1\n      iszero\n      tag_102\n      jumpi\n      dup1\n      0x1f\n      lt\n      tag_103\n      jumpi\n      0x0100\n      dup1\n      dup4\n      sload\n      div\n      mul\n      dup4\n      mstore\n      swap2\n      0x20\n      add\n      swap2\n      jump(tag_102)\n    tag_103:\n      dup3\n      add\n      swap2\n      swap1\n      0x00\n      mstore\n      keccak256(0x00, 0x20)\n      swap1\n    tag_104:\n      dup2\n      sload\n      dup2\n      mstore\n      swap1\n      0x01\n      add\n      swap1\n      0x20\n      add\n      dup1\n      dup4\n      gt\n      tag_104\n      jumpi\n      dup3\n      swap1\n      sub\n      0x1f\n      and\n      dup3\n      add\n      swap2\n    tag_102:\n      pop\n      pop\n      pop\n      pop\n      pop\n      dup2\n      mstore\n      0x20\n      add\n        /* \"Hostel.sol\":4562:4569  RoomMap */\n      0x05\n        /* \"Hostel.sol\":4562:4577  RoomMap[_index] */\n      0x00\n        /* \"Hostel.sol\":4570:4576  _index */\n      dup10\n        /* \"Hostel.sol\":4562:4577  RoomMap[_index] */\n      dup2\n      mstore\n      0x20\n      add\n      swap1\n      dup2\n      mstore\n      0x20\n      add\n      0x00\n      keccak256\n        /* \"Hostel.sol\":4562:4590  RoomMap[_index].room_address */\n      0x03\n      add\n        /* \"Hostel.sol\":4497:4672  Rent(rent_idx, _index, agreement_idx, RoomMap[_index].room_name, RoomMap[_index].room_address, RoomMap[_index].rent_per_month, block.timestamp, payable(msg.sender), _landlord) */\n      dup1\n      sload\n      tag_105\n      swap1\n      tag_86\n      jump\t// in\n    tag_105:\n      dup1\n      0x1f\n      add\n      0x20\n      dup1\n      swap2\n      div\n      mul\n      0x20\n      add\n      mload(0x40)\n      swap1\n      dup2\n      add\n      0x40\n      mstore\n      dup1\n      swap3\n      swap2\n      swap1\n      dup2\n      dup2\n      mstore\n      0x20\n      add\n      dup3\n      dup1\n      sload\n      tag_106\n      swap1\n      tag_86\n      jump\t// in\n    tag_106:\n      dup1\n      iszero\n      tag_107\n      jumpi\n      dup1\n      0x1f\n      lt\n      tag_108\n      jumpi\n      0x0100\n      dup1\n      dup4\n      sload\n      div\n      mul\n      dup4\n      mstore\n      swap2\n      0x20\n      add\n      swap2\n      jump(tag_107)\n    tag_108:\n      dup3\n      add\n      swap2\n      swap1\n      0x00\n      mstore\n      keccak256(0x00, 0x20)\n      swap1\n    tag_109:\n      dup2\n      sload\n      dup2\n      mstore\n      swap1\n      0x01\n      add\n      swap1\n      0x20\n      add\n      dup1\n      dup4\n      gt\n      tag_109\n      jumpi\n      dup3\n      swap1\n      sub\n      0x1f\n      and\n      dup3\n      add\n      swap2\n    tag_107:\n      pop\n      pop\n      pop\n      pop\n      pop\n      dup2\n      mstore\n      0x20\n      add\n        /* \"Hostel.sol\":4592:4599  RoomMap */\n      0x05\n        /* \"Hostel.sol\":4592:4607  RoomMap[_index] */\n      0x00\n        /* \"Hostel.sol\":4600:4606  _index */\n      dup10\n        /* \"Hostel.sol\":4592:4607  RoomMap[_index] */\n      dup2\n      mstore\n      0x20\n      add\n      swap1\n      dup2\n      mstore\n      0x20\n      add\n      0x00\n      keccak256\n        /* \"Hostel.sol\":4592:4622  RoomMap[_index].rent_per_month */\n      0x04\n      add\n      sload\n        /* \"Hostel.sol\":4497:4672  Rent(rent_idx, _index, agreement_idx, RoomMap[_index].room_name, RoomMap[_index].room_address, RoomMap[_index].rent_per_month, block.timestamp, payable(msg.sender), _landlord) */\n      dup2\n      mstore\n      0x20\n      add\n        /* \"Hostel.sol\":4624:4639  block.timestamp */\n      timestamp\n        /* \"Hostel.sol\":4497:4672  Rent(rent_idx, _index, agreement_idx, RoomMap[_index].room_name, RoomMap[_index].room_address, RoomMap[_index].rent_per_month, block.timestamp, payable(msg.sender), _landlord) */\n      dup2\n      mstore\n      0x20\n      add\n        /* \"Hostel.sol\":4649:4659  msg.sender */\n      caller\n        /* \"Hostel.sol\":4497:4672  Rent(rent_idx, _index, agreement_idx, RoomMap[_index].room_name, RoomMap[_index].room_address, RoomMap[_index].rent_per_month, block.timestamp, payable(msg.sender), _landlord) */\n      0xffffffffffffffffffffffffffffffffffffffff\n      and\n      dup2\n      mstore\n      0x20\n      add\n        /* \"Hostel.sol\":4662:4671  _landlord */\n      dup4\n        /* \"Hostel.sol\":4497:4672  Rent(rent_idx, _index, agreement_idx, RoomMap[_index].room_name, RoomMap[_index].room_address, RoomMap[_index].rent_per_month, block.timestamp, payable(msg.sender), _landlord) */\n      0xffffffffffffffffffffffffffffffffffffffff\n      and\n      dup2\n      mstore\n      pop\n        /* \"Hostel.sol\":4477:4484  RentMap */\n      0x07\n        /* \"Hostel.sol\":4477:4494  RentMap[rent_idx] */\n      0x00\n        /* \"Hostel.sol\":4485:4493  rent_idx */\n      sload(0x04)\n        /* \"Hostel.sol\":4477:4494  RentMap[rent_idx] */\n      dup2\n      mstore\n      0x20\n      add\n      swap1\n      dup2\n      mstore\n      0x20\n      add\n      0x00\n      keccak256\n        /* \"Hostel.sol\":4477:4672  RentMap[rent_idx] = Rent(rent_idx, _index, agreement_idx, RoomMap[_index].room_name, RoomMap[_index].room_address, RoomMap[_index].rent_per_month, block.timestamp, payable(msg.sender), _landlord) */\n      0x00\n      dup3\n      add\n      mload\n      dup2\n      0x00\n      add\n      sstore\n      0x20\n      dup3\n      add\n      mload\n      dup2\n      0x01\n      add\n      sstore\n      0x40\n      dup3\n      add\n      mload\n      dup2\n      0x02\n      add\n      sstore\n      0x60\n      dup3\n      add\n      mload\n      dup2\n      0x03\n      add\n      swap1\n      dup2\n      tag_110\n      swap2\n      swap1\n      tag_97\n      jump\t// in\n    tag_110:\n      pop\n      0x80\n      dup3\n      add\n      mload\n      dup2\n      0x04\n      add\n      swap1\n      dup2\n      tag_111\n      swap2\n      swap1\n      tag_97\n      jump\t// in\n    tag_111:\n      pop\n      0xa0\n      dup3\n      add\n      mload\n      dup2\n      0x05\n      add\n      sstore\n      0xc0\n      dup3\n      add\n      mload\n      dup2\n      0x06\n      add\n      sstore\n      0xe0\n      dup3\n      add\n      mload\n      dup2\n      0x07\n      add\n      exp(0x0100, 0x00)\n      dup2\n      sload\n      dup2\n      0xffffffffffffffffffffffffffffffffffffffff\n      mul\n      not\n      and\n      swap1\n      dup4\n      0xffffffffffffffffffffffffffffffffffffffff\n      and\n      mul\n      or\n      swap1\n      sstore\n      pop\n      0x0100\n      dup3\n      add\n      mload\n      dup2\n      0x08\n      add\n      exp(0x0100, 0x00)\n      dup2\n      sload\n      dup2\n      0xffffffffffffffffffffffffffffffffffffffff\n      mul\n      not\n      and\n      swap1\n      dup4\n      0xffffffffffffffffffffffffffffffffffffffff\n      and\n      mul\n      or\n      swap1\n      sstore\n      pop\n      swap1\n      pop\n      pop\n        /* \"Hostel.sol\":3693:4680  {... */\n      pop\n      pop\n        /* \"Hostel.sol\":2379:2380  _ */\n      pop\n        /* \"Hostel.sol\":1849:1850  _ */\n      pop\n        /* \"Hostel.sol\":3571:4680  function signAgreement(uint _index) public payable notLandlord(_index) enoughAgreementFee(_index) onlyWhileVacant(_index) {... */\n      pop\n      pop\n      jump\t// out\n        /* \"Hostel.sol\":5355:5810  function agreementCompleted(uint _index) public payable onlyLandlord(_index) agreementTimesUp(_index){... */\n    tag_20:\n        /* \"Hostel.sol\":5424:5430  _index */\n      dup1\n        /* \"Hostel.sol\":1613:1620  RoomMap */\n      0x05\n        /* \"Hostel.sol\":1613:1628  RoomMap[_index] */\n      0x00\n        /* \"Hostel.sol\":1621:1627  _index */\n      dup3\n        /* \"Hostel.sol\":1613:1628  RoomMap[_index] */\n      dup2\n      mstore\n      0x20\n      add\n      swap1\n      dup2\n      mstore\n      0x20\n      add\n      0x00\n      keccak256\n        /* \"Hostel.sol\":1613:1645  RoomMap[_index].landlord_address */\n      0x08\n      add\n      0x00\n      swap1\n      sload\n      swap1\n      0x0100\n      exp\n      swap1\n      div\n      0xffffffffffffffffffffffffffffffffffffffff\n      and\n        /* \"Hostel.sol\":1599:1645  msg.sender == RoomMap[_index].landlord_address */\n      0xffffffffffffffffffffffffffffffffffffffff\n      and\n        /* \"Hostel.sol\":1599:1609  msg.sender */\n      caller\n        /* \"Hostel.sol\":1599:1645  msg.sender == RoomMap[_index].landlord_address */\n      0xffffffffffffffffffffffffffffffffffffffff\n      and\n      eq\n        /* \"Hostel.sol\":1591:1679  require(msg.sender == RoomMap[_index].landlord_address, \"Only landlord can access this\") */\n      tag_113\n      jumpi\n      mload(0x40)\n      0x08c379a000000000000000000000000000000000000000000000000000000000\n      dup2\n      mstore\n      0x04\n      add\n      tag_114\n      swap1\n      tag_115\n      jump\t// in\n    tag_114:\n      mload(0x40)\n      dup1\n      swap2\n      sub\n      swap1\n      revert\n    tag_113:\n        /* \"Hostel.sol\":5449:5455  _index */\n      dup2\n        /* \"Hostel.sol\":2622:2644  uint _agreement_number */\n      0x00\n        /* \"Hostel.sol\":2647:2654  RoomMap */\n      0x05\n        /* \"Hostel.sol\":2647:2662  RoomMap[_index] */\n      0x00\n        /* \"Hostel.sol\":2655:2661  _index */\n      dup4\n        /* \"Hostel.sol\":2647:2662  RoomMap[_index] */\n      dup2\n      mstore\n      0x20\n      add\n      swap1\n      dup2\n      mstore\n      0x20\n      add\n      0x00\n      keccak256\n        /* \"Hostel.sol\":2647:2675  RoomMap[_index].agreement_id */\n      0x01\n      add\n      sload\n        /* \"Hostel.sol\":2622:2675  uint _agreement_number = RoomMap[_index].agreement_id */\n      swap1\n      pop\n        /* \"Hostel.sol\":2686:2695  uint time */\n      0x00\n        /* \"Hostel.sol\":2746:2762  RoomAgreementMap */\n      0x06\n        /* \"Hostel.sol\":2746:2781  RoomAgreementMap[_agreement_number] */\n      0x00\n        /* \"Hostel.sol\":2763:2780  _agreement_number */\n      dup4\n        /* \"Hostel.sol\":2746:2781  RoomAgreementMap[_agreement_number] */\n      dup2\n      mstore\n      0x20\n      add\n      swap1\n      dup2\n      mstore\n      0x20\n      add\n      0x00\n      keccak256\n        /* \"Hostel.sol\":2746:2796  RoomAgreementMap[_agreement_number].lock_in_period */\n      0x06\n      add\n      sload\n        /* \"Hostel.sol\":2698:2714  RoomAgreementMap */\n      0x06\n        /* \"Hostel.sol\":2698:2733  RoomAgreementMap[_agreement_number] */\n      0x00\n        /* \"Hostel.sol\":2715:2732  _agreement_number */\n      dup5\n        /* \"Hostel.sol\":2698:2733  RoomAgreementMap[_agreement_number] */\n      dup2\n      mstore\n      0x20\n      add\n      swap1\n      dup2\n      mstore\n      0x20\n      add\n      0x00\n      keccak256\n        /* \"Hostel.sol\":2698:2743  RoomAgreementMap[_agreement_number].timestamp */\n      0x07\n      add\n      sload\n        /* \"Hostel.sol\":2698:2796  RoomAgreementMap[_agreement_number].timestamp + RoomAgreementMap[_agreement_number].lock_in_period */\n      tag_117\n      swap2\n      swap1\n      tag_70\n      jump\t// in\n    tag_117:\n        /* \"Hostel.sol\":2686:2796  uint time = RoomAgreementMap[_agreement_number].timestamp + RoomAgreementMap[_agreement_number].lock_in_period */\n      swap1\n      pop\n        /* \"Hostel.sol\":2833:2837  time */\n      dup1\n        /* \"Hostel.sol\":2815:2830  block.timestamp */\n      timestamp\n        /* \"Hostel.sol\":2815:2837  block.timestamp < time */\n      lt\n        /* \"Hostel.sol\":2807:2865  require(block.timestamp < time, \"Agreement already ended\") */\n      tag_118\n      jumpi\n      mload(0x40)\n      0x08c379a000000000000000000000000000000000000000000000000000000000\n      dup2\n      mstore\n      0x04\n      add\n      tag_119\n      swap1\n      tag_120\n      jump\t// in\n    tag_119:\n      mload(0x40)\n      dup1\n      swap2\n      sub\n      swap1\n      revert\n    tag_118:\n        /* \"Hostel.sol\":5497:5498  0 */\n      0x00\n        /* \"Hostel.sol\":5475:5499  msg.sender != address(0) */\n      0xffffffffffffffffffffffffffffffffffffffff\n      and\n        /* \"Hostel.sol\":5475:5485  msg.sender */\n      caller\n        /* \"Hostel.sol\":5475:5499  msg.sender != address(0) */\n      0xffffffffffffffffffffffffffffffffffffffff\n      and\n      sub\n        /* \"Hostel.sol\":5467:5500  require(msg.sender != address(0)) */\n      tag_122\n      jumpi\n      0x00\n      dup1\n      revert\n    tag_122:\n        /* \"Hostel.sol\":5545:5550  false */\n      0x00\n        /* \"Hostel.sol\":5519:5550  RoomMap[_index].vacant == false */\n      iszero\n      iszero\n        /* \"Hostel.sol\":5519:5526  RoomMap */\n      0x05\n        /* \"Hostel.sol\":5519:5534  RoomMap[_index] */\n      0x00\n        /* \"Hostel.sol\":5527:5533  _index */\n      dup8\n        /* \"Hostel.sol\":5519:5534  RoomMap[_index] */\n      dup2\n      mstore\n      0x20\n      add\n      swap1\n      dup2\n      mstore\n      0x20\n      add\n      0x00\n      keccak256\n        /* \"Hostel.sol\":5519:5541  RoomMap[_index].vacant */\n      0x07\n      add\n      0x00\n      swap1\n      sload\n      swap1\n      0x0100\n      exp\n      swap1\n      div\n      0xff\n      and\n        /* \"Hostel.sol\":5519:5550  RoomMap[_index].vacant == false */\n      iszero\n      iszero\n      eq\n        /* \"Hostel.sol\":5511:5581  require(RoomMap[_index].vacant == false, \"Room is currently occupied\") */\n      tag_123\n      jumpi\n      mload(0x40)\n      0x08c379a000000000000000000000000000000000000000000000000000000000\n      dup2\n      mstore\n      0x04\n      add\n      tag_124\n      swap1\n      tag_77\n      jump\t// in\n    tag_124:\n      mload(0x40)\n      dup1\n      swap2\n      sub\n      swap1\n      revert\n    tag_123:\n        /* \"Hostel.sol\":5617:5621  true */\n      0x01\n        /* \"Hostel.sol\":5592:5599  RoomMap */\n      0x05\n        /* \"Hostel.sol\":5592:5607  RoomMap[_index] */\n      0x00\n        /* \"Hostel.sol\":5600:5606  _index */\n      dup8\n        /* \"Hostel.sol\":5592:5607  RoomMap[_index] */\n      dup2\n      mstore\n      0x20\n      add\n      swap1\n      dup2\n      mstore\n      0x20\n      add\n      0x00\n      keccak256\n        /* \"Hostel.sol\":5592:5614  RoomMap[_index].vacant */\n      0x07\n      add\n      0x00\n        /* \"Hostel.sol\":5592:5621  RoomMap[_index].vacant = true */\n      0x0100\n      exp\n      dup2\n      sload\n      dup2\n      0xff\n      mul\n      not\n      and\n      swap1\n      dup4\n      iszero\n      iszero\n      mul\n      or\n      swap1\n      sstore\n      pop\n        /* \"Hostel.sol\":5632:5655  address payable _tenant */\n      0x00\n        /* \"Hostel.sol\":5658:5665  RoomMap */\n      0x05\n        /* \"Hostel.sol\":5658:5673  RoomMap[_index] */\n      0x00\n        /* \"Hostel.sol\":5666:5672  _index */\n      dup8\n        /* \"Hostel.sol\":5658:5673  RoomMap[_index] */\n      dup2\n      mstore\n      0x20\n      add\n      swap1\n      dup2\n      mstore\n      0x20\n      add\n      0x00\n      keccak256\n        /* \"Hostel.sol\":5658:5688  RoomMap[_index].tenant_address */\n      0x07\n      add\n      0x01\n      swap1\n      sload\n      swap1\n      0x0100\n      exp\n      swap1\n      div\n      0xffffffffffffffffffffffffffffffffffffffff\n      and\n        /* \"Hostel.sol\":5632:5688  address payable _tenant = RoomMap[_index].tenant_address */\n      swap1\n      pop\n        /* \"Hostel.sol\":5699:5721  uint _security_deposit */\n      0x00\n        /* \"Hostel.sol\":5724:5731  RoomMap */\n      0x05\n        /* \"Hostel.sol\":5724:5739  RoomMap[_index] */\n      0x00\n        /* \"Hostel.sol\":5732:5738  _index */\n      dup9\n        /* \"Hostel.sol\":5724:5739  RoomMap[_index] */\n      dup2\n      mstore\n      0x20\n      add\n      swap1\n      dup2\n      mstore\n      0x20\n      add\n      0x00\n      keccak256\n        /* \"Hostel.sol\":5724:5756  RoomMap[_index].security_deposit */\n      0x05\n      add\n      sload\n        /* \"Hostel.sol\":5699:5756  uint _security_deposit = RoomMap[_index].security_deposit */\n      swap1\n      pop\n        /* \"Hostel.sol\":5767:5774  _tenant */\n      dup2\n        /* \"Hostel.sol\":5767:5783  _tenant.transfer */\n      0xffffffffffffffffffffffffffffffffffffffff\n      and\n        /* \"Hostel.sol\":5767:5802  _tenant.transfer(_security_deposit) */\n      0x08fc\n        /* \"Hostel.sol\":5784:5801  _security_deposit */\n      dup3\n        /* \"Hostel.sol\":5767:5802  _tenant.transfer(_security_deposit) */\n      swap1\n      dup2\n      iszero\n      mul\n      swap1\n      mload(0x40)\n      0x00\n      mload(0x40)\n      dup1\n      dup4\n      sub\n      dup2\n      dup6\n      dup9\n      dup9\n      call\n      swap4\n      pop\n      pop\n      pop\n      pop\n      iszero\n      dup1\n      iszero\n      tag_126\n      jumpi\n      returndatasize\n      0x00\n      dup1\n      returndatacopy\n      revert(0x00, returndatasize)\n    tag_126:\n      pop\n        /* \"Hostel.sol\":5456:5810  {... */\n      pop\n      pop\n        /* \"Hostel.sol\":2611:2885  {... */\n      pop\n      pop\n        /* \"Hostel.sol\":1690:1691  _ */\n      pop\n        /* \"Hostel.sol\":5355:5810  function agreementCompleted(uint _index) public payable onlyLandlord(_index) agreementTimesUp(_index){... */\n      pop\n      pop\n      jump\t// out\n        /* \"Hostel.sol\":264:288  uint public room_idx = 0 */\n    tag_23:\n      sload(0x02)\n      dup2\n      jump\t// out\n        /* \"Hostel.sol\":295:324  uint public agreement_idx = 0 */\n    tag_28:\n      sload(0x03)\n      dup2\n      jump\t// out\n        /* \"Hostel.sol\":5818:6004  function agreementTerminated(uint _index) public onlyLandlord(_index) agreementTimesUp(_index){... */\n    tag_33:\n        /* \"Hostel.sol\":5880:5886  _index */\n      dup1\n        /* \"Hostel.sol\":1613:1620  RoomMap */\n      0x05\n        /* \"Hostel.sol\":1613:1628  RoomMap[_index] */\n      0x00\n        /* \"Hostel.sol\":1621:1627  _index */\n      dup3\n        /* \"Hostel.sol\":1613:1628  RoomMap[_index] */\n      dup2\n      mstore\n      0x20\n      add\n      swap1\n      dup2\n      mstore\n      0x20\n      add\n      0x00\n      keccak256\n        /* \"Hostel.sol\":1613:1645  RoomMap[_index].landlord_address */\n      0x08\n      add\n      0x00\n      swap1\n      sload\n      swap1\n      0x0100\n      exp\n      swap1\n      div\n      0xffffffffffffffffffffffffffffffffffffffff\n      and\n        /* \"Hostel.sol\":1599:1645  msg.sender == RoomMap[_index].landlord_address */\n      0xffffffffffffffffffffffffffffffffffffffff\n      and\n        /* \"Hostel.sol\":1599:1609  msg.sender */\n      caller\n        /* \"Hostel.sol\":1599:1645  msg.sender == RoomMap[_index].landlord_address */\n      0xffffffffffffffffffffffffffffffffffffffff\n      and\n      eq\n        /* \"Hostel.sol\":1591:1679  require(msg.sender == RoomMap[_index].landlord_address, \"Only landlord can access this\") */\n      tag_128\n      jumpi\n      mload(0x40)\n      0x08c379a000000000000000000000000000000000000000000000000000000000\n      dup2\n      mstore\n      0x04\n      add\n      tag_129\n      swap1\n      tag_115\n      jump\t// in\n    tag_129:\n      mload(0x40)\n      dup1\n      swap2\n      sub\n      swap1\n      revert\n    tag_128:\n        /* \"Hostel.sol\":5905:5911  _index */\n      dup2\n        /* \"Hostel.sol\":2622:2644  uint _agreement_number */\n      0x00\n        /* \"Hostel.sol\":2647:2654  RoomMap */\n      0x05\n        /* \"Hostel.sol\":2647:2662  RoomMap[_index] */\n      0x00\n        /* \"Hostel.sol\":2655:2661  _index */\n      dup4\n        /* \"Hostel.sol\":2647:2662  RoomMap[_index] */\n      dup2\n      mstore\n      0x20\n      add\n      swap1\n      dup2\n      mstore\n      0x20\n      add\n      0x00\n      keccak256\n        /* \"Hostel.sol\":2647:2675  RoomMap[_index].agreement_id */\n      0x01\n      add\n      sload\n        /* \"Hostel.sol\":2622:2675  uint _agreement_number = RoomMap[_index].agreement_id */\n      swap1\n      pop\n        /* \"Hostel.sol\":2686:2695  uint time */\n      0x00\n        /* \"Hostel.sol\":2746:2762  RoomAgreementMap */\n      0x06\n        /* \"Hostel.sol\":2746:2781  RoomAgreementMap[_agreement_number] */\n      0x00\n        /* \"Hostel.sol\":2763:2780  _agreement_number */\n      dup4\n        /* \"Hostel.sol\":2746:2781  RoomAgreementMap[_agreement_number] */\n      dup2\n      mstore\n      0x20\n      add\n      swap1\n      dup2\n      mstore\n      0x20\n      add\n      0x00\n      keccak256\n        /* \"Hostel.sol\":2746:2796  RoomAgreementMap[_agreement_number].lock_in_period */\n      0x06\n      add\n      sload\n        /* \"Hostel.sol\":2698:2714  RoomAgreementMap */\n      0x06\n        /* \"Hostel.sol\":2698:2733  RoomAgreementMap[_agreement_number] */\n      0x00\n        /* \"Hostel.sol\":2715:2732  _agreement_number */\n      dup5\n        /* \"Hostel.sol\":2698:2733  RoomAgreementMap[_agreement_number] */\n      dup2\n      mstore\n      0x20\n      add\n      swap1\n      dup2\n      mstore\n      0x20\n      add\n      0x00\n      keccak256\n        /* \"Hostel.sol\":2698:2743  RoomAgreementMap[_agreement_number].timestamp */\n      0x07\n      add\n      sload\n        /* \"Hostel.sol\":2698:2796  RoomAgreementMap[_agreement_number].timestamp + RoomAgreementMap[_agreement_number].lock_in_period */\n      tag_131\n      swap2\n      swap1\n      tag_70\n      jump\t// in\n    tag_131:\n        /* \"Hostel.sol\":2686:2796  uint time = RoomAgreementMap[_agreement_number].timestamp + RoomAgreementMap[_agreement_number].lock_in_period */\n      swap1\n      pop\n        /* \"Hostel.sol\":2833:2837  time */\n      dup1\n        /* \"Hostel.sol\":2815:2830  block.timestamp */\n      timestamp\n        /* \"Hostel.sol\":2815:2837  block.timestamp < time */\n      lt\n        /* \"Hostel.sol\":2807:2865  require(block.timestamp < time, \"Agreement already ended\") */\n      tag_132\n      jumpi\n      mload(0x40)\n      0x08c379a000000000000000000000000000000000000000000000000000000000\n      dup2\n      mstore\n      0x04\n      add\n      tag_133\n      swap1\n      tag_120\n      jump\t// in\n    tag_133:\n      mload(0x40)\n      dup1\n      swap2\n      sub\n      swap1\n      revert\n    tag_132:\n        /* \"Hostel.sol\":5953:5954  0 */\n      0x00\n        /* \"Hostel.sol\":5931:5955  msg.sender == address(0) */\n      0xffffffffffffffffffffffffffffffffffffffff\n      and\n        /* \"Hostel.sol\":5931:5941  msg.sender */\n      caller\n        /* \"Hostel.sol\":5931:5955  msg.sender == address(0) */\n      0xffffffffffffffffffffffffffffffffffffffff\n      and\n      eq\n        /* \"Hostel.sol\":5923:5956  require(msg.sender == address(0)) */\n      tag_135\n      jumpi\n      0x00\n      dup1\n      revert\n    tag_135:\n        /* \"Hostel.sol\":5992:5996  true */\n      0x01\n        /* \"Hostel.sol\":5967:5974  RoomMap */\n      0x05\n        /* \"Hostel.sol\":5967:5982  RoomMap[_index] */\n      0x00\n        /* \"Hostel.sol\":5975:5981  _index */\n      dup8\n        /* \"Hostel.sol\":5967:5982  RoomMap[_index] */\n      dup2\n      mstore\n      0x20\n      add\n      swap1\n      dup2\n      mstore\n      0x20\n      add\n      0x00\n      keccak256\n        /* \"Hostel.sol\":5967:5989  RoomMap[_index].vacant */\n      0x07\n      add\n      0x00\n        /* \"Hostel.sol\":5967:5996  RoomMap[_index].vacant = true */\n      0x0100\n      exp\n      dup2\n      sload\n      dup2\n      0xff\n      mul\n      not\n      and\n      swap1\n      dup4\n      iszero\n      iszero\n      mul\n      or\n      swap1\n      sstore\n      pop\n        /* \"Hostel.sol\":2611:2885  {... */\n      pop\n      pop\n        /* \"Hostel.sol\":1690:1691  _ */\n      pop\n        /* \"Hostel.sol\":5818:6004  function agreementTerminated(uint _index) public onlyLandlord(_index) agreementTimesUp(_index){... */\n      pop\n      pop\n      jump\t// out\n        /* \"Hostel.sol\":1083:1137  mapping(uint => RoomAgreement) public RoomAgreementMap */\n    tag_37:\n      mstore(0x20, 0x06)\n      dup1\n      0x00\n      mstore\n      keccak256(0x00, 0x40)\n      0x00\n      swap2\n      pop\n      swap1\n      pop\n      dup1\n      0x00\n      add\n      sload\n      swap1\n      dup1\n      0x01\n      add\n      sload\n      swap1\n      dup1\n      0x02\n      add\n      dup1\n      sload\n      tag_136\n      swap1\n      tag_86\n      jump\t// in\n    tag_136:\n      dup1\n      0x1f\n      add\n      0x20\n      dup1\n      swap2\n      div\n      mul\n      0x20\n      add\n      mload(0x40)\n      swap1\n      dup2\n      add\n      0x40\n      mstore\n      dup1\n      swap3\n      swap2\n      swap1\n      dup2\n      dup2\n      mstore\n      0x20\n      add\n      dup3\n      dup1\n      sload\n      tag_137\n      swap1\n      tag_86\n      jump\t// in\n    tag_137:\n      dup1\n      iszero\n      tag_138\n      jumpi\n      dup1\n      0x1f\n      lt\n      tag_139\n      jumpi\n      0x0100\n      dup1\n      dup4\n      sload\n      div\n      mul\n      dup4\n      mstore\n      swap2\n      0x20\n      add\n      swap2\n      jump(tag_138)\n    tag_139:\n      dup3\n      add\n      swap2\n      swap1\n      0x00\n      mstore\n      keccak256(0x00, 0x20)\n      swap1\n    tag_140:\n      dup2\n      sload\n      dup2\n      mstore\n      swap1\n      0x01\n      add\n      swap1\n      0x20\n      add\n      dup1\n      dup4\n      gt\n      tag_140\n      jumpi\n      dup3\n      swap1\n      sub\n      0x1f\n      and\n      dup3\n      add\n      swap2\n    tag_138:\n      pop\n      pop\n      pop\n      pop\n      pop\n      swap1\n      dup1\n      0x03\n      add\n      dup1\n      sload\n      tag_141\n      swap1\n      tag_86\n      jump\t// in\n    tag_141:\n      dup1\n      0x1f\n      add\n      0x20\n      dup1\n      swap2\n      div\n      mul\n      0x20\n      add\n      mload(0x40)\n      swap1\n      dup2\n      add\n      0x40\n      mstore\n      dup1\n      swap3\n      swap2\n      swap1\n      dup2\n      dup2\n      mstore\n      0x20\n      add\n      dup3\n      dup1\n      sload\n      tag_142\n      swap1\n      tag_86\n      jump\t// in\n    tag_142:\n      dup1\n      iszero\n      tag_143\n      jumpi\n      dup1\n      0x1f\n      lt\n      tag_144\n      jumpi\n      0x0100\n      dup1\n      dup4\n      sload\n      div\n      mul\n      dup4\n      mstore\n      swap2\n      0x20\n      add\n      swap2\n      jump(tag_143)\n    tag_144:\n      dup3\n      add\n      swap2\n      swap1\n      0x00\n      mstore\n      keccak256(0x00, 0x20)\n      swap1\n    tag_145:\n      dup2\n      sload\n      dup2\n      mstore\n      swap1\n      0x01\n      add\n      swap1\n      0x20\n      add\n      dup1\n      dup4\n      gt\n      tag_145\n      jumpi\n      dup3\n      swap1\n      sub\n      0x1f\n      and\n      dup3\n      add\n      swap2\n    tag_143:\n      pop\n      pop\n      pop\n      pop\n      pop\n      swap1\n      dup1\n      0x04\n      add\n      sload\n      swap1\n      dup1\n      0x05\n      add\n      sload\n      swap1\n      dup1\n      0x06\n      add\n      sload\n      swap1\n      dup1\n      0x07\n      add\n      sload\n      swap1\n      dup1\n      0x08\n      add\n      0x00\n      swap1\n      sload\n      swap1\n      0x0100\n      exp\n      swap1\n      div\n      0xffffffffffffffffffffffffffffffffffffffff\n      and\n      swap1\n      dup1\n      0x09\n      add\n      0x00\n      swap1\n      sload\n      swap1\n      0x0100\n      exp\n      swap1\n      div\n      0xffffffffffffffffffffffffffffffffffffffff\n      and\n      swap1\n      pop\n      dup11\n      jump\t// out\n        /* \"Hostel.sol\":3083:3563  function addRoom(string memory _room_name, string memory _room_address, uint _rent_cost, uint _security_deposit) public {... */\n    tag_44:\n        /* \"Hostel.sol\":3244:3245  0 */\n      0x00\n        /* \"Hostel.sol\":3222:3246  msg.sender != address(0) */\n      0xffffffffffffffffffffffffffffffffffffffff\n      and\n        /* \"Hostel.sol\":3222:3232  msg.sender */\n      caller\n        /* \"Hostel.sol\":3222:3246  msg.sender != address(0) */\n      0xffffffffffffffffffffffffffffffffffffffff\n      and\n      sub\n        /* \"Hostel.sol\":3214:3247  require(msg.sender != address(0)) */\n      tag_147\n      jumpi\n      0x00\n      dup1\n      revert\n    tag_147:\n        /* \"Hostel.sol\":3258:3266  room_idx */\n      0x02\n      0x00\n        /* \"Hostel.sol\":3258:3269  room_idx ++ */\n      dup2\n      sload\n      dup1\n      swap3\n      swap2\n      swap1\n      tag_148\n      swap1\n      tag_84\n      jump\t// in\n    tag_148:\n      swap2\n      swap1\n      pop\n      sstore\n      pop\n        /* \"Hostel.sol\":3280:3293  bool _vacancy */\n      0x00\n        /* \"Hostel.sol\":3296:3300  true */\n      0x01\n        /* \"Hostel.sol\":3280:3300  bool _vacancy = true */\n      swap1\n      pop\n        /* \"Hostel.sol\":3311:3334  address payable _tenant */\n      0x00\n        /* \"Hostel.sol\":3345:3355  msg.sender */\n      caller\n        /* \"Hostel.sol\":3311:3356  address payable _tenant = payable(msg.sender) */\n      swap1\n      pop\n        /* \"Hostel.sol\":3367:3392  address payable _landlord */\n      0x00\n        /* \"Hostel.sol\":3447:3555  Room(room_idx, 0, _room_name, _room_address, _rent_cost, _security_deposit, 0, _vacancy, _tenant, _landlord) */\n      mload(0x40)\n      dup1\n      0x0140\n      add\n      0x40\n      mstore\n      dup1\n        /* \"Hostel.sol\":3452:3460  room_idx */\n      sload(0x02)\n        /* \"Hostel.sol\":3447:3555  Room(room_idx, 0, _room_name, _room_address, _rent_cost, _security_deposit, 0, _vacancy, _tenant, _landlord) */\n      dup2\n      mstore\n      0x20\n      add\n        /* \"Hostel.sol\":3462:3463  0 */\n      0x00\n        /* \"Hostel.sol\":3447:3555  Room(room_idx, 0, _room_name, _room_address, _rent_cost, _security_deposit, 0, _vacancy, _tenant, _landlord) */\n      dup2\n      mstore\n      0x20\n      add\n        /* \"Hostel.sol\":3465:3475  _room_name */\n      dup9\n        /* \"Hostel.sol\":3447:3555  Room(room_idx, 0, _room_name, _room_address, _rent_cost, _security_deposit, 0, _vacancy, _tenant, _landlord) */\n      dup2\n      mstore\n      0x20\n      add\n        /* \"Hostel.sol\":3477:3490  _room_address */\n      dup8\n        /* \"Hostel.sol\":3447:3555  Room(room_idx, 0, _room_name, _room_address, _rent_cost, _security_deposit, 0, _vacancy, _tenant, _landlord) */\n      dup2\n      mstore\n      0x20\n      add\n        /* \"Hostel.sol\":3492:3502  _rent_cost */\n      dup7\n        /* \"Hostel.sol\":3447:3555  Room(room_idx, 0, _room_name, _room_address, _rent_cost, _security_deposit, 0, _vacancy, _tenant, _landlord) */\n      dup2\n      mstore\n      0x20\n      add\n        /* \"Hostel.sol\":3504:3521  _security_deposit */\n      dup6\n        /* \"Hostel.sol\":3447:3555  Room(room_idx, 0, _room_name, _room_address, _rent_cost, _security_deposit, 0, _vacancy, _tenant, _landlord) */\n      dup2\n      mstore\n      0x20\n      add\n        /* \"Hostel.sol\":3523:3524  0 */\n      0x00\n        /* \"Hostel.sol\":3447:3555  Room(room_idx, 0, _room_name, _room_address, _rent_cost, _security_deposit, 0, _vacancy, _tenant, _landlord) */\n      dup2\n      mstore\n      0x20\n      add\n        /* \"Hostel.sol\":3526:3534  _vacancy */\n      dup5\n        /* \"Hostel.sol\":3447:3555  Room(room_idx, 0, _room_name, _room_address, _rent_cost, _security_deposit, 0, _vacancy, _tenant, _landlord) */\n      iszero\n      iszero\n      dup2\n      mstore\n      0x20\n      add\n        /* \"Hostel.sol\":3536:3543  _tenant */\n      dup4\n        /* \"Hostel.sol\":3447:3555  Room(room_idx, 0, _room_name, _room_address, _rent_cost, _security_deposit, 0, _vacancy, _tenant, _landlord) */\n      0xffffffffffffffffffffffffffffffffffffffff\n      and\n      dup2\n      mstore\n      0x20\n      add\n        /* \"Hostel.sol\":3545:3554  _landlord */\n      dup3\n        /* \"Hostel.sol\":3447:3555  Room(room_idx, 0, _room_name, _room_address, _rent_cost, _security_deposit, 0, _vacancy, _tenant, _landlord) */\n      0xffffffffffffffffffffffffffffffffffffffff\n      and\n      dup2\n      mstore\n      pop\n        /* \"Hostel.sol\":3427:3434  RoomMap */\n      0x05\n        /* \"Hostel.sol\":3427:3444  RoomMap[room_idx] */\n      0x00\n        /* \"Hostel.sol\":3435:3443  room_idx */\n      sload(0x02)\n        /* \"Hostel.sol\":3427:3444  RoomMap[room_idx] */\n      dup2\n      mstore\n      0x20\n      add\n      swap1\n      dup2\n      mstore\n      0x20\n      add\n      0x00\n      keccak256\n        /* \"Hostel.sol\":3427:3555  RoomMap[room_idx] = Room(room_idx, 0, _room_name, _room_address, _rent_cost, _security_deposit, 0, _vacancy, _tenant, _landlord) */\n      0x00\n      dup3\n      add\n      mload\n      dup2\n      0x00\n      add\n      sstore\n      0x20\n      dup3\n      add\n      mload\n      dup2\n      0x01\n      add\n      sstore\n      0x40\n      dup3\n      add\n      mload\n      dup2\n      0x02\n      add\n      swap1\n      dup2\n      tag_149\n      swap2\n      swap1\n      tag_97\n      jump\t// in\n    tag_149:\n      pop\n      0x60\n      dup3\n      add\n      mload\n      dup2\n      0x03\n      add\n      swap1\n      dup2\n      tag_150\n      swap2\n      swap1\n      tag_97\n      jump\t// in\n    tag_150:\n      pop\n      0x80\n      dup3\n      add\n      mload\n      dup2\n      0x04\n      add\n      sstore\n      0xa0\n      dup3\n      add\n      mload\n      dup2\n      0x05\n      add\n      sstore\n      0xc0\n      dup3\n      add\n      mload\n      dup2\n      0x06\n      add\n      sstore\n      0xe0\n      dup3\n      add\n      mload\n      dup2\n      0x07\n      add\n      exp(0x0100, 0x00)\n      dup2\n      sload\n      dup2\n      0xff\n      mul\n      not\n      and\n      swap1\n      dup4\n      iszero\n      iszero\n      mul\n      or\n      swap1\n      sstore\n      pop\n      0x0100\n      dup3\n      add\n      mload\n      dup2\n      0x07\n      add\n      exp(0x0100, 0x01)\n      dup2\n      sload\n      dup2\n      0xffffffffffffffffffffffffffffffffffffffff\n      mul\n      not\n      and\n      swap1\n      dup4\n      0xffffffffffffffffffffffffffffffffffffffff\n      and\n      mul\n      or\n      swap1\n      sstore\n      pop\n      0x0120\n      dup3\n      add\n      mload\n      dup2\n      0x08\n      add\n      exp(0x0100, 0x00)\n      dup2\n      sload\n      dup2\n      0xffffffffffffffffffffffffffffffffffffffff\n      mul\n      not\n      and\n      swap1\n      dup4\n      0xffffffffffffffffffffffffffffffffffffffff\n      and\n      mul\n      or\n      swap1\n      sstore\n      pop\n      swap1\n      pop\n      pop\n        /* \"Hostel.sol\":3203:3563  {... */\n      pop\n      pop\n      pop\n        /* \"Hostel.sol\":3083:3563  function addRoom(string memory _room_name, string memory _room_address, uint _rent_cost, uint _security_deposit) public {... */\n      pop\n      pop\n      pop\n      pop\n      jump\t// out\n        /* \"Hostel.sol\":1443:1479  mapping(uint => Rent) public RentMap */\n    tag_48:\n      mstore(0x20, 0x07)\n      dup1\n      0x00\n      mstore\n      keccak256(0x00, 0x40)\n      0x00\n      swap2\n      pop\n      swap1\n      pop\n      dup1\n      0x00\n      add\n      sload\n      swap1\n      dup1\n      0x01\n      add\n      sload\n      swap1\n      dup1\n      0x02\n      add\n      sload\n      swap1\n      dup1\n      0x03\n      add\n      dup1\n      sload\n      tag_151\n      swap1\n      tag_86\n      jump\t// in\n    tag_151:\n      dup1\n      0x1f\n      add\n      0x20\n      dup1\n      swap2\n      div\n      mul\n      0x20\n      add\n      mload(0x40)\n      swap1\n      dup2\n      add\n      0x40\n      mstore\n      dup1\n      swap3\n      swap2\n      swap1\n      dup2\n      dup2\n      mstore\n      0x20\n      add\n      dup3\n      dup1\n      sload\n      tag_152\n      swap1\n      tag_86\n      jump\t// in\n    tag_152:\n      dup1\n      iszero\n      tag_153\n      jumpi\n      dup1\n      0x1f\n      lt\n      tag_154\n      jumpi\n      0x0100\n      dup1\n      dup4\n      sload\n      div\n      mul\n      dup4\n      mstore\n      swap2\n      0x20\n      add\n      swap2\n      jump(tag_153)\n    tag_154:\n      dup3\n      add\n      swap2\n      swap1\n      0x00\n      mstore\n      keccak256(0x00, 0x20)\n      swap1\n    tag_155:\n      dup2\n      sload\n      dup2\n      mstore\n      swap1\n      0x01\n      add\n      swap1\n      0x20\n      add\n      dup1\n      dup4\n      gt\n      tag_155\n      jumpi\n      dup3\n      swap1\n      sub\n      0x1f\n      and\n      dup3\n      add\n      swap2\n    tag_153:\n      pop\n      pop\n      pop\n      pop\n      pop\n      swap1\n      dup1\n      0x04\n      add\n      dup1\n      sload\n      tag_156\n      swap1\n      tag_86\n      jump\t// in\n    tag_156:\n      dup1\n      0x1f\n      add\n      0x20\n      dup1\n      swap2\n      div\n      mul\n      0x20\n      add\n      mload(0x40)\n      swap1\n      dup2\n      add\n      0x40\n      mstore\n      dup1\n      swap3\n      swap2\n      swap1\n      dup2\n      dup2\n      mstore\n      0x20\n      add\n      dup3\n      dup1\n      sload\n      tag_157\n      swap1\n      tag_86\n      jump\t// in\n    tag_157:\n      dup1\n      iszero\n      tag_158\n      jumpi\n      dup1\n      0x1f\n      lt\n      tag_159\n      jumpi\n      0x0100\n      dup1\n      dup4\n      sload\n      div\n      mul\n      dup4\n      mstore\n      swap2\n      0x20\n      add\n      swap2\n      jump(tag_158)\n    tag_159:\n      dup3\n      add\n      swap2\n      swap1\n      0x00\n      mstore\n      keccak256(0x00, 0x20)\n      swap1\n    tag_160:\n      dup2\n      sload\n      dup2\n      mstore\n      swap1\n      0x01\n      add\n      swap1\n      0x20\n      add\n      dup1\n      dup4\n      gt\n      tag_160\n      jumpi\n      dup3\n      swap1\n      sub\n      0x1f\n      and\n      dup3\n      add\n      swap2\n    tag_158:\n      pop\n      pop\n      pop\n      pop\n      pop\n      swap1\n      dup1\n      0x05\n      add\n      sload\n      swap1\n      dup1\n      0x06\n      add\n      sload\n      swap1\n      dup1\n      0x07\n      add\n      0x00\n      swap1\n      sload\n      swap1\n      0x0100\n      exp\n      swap1\n      div\n      0xffffffffffffffffffffffffffffffffffffffff\n      and\n      swap1\n      dup1\n      0x08\n      add\n      0x00\n      swap1\n      sload\n      swap1\n      0x0100\n      exp\n      swap1\n      div\n      0xffffffffffffffffffffffffffffffffffffffff\n      and\n      swap1\n      pop\n      dup10\n      jump\t// out\n        /* \"Hostel.sol\":331:355  uint public rent_idx = 0 */\n    tag_53:\n      sload(0x04)\n      dup2\n      jump\t// out\n        /* \"Hostel.sol\":692:728  mapping(uint => Room) public RoomMap */\n    tag_58:\n      mstore(0x20, 0x05)\n      dup1\n      0x00\n      mstore\n      keccak256(0x00, 0x40)\n      0x00\n      swap2\n      pop\n      swap1\n      pop\n      dup1\n      0x00\n      add\n      sload\n      swap1\n      dup1\n      0x01\n      add\n      sload\n      swap1\n      dup1\n      0x02\n      add\n      dup1\n      sload\n      tag_161\n      swap1\n      tag_86\n      jump\t// in\n    tag_161:\n      dup1\n      0x1f\n      add\n      0x20\n      dup1\n      swap2\n      div\n      mul\n      0x20\n      add\n      mload(0x40)\n      swap1\n      dup2\n      add\n      0x40\n      mstore\n      dup1\n      swap3\n      swap2\n      swap1\n      dup2\n      dup2\n      mstore\n      0x20\n      add\n      dup3\n      dup1\n      sload\n      tag_162\n      swap1\n      tag_86\n      jump\t// in\n    tag_162:\n      dup1\n      iszero\n      tag_163\n      jumpi\n      dup1\n      0x1f\n      lt\n      tag_164\n      jumpi\n      0x0100\n      dup1\n      dup4\n      sload\n      div\n      mul\n      dup4\n      mstore\n      swap2\n      0x20\n      add\n      swap2\n      jump(tag_163)\n    tag_164:\n      dup3\n      add\n      swap2\n      swap1\n      0x00\n      mstore\n      keccak256(0x00, 0x20)\n      swap1\n    tag_165:\n      dup2\n      sload\n      dup2\n      mstore\n      swap1\n      0x01\n      add\n      swap1\n      0x20\n      add\n      dup1\n      dup4\n      gt\n      tag_165\n      jumpi\n      dup3\n      swap1\n      sub\n      0x1f\n      and\n      dup3\n      add\n      swap2\n    tag_163:\n      pop\n      pop\n      pop\n      pop\n      pop\n      swap1\n      dup1\n      0x03\n      add\n      dup1\n      sload\n      tag_166\n      swap1\n      tag_86\n      jump\t// in\n    tag_166:\n      dup1\n      0x1f\n      add\n      0x20\n      dup1\n      swap2\n      div\n      mul\n      0x20\n      add\n      mload(0x40)\n      swap1\n      dup2\n      add\n      0x40\n      mstore\n      dup1\n      swap3\n      swap2\n      swap1\n      dup2\n      dup2\n      mstore\n      0x20\n      add\n      dup3\n      dup1\n      sload\n      tag_167\n      swap1\n      tag_86\n      jump\t// in\n    tag_167:\n      dup1\n      iszero\n      tag_168\n      jumpi\n      dup1\n      0x1f\n      lt\n      tag_169\n      jumpi\n      0x0100\n      dup1\n      dup4\n      sload\n      div\n      mul\n      dup4\n      mstore\n      swap2\n      0x20\n      add\n      swap2\n      jump(tag_168)\n    tag_169:\n      dup3\n      add\n      swap2\n      swap1\n      0x00\n      mstore\n      keccak256(0x00, 0x20)\n      swap1\n    tag_170:\n      dup2\n      sload\n      dup2\n      mstore\n      swap1\n      0x01\n      add\n      swap1\n      0x20\n      add\n      dup1\n      dup4\n      gt\n      tag_170\n      jumpi\n      dup3\n      swap1\n      sub\n      0x1f\n      and\n      dup3\n      add\n      swap2\n    tag_168:\n      pop\n      pop\n      pop\n      pop\n      pop\n      swap1\n      dup1\n      0x04\n      add\n      sload\n      swap1\n      dup1\n      0x05\n      add\n      sload\n      swap1\n      dup1\n      0x06\n      add\n      sload\n      swap1\n      dup1\n      0x07\n      add\n      0x00\n      swap1\n      sload\n      swap1\n      0x0100\n      exp\n      swap1\n      div\n      0xff\n      and\n      swap1\n      dup1\n      0x07\n      add\n      0x01\n      swap1\n      sload\n      swap1\n      0x0100\n      exp\n      swap1\n      div\n      0xffffffffffffffffffffffffffffffffffffffff\n      and\n      swap1\n      dup1\n      0x08\n      add\n      0x00\n      swap1\n      sload\n      swap1\n      0x0100\n      exp\n      swap1\n      div\n      0xffffffffffffffffffffffffffffffffffffffff\n      and\n      swap1\n      pop\n      dup11\n      jump\t// out\n        /* \"Hostel.sol\":4688:5347  function payRent(uint _index) public payable sameTenant(_index) rentTimesUp(_index) enoughRent(_index){... */\n    tag_63:\n        /* \"Hostel.sol\":4744:4750  _index */\n      dup1\n        /* \"Hostel.sol\":2462:2469  RoomMap */\n      0x05\n        /* \"Hostel.sol\":2462:2477  RoomMap[_index] */\n      0x00\n        /* \"Hostel.sol\":2470:2476  _index */\n      dup3\n        /* \"Hostel.sol\":2462:2477  RoomMap[_index] */\n      dup2\n      mstore\n      0x20\n      add\n      swap1\n      dup2\n      mstore\n      0x20\n      add\n      0x00\n      keccak256\n        /* \"Hostel.sol\":2462:2492  RoomMap[_index].tenant_address */\n      0x07\n      add\n      0x01\n      swap1\n      sload\n      swap1\n      0x0100\n      exp\n      swap1\n      div\n      0xffffffffffffffffffffffffffffffffffffffff\n      and\n        /* \"Hostel.sol\":2448:2492  msg.sender == RoomMap[_index].tenant_address */\n      0xffffffffffffffffffffffffffffffffffffffff\n      and\n        /* \"Hostel.sol\":2448:2458  msg.sender */\n      caller\n        /* \"Hostel.sol\":2448:2492  msg.sender == RoomMap[_index].tenant_address */\n      0xffffffffffffffffffffffffffffffffffffffff\n      and\n      eq\n        /* \"Hostel.sol\":2440:2544  require(msg.sender == RoomMap[_index].tenant_address, \"No previous agreement found with you & landlord\") */\n      tag_172\n      jumpi\n      mload(0x40)\n      0x08c379a000000000000000000000000000000000000000000000000000000000\n      dup2\n      mstore\n      0x04\n      add\n      tag_173\n      swap1\n      tag_174\n      jump\t// in\n    tag_173:\n      mload(0x40)\n      dup1\n      swap2\n      sub\n      swap1\n      revert\n    tag_172:\n        /* \"Hostel.sol\":4764:4770  _index */\n      dup2\n        /* \"Hostel.sol\":2938:2947  uint time */\n      0x00\n        /* \"Hostel.sol\":2978:2987  1 minutes */\n      0x3c\n        /* \"Hostel.sol\":2950:2957  RoomMap */\n      0x05\n        /* \"Hostel.sol\":2950:2965  RoomMap[_index] */\n      0x00\n        /* \"Hostel.sol\":2958:2964  _index */\n      dup5\n        /* \"Hostel.sol\":2950:2965  RoomMap[_index] */\n      dup2\n      mstore\n      0x20\n      add\n      swap1\n      dup2\n      mstore\n      0x20\n      add\n      0x00\n      keccak256\n        /* \"Hostel.sol\":2950:2975  RoomMap[_index].timestamp */\n      0x06\n      add\n      sload\n        /* \"Hostel.sol\":2950:2987  RoomMap[_index].timestamp + 1 minutes */\n      tag_176\n      swap2\n      swap1\n      tag_70\n      jump\t// in\n    tag_176:\n        /* \"Hostel.sol\":2938:2987  uint time = RoomMap[_index].timestamp + 1 minutes */\n      swap1\n      pop\n        /* \"Hostel.sol\":3025:3029  time */\n      dup1\n        /* \"Hostel.sol\":3006:3021  block.timestamp */\n      timestamp\n        /* \"Hostel.sol\":3006:3029  block.timestamp >= time */\n      lt\n      iszero\n        /* \"Hostel.sol\":2998:3055  require(block.timestamp >= time, \"Time left to pay rent\") */\n      tag_177\n      jumpi\n      mload(0x40)\n      0x08c379a000000000000000000000000000000000000000000000000000000000\n      dup2\n      mstore\n      0x04\n      add\n      tag_178\n      swap1\n      tag_179\n      jump\t// in\n    tag_178:\n      mload(0x40)\n      dup1\n      swap2\n      sub\n      swap1\n      revert\n    tag_177:\n        /* \"Hostel.sol\":4783:4789  _index */\n      dup4\n        /* \"Hostel.sol\":2081:2088  RoomMap */\n      0x05\n        /* \"Hostel.sol\":2081:2096  RoomMap[_index] */\n      0x00\n        /* \"Hostel.sol\":2089:2095  _index */\n      dup3\n        /* \"Hostel.sol\":2081:2096  RoomMap[_index] */\n      dup2\n      mstore\n      0x20\n      add\n      swap1\n      dup2\n      mstore\n      0x20\n      add\n      0x00\n      keccak256\n        /* \"Hostel.sol\":2081:2111  RoomMap[_index].rent_per_month */\n      0x04\n      add\n      sload\n        /* \"Hostel.sol\":2063:2072  msg.value */\n      callvalue\n        /* \"Hostel.sol\":2063:2112  msg.value >= uint(RoomMap[_index].rent_per_month) */\n      lt\n      iszero\n        /* \"Hostel.sol\":2055:2148  require(msg.value >= uint(RoomMap[_index].rent_per_month), \"Not enough Ether in your wallet\") */\n      tag_181\n      jumpi\n      mload(0x40)\n      0x08c379a000000000000000000000000000000000000000000000000000000000\n      dup2\n      mstore\n      0x04\n      add\n      tag_182\n      swap1\n      tag_73\n      jump\t// in\n    tag_182:\n      mload(0x40)\n      dup1\n      swap2\n      sub\n      swap1\n      revert\n    tag_181:\n        /* \"Hostel.sol\":4831:4832  0 */\n      0x00\n        /* \"Hostel.sol\":4809:4833  msg.sender != address(0) */\n      0xffffffffffffffffffffffffffffffffffffffff\n      and\n        /* \"Hostel.sol\":4809:4819  msg.sender */\n      caller\n        /* \"Hostel.sol\":4809:4833  msg.sender != address(0) */\n      0xffffffffffffffffffffffffffffffffffffffff\n      and\n      sub\n        /* \"Hostel.sol\":4801:4834  require(msg.sender != address(0)) */\n      tag_184\n      jumpi\n      0x00\n      dup1\n      revert\n    tag_184:\n        /* \"Hostel.sol\":4845:4870  address payable _landlord */\n      0x00\n        /* \"Hostel.sol\":4873:4880  RoomMap */\n      0x05\n        /* \"Hostel.sol\":4873:4888  RoomMap[_index] */\n      0x00\n        /* \"Hostel.sol\":4881:4887  _index */\n      dup8\n        /* \"Hostel.sol\":4873:4888  RoomMap[_index] */\n      dup2\n      mstore\n      0x20\n      add\n      swap1\n      dup2\n      mstore\n      0x20\n      add\n      0x00\n      keccak256\n        /* \"Hostel.sol\":4873:4905  RoomMap[_index].landlord_address */\n      0x08\n      add\n      0x00\n      swap1\n      sload\n      swap1\n      0x0100\n      exp\n      swap1\n      div\n      0xffffffffffffffffffffffffffffffffffffffff\n      and\n        /* \"Hostel.sol\":4845:4905  address payable _landlord = RoomMap[_index].landlord_address */\n      swap1\n      pop\n        /* \"Hostel.sol\":4916:4926  uint _rent */\n      0x00\n        /* \"Hostel.sol\":4929:4936  RoomMap */\n      0x05\n        /* \"Hostel.sol\":4929:4944  RoomMap[_index] */\n      0x00\n        /* \"Hostel.sol\":4937:4943  _index */\n      dup9\n        /* \"Hostel.sol\":4929:4944  RoomMap[_index] */\n      dup2\n      mstore\n      0x20\n      add\n      swap1\n      dup2\n      mstore\n      0x20\n      add\n      0x00\n      keccak256\n        /* \"Hostel.sol\":4929:4959  RoomMap[_index].rent_per_month */\n      0x04\n      add\n      sload\n        /* \"Hostel.sol\":4916:4959  uint _rent = RoomMap[_index].rent_per_month */\n      swap1\n      pop\n        /* \"Hostel.sol\":4970:4979  _landlord */\n      dup2\n        /* \"Hostel.sol\":4970:4988  _landlord.transfer */\n      0xffffffffffffffffffffffffffffffffffffffff\n      and\n        /* \"Hostel.sol\":4970:4995  _landlord.transfer(_rent) */\n      0x08fc\n        /* \"Hostel.sol\":4989:4994  _rent */\n      dup3\n        /* \"Hostel.sol\":4970:4995  _landlord.transfer(_rent) */\n      swap1\n      dup2\n      iszero\n      mul\n      swap1\n      mload(0x40)\n      0x00\n      mload(0x40)\n      dup1\n      dup4\n      sub\n      dup2\n      dup6\n      dup9\n      dup9\n      call\n      swap4\n      pop\n      pop\n      pop\n      pop\n      iszero\n      dup1\n      iszero\n      tag_186\n      jumpi\n      returndatasize\n      0x00\n      dup1\n      returndatacopy\n      revert(0x00, returndatasize)\n    tag_186:\n      pop\n        /* \"Hostel.sol\":5047:5057  msg.sender */\n      caller\n        /* \"Hostel.sol\":5006:5013  RoomMap */\n      0x05\n        /* \"Hostel.sol\":5006:5021  RoomMap[_index] */\n      0x00\n        /* \"Hostel.sol\":5014:5020  _index */\n      dup10\n        /* \"Hostel.sol\":5006:5021  RoomMap[_index] */\n      dup2\n      mstore\n      0x20\n      add\n      swap1\n      dup2\n      mstore\n      0x20\n      add\n      0x00\n      keccak256\n        /* \"Hostel.sol\":5006:5036  RoomMap[_index].tenant_address */\n      0x07\n      add\n      0x01\n        /* \"Hostel.sol\":5006:5058  RoomMap[_index].tenant_address = payable(msg.sender) */\n      0x0100\n      exp\n      dup2\n      sload\n      dup2\n      0xffffffffffffffffffffffffffffffffffffffff\n      mul\n      not\n      and\n      swap1\n      dup4\n      0xffffffffffffffffffffffffffffffffffffffff\n      and\n      mul\n      or\n      swap1\n      sstore\n      pop\n        /* \"Hostel.sol\":5094:5099  false */\n      0x00\n        /* \"Hostel.sol\":5069:5076  RoomMap */\n      0x05\n        /* \"Hostel.sol\":5069:5084  RoomMap[_index] */\n      0x00\n        /* \"Hostel.sol\":5077:5083  _index */\n      dup10\n        /* \"Hostel.sol\":5069:5084  RoomMap[_index] */\n      dup2\n      mstore\n      0x20\n      add\n      swap1\n      dup2\n      mstore\n      0x20\n      add\n      0x00\n      keccak256\n        /* \"Hostel.sol\":5069:5091  RoomMap[_index].vacant */\n      0x07\n      add\n      0x00\n        /* \"Hostel.sol\":5069:5099  RoomMap[_index].vacant = false */\n      0x0100\n      exp\n      dup2\n      sload\n      dup2\n      0xff\n      mul\n      not\n      and\n      swap1\n      dup4\n      iszero\n      iszero\n      mul\n      or\n      swap1\n      sstore\n      pop\n        /* \"Hostel.sol\":5110:5118  rent_idx */\n      0x04\n      0x00\n        /* \"Hostel.sol\":5110:5120  rent_idx++ */\n      dup2\n      sload\n      dup1\n      swap3\n      swap2\n      swap1\n      tag_187\n      swap1\n      tag_84\n      jump\t// in\n    tag_187:\n      swap2\n      swap1\n      pop\n      sstore\n      pop\n        /* \"Hostel.sol\":5151:5339  Rent(rent_idx, _index, RoomMap[_index].agreement_id, RoomMap[_index].room_name, RoomMap[_index].room_address, _rent, block.timestamp, payable(msg.sender), RoomMap[_index].landlord_address) */\n      mload(0x40)\n      dup1\n      0x0120\n      add\n      0x40\n      mstore\n      dup1\n        /* \"Hostel.sol\":5156:5164  rent_idx */\n      sload(0x04)\n        /* \"Hostel.sol\":5151:5339  Rent(rent_idx, _index, RoomMap[_index].agreement_id, RoomMap[_index].room_name, RoomMap[_index].room_address, _rent, block.timestamp, payable(msg.sender), RoomMap[_index].landlord_address) */\n      dup2\n      mstore\n      0x20\n      add\n        /* \"Hostel.sol\":5166:5172  _index */\n      dup9\n        /* \"Hostel.sol\":5151:5339  Rent(rent_idx, _index, RoomMap[_index].agreement_id, RoomMap[_index].room_name, RoomMap[_index].room_address, _rent, block.timestamp, payable(msg.sender), RoomMap[_index].landlord_address) */\n      dup2\n      mstore\n      0x20\n      add\n        /* \"Hostel.sol\":5174:5181  RoomMap */\n      0x05\n        /* \"Hostel.sol\":5174:5189  RoomMap[_index] */\n      0x00\n        /* \"Hostel.sol\":5182:5188  _index */\n      dup11\n        /* \"Hostel.sol\":5174:5189  RoomMap[_index] */\n      dup2\n      mstore\n      0x20\n      add\n      swap1\n      dup2\n      mstore\n      0x20\n      add\n      0x00\n      keccak256\n        /* \"Hostel.sol\":5174:5202  RoomMap[_index].agreement_id */\n      0x01\n      add\n      sload\n        /* \"Hostel.sol\":5151:5339  Rent(rent_idx, _index, RoomMap[_index].agreement_id, RoomMap[_index].room_name, RoomMap[_index].room_address, _rent, block.timestamp, payable(msg.sender), RoomMap[_index].landlord_address) */\n      dup2\n      mstore\n      0x20\n      add\n        /* \"Hostel.sol\":5204:5211  RoomMap */\n      0x05\n        /* \"Hostel.sol\":5204:5219  RoomMap[_index] */\n      0x00\n        /* \"Hostel.sol\":5212:5218  _index */\n      dup11\n        /* \"Hostel.sol\":5204:5219  RoomMap[_index] */\n      dup2\n      mstore\n      0x20\n      add\n      swap1\n      dup2\n      mstore\n      0x20\n      add\n      0x00\n      keccak256\n        /* \"Hostel.sol\":5204:5229  RoomMap[_index].room_name */\n      0x02\n      add\n        /* \"Hostel.sol\":5151:5339  Rent(rent_idx, _index, RoomMap[_index].agreement_id, RoomMap[_index].room_name, RoomMap[_index].room_address, _rent, block.timestamp, payable(msg.sender), RoomMap[_index].landlord_address) */\n      dup1\n      sload\n      tag_188\n      swap1\n      tag_86\n      jump\t// in\n    tag_188:\n      dup1\n      0x1f\n      add\n      0x20\n      dup1\n      swap2\n      div\n      mul\n      0x20\n      add\n      mload(0x40)\n      swap1\n      dup2\n      add\n      0x40\n      mstore\n      dup1\n      swap3\n      swap2\n      swap1\n      dup2\n      dup2\n      mstore\n      0x20\n      add\n      dup3\n      dup1\n      sload\n      tag_189\n      swap1\n      tag_86\n      jump\t// in\n    tag_189:\n      dup1\n      iszero\n      tag_190\n      jumpi\n      dup1\n      0x1f\n      lt\n      tag_191\n      jumpi\n      0x0100\n      dup1\n      dup4\n      sload\n      div\n      mul\n      dup4\n      mstore\n      swap2\n      0x20\n      add\n      swap2\n      jump(tag_190)\n    tag_191:\n      dup3\n      add\n      swap2\n      swap1\n      0x00\n      mstore\n      keccak256(0x00, 0x20)\n      swap1\n    tag_192:\n      dup2\n      sload\n      dup2\n      mstore\n      swap1\n      0x01\n      add\n      swap1\n      0x20\n      add\n      dup1\n      dup4\n      gt\n      tag_192\n      jumpi\n      dup3\n      swap1\n      sub\n      0x1f\n      and\n      dup3\n      add\n      swap2\n    tag_190:\n      pop\n      pop\n      pop\n      pop\n      pop\n      dup2\n      mstore\n      0x20\n      add\n        /* \"Hostel.sol\":5231:5238  RoomMap */\n      0x05\n        /* \"Hostel.sol\":5231:5246  RoomMap[_index] */\n      0x00\n        /* \"Hostel.sol\":5239:5245  _index */\n      dup11\n        /* \"Hostel.sol\":5231:5246  RoomMap[_index] */\n      dup2\n      mstore\n      0x20\n      add\n      swap1\n      dup2\n      mstore\n      0x20\n      add\n      0x00\n      keccak256\n        /* \"Hostel.sol\":5231:5259  RoomMap[_index].room_address */\n      0x03\n      add\n        /* \"Hostel.sol\":5151:5339  Rent(rent_idx, _index, RoomMap[_index].agreement_id, RoomMap[_index].room_name, RoomMap[_index].room_address, _rent, block.timestamp, payable(msg.sender), RoomMap[_index].landlord_address) */\n      dup1\n      sload\n      tag_193\n      swap1\n      tag_86\n      jump\t// in\n    tag_193:\n      dup1\n      0x1f\n      add\n      0x20\n      dup1\n      swap2\n      div\n      mul\n      0x20\n      add\n      mload(0x40)\n      swap1\n      dup2\n      add\n      0x40\n      mstore\n      dup1\n      swap3\n      swap2\n      swap1\n      dup2\n      dup2\n      mstore\n      0x20\n      add\n      dup3\n      dup1\n      sload\n      tag_194\n      swap1\n      tag_86\n      jump\t// in\n    tag_194:\n      dup1\n      iszero\n      tag_195\n      jumpi\n      dup1\n      0x1f\n      lt\n      tag_196\n      jumpi\n      0x0100\n      dup1\n      dup4\n      sload\n      div\n      mul\n      dup4\n      mstore\n      swap2\n      0x20\n      add\n      swap2\n      jump(tag_195)\n    tag_196:\n      dup3\n      add\n      swap2\n      swap1\n      0x00\n      mstore\n      keccak256(0x00, 0x20)\n      swap1\n    tag_197:\n      dup2\n      sload\n      dup2\n      mstore\n      swap1\n      0x01\n      add\n      swap1\n      0x20\n      add\n      dup1\n      dup4\n      gt\n      tag_197\n      jumpi\n      dup3\n      swap1\n      sub\n      0x1f\n      and\n      dup3\n      add\n      swap2\n    tag_195:\n      pop\n      pop\n      pop\n      pop\n      pop\n      dup2\n      mstore\n      0x20\n      add\n        /* \"Hostel.sol\":5261:5266  _rent */\n      dup3\n        /* \"Hostel.sol\":5151:5339  Rent(rent_idx, _index, RoomMap[_index].agreement_id, RoomMap[_index].room_name, RoomMap[_index].room_address, _rent, block.timestamp, payable(msg.sender), RoomMap[_index].landlord_address) */\n      dup2\n      mstore\n      0x20\n      add\n        /* \"Hostel.sol\":5268:5283  block.timestamp */\n      timestamp\n        /* \"Hostel.sol\":5151:5339  Rent(rent_idx, _index, RoomMap[_index].agreement_id, RoomMap[_index].room_name, RoomMap[_index].room_address, _rent, block.timestamp, payable(msg.sender), RoomMap[_index].landlord_address) */\n      dup2\n      mstore\n      0x20\n      add\n        /* \"Hostel.sol\":5293:5303  msg.sender */\n      caller\n        /* \"Hostel.sol\":5151:5339  Rent(rent_idx, _index, RoomMap[_index].agreement_id, RoomMap[_index].room_name, RoomMap[_index].room_address, _rent, block.timestamp, payable(msg.sender), RoomMap[_index].landlord_address) */\n      0xffffffffffffffffffffffffffffffffffffffff\n      and\n      dup2\n      mstore\n      0x20\n      add\n        /* \"Hostel.sol\":5306:5313  RoomMap */\n      0x05\n        /* \"Hostel.sol\":5306:5321  RoomMap[_index] */\n      0x00\n        /* \"Hostel.sol\":5314:5320  _index */\n      dup11\n        /* \"Hostel.sol\":5306:5321  RoomMap[_index] */\n      dup2\n      mstore\n      0x20\n      add\n      swap1\n      dup2\n      mstore\n      0x20\n      add\n      0x00\n      keccak256\n        /* \"Hostel.sol\":5306:5338  RoomMap[_index].landlord_address */\n      0x08\n      add\n      0x00\n      swap1\n      sload\n      swap1\n      0x0100\n      exp\n      swap1\n      div\n      0xffffffffffffffffffffffffffffffffffffffff\n      and\n        /* \"Hostel.sol\":5151:5339  Rent(rent_idx, _index, RoomMap[_index].agreement_id, RoomMap[_index].room_name, RoomMap[_index].room_address, _rent, block.timestamp, payable(msg.sender), RoomMap[_index].landlord_address) */\n      0xffffffffffffffffffffffffffffffffffffffff\n      and\n      dup2\n      mstore\n      pop\n        /* \"Hostel.sol\":5131:5138  RentMap */\n      0x07\n        /* \"Hostel.sol\":5131:5148  RentMap[rent_idx] */\n      0x00\n        /* \"Hostel.sol\":5139:5147  rent_idx */\n      sload(0x04)\n        /* \"Hostel.sol\":5131:5148  RentMap[rent_idx] */\n      dup2\n      mstore\n      0x20\n      add\n      swap1\n      dup2\n      mstore\n      0x20\n      add\n      0x00\n      keccak256\n        /* \"Hostel.sol\":5131:5339  RentMap[rent_idx] = Rent(rent_idx, _index, RoomMap[_index].agreement_id, RoomMap[_index].room_name, RoomMap[_index].room_address, _rent, block.timestamp, payable(msg.sender), RoomMap[_index].landlord_address) */\n      0x00\n      dup3\n      add\n      mload\n      dup2\n      0x00\n      add\n      sstore\n      0x20\n      dup3\n      add\n      mload\n      dup2\n      0x01\n      add\n      sstore\n      0x40\n      dup3\n      add\n      mload\n      dup2\n      0x02\n      add\n      sstore\n      0x60\n      dup3\n      add\n      mload\n      dup2\n      0x03\n      add\n      swap1\n      dup2\n      tag_198\n      swap2\n      swap1\n      tag_97\n      jump\t// in\n    tag_198:\n      pop\n      0x80\n      dup3\n      add\n      mload\n      dup2\n      0x04\n      add\n      swap1\n      dup2\n      tag_199\n      swap2\n      swap1\n      tag_97\n      jump\t// in\n    tag_199:\n      pop\n      0xa0\n      dup3\n      add\n      mload\n      dup2\n      0x05\n      add\n      sstore\n      0xc0\n      dup3\n      add\n      mload\n      dup2\n      0x06\n      add\n      sstore\n      0xe0\n      dup3\n      add\n      mload\n      dup2\n      0x07\n      add\n      exp(0x0100, 0x00)\n      dup2\n      sload\n      dup2\n      0xffffffffffffffffffffffffffffffffffffffff\n      mul\n      not\n      and\n      swap1\n      dup4\n      0xffffffffffffffffffffffffffffffffffffffff\n      and\n      mul\n      or\n      swap1\n      sstore\n      pop\n      0x0100\n      dup3\n      add\n      mload\n      dup2\n      0x08\n      add\n      exp(0x0100, 0x00)\n      dup2\n      sload\n      dup2\n      0xffffffffffffffffffffffffffffffffffffffff\n      mul\n      not\n      and\n      swap1\n      dup4\n      0xffffffffffffffffffffffffffffffffffffffff\n      and\n      mul\n      or\n      swap1\n      sstore\n      pop\n      swap1\n      pop\n      pop\n        /* \"Hostel.sol\":4790:5347  {... */\n      pop\n      pop\n        /* \"Hostel.sol\":3066:3067  _ */\n      pop\n        /* \"Hostel.sol\":2927:3075  {... */\n      pop\n        /* \"Hostel.sol\":2555:2556  _ */\n      pop\n        /* \"Hostel.sol\":4688:5347  function payRent(uint _index) public payable sameTenant(_index) rentTimesUp(_index) enoughRent(_index){... */\n      pop\n      pop\n      jump\t// out\n        /* \"#utility.yul\":7:82   */\n    tag_200:\n        /* \"#utility.yul\":40:46   */\n      0x00\n        /* \"#utility.yul\":73:75   */\n      0x40\n        /* \"#utility.yul\":67:76   */\n      mload\n        /* \"#utility.yul\":57:76   */\n      swap1\n      pop\n        /* \"#utility.yul\":7:82   */\n      swap1\n      jump\t// out\n        /* \"#utility.yul\":88:205   */\n    tag_201:\n        /* \"#utility.yul\":197:198   */\n      0x00\n        /* \"#utility.yul\":194:195   */\n      dup1\n        /* \"#utility.yul\":187:199   */\n      revert\n        /* \"#utility.yul\":211:328   */\n    tag_202:\n        /* \"#utility.yul\":320:321   */\n      0x00\n        /* \"#utility.yul\":317:318   */\n      dup1\n        /* \"#utility.yul\":310:322   */\n      revert\n        /* \"#utility.yul\":334:411   */\n    tag_203:\n        /* \"#utility.yul\":371:378   */\n      0x00\n        /* \"#utility.yul\":400:405   */\n      dup2\n        /* \"#utility.yul\":389:405   */\n      swap1\n      pop\n        /* \"#utility.yul\":334:411   */\n      swap2\n      swap1\n      pop\n      jump\t// out\n        /* \"#utility.yul\":417:539   */\n    tag_204:\n        /* \"#utility.yul\":490:514   */\n      tag_263\n        /* \"#utility.yul\":508:513   */\n      dup2\n        /* \"#utility.yul\":490:514   */\n      tag_203\n      jump\t// in\n    tag_263:\n        /* \"#utility.yul\":483:488   */\n      dup2\n        /* \"#utility.yul\":480:515   */\n      eq\n        /* \"#utility.yul\":470:533   */\n      tag_264\n      jumpi\n        /* \"#utility.yul\":529:530   */\n      0x00\n        /* \"#utility.yul\":526:527   */\n      dup1\n        /* \"#utility.yul\":519:531   */\n      revert\n        /* \"#utility.yul\":470:533   */\n    tag_264:\n        /* \"#utility.yul\":417:539   */\n      pop\n      jump\t// out\n        /* \"#utility.yul\":545:684   */\n    tag_205:\n        /* \"#utility.yul\":591:596   */\n      0x00\n        /* \"#utility.yul\":629:635   */\n      dup2\n        /* \"#utility.yul\":616:636   */\n      calldataload\n        /* \"#utility.yul\":607:636   */\n      swap1\n      pop\n        /* \"#utility.yul\":645:678   */\n      tag_266\n        /* \"#utility.yul\":672:677   */\n      dup2\n        /* \"#utility.yul\":645:678   */\n      tag_204\n      jump\t// in\n    tag_266:\n        /* \"#utility.yul\":545:684   */\n      swap3\n      swap2\n      pop\n      pop\n      jump\t// out\n        /* \"#utility.yul\":690:1019   */\n    tag_16:\n        /* \"#utility.yul\":749:755   */\n      0x00\n        /* \"#utility.yul\":798:800   */\n      0x20\n        /* \"#utility.yul\":786:795   */\n      dup3\n        /* \"#utility.yul\":777:784   */\n      dup5\n        /* \"#utility.yul\":773:796   */\n      sub\n        /* \"#utility.yul\":769:801   */\n      slt\n        /* \"#utility.yul\":766:885   */\n      iszero\n      tag_268\n      jumpi\n        /* \"#utility.yul\":804:883   */\n      tag_269\n      tag_201\n      jump\t// in\n    tag_269:\n        /* \"#utility.yul\":766:885   */\n    tag_268:\n        /* \"#utility.yul\":924:925   */\n      0x00\n        /* \"#utility.yul\":949:1002   */\n      tag_270\n        /* \"#utility.yul\":994:1001   */\n      dup5\n        /* \"#utility.yul\":985:991   */\n      dup3\n        /* \"#utility.yul\":974:983   */\n      dup6\n        /* \"#utility.yul\":970:992   */\n      add\n        /* \"#utility.yul\":949:1002   */\n      tag_205\n      jump\t// in\n    tag_270:\n        /* \"#utility.yul\":939:1002   */\n      swap2\n      pop\n        /* \"#utility.yul\":895:1012   */\n      pop\n        /* \"#utility.yul\":690:1019   */\n      swap3\n      swap2\n      pop\n      pop\n      jump\t// out\n        /* \"#utility.yul\":1025:1143   */\n    tag_206:\n        /* \"#utility.yul\":1112:1136   */\n      tag_272\n        /* \"#utility.yul\":1130:1135   */\n      dup2\n        /* \"#utility.yul\":1112:1136   */\n      tag_203\n      jump\t// in\n    tag_272:\n        /* \"#utility.yul\":1107:1110   */\n      dup3\n        /* \"#utility.yul\":1100:1137   */\n      mstore\n        /* \"#utility.yul\":1025:1143   */\n      pop\n      pop\n      jump\t// out\n        /* \"#utility.yul\":1149:1371   */\n    tag_25:\n        /* \"#utility.yul\":1242:1246   */\n      0x00\n        /* \"#utility.yul\":1280:1282   */\n      0x20\n        /* \"#utility.yul\":1269:1278   */\n      dup3\n        /* \"#utility.yul\":1265:1283   */\n      add\n        /* \"#utility.yul\":1257:1283   */\n      swap1\n      pop\n        /* \"#utility.yul\":1293:1364   */\n      tag_274\n        /* \"#utility.yul\":1361:1362   */\n      0x00\n        /* \"#utility.yul\":1350:1359   */\n      dup4\n        /* \"#utility.yul\":1346:1363   */\n      add\n        /* \"#utility.yul\":1337:1343   */\n      dup5\n        /* \"#utility.yul\":1293:1364   */\n      tag_206\n      jump\t// in\n    tag_274:\n        /* \"#utility.yul\":1149:1371   */\n      swap3\n      swap2\n      pop\n      pop\n      jump\t// out\n        /* \"#utility.yul\":1377:1476   */\n    tag_207:\n        /* \"#utility.yul\":1429:1435   */\n      0x00\n        /* \"#utility.yul\":1463:1468   */\n      dup2\n        /* \"#utility.yul\":1457:1469   */\n      mload\n        /* \"#utility.yul\":1447:1469   */\n      swap1\n      pop\n        /* \"#utility.yul\":1377:1476   */\n      swap2\n      swap1\n      pop\n      jump\t// out\n        /* \"#utility.yul\":1482:1651   */\n    tag_208:\n        /* \"#utility.yul\":1566:1577   */\n      0x00\n        /* \"#utility.yul\":1600:1606   */\n      dup3\n        /* \"#utility.yul\":1595:1598   */\n      dup3\n        /* \"#utility.yul\":1588:1607   */\n      mstore\n        /* \"#utility.yul\":1640:1644   */\n      0x20\n        /* \"#utility.yul\":1635:1638   */\n      dup3\n        /* \"#utility.yul\":1631:1645   */\n      add\n        /* \"#utility.yul\":1616:1645   */\n      swap1\n      pop\n        /* \"#utility.yul\":1482:1651   */\n      swap3\n      swap2\n      pop\n      pop\n      jump\t// out\n        /* \"#utility.yul\":1657:1903   */\n    tag_209:\n        /* \"#utility.yul\":1738:1739   */\n      0x00\n        /* \"#utility.yul\":1748:1861   */\n    tag_278:\n        /* \"#utility.yul\":1762:1768   */\n      dup4\n        /* \"#utility.yul\":1759:1760   */\n      dup2\n        /* \"#utility.yul\":1756:1769   */\n      lt\n        /* \"#utility.yul\":1748:1861   */\n      iszero\n      tag_280\n      jumpi\n        /* \"#utility.yul\":1847:1848   */\n      dup1\n        /* \"#utility.yul\":1842:1845   */\n      dup3\n        /* \"#utility.yul\":1838:1849   */\n      add\n        /* \"#utility.yul\":1832:1850   */\n      mload\n        /* \"#utility.yul\":1828:1829   */\n      dup2\n        /* \"#utility.yul\":1823:1826   */\n      dup5\n        /* \"#utility.yul\":1819:1830   */\n      add\n        /* \"#utility.yul\":1812:1851   */\n      mstore\n        /* \"#utility.yul\":1784:1786   */\n      0x20\n        /* \"#utility.yul\":1781:1782   */\n      dup2\n        /* \"#utility.yul\":1777:1787   */\n      add\n        /* \"#utility.yul\":1772:1787   */\n      swap1\n      pop\n        /* \"#utility.yul\":1748:1861   */\n      jump(tag_278)\n    tag_280:\n        /* \"#utility.yul\":1895:1896   */\n      0x00\n        /* \"#utility.yul\":1886:1892   */\n      dup5\n        /* \"#utility.yul\":1881:1884   */\n      dup5\n        /* \"#utility.yul\":1877:1893   */\n      add\n        /* \"#utility.yul\":1870:1897   */\n      mstore\n        /* \"#utility.yul\":1719:1903   */\n      pop\n        /* \"#utility.yul\":1657:1903   */\n      pop\n      pop\n      pop\n      jump\t// out\n        /* \"#utility.yul\":1909:2011   */\n    tag_210:\n        /* \"#utility.yul\":1950:1956   */\n      0x00\n        /* \"#utility.yul\":2001:2003   */\n      0x1f\n        /* \"#utility.yul\":1997:2004   */\n      not\n        /* \"#utility.yul\":1992:1994   */\n      0x1f\n        /* \"#utility.yul\":1985:1990   */\n      dup4\n        /* \"#utility.yul\":1981:1995   */\n      add\n        /* \"#utility.yul\":1977:2005   */\n      and\n        /* \"#utility.yul\":1967:2005   */\n      swap1\n      pop\n        /* \"#utility.yul\":1909:2011   */\n      swap2\n      swap1\n      pop\n      jump\t// out\n        /* \"#utility.yul\":2017:2394   */\n    tag_211:\n        /* \"#utility.yul\":2105:2108   */\n      0x00\n        /* \"#utility.yul\":2133:2172   */\n      tag_283\n        /* \"#utility.yul\":2166:2171   */\n      dup3\n        /* \"#utility.yul\":2133:2172   */\n      tag_207\n      jump\t// in\n    tag_283:\n        /* \"#utility.yul\":2188:2259   */\n      tag_284\n        /* \"#utility.yul\":2252:2258   */\n      dup2\n        /* \"#utility.yul\":2247:2250   */\n      dup6\n        /* \"#utility.yul\":2188:2259   */\n      tag_208\n      jump\t// in\n    tag_284:\n        /* \"#utility.yul\":2181:2259   */\n      swap4\n      pop\n        /* \"#utility.yul\":2268:2333   */\n      tag_285\n        /* \"#utility.yul\":2326:2332   */\n      dup2\n        /* \"#utility.yul\":2321:2324   */\n      dup6\n        /* \"#utility.yul\":2314:2318   */\n      0x20\n        /* \"#utility.yul\":2307:2312   */\n      dup7\n        /* \"#utility.yul\":2303:2319   */\n      add\n        /* \"#utility.yul\":2268:2333   */\n      tag_209\n      jump\t// in\n    tag_285:\n        /* \"#utility.yul\":2358:2387   */\n      tag_286\n        /* \"#utility.yul\":2380:2386   */\n      dup2\n        /* \"#utility.yul\":2358:2387   */\n      tag_210\n      jump\t// in\n    tag_286:\n        /* \"#utility.yul\":2353:2356   */\n      dup5\n        /* \"#utility.yul\":2349:2388   */\n      add\n        /* \"#utility.yul\":2342:2388   */\n      swap2\n      pop\n        /* \"#utility.yul\":2109:2394   */\n      pop\n        /* \"#utility.yul\":2017:2394   */\n      swap3\n      swap2\n      pop\n      pop\n      jump\t// out\n        /* \"#utility.yul\":2400:2526   */\n    tag_212:\n        /* \"#utility.yul\":2437:2444   */\n      0x00\n        /* \"#utility.yul\":2477:2519   */\n      0xffffffffffffffffffffffffffffffffffffffff\n        /* \"#utility.yul\":2470:2475   */\n      dup3\n        /* \"#utility.yul\":2466:2520   */\n      and\n        /* \"#utility.yul\":2455:2520   */\n      swap1\n      pop\n        /* \"#utility.yul\":2400:2526   */\n      swap2\n      swap1\n      pop\n      jump\t// out\n        /* \"#utility.yul\":2532:2636   */\n    tag_213:\n        /* \"#utility.yul\":2577:2584   */\n      0x00\n        /* \"#utility.yul\":2606:2630   */\n      tag_289\n        /* \"#utility.yul\":2624:2629   */\n      dup3\n        /* \"#utility.yul\":2606:2630   */\n      tag_212\n      jump\t// in\n    tag_289:\n        /* \"#utility.yul\":2595:2630   */\n      swap1\n      pop\n        /* \"#utility.yul\":2532:2636   */\n      swap2\n      swap1\n      pop\n      jump\t// out\n        /* \"#utility.yul\":2642:2784   */\n    tag_214:\n        /* \"#utility.yul\":2745:2777   */\n      tag_291\n        /* \"#utility.yul\":2771:2776   */\n      dup2\n        /* \"#utility.yul\":2745:2777   */\n      tag_213\n      jump\t// in\n    tag_291:\n        /* \"#utility.yul\":2740:2743   */\n      dup3\n        /* \"#utility.yul\":2733:2778   */\n      mstore\n        /* \"#utility.yul\":2642:2784   */\n      pop\n      pop\n      jump\t// out\n        /* \"#utility.yul\":2790:4255   */\n    tag_39:\n        /* \"#utility.yul\":3207:3211   */\n      0x00\n        /* \"#utility.yul\":3245:3248   */\n      0x0140\n        /* \"#utility.yul\":3234:3243   */\n      dup3\n        /* \"#utility.yul\":3230:3249   */\n      add\n        /* \"#utility.yul\":3222:3249   */\n      swap1\n      pop\n        /* \"#utility.yul\":3259:3330   */\n      tag_293\n        /* \"#utility.yul\":3327:3328   */\n      0x00\n        /* \"#utility.yul\":3316:3325   */\n      dup4\n        /* \"#utility.yul\":3312:3329   */\n      add\n        /* \"#utility.yul\":3303:3309   */\n      dup14\n        /* \"#utility.yul\":3259:3330   */\n      tag_206\n      jump\t// in\n    tag_293:\n        /* \"#utility.yul\":3340:3412   */\n      tag_294\n        /* \"#utility.yul\":3408:3410   */\n      0x20\n        /* \"#utility.yul\":3397:3406   */\n      dup4\n        /* \"#utility.yul\":3393:3411   */\n      add\n        /* \"#utility.yul\":3384:3390   */\n      dup13\n        /* \"#utility.yul\":3340:3412   */\n      tag_206\n      jump\t// in\n    tag_294:\n        /* \"#utility.yul\":3459:3468   */\n      dup2\n        /* \"#utility.yul\":3453:3457   */\n      dup2\n        /* \"#utility.yul\":3449:3469   */\n      sub\n        /* \"#utility.yul\":3444:3446   */\n      0x40\n        /* \"#utility.yul\":3433:3442   */\n      dup4\n        /* \"#utility.yul\":3429:3447   */\n      add\n        /* \"#utility.yul\":3422:3470   */\n      mstore\n        /* \"#utility.yul\":3487:3565   */\n      tag_295\n        /* \"#utility.yul\":3560:3564   */\n      dup2\n        /* \"#utility.yul\":3551:3557   */\n      dup12\n        /* \"#utility.yul\":3487:3565   */\n      tag_211\n      jump\t// in\n    tag_295:\n        /* \"#utility.yul\":3479:3565   */\n      swap1\n      pop\n        /* \"#utility.yul\":3612:3621   */\n      dup2\n        /* \"#utility.yul\":3606:3610   */\n      dup2\n        /* \"#utility.yul\":3602:3622   */\n      sub\n        /* \"#utility.yul\":3597:3599   */\n      0x60\n        /* \"#utility.yul\":3586:3595   */\n      dup4\n        /* \"#utility.yul\":3582:3600   */\n      add\n        /* \"#utility.yul\":3575:3623   */\n      mstore\n        /* \"#utility.yul\":3640:3718   */\n      tag_296\n        /* \"#utility.yul\":3713:3717   */\n      dup2\n        /* \"#utility.yul\":3704:3710   */\n      dup11\n        /* \"#utility.yul\":3640:3718   */\n      tag_211\n      jump\t// in\n    tag_296:\n        /* \"#utility.yul\":3632:3718   */\n      swap1\n      pop\n        /* \"#utility.yul\":3728:3801   */\n      tag_297\n        /* \"#utility.yul\":3796:3799   */\n      0x80\n        /* \"#utility.yul\":3785:3794   */\n      dup4\n        /* \"#utility.yul\":3781:3800   */\n      add\n        /* \"#utility.yul\":3772:3778   */\n      dup10\n        /* \"#utility.yul\":3728:3801   */\n      tag_206\n      jump\t// in\n    tag_297:\n        /* \"#utility.yul\":3811:3884   */\n      tag_298\n        /* \"#utility.yul\":3879:3882   */\n      0xa0\n        /* \"#utility.yul\":3868:3877   */\n      dup4\n        /* \"#utility.yul\":3864:3883   */\n      add\n        /* \"#utility.yul\":3855:3861   */\n      dup9\n        /* \"#utility.yul\":3811:3884   */\n      tag_206\n      jump\t// in\n    tag_298:\n        /* \"#utility.yul\":3894:3967   */\n      tag_299\n        /* \"#utility.yul\":3962:3965   */\n      0xc0\n        /* \"#utility.yul\":3951:3960   */\n      dup4\n        /* \"#utility.yul\":3947:3966   */\n      add\n        /* \"#utility.yul\":3938:3944   */\n      dup8\n        /* \"#utility.yul\":3894:3967   */\n      tag_206\n      jump\t// in\n    tag_299:\n        /* \"#utility.yul\":3977:4050   */\n      tag_300\n        /* \"#utility.yul\":4045:4048   */\n      0xe0\n        /* \"#utility.yul\":4034:4043   */\n      dup4\n        /* \"#utility.yul\":4030:4049   */\n      add\n        /* \"#utility.yul\":4021:4027   */\n      dup7\n        /* \"#utility.yul\":3977:4050   */\n      tag_206\n      jump\t// in\n    tag_300:\n        /* \"#utility.yul\":4060:4149   */\n      tag_301\n        /* \"#utility.yul\":4144:4147   */\n      0x0100\n        /* \"#utility.yul\":4133:4142   */\n      dup4\n        /* \"#utility.yul\":4129:4148   */\n      add\n        /* \"#utility.yul\":4120:4126   */\n      dup6\n        /* \"#utility.yul\":4060:4149   */\n      tag_214\n      jump\t// in\n    tag_301:\n        /* \"#utility.yul\":4159:4248   */\n      tag_302\n        /* \"#utility.yul\":4243:4246   */\n      0x0120\n        /* \"#utility.yul\":4232:4241   */\n      dup4\n        /* \"#utility.yul\":4228:4247   */\n      add\n        /* \"#utility.yul\":4219:4225   */\n      dup5\n        /* \"#utility.yul\":4159:4248   */\n      tag_214\n      jump\t// in\n    tag_302:\n        /* \"#utility.yul\":2790:4255   */\n      swap12\n      swap11\n      pop\n      pop\n      pop\n      pop\n      pop\n      pop\n      pop\n      pop\n      pop\n      pop\n      pop\n      jump\t// out\n        /* \"#utility.yul\":4261:4378   */\n    tag_215:\n        /* \"#utility.yul\":4370:4371   */\n      0x00\n        /* \"#utility.yul\":4367:4368   */\n      dup1\n        /* \"#utility.yul\":4360:4372   */\n      revert\n        /* \"#utility.yul\":4384:4501   */\n    tag_216:\n        /* \"#utility.yul\":4493:4494   */\n      0x00\n        /* \"#utility.yul\":4490:4491   */\n      dup1\n        /* \"#utility.yul\":4483:4495   */\n      revert\n        /* \"#utility.yul\":4507:4687   */\n    tag_217:\n        /* \"#utility.yul\":4555:4632   */\n      0x4e487b7100000000000000000000000000000000000000000000000000000000\n        /* \"#utility.yul\":4552:4553   */\n      0x00\n        /* \"#utility.yul\":4545:4633   */\n      mstore\n        /* \"#utility.yul\":4652:4656   */\n      0x41\n        /* \"#utility.yul\":4649:4650   */\n      0x04\n        /* \"#utility.yul\":4642:4657   */\n      mstore\n        /* \"#utility.yul\":4676:4680   */\n      0x24\n        /* \"#utility.yul\":4673:4674   */\n      0x00\n        /* \"#utility.yul\":4666:4681   */\n      revert\n        /* \"#utility.yul\":4693:4974   */\n    tag_218:\n        /* \"#utility.yul\":4776:4803   */\n      tag_307\n        /* \"#utility.yul\":4798:4802   */\n      dup3\n        /* \"#utility.yul\":4776:4803   */\n      tag_210\n      jump\t// in\n    tag_307:\n        /* \"#utility.yul\":4768:4774   */\n      dup2\n        /* \"#utility.yul\":4764:4804   */\n      add\n        /* \"#utility.yul\":4906:4912   */\n      dup2\n        /* \"#utility.yul\":4894:4904   */\n      dup2\n        /* \"#utility.yul\":4891:4913   */\n      lt\n        /* \"#utility.yul\":4870:4888   */\n      0xffffffffffffffff\n        /* \"#utility.yul\":4858:4868   */\n      dup3\n        /* \"#utility.yul\":4855:4889   */\n      gt\n        /* \"#utility.yul\":4852:4914   */\n      or\n        /* \"#utility.yul\":4849:4937   */\n      iszero\n      tag_308\n      jumpi\n        /* \"#utility.yul\":4917:4935   */\n      tag_309\n      tag_217\n      jump\t// in\n    tag_309:\n        /* \"#utility.yul\":4849:4937   */\n    tag_308:\n        /* \"#utility.yul\":4957:4967   */\n      dup1\n        /* \"#utility.yul\":4953:4955   */\n      0x40\n        /* \"#utility.yul\":4946:4968   */\n      mstore\n        /* \"#utility.yul\":4736:4974   */\n      pop\n        /* \"#utility.yul\":4693:4974   */\n      pop\n      pop\n      jump\t// out\n        /* \"#utility.yul\":4980:5109   */\n    tag_219:\n        /* \"#utility.yul\":5014:5020   */\n      0x00\n        /* \"#utility.yul\":5041:5061   */\n      tag_311\n      tag_200\n      jump\t// in\n    tag_311:\n        /* \"#utility.yul\":5031:5061   */\n      swap1\n      pop\n        /* \"#utility.yul\":5070:5103   */\n      tag_312\n        /* \"#utility.yul\":5098:5102   */\n      dup3\n        /* \"#utility.yul\":5090:5096   */\n      dup3\n        /* \"#utility.yul\":5070:5103   */\n      tag_218\n      jump\t// in\n    tag_312:\n        /* \"#utility.yul\":4980:5109   */\n      swap2\n      swap1\n      pop\n      jump\t// out\n        /* \"#utility.yul\":5115:5423   */\n    tag_220:\n        /* \"#utility.yul\":5177:5181   */\n      0x00\n        /* \"#utility.yul\":5267:5285   */\n      0xffffffffffffffff\n        /* \"#utility.yul\":5259:5265   */\n      dup3\n        /* \"#utility.yul\":5256:5286   */\n      gt\n        /* \"#utility.yul\":5253:5309   */\n      iszero\n      tag_314\n      jumpi\n        /* \"#utility.yul\":5289:5307   */\n      tag_315\n      tag_217\n      jump\t// in\n    tag_315:\n        /* \"#utility.yul\":5253:5309   */\n    tag_314:\n        /* \"#utility.yul\":5327:5356   */\n      tag_316\n        /* \"#utility.yul\":5349:5355   */\n      dup3\n        /* \"#utility.yul\":5327:5356   */\n      tag_210\n      jump\t// in\n    tag_316:\n        /* \"#utility.yul\":5319:5356   */\n      swap1\n      pop\n        /* \"#utility.yul\":5411:5415   */\n      0x20\n        /* \"#utility.yul\":5405:5409   */\n      dup2\n        /* \"#utility.yul\":5401:5416   */\n      add\n        /* \"#utility.yul\":5393:5416   */\n      swap1\n      pop\n        /* \"#utility.yul\":5115:5423   */\n      swap2\n      swap1\n      pop\n      jump\t// out\n        /* \"#utility.yul\":5429:5575   */\n    tag_221:\n        /* \"#utility.yul\":5526:5532   */\n      dup3\n        /* \"#utility.yul\":5521:5524   */\n      dup2\n        /* \"#utility.yul\":5516:5519   */\n      dup4\n        /* \"#utility.yul\":5503:5533   */\n      calldatacopy\n        /* \"#utility.yul\":5567:5568   */\n      0x00\n        /* \"#utility.yul\":5558:5564   */\n      dup4\n        /* \"#utility.yul\":5553:5556   */\n      dup4\n        /* \"#utility.yul\":5549:5565   */\n      add\n        /* \"#utility.yul\":5542:5569   */\n      mstore\n        /* \"#utility.yul\":5429:5575   */\n      pop\n      pop\n      pop\n      jump\t// out\n        /* \"#utility.yul\":5581:6006   */\n    tag_222:\n        /* \"#utility.yul\":5659:5664   */\n      0x00\n        /* \"#utility.yul\":5684:5750   */\n      tag_319\n        /* \"#utility.yul\":5700:5749   */\n      tag_320\n        /* \"#utility.yul\":5742:5748   */\n      dup5\n        /* \"#utility.yul\":5700:5749   */\n      tag_220\n      jump\t// in\n    tag_320:\n        /* \"#utility.yul\":5684:5750   */\n      tag_219\n      jump\t// in\n    tag_319:\n        /* \"#utility.yul\":5675:5750   */\n      swap1\n      pop\n        /* \"#utility.yul\":5773:5779   */\n      dup3\n        /* \"#utility.yul\":5766:5771   */\n      dup2\n        /* \"#utility.yul\":5759:5780   */\n      mstore\n        /* \"#utility.yul\":5811:5815   */\n      0x20\n        /* \"#utility.yul\":5804:5809   */\n      dup2\n        /* \"#utility.yul\":5800:5816   */\n      add\n        /* \"#utility.yul\":5849:5852   */\n      dup5\n        /* \"#utility.yul\":5840:5846   */\n      dup5\n        /* \"#utility.yul\":5835:5838   */\n      dup5\n        /* \"#utility.yul\":5831:5847   */\n      add\n        /* \"#utility.yul\":5828:5853   */\n      gt\n        /* \"#utility.yul\":5825:5937   */\n      iszero\n      tag_321\n      jumpi\n        /* \"#utility.yul\":5856:5935   */\n      tag_322\n      tag_216\n      jump\t// in\n    tag_322:\n        /* \"#utility.yul\":5825:5937   */\n    tag_321:\n        /* \"#utility.yul\":5946:6000   */\n      tag_323\n        /* \"#utility.yul\":5993:5999   */\n      dup5\n        /* \"#utility.yul\":5988:5991   */\n      dup3\n        /* \"#utility.yul\":5983:5986   */\n      dup6\n        /* \"#utility.yul\":5946:6000   */\n      tag_221\n      jump\t// in\n    tag_323:\n        /* \"#utility.yul\":5665:6006   */\n      pop\n        /* \"#utility.yul\":5581:6006   */\n      swap4\n      swap3\n      pop\n      pop\n      pop\n      jump\t// out\n        /* \"#utility.yul\":6026:6366   */\n    tag_223:\n        /* \"#utility.yul\":6082:6087   */\n      0x00\n        /* \"#utility.yul\":6131:6134   */\n      dup3\n        /* \"#utility.yul\":6124:6128   */\n      0x1f\n        /* \"#utility.yul\":6116:6122   */\n      dup4\n        /* \"#utility.yul\":6112:6129   */\n      add\n        /* \"#utility.yul\":6108:6135   */\n      slt\n        /* \"#utility.yul\":6098:6220   */\n      tag_325\n      jumpi\n        /* \"#utility.yul\":6139:6218   */\n      tag_326\n      tag_215\n      jump\t// in\n    tag_326:\n        /* \"#utility.yul\":6098:6220   */\n    tag_325:\n        /* \"#utility.yul\":6256:6262   */\n      dup2\n        /* \"#utility.yul\":6243:6263   */\n      calldataload\n        /* \"#utility.yul\":6281:6360   */\n      tag_327\n        /* \"#utility.yul\":6356:6359   */\n      dup5\n        /* \"#utility.yul\":6348:6354   */\n      dup3\n        /* \"#utility.yul\":6341:6345   */\n      0x20\n        /* \"#utility.yul\":6333:6339   */\n      dup7\n        /* \"#utility.yul\":6329:6346   */\n      add\n        /* \"#utility.yul\":6281:6360   */\n      tag_222\n      jump\t// in\n    tag_327:\n        /* \"#utility.yul\":6272:6360   */\n      swap2\n      pop\n        /* \"#utility.yul\":6088:6366   */\n      pop\n        /* \"#utility.yul\":6026:6366   */\n      swap3\n      swap2\n      pop\n      pop\n      jump\t// out\n        /* \"#utility.yul\":6372:7497   */\n    tag_43:\n        /* \"#utility.yul\":6478:6484   */\n      0x00\n        /* \"#utility.yul\":6486:6492   */\n      dup1\n        /* \"#utility.yul\":6494:6500   */\n      0x00\n        /* \"#utility.yul\":6502:6508   */\n      dup1\n        /* \"#utility.yul\":6551:6554   */\n      0x80\n        /* \"#utility.yul\":6539:6548   */\n      dup6\n        /* \"#utility.yul\":6530:6537   */\n      dup8\n        /* \"#utility.yul\":6526:6549   */\n      sub\n        /* \"#utility.yul\":6522:6555   */\n      slt\n        /* \"#utility.yul\":6519:6639   */\n      iszero\n      tag_329\n      jumpi\n        /* \"#utility.yul\":6558:6637   */\n      tag_330\n      tag_201\n      jump\t// in\n    tag_330:\n        /* \"#utility.yul\":6519:6639   */\n    tag_329:\n        /* \"#utility.yul\":6706:6707   */\n      0x00\n        /* \"#utility.yul\":6695:6704   */\n      dup6\n        /* \"#utility.yul\":6691:6708   */\n      add\n        /* \"#utility.yul\":6678:6709   */\n      calldataload\n        /* \"#utility.yul\":6736:6754   */\n      0xffffffffffffffff\n        /* \"#utility.yul\":6728:6734   */\n      dup2\n        /* \"#utility.yul\":6725:6755   */\n      gt\n        /* \"#utility.yul\":6722:6839   */\n      iszero\n      tag_331\n      jumpi\n        /* \"#utility.yul\":6758:6837   */\n      tag_332\n      tag_202\n      jump\t// in\n    tag_332:\n        /* \"#utility.yul\":6722:6839   */\n    tag_331:\n        /* \"#utility.yul\":6863:6926   */\n      tag_333\n        /* \"#utility.yul\":6918:6925   */\n      dup8\n        /* \"#utility.yul\":6909:6915   */\n      dup3\n        /* \"#utility.yul\":6898:6907   */\n      dup9\n        /* \"#utility.yul\":6894:6916   */\n      add\n        /* \"#utility.yul\":6863:6926   */\n      tag_223\n      jump\t// in\n    tag_333:\n        /* \"#utility.yul\":6853:6926   */\n      swap5\n      pop\n        /* \"#utility.yul\":6649:6936   */\n      pop\n        /* \"#utility.yul\":7003:7005   */\n      0x20\n        /* \"#utility.yul\":6992:7001   */\n      dup6\n        /* \"#utility.yul\":6988:7006   */\n      add\n        /* \"#utility.yul\":6975:7007   */\n      calldataload\n        /* \"#utility.yul\":7034:7052   */\n      0xffffffffffffffff\n        /* \"#utility.yul\":7026:7032   */\n      dup2\n        /* \"#utility.yul\":7023:7053   */\n      gt\n        /* \"#utility.yul\":7020:7137   */\n      iszero\n      tag_334\n      jumpi\n        /* \"#utility.yul\":7056:7135   */\n      tag_335\n      tag_202\n      jump\t// in\n    tag_335:\n        /* \"#utility.yul\":7020:7137   */\n    tag_334:\n        /* \"#utility.yul\":7161:7224   */\n      tag_336\n        /* \"#utility.yul\":7216:7223   */\n      dup8\n        /* \"#utility.yul\":7207:7213   */\n      dup3\n        /* \"#utility.yul\":7196:7205   */\n      dup9\n        /* \"#utility.yul\":7192:7214   */\n      add\n        /* \"#utility.yul\":7161:7224   */\n      tag_223\n      jump\t// in\n    tag_336:\n        /* \"#utility.yul\":7151:7224   */\n      swap4\n      pop\n        /* \"#utility.yul\":6946:7234   */\n      pop\n        /* \"#utility.yul\":7273:7275   */\n      0x40\n        /* \"#utility.yul\":7299:7352   */\n      tag_337\n        /* \"#utility.yul\":7344:7351   */\n      dup8\n        /* \"#utility.yul\":7335:7341   */\n      dup3\n        /* \"#utility.yul\":7324:7333   */\n      dup9\n        /* \"#utility.yul\":7320:7342   */\n      add\n        /* \"#utility.yul\":7299:7352   */\n      tag_205\n      jump\t// in\n    tag_337:\n        /* \"#utility.yul\":7289:7352   */\n      swap3\n      pop\n        /* \"#utility.yul\":7244:7362   */\n      pop\n        /* \"#utility.yul\":7401:7403   */\n      0x60\n        /* \"#utility.yul\":7427:7480   */\n      tag_338\n        /* \"#utility.yul\":7472:7479   */\n      dup8\n        /* \"#utility.yul\":7463:7469   */\n      dup3\n        /* \"#utility.yul\":7452:7461   */\n      dup9\n        /* \"#utility.yul\":7448:7470   */\n      add\n        /* \"#utility.yul\":7427:7480   */\n      tag_205\n      jump\t// in\n    tag_338:\n        /* \"#utility.yul\":7417:7480   */\n      swap2\n      pop\n        /* \"#utility.yul\":7372:7490   */\n      pop\n        /* \"#utility.yul\":6372:7497   */\n      swap3\n      swap6\n      swap2\n      swap5\n      pop\n      swap3\n      pop\n      jump\t// out\n        /* \"#utility.yul\":7503:8857   */\n    tag_50:\n        /* \"#utility.yul\":7892:7896   */\n      0x00\n        /* \"#utility.yul\":7930:7933   */\n      0x0120\n        /* \"#utility.yul\":7919:7928   */\n      dup3\n        /* \"#utility.yul\":7915:7934   */\n      add\n        /* \"#utility.yul\":7907:7934   */\n      swap1\n      pop\n        /* \"#utility.yul\":7944:8015   */\n      tag_340\n        /* \"#utility.yul\":8012:8013   */\n      0x00\n        /* \"#utility.yul\":8001:8010   */\n      dup4\n        /* \"#utility.yul\":7997:8014   */\n      add\n        /* \"#utility.yul\":7988:7994   */\n      dup13\n        /* \"#utility.yul\":7944:8015   */\n      tag_206\n      jump\t// in\n    tag_340:\n        /* \"#utility.yul\":8025:8097   */\n      tag_341\n        /* \"#utility.yul\":8093:8095   */\n      0x20\n        /* \"#utility.yul\":8082:8091   */\n      dup4\n        /* \"#utility.yul\":8078:8096   */\n      add\n        /* \"#utility.yul\":8069:8075   */\n      dup12\n        /* \"#utility.yul\":8025:8097   */\n      tag_206\n      jump\t// in\n    tag_341:\n        /* \"#utility.yul\":8107:8179   */\n      tag_342\n        /* \"#utility.yul\":8175:8177   */\n      0x40\n        /* \"#utility.yul\":8164:8173   */\n      dup4\n        /* \"#utility.yul\":8160:8178   */\n      add\n        /* \"#utility.yul\":8151:8157   */\n      dup11\n        /* \"#utility.yul\":8107:8179   */\n      tag_206\n      jump\t// in\n    tag_342:\n        /* \"#utility.yul\":8226:8235   */\n      dup2\n        /* \"#utility.yul\":8220:8224   */\n      dup2\n        /* \"#utility.yul\":8216:8236   */\n      sub\n        /* \"#utility.yul\":8211:8213   */\n      0x60\n        /* \"#utility.yul\":8200:8209   */\n      dup4\n        /* \"#utility.yul\":8196:8214   */\n      add\n        /* \"#utility.yul\":8189:8237   */\n      mstore\n        /* \"#utility.yul\":8254:8332   */\n      tag_343\n        /* \"#utility.yul\":8327:8331   */\n      dup2\n        /* \"#utility.yul\":8318:8324   */\n      dup10\n        /* \"#utility.yul\":8254:8332   */\n      tag_211\n      jump\t// in\n    tag_343:\n        /* \"#utility.yul\":8246:8332   */\n      swap1\n      pop\n        /* \"#utility.yul\":8380:8389   */\n      dup2\n        /* \"#utility.yul\":8374:8378   */\n      dup2\n        /* \"#utility.yul\":8370:8390   */\n      sub\n        /* \"#utility.yul\":8364:8367   */\n      0x80\n        /* \"#utility.yul\":8353:8362   */\n      dup4\n        /* \"#utility.yul\":8349:8368   */\n      add\n        /* \"#utility.yul\":8342:8391   */\n      mstore\n        /* \"#utility.yul\":8408:8486   */\n      tag_344\n        /* \"#utility.yul\":8481:8485   */\n      dup2\n        /* \"#utility.yul\":8472:8478   */\n      dup9\n        /* \"#utility.yul\":8408:8486   */\n      tag_211\n      jump\t// in\n    tag_344:\n        /* \"#utility.yul\":8400:8486   */\n      swap1\n      pop\n        /* \"#utility.yul\":8496:8569   */\n      tag_345\n        /* \"#utility.yul\":8564:8567   */\n      0xa0\n        /* \"#utility.yul\":8553:8562   */\n      dup4\n        /* \"#utility.yul\":8549:8568   */\n      add\n        /* \"#utility.yul\":8540:8546   */\n      dup8\n        /* \"#utility.yul\":8496:8569   */\n      tag_206\n      jump\t// in\n    tag_345:\n        /* \"#utility.yul\":8579:8652   */\n      tag_346\n        /* \"#utility.yul\":8647:8650   */\n      0xc0\n        /* \"#utility.yul\":8636:8645   */\n      dup4\n        /* \"#utility.yul\":8632:8651   */\n      add\n        /* \"#utility.yul\":8623:8629   */\n      dup7\n        /* \"#utility.yul\":8579:8652   */\n      tag_206\n      jump\t// in\n    tag_346:\n        /* \"#utility.yul\":8662:8751   */\n      tag_347\n        /* \"#utility.yul\":8746:8749   */\n      0xe0\n        /* \"#utility.yul\":8735:8744   */\n      dup4\n        /* \"#utility.yul\":8731:8750   */\n      add\n        /* \"#utility.yul\":8722:8728   */\n      dup6\n        /* \"#utility.yul\":8662:8751   */\n      tag_214\n      jump\t// in\n    tag_347:\n        /* \"#utility.yul\":8761:8850   */\n      tag_348\n        /* \"#utility.yul\":8845:8848   */\n      0x0100\n        /* \"#utility.yul\":8834:8843   */\n      dup4\n        /* \"#utility.yul\":8830:8849   */\n      add\n        /* \"#utility.yul\":8821:8827   */\n      dup5\n        /* \"#utility.yul\":8761:8850   */\n      tag_214\n      jump\t// in\n    tag_348:\n        /* \"#utility.yul\":7503:8857   */\n      swap11\n      swap10\n      pop\n      pop\n      pop\n      pop\n      pop\n      pop\n      pop\n      pop\n      pop\n      pop\n      jump\t// out\n        /* \"#utility.yul\":8863:8953   */\n    tag_224:\n        /* \"#utility.yul\":8897:8904   */\n      0x00\n        /* \"#utility.yul\":8940:8945   */\n      dup2\n        /* \"#utility.yul\":8933:8946   */\n      iszero\n        /* \"#utility.yul\":8926:8947   */\n      iszero\n        /* \"#utility.yul\":8915:8947   */\n      swap1\n      pop\n        /* \"#utility.yul\":8863:8953   */\n      swap2\n      swap1\n      pop\n      jump\t// out\n        /* \"#utility.yul\":8959:9068   */\n    tag_225:\n        /* \"#utility.yul\":9040:9061   */\n      tag_351\n        /* \"#utility.yul\":9055:9060   */\n      dup2\n        /* \"#utility.yul\":9040:9061   */\n      tag_224\n      jump\t// in\n    tag_351:\n        /* \"#utility.yul\":9035:9038   */\n      dup3\n        /* \"#utility.yul\":9028:9062   */\n      mstore\n        /* \"#utility.yul\":8959:9068   */\n      pop\n      pop\n      jump\t// out\n        /* \"#utility.yul\":9074:10527   */\n    tag_60:\n        /* \"#utility.yul\":9485:9489   */\n      0x00\n        /* \"#utility.yul\":9523:9526   */\n      0x0140\n        /* \"#utility.yul\":9512:9521   */\n      dup3\n        /* \"#utility.yul\":9508:9527   */\n      add\n        /* \"#utility.yul\":9500:9527   */\n      swap1\n      pop\n        /* \"#utility.yul\":9537:9608   */\n      tag_353\n        /* \"#utility.yul\":9605:9606   */\n      0x00\n        /* \"#utility.yul\":9594:9603   */\n      dup4\n        /* \"#utility.yul\":9590:9607   */\n      add\n        /* \"#utility.yul\":9581:9587   */\n      dup14\n        /* \"#utility.yul\":9537:9608   */\n      tag_206\n      jump\t// in\n    tag_353:\n        /* \"#utility.yul\":9618:9690   */\n      tag_354\n        /* \"#utility.yul\":9686:9688   */\n      0x20\n        /* \"#utility.yul\":9675:9684   */\n      dup4\n        /* \"#utility.yul\":9671:9689   */\n      add\n        /* \"#utility.yul\":9662:9668   */\n      dup13\n        /* \"#utility.yul\":9618:9690   */\n      tag_206\n      jump\t// in\n    tag_354:\n        /* \"#utility.yul\":9737:9746   */\n      dup2\n        /* \"#utility.yul\":9731:9735   */\n      dup2\n        /* \"#utility.yul\":9727:9747   */\n      sub\n        /* \"#utility.yul\":9722:9724   */\n      0x40\n        /* \"#utility.yul\":9711:9720   */\n      dup4\n        /* \"#utility.yul\":9707:9725   */\n      add\n        /* \"#utility.yul\":9700:9748   */\n      mstore\n        /* \"#utility.yul\":9765:9843   */\n      tag_355\n        /* \"#utility.yul\":9838:9842   */\n      dup2\n        /* \"#utility.yul\":9829:9835   */\n      dup12\n        /* \"#utility.yul\":9765:9843   */\n      tag_211\n      jump\t// in\n    tag_355:\n        /* \"#utility.yul\":9757:9843   */\n      swap1\n      pop\n        /* \"#utility.yul\":9890:9899   */\n      dup2\n        /* \"#utility.yul\":9884:9888   */\n      dup2\n        /* \"#utility.yul\":9880:9900   */\n      sub\n        /* \"#utility.yul\":9875:9877   */\n      0x60\n        /* \"#utility.yul\":9864:9873   */\n      dup4\n        /* \"#utility.yul\":9860:9878   */\n      add\n        /* \"#utility.yul\":9853:9901   */\n      mstore\n        /* \"#utility.yul\":9918:9996   */\n      tag_356\n        /* \"#utility.yul\":9991:9995   */\n      dup2\n        /* \"#utility.yul\":9982:9988   */\n      dup11\n        /* \"#utility.yul\":9918:9996   */\n      tag_211\n      jump\t// in\n    tag_356:\n        /* \"#utility.yul\":9910:9996   */\n      swap1\n      pop\n        /* \"#utility.yul\":10006:10079   */\n      tag_357\n        /* \"#utility.yul\":10074:10077   */\n      0x80\n        /* \"#utility.yul\":10063:10072   */\n      dup4\n        /* \"#utility.yul\":10059:10078   */\n      add\n        /* \"#utility.yul\":10050:10056   */\n      dup10\n        /* \"#utility.yul\":10006:10079   */\n      tag_206\n      jump\t// in\n    tag_357:\n        /* \"#utility.yul\":10089:10162   */\n      tag_358\n        /* \"#utility.yul\":10157:10160   */\n      0xa0\n        /* \"#utility.yul\":10146:10155   */\n      dup4\n        /* \"#utility.yul\":10142:10161   */\n      add\n        /* \"#utility.yul\":10133:10139   */\n      dup9\n        /* \"#utility.yul\":10089:10162   */\n      tag_206\n      jump\t// in\n    tag_358:\n        /* \"#utility.yul\":10172:10245   */\n      tag_359\n        /* \"#utility.yul\":10240:10243   */\n      0xc0\n        /* \"#utility.yul\":10229:10238   */\n      dup4\n        /* \"#utility.yul\":10225:10244   */\n      add\n        /* \"#utility.yul\":10216:10222   */\n      dup8\n        /* \"#utility.yul\":10172:10245   */\n      tag_206\n      jump\t// in\n    tag_359:\n        /* \"#utility.yul\":10255:10322   */\n      tag_360\n        /* \"#utility.yul\":10317:10320   */\n      0xe0\n        /* \"#utility.yul\":10306:10315   */\n      dup4\n        /* \"#utility.yul\":10302:10321   */\n      add\n        /* \"#utility.yul\":10293:10299   */\n      dup7\n        /* \"#utility.yul\":10255:10322   */\n      tag_225\n      jump\t// in\n    tag_360:\n        /* \"#utility.yul\":10332:10421   */\n      tag_361\n        /* \"#utility.yul\":10416:10419   */\n      0x0100\n        /* \"#utility.yul\":10405:10414   */\n      dup4\n        /* \"#utility.yul\":10401:10420   */\n      add\n        /* \"#utility.yul\":10392:10398   */\n      dup6\n        /* \"#utility.yul\":10332:10421   */\n      tag_214\n      jump\t// in\n    tag_361:\n        /* \"#utility.yul\":10431:10520   */\n      tag_362\n        /* \"#utility.yul\":10515:10518   */\n      0x0120\n        /* \"#utility.yul\":10504:10513   */\n      dup4\n        /* \"#utility.yul\":10500:10519   */\n      add\n        /* \"#utility.yul\":10491:10497   */\n      dup5\n        /* \"#utility.yul\":10431:10520   */\n      tag_214\n      jump\t// in\n    tag_362:\n        /* \"#utility.yul\":9074:10527   */\n      swap12\n      swap11\n      pop\n      pop\n      pop\n      pop\n      pop\n      pop\n      pop\n      pop\n      pop\n      pop\n      pop\n      jump\t// out\n        /* \"#utility.yul\":10533:10710   */\n    tag_226:\n        /* \"#utility.yul\":10673:10702   */\n      0x4f6e6c792074656e616e742063616e2061636365737320746869730000000000\n        /* \"#utility.yul\":10669:10670   */\n      0x00\n        /* \"#utility.yul\":10661:10667   */\n      dup3\n        /* \"#utility.yul\":10657:10671   */\n      add\n        /* \"#utility.yul\":10650:10703   */\n      mstore\n        /* \"#utility.yul\":10533:10710   */\n      pop\n      jump\t// out\n        /* \"#utility.yul\":10716:11082   */\n    tag_227:\n        /* \"#utility.yul\":10858:10861   */\n      0x00\n        /* \"#utility.yul\":10879:10946   */\n      tag_365\n        /* \"#utility.yul\":10943:10945   */\n      0x1b\n        /* \"#utility.yul\":10938:10941   */\n      dup4\n        /* \"#utility.yul\":10879:10946   */\n      tag_208\n      jump\t// in\n    tag_365:\n        /* \"#utility.yul\":10872:10946   */\n      swap2\n      pop\n        /* \"#utility.yul\":10955:11048   */\n      tag_366\n        /* \"#utility.yul\":11044:11047   */\n      dup3\n        /* \"#utility.yul\":10955:11048   */\n      tag_226\n      jump\t// in\n    tag_366:\n        /* \"#utility.yul\":11073:11075   */\n      0x20\n        /* \"#utility.yul\":11068:11071   */\n      dup3\n        /* \"#utility.yul\":11064:11076   */\n      add\n        /* \"#utility.yul\":11057:11076   */\n      swap1\n      pop\n        /* \"#utility.yul\":10716:11082   */\n      swap2\n      swap1\n      pop\n      jump\t// out\n        /* \"#utility.yul\":11088:11507   */\n    tag_67:\n        /* \"#utility.yul\":11254:11258   */\n      0x00\n        /* \"#utility.yul\":11292:11294   */\n      0x20\n        /* \"#utility.yul\":11281:11290   */\n      dup3\n        /* \"#utility.yul\":11277:11295   */\n      add\n        /* \"#utility.yul\":11269:11295   */\n      swap1\n      pop\n        /* \"#utility.yul\":11341:11350   */\n      dup2\n        /* \"#utility.yul\":11335:11339   */\n      dup2\n        /* \"#utility.yul\":11331:11351   */\n      sub\n        /* \"#utility.yul\":11327:11328   */\n      0x00\n        /* \"#utility.yul\":11316:11325   */\n      dup4\n        /* \"#utility.yul\":11312:11329   */\n      add\n        /* \"#utility.yul\":11305:11352   */\n      mstore\n        /* \"#utility.yul\":11369:11500   */\n      tag_368\n        /* \"#utility.yul\":11495:11499   */\n      dup2\n        /* \"#utility.yul\":11369:11500   */\n      tag_227\n      jump\t// in\n    tag_368:\n        /* \"#utility.yul\":11361:11500   */\n      swap1\n      pop\n        /* \"#utility.yul\":11088:11507   */\n      swap2\n      swap1\n      pop\n      jump\t// out\n        /* \"#utility.yul\":11513:11693   */\n    tag_228:\n        /* \"#utility.yul\":11561:11638   */\n      0x4e487b7100000000000000000000000000000000000000000000000000000000\n        /* \"#utility.yul\":11558:11559   */\n      0x00\n        /* \"#utility.yul\":11551:11639   */\n      mstore\n        /* \"#utility.yul\":11658:11662   */\n      0x11\n        /* \"#utility.yul\":11655:11656   */\n      0x04\n        /* \"#utility.yul\":11648:11663   */\n      mstore\n        /* \"#utility.yul\":11682:11686   */\n      0x24\n        /* \"#utility.yul\":11679:11680   */\n      0x00\n        /* \"#utility.yul\":11672:11687   */\n      revert\n        /* \"#utility.yul\":11699:11890   */\n    tag_70:\n        /* \"#utility.yul\":11739:11742   */\n      0x00\n        /* \"#utility.yul\":11758:11778   */\n      tag_371\n        /* \"#utility.yul\":11776:11777   */\n      dup3\n        /* \"#utility.yul\":11758:11778   */\n      tag_203\n      jump\t// in\n    tag_371:\n        /* \"#utility.yul\":11753:11778   */\n      swap2\n      pop\n        /* \"#utility.yul\":11792:11812   */\n      tag_372\n        /* \"#utility.yul\":11810:11811   */\n      dup4\n        /* \"#utility.yul\":11792:11812   */\n      tag_203\n      jump\t// in\n    tag_372:\n        /* \"#utility.yul\":11787:11812   */\n      swap3\n      pop\n        /* \"#utility.yul\":11835:11836   */\n      dup3\n        /* \"#utility.yul\":11832:11833   */\n      dup3\n        /* \"#utility.yul\":11828:11837   */\n      add\n        /* \"#utility.yul\":11821:11837   */\n      swap1\n      pop\n        /* \"#utility.yul\":11856:11859   */\n      dup1\n        /* \"#utility.yul\":11853:11854   */\n      dup3\n        /* \"#utility.yul\":11850:11860   */\n      gt\n        /* \"#utility.yul\":11847:11883   */\n      iszero\n      tag_373\n      jumpi\n        /* \"#utility.yul\":11863:11881   */\n      tag_374\n      tag_228\n      jump\t// in\n    tag_374:\n        /* \"#utility.yul\":11847:11883   */\n    tag_373:\n        /* \"#utility.yul\":11699:11890   */\n      swap3\n      swap2\n      pop\n      pop\n      jump\t// out\n        /* \"#utility.yul\":11896:12077   */\n    tag_229:\n        /* \"#utility.yul\":12036:12069   */\n      0x4e6f7420656e6f75676820457468657220696e20796f75722077616c6c657400\n        /* \"#utility.yul\":12032:12033   */\n      0x00\n        /* \"#utility.yul\":12024:12030   */\n      dup3\n        /* \"#utility.yul\":12020:12034   */\n      add\n        /* \"#utility.yul\":12013:12070   */\n      mstore\n        /* \"#utility.yul\":11896:12077   */\n      pop\n      jump\t// out\n        /* \"#utility.yul\":12083:12449   */\n    tag_230:\n        /* \"#utility.yul\":12225:12228   */\n      0x00\n        /* \"#utility.yul\":12246:12313   */\n      tag_377\n        /* \"#utility.yul\":12310:12312   */\n      0x1f\n        /* \"#utility.yul\":12305:12308   */\n      dup4\n        /* \"#utility.yul\":12246:12313   */\n      tag_208\n      jump\t// in\n    tag_377:\n        /* \"#utility.yul\":12239:12313   */\n      swap2\n      pop\n        /* \"#utility.yul\":12322:12415   */\n      tag_378\n        /* \"#utility.yul\":12411:12414   */\n      dup3\n        /* \"#utility.yul\":12322:12415   */\n      tag_229\n      jump\t// in\n    tag_378:\n        /* \"#utility.yul\":12440:12442   */\n      0x20\n        /* \"#utility.yul\":12435:12438   */\n      dup3\n        /* \"#utility.yul\":12431:12443   */\n      add\n        /* \"#utility.yul\":12424:12443   */\n      swap1\n      pop\n        /* \"#utility.yul\":12083:12449   */\n      swap2\n      swap1\n      pop\n      jump\t// out\n        /* \"#utility.yul\":12455:12874   */\n    tag_73:\n        /* \"#utility.yul\":12621:12625   */\n      0x00\n        /* \"#utility.yul\":12659:12661   */\n      0x20\n        /* \"#utility.yul\":12648:12657   */\n      dup3\n        /* \"#utility.yul\":12644:12662   */\n      add\n        /* \"#utility.yul\":12636:12662   */\n      swap1\n      pop\n        /* \"#utility.yul\":12708:12717   */\n      dup2\n        /* \"#utility.yul\":12702:12706   */\n      dup2\n        /* \"#utility.yul\":12698:12718   */\n      sub\n        /* \"#utility.yul\":12694:12695   */\n      0x00\n        /* \"#utility.yul\":12683:12692   */\n      dup4\n        /* \"#utility.yul\":12679:12696   */\n      add\n        /* \"#utility.yul\":12672:12719   */\n      mstore\n        /* \"#utility.yul\":12736:12867   */\n      tag_380\n        /* \"#utility.yul\":12862:12866   */\n      dup2\n        /* \"#utility.yul\":12736:12867   */\n      tag_230\n      jump\t// in\n    tag_380:\n        /* \"#utility.yul\":12728:12867   */\n      swap1\n      pop\n        /* \"#utility.yul\":12455:12874   */\n      swap2\n      swap1\n      pop\n      jump\t// out\n        /* \"#utility.yul\":12880:13056   */\n    tag_231:\n        /* \"#utility.yul\":13020:13048   */\n      0x526f6f6d2069732063757272656e746c79206f63637570696564000000000000\n        /* \"#utility.yul\":13016:13017   */\n      0x00\n        /* \"#utility.yul\":13008:13014   */\n      dup3\n        /* \"#utility.yul\":13004:13018   */\n      add\n        /* \"#utility.yul\":12997:13049   */\n      mstore\n        /* \"#utility.yul\":12880:13056   */\n      pop\n      jump\t// out\n        /* \"#utility.yul\":13062:13428   */\n    tag_232:\n        /* \"#utility.yul\":13204:13207   */\n      0x00\n        /* \"#utility.yul\":13225:13292   */\n      tag_383\n        /* \"#utility.yul\":13289:13291   */\n      0x1a\n        /* \"#utility.yul\":13284:13287   */\n      dup4\n        /* \"#utility.yul\":13225:13292   */\n      tag_208\n      jump\t// in\n    tag_383:\n        /* \"#utility.yul\":13218:13292   */\n      swap2\n      pop\n        /* \"#utility.yul\":13301:13394   */\n      tag_384\n        /* \"#utility.yul\":13390:13393   */\n      dup3\n        /* \"#utility.yul\":13301:13394   */\n      tag_231\n      jump\t// in\n    tag_384:\n        /* \"#utility.yul\":13419:13421   */\n      0x20\n        /* \"#utility.yul\":13414:13417   */\n      dup3\n        /* \"#utility.yul\":13410:13422   */\n      add\n        /* \"#utility.yul\":13403:13422   */\n      swap1\n      pop\n        /* \"#utility.yul\":13062:13428   */\n      swap2\n      swap1\n      pop\n      jump\t// out\n        /* \"#utility.yul\":13434:13853   */\n    tag_77:\n        /* \"#utility.yul\":13600:13604   */\n      0x00\n        /* \"#utility.yul\":13638:13640   */\n      0x20\n        /* \"#utility.yul\":13627:13636   */\n      dup3\n        /* \"#utility.yul\":13623:13641   */\n      add\n        /* \"#utility.yul\":13615:13641   */\n      swap1\n      pop\n        /* \"#utility.yul\":13687:13696   */\n      dup2\n        /* \"#utility.yul\":13681:13685   */\n      dup2\n        /* \"#utility.yul\":13677:13697   */\n      sub\n        /* \"#utility.yul\":13673:13674   */\n      0x00\n        /* \"#utility.yul\":13662:13671   */\n      dup4\n        /* \"#utility.yul\":13658:13675   */\n      add\n        /* \"#utility.yul\":13651:13698   */\n      mstore\n        /* \"#utility.yul\":13715:13846   */\n      tag_386\n        /* \"#utility.yul\":13841:13845   */\n      dup2\n        /* \"#utility.yul\":13715:13846   */\n      tag_232\n      jump\t// in\n    tag_386:\n        /* \"#utility.yul\":13707:13846   */\n      swap1\n      pop\n        /* \"#utility.yul\":13434:13853   */\n      swap2\n      swap1\n      pop\n      jump\t// out\n        /* \"#utility.yul\":13859:14092   */\n    tag_84:\n        /* \"#utility.yul\":13898:13901   */\n      0x00\n        /* \"#utility.yul\":13921:13945   */\n      tag_388\n        /* \"#utility.yul\":13939:13944   */\n      dup3\n        /* \"#utility.yul\":13921:13945   */\n      tag_203\n      jump\t// in\n    tag_388:\n        /* \"#utility.yul\":13912:13945   */\n      swap2\n      pop\n        /* \"#utility.yul\":13967:14033   */\n      0xffffffffffffffffffffffffffffffffffffffffffffffffffffffffffffffff\n        /* \"#utility.yul\":13960:13965   */\n      dup3\n        /* \"#utility.yul\":13957:14034   */\n      sub\n        /* \"#utility.yul\":13954:14057   */\n      tag_389\n      jumpi\n        /* \"#utility.yul\":14037:14055   */\n      tag_390\n      tag_228\n      jump\t// in\n    tag_390:\n        /* \"#utility.yul\":13954:14057   */\n    tag_389:\n        /* \"#utility.yul\":14084:14085   */\n      0x01\n        /* \"#utility.yul\":14077:14082   */\n      dup3\n        /* \"#utility.yul\":14073:14086   */\n      add\n        /* \"#utility.yul\":14066:14086   */\n      swap1\n      pop\n        /* \"#utility.yul\":13859:14092   */\n      swap2\n      swap1\n      pop\n      jump\t// out\n        /* \"#utility.yul\":14098:14278   */\n    tag_233:\n        /* \"#utility.yul\":14146:14223   */\n      0x4e487b7100000000000000000000000000000000000000000000000000000000\n        /* \"#utility.yul\":14143:14144   */\n      0x00\n        /* \"#utility.yul\":14136:14224   */\n      mstore\n        /* \"#utility.yul\":14243:14247   */\n      0x22\n        /* \"#utility.yul\":14240:14241   */\n      0x04\n        /* \"#utility.yul\":14233:14248   */\n      mstore\n        /* \"#utility.yul\":14267:14271   */\n      0x24\n        /* \"#utility.yul\":14264:14265   */\n      0x00\n        /* \"#utility.yul\":14257:14272   */\n      revert\n        /* \"#utility.yul\":14284:14604   */\n    tag_86:\n        /* \"#utility.yul\":14328:14334   */\n      0x00\n        /* \"#utility.yul\":14365:14366   */\n      0x02\n        /* \"#utility.yul\":14359:14363   */\n      dup3\n        /* \"#utility.yul\":14355:14367   */\n      div\n        /* \"#utility.yul\":14345:14367   */\n      swap1\n      pop\n        /* \"#utility.yul\":14412:14413   */\n      0x01\n        /* \"#utility.yul\":14406:14410   */\n      dup3\n        /* \"#utility.yul\":14402:14414   */\n      and\n        /* \"#utility.yul\":14433:14451   */\n      dup1\n        /* \"#utility.yul\":14423:14504   */\n      tag_393\n      jumpi\n        /* \"#utility.yul\":14489:14493   */\n      0x7f\n        /* \"#utility.yul\":14481:14487   */\n      dup3\n        /* \"#utility.yul\":14477:14494   */\n      and\n        /* \"#utility.yul\":14467:14494   */\n      swap2\n      pop\n        /* \"#utility.yul\":14423:14504   */\n    tag_393:\n        /* \"#utility.yul\":14551:14553   */\n      0x20\n        /* \"#utility.yul\":14543:14549   */\n      dup3\n        /* \"#utility.yul\":14540:14554   */\n      lt\n        /* \"#utility.yul\":14520:14538   */\n      dup2\n        /* \"#utility.yul\":14517:14555   */\n      sub\n        /* \"#utility.yul\":14514:14598   */\n      tag_394\n      jumpi\n        /* \"#utility.yul\":14570:14588   */\n      tag_395\n      tag_233\n      jump\t// in\n    tag_395:\n        /* \"#utility.yul\":14514:14598   */\n    tag_394:\n        /* \"#utility.yul\":14335:14604   */\n      pop\n        /* \"#utility.yul\":14284:14604   */\n      swap2\n      swap1\n      pop\n      jump\t// out\n        /* \"#utility.yul\":14610:14751   */\n    tag_234:\n        /* \"#utility.yul\":14659:14663   */\n      0x00\n        /* \"#utility.yul\":14682:14685   */\n      dup2\n        /* \"#utility.yul\":14674:14685   */\n      swap1\n      pop\n        /* \"#utility.yul\":14705:14708   */\n      dup2\n        /* \"#utility.yul\":14702:14703   */\n      0x00\n        /* \"#utility.yul\":14695:14709   */\n      mstore\n        /* \"#utility.yul\":14739:14743   */\n      0x20\n        /* \"#utility.yul\":14736:14737   */\n      0x00\n        /* \"#utility.yul\":14726:14744   */\n      keccak256\n        /* \"#utility.yul\":14718:14744   */\n      swap1\n      pop\n        /* \"#utility.yul\":14610:14751   */\n      swap2\n      swap1\n      pop\n      jump\t// out\n        /* \"#utility.yul\":14757:14850   */\n    tag_235:\n        /* \"#utility.yul\":14794:14800   */\n      0x00\n        /* \"#utility.yul\":14841:14843   */\n      0x20\n        /* \"#utility.yul\":14836:14838   */\n      0x1f\n        /* \"#utility.yul\":14829:14834   */\n      dup4\n        /* \"#utility.yul\":14825:14839   */\n      add\n        /* \"#utility.yul\":14821:14844   */\n      div\n        /* \"#utility.yul\":14811:14844   */\n      swap1\n      pop\n        /* \"#utility.yul\":14757:14850   */\n      swap2\n      swap1\n      pop\n      jump\t// out\n        /* \"#utility.yul\":14856:14963   */\n    tag_236:\n        /* \"#utility.yul\":14900:14908   */\n      0x00\n        /* \"#utility.yul\":14950:14955   */\n      dup3\n        /* \"#utility.yul\":14944:14948   */\n      dup3\n        /* \"#utility.yul\":14940:14956   */\n      shl\n        /* \"#utility.yul\":14919:14956   */\n      swap1\n      pop\n        /* \"#utility.yul\":14856:14963   */\n      swap3\n      swap2\n      pop\n      pop\n      jump\t// out\n        /* \"#utility.yul\":14969:15362   */\n    tag_237:\n        /* \"#utility.yul\":15038:15044   */\n      0x00\n        /* \"#utility.yul\":15088:15089   */\n      0x08\n        /* \"#utility.yul\":15076:15086   */\n      dup4\n        /* \"#utility.yul\":15072:15090   */\n      mul\n        /* \"#utility.yul\":15111:15208   */\n      tag_400\n        /* \"#utility.yul\":15141:15207   */\n      0xffffffffffffffffffffffffffffffffffffffffffffffffffffffffffffffff\n        /* \"#utility.yul\":15130:15139   */\n      dup3\n        /* \"#utility.yul\":15111:15208   */\n      tag_236\n      jump\t// in\n    tag_400:\n        /* \"#utility.yul\":15229:15268   */\n      tag_401\n        /* \"#utility.yul\":15259:15267   */\n      dup7\n        /* \"#utility.yul\":15248:15257   */\n      dup4\n        /* \"#utility.yul\":15229:15268   */\n      tag_236\n      jump\t// in\n    tag_401:\n        /* \"#utility.yul\":15217:15268   */\n      swap6\n      pop\n        /* \"#utility.yul\":15301:15305   */\n      dup1\n        /* \"#utility.yul\":15297:15306   */\n      not\n        /* \"#utility.yul\":15290:15295   */\n      dup5\n        /* \"#utility.yul\":15286:15307   */\n      and\n        /* \"#utility.yul\":15277:15307   */\n      swap4\n      pop\n        /* \"#utility.yul\":15350:15354   */\n      dup1\n        /* \"#utility.yul\":15340:15348   */\n      dup7\n        /* \"#utility.yul\":15336:15355   */\n      and\n        /* \"#utility.yul\":15329:15334   */\n      dup5\n        /* \"#utility.yul\":15326:15356   */\n      or\n        /* \"#utility.yul\":15316:15356   */\n      swap3\n      pop\n        /* \"#utility.yul\":15045:15362   */\n      pop\n      pop\n        /* \"#utility.yul\":14969:15362   */\n      swap4\n      swap3\n      pop\n      pop\n      pop\n      jump\t// out\n        /* \"#utility.yul\":15368:15428   */\n    tag_238:\n        /* \"#utility.yul\":15396:15399   */\n      0x00\n        /* \"#utility.yul\":15417:15422   */\n      dup2\n        /* \"#utility.yul\":15410:15422   */\n      swap1\n      pop\n        /* \"#utility.yul\":15368:15428   */\n      swap2\n      swap1\n      pop\n      jump\t// out\n        /* \"#utility.yul\":15434:15576   */\n    tag_239:\n        /* \"#utility.yul\":15484:15493   */\n      0x00\n        /* \"#utility.yul\":15517:15570   */\n      tag_404\n        /* \"#utility.yul\":15535:15569   */\n      tag_405\n        /* \"#utility.yul\":15544:15568   */\n      tag_406\n        /* \"#utility.yul\":15562:15567   */\n      dup5\n        /* \"#utility.yul\":15544:15568   */\n      tag_203\n      jump\t// in\n    tag_406:\n        /* \"#utility.yul\":15535:15569   */\n      tag_238\n      jump\t// in\n    tag_405:\n        /* \"#utility.yul\":15517:15570   */\n      tag_203\n      jump\t// in\n    tag_404:\n        /* \"#utility.yul\":15504:15570   */\n      swap1\n      pop\n        /* \"#utility.yul\":15434:15576   */\n      swap2\n      swap1\n      pop\n      jump\t// out\n        /* \"#utility.yul\":15582:15657   */\n    tag_240:\n        /* \"#utility.yul\":15625:15628   */\n      0x00\n        /* \"#utility.yul\":15646:15651   */\n      dup2\n        /* \"#utility.yul\":15639:15651   */\n      swap1\n      pop\n        /* \"#utility.yul\":15582:15657   */\n      swap2\n      swap1\n      pop\n      jump\t// out\n        /* \"#utility.yul\":15663:15932   */\n    tag_241:\n        /* \"#utility.yul\":15773:15812   */\n      tag_409\n        /* \"#utility.yul\":15804:15811   */\n      dup4\n        /* \"#utility.yul\":15773:15812   */\n      tag_239\n      jump\t// in\n    tag_409:\n        /* \"#utility.yul\":15834:15925   */\n      tag_410\n        /* \"#utility.yul\":15883:15924   */\n      tag_411\n        /* \"#utility.yul\":15907:15923   */\n      dup3\n        /* \"#utility.yul\":15883:15924   */\n      tag_240\n      jump\t// in\n    tag_411:\n        /* \"#utility.yul\":15875:15881   */\n      dup5\n        /* \"#utility.yul\":15868:15872   */\n      dup5\n        /* \"#utility.yul\":15862:15873   */\n      sload\n        /* \"#utility.yul\":15834:15925   */\n      tag_237\n      jump\t// in\n    tag_410:\n        /* \"#utility.yul\":15828:15832   */\n      dup3\n        /* \"#utility.yul\":15821:15926   */\n      sstore\n        /* \"#utility.yul\":15739:15932   */\n      pop\n        /* \"#utility.yul\":15663:15932   */\n      pop\n      pop\n      pop\n      jump\t// out\n        /* \"#utility.yul\":15938:16011   */\n    tag_242:\n        /* \"#utility.yul\":15983:15986   */\n      0x00\n        /* \"#utility.yul\":15938:16011   */\n      swap1\n      jump\t// out\n        /* \"#utility.yul\":16017:16206   */\n    tag_243:\n        /* \"#utility.yul\":16094:16126   */\n      tag_414\n      tag_242\n      jump\t// in\n    tag_414:\n        /* \"#utility.yul\":16135:16200   */\n      tag_415\n        /* \"#utility.yul\":16193:16199   */\n      dup2\n        /* \"#utility.yul\":16185:16191   */\n      dup5\n        /* \"#utility.yul\":16179:16183   */\n      dup5\n        /* \"#utility.yul\":16135:16200   */\n      tag_241\n      jump\t// in\n    tag_415:\n        /* \"#utility.yul\":16070:16206   */\n      pop\n        /* \"#utility.yul\":16017:16206   */\n      pop\n      pop\n      jump\t// out\n        /* \"#utility.yul\":16212:16398   */\n    tag_244:\n        /* \"#utility.yul\":16272:16392   */\n    tag_417:\n        /* \"#utility.yul\":16289:16292   */\n      dup2\n        /* \"#utility.yul\":16282:16287   */\n      dup2\n        /* \"#utility.yul\":16279:16293   */\n      lt\n        /* \"#utility.yul\":16272:16392   */\n      iszero\n      tag_419\n      jumpi\n        /* \"#utility.yul\":16343:16382   */\n      tag_420\n        /* \"#utility.yul\":16380:16381   */\n      0x00\n        /* \"#utility.yul\":16373:16378   */\n      dup3\n        /* \"#utility.yul\":16343:16382   */\n      tag_243\n      jump\t// in\n    tag_420:\n        /* \"#utility.yul\":16316:16317   */\n      0x01\n        /* \"#utility.yul\":16309:16314   */\n      dup2\n        /* \"#utility.yul\":16305:16318   */\n      add\n        /* \"#utility.yul\":16296:16318   */\n      swap1\n      pop\n        /* \"#utility.yul\":16272:16392   */\n      jump(tag_417)\n    tag_419:\n        /* \"#utility.yul\":16212:16398   */\n      pop\n      pop\n      jump\t// out\n        /* \"#utility.yul\":16404:16947   */\n    tag_245:\n        /* \"#utility.yul\":16505:16507   */\n      0x1f\n        /* \"#utility.yul\":16500:16503   */\n      dup3\n        /* \"#utility.yul\":16497:16508   */\n      gt\n        /* \"#utility.yul\":16494:16940   */\n      iszero\n      tag_422\n      jumpi\n        /* \"#utility.yul\":16539:16577   */\n      tag_423\n        /* \"#utility.yul\":16571:16576   */\n      dup2\n        /* \"#utility.yul\":16539:16577   */\n      tag_234\n      jump\t// in\n    tag_423:\n        /* \"#utility.yul\":16623:16652   */\n      tag_424\n        /* \"#utility.yul\":16641:16651   */\n      dup5\n        /* \"#utility.yul\":16623:16652   */\n      tag_235\n      jump\t// in\n    tag_424:\n        /* \"#utility.yul\":16613:16621   */\n      dup2\n        /* \"#utility.yul\":16609:16653   */\n      add\n        /* \"#utility.yul\":16806:16808   */\n      0x20\n        /* \"#utility.yul\":16794:16804   */\n      dup6\n        /* \"#utility.yul\":16791:16809   */\n      lt\n        /* \"#utility.yul\":16788:16837   */\n      iszero\n      tag_425\n      jumpi\n        /* \"#utility.yul\":16827:16835   */\n      dup2\n        /* \"#utility.yul\":16812:16835   */\n      swap1\n      pop\n        /* \"#utility.yul\":16788:16837   */\n    tag_425:\n        /* \"#utility.yul\":16850:16930   */\n      tag_426\n        /* \"#utility.yul\":16906:16928   */\n      tag_427\n        /* \"#utility.yul\":16924:16927   */\n      dup6\n        /* \"#utility.yul\":16906:16928   */\n      tag_235\n      jump\t// in\n    tag_427:\n        /* \"#utility.yul\":16896:16904   */\n      dup4\n        /* \"#utility.yul\":16892:16929   */\n      add\n        /* \"#utility.yul\":16879:16890   */\n      dup3\n        /* \"#utility.yul\":16850:16930   */\n      tag_244\n      jump\t// in\n    tag_426:\n        /* \"#utility.yul\":16509:16940   */\n      pop\n      pop\n        /* \"#utility.yul\":16494:16940   */\n    tag_422:\n        /* \"#utility.yul\":16404:16947   */\n      pop\n      pop\n      pop\n      jump\t// out\n        /* \"#utility.yul\":16953:17070   */\n    tag_246:\n        /* \"#utility.yul\":17007:17015   */\n      0x00\n        /* \"#utility.yul\":17057:17062   */\n      dup3\n        /* \"#utility.yul\":17051:17055   */\n      dup3\n        /* \"#utility.yul\":17047:17063   */\n      shr\n        /* \"#utility.yul\":17026:17063   */\n      swap1\n      pop\n        /* \"#utility.yul\":16953:17070   */\n      swap3\n      swap2\n      pop\n      pop\n      jump\t// out\n        /* \"#utility.yul\":17076:17245   */\n    tag_247:\n        /* \"#utility.yul\":17120:17126   */\n      0x00\n        /* \"#utility.yul\":17153:17204   */\n      tag_430\n        /* \"#utility.yul\":17201:17202   */\n      0x00\n        /* \"#utility.yul\":17197:17203   */\n      not\n        /* \"#utility.yul\":17189:17194   */\n      dup5\n        /* \"#utility.yul\":17186:17187   */\n      0x08\n        /* \"#utility.yul\":17182:17195   */\n      mul\n        /* \"#utility.yul\":17153:17204   */\n      tag_246\n      jump\t// in\n    tag_430:\n        /* \"#utility.yul\":17149:17205   */\n      not\n        /* \"#utility.yul\":17234:17238   */\n      dup1\n        /* \"#utility.yul\":17228:17232   */\n      dup4\n        /* \"#utility.yul\":17224:17239   */\n      and\n        /* \"#utility.yul\":17214:17239   */\n      swap2\n      pop\n        /* \"#utility.yul\":17127:17245   */\n      pop\n        /* \"#utility.yul\":17076:17245   */\n      swap3\n      swap2\n      pop\n      pop\n      jump\t// out\n        /* \"#utility.yul\":17250:17545   */\n    tag_248:\n        /* \"#utility.yul\":17326:17330   */\n      0x00\n        /* \"#utility.yul\":17472:17501   */\n      tag_432\n        /* \"#utility.yul\":17497:17500   */\n      dup4\n        /* \"#utility.yul\":17491:17495   */\n      dup4\n        /* \"#utility.yul\":17472:17501   */\n      tag_247\n      jump\t// in\n    tag_432:\n        /* \"#utility.yul\":17464:17501   */\n      swap2\n      pop\n        /* \"#utility.yul\":17534:17537   */\n      dup3\n        /* \"#utility.yul\":17531:17532   */\n      0x02\n        /* \"#utility.yul\":17527:17538   */\n      mul\n        /* \"#utility.yul\":17521:17525   */\n      dup3\n        /* \"#utility.yul\":17518:17539   */\n      or\n        /* \"#utility.yul\":17510:17539   */\n      swap1\n      pop\n        /* \"#utility.yul\":17250:17545   */\n      swap3\n      swap2\n      pop\n      pop\n      jump\t// out\n        /* \"#utility.yul\":17550:18945   */\n    tag_97:\n        /* \"#utility.yul\":17667:17704   */\n      tag_434\n        /* \"#utility.yul\":17700:17703   */\n      dup3\n        /* \"#utility.yul\":17667:17704   */\n      tag_207\n      jump\t// in\n    tag_434:\n        /* \"#utility.yul\":17769:17787   */\n      0xffffffffffffffff\n        /* \"#utility.yul\":17761:17767   */\n      dup2\n        /* \"#utility.yul\":17758:17788   */\n      gt\n        /* \"#utility.yul\":17755:17811   */\n      iszero\n      tag_435\n      jumpi\n        /* \"#utility.yul\":17791:17809   */\n      tag_436\n      tag_217\n      jump\t// in\n    tag_436:\n        /* \"#utility.yul\":17755:17811   */\n    tag_435:\n        /* \"#utility.yul\":17835:17873   */\n      tag_437\n        /* \"#utility.yul\":17867:17871   */\n      dup3\n        /* \"#utility.yul\":17861:17872   */\n      sload\n        /* \"#utility.yul\":17835:17873   */\n      tag_86\n      jump\t// in\n    tag_437:\n        /* \"#utility.yul\":17920:17987   */\n      tag_438\n        /* \"#utility.yul\":17980:17986   */\n      dup3\n        /* \"#utility.yul\":17972:17978   */\n      dup3\n        /* \"#utility.yul\":17966:17970   */\n      dup6\n        /* \"#utility.yul\":17920:17987   */\n      tag_245\n      jump\t// in\n    tag_438:\n        /* \"#utility.yul\":18014:18015   */\n      0x00\n        /* \"#utility.yul\":18038:18042   */\n      0x20\n        /* \"#utility.yul\":18025:18042   */\n      swap1\n      pop\n        /* \"#utility.yul\":18070:18072   */\n      0x1f\n        /* \"#utility.yul\":18062:18068   */\n      dup4\n        /* \"#utility.yul\":18059:18073   */\n      gt\n        /* \"#utility.yul\":18087:18088   */\n      0x01\n        /* \"#utility.yul\":18082:18700   */\n      dup2\n      eq\n      tag_440\n      jumpi\n        /* \"#utility.yul\":18744:18745   */\n      0x00\n        /* \"#utility.yul\":18761:18767   */\n      dup5\n        /* \"#utility.yul\":18758:18835   */\n      iszero\n      tag_441\n      jumpi\n        /* \"#utility.yul\":18810:18819   */\n      dup3\n        /* \"#utility.yul\":18805:18808   */\n      dup8\n        /* \"#utility.yul\":18801:18820   */\n      add\n        /* \"#utility.yul\":18795:18821   */\n      mload\n        /* \"#utility.yul\":18786:18821   */\n      swap1\n      pop\n        /* \"#utility.yul\":18758:18835   */\n    tag_441:\n        /* \"#utility.yul\":18861:18928   */\n      tag_442\n        /* \"#utility.yul\":18921:18927   */\n      dup6\n        /* \"#utility.yul\":18914:18919   */\n      dup3\n        /* \"#utility.yul\":18861:18928   */\n      tag_248\n      jump\t// in\n    tag_442:\n        /* \"#utility.yul\":18855:18859   */\n      dup7\n        /* \"#utility.yul\":18848:18929   */\n      sstore\n        /* \"#utility.yul\":18717:18939   */\n      pop\n        /* \"#utility.yul\":18052:18939   */\n      jump(tag_439)\n        /* \"#utility.yul\":18082:18700   */\n    tag_440:\n        /* \"#utility.yul\":18134:18138   */\n      0x1f\n        /* \"#utility.yul\":18130:18139   */\n      not\n        /* \"#utility.yul\":18122:18128   */\n      dup5\n        /* \"#utility.yul\":18118:18140   */\n      and\n        /* \"#utility.yul\":18168:18205   */\n      tag_443\n        /* \"#utility.yul\":18200:18204   */\n      dup7\n        /* \"#utility.yul\":18168:18205   */\n      tag_234\n      jump\t// in\n    tag_443:\n        /* \"#utility.yul\":18227:18228   */\n      0x00\n        /* \"#utility.yul\":18241:18449   */\n    tag_444:\n        /* \"#utility.yul\":18255:18262   */\n      dup3\n        /* \"#utility.yul\":18252:18253   */\n      dup2\n        /* \"#utility.yul\":18249:18263   */\n      lt\n        /* \"#utility.yul\":18241:18449   */\n      iszero\n      tag_446\n      jumpi\n        /* \"#utility.yul\":18334:18343   */\n      dup5\n        /* \"#utility.yul\":18329:18332   */\n      dup10\n        /* \"#utility.yul\":18325:18344   */\n      add\n        /* \"#utility.yul\":18319:18345   */\n      mload\n        /* \"#utility.yul\":18311:18317   */\n      dup3\n        /* \"#utility.yul\":18304:18346   */\n      sstore\n        /* \"#utility.yul\":18385:18386   */\n      0x01\n        /* \"#utility.yul\":18377:18383   */\n      dup3\n        /* \"#utility.yul\":18373:18387   */\n      add\n        /* \"#utility.yul\":18363:18387   */\n      swap2\n      pop\n        /* \"#utility.yul\":18432:18434   */\n      0x20\n        /* \"#utility.yul\":18421:18430   */\n      dup6\n        /* \"#utility.yul\":18417:18435   */\n      add\n        /* \"#utility.yul\":18404:18435   */\n      swap5\n      pop\n        /* \"#utility.yul\":18278:18282   */\n      0x20\n        /* \"#utility.yul\":18275:18276   */\n      dup2\n        /* \"#utility.yul\":18271:18283   */\n      add\n        /* \"#utility.yul\":18266:18283   */\n      swap1\n      pop\n        /* \"#utility.yul\":18241:18449   */\n      jump(tag_444)\n    tag_446:\n        /* \"#utility.yul\":18477:18483   */\n      dup7\n        /* \"#utility.yul\":18468:18475   */\n      dup4\n        /* \"#utility.yul\":18465:18484   */\n      lt\n        /* \"#utility.yul\":18462:18641   */\n      iszero\n      tag_447\n      jumpi\n        /* \"#utility.yul\":18535:18544   */\n      dup5\n        /* \"#utility.yul\":18530:18533   */\n      dup10\n        /* \"#utility.yul\":18526:18545   */\n      add\n        /* \"#utility.yul\":18520:18546   */\n      mload\n        /* \"#utility.yul\":18578:18626   */\n      tag_448\n        /* \"#utility.yul\":18620:18624   */\n      0x1f\n        /* \"#utility.yul\":18612:18618   */\n      dup10\n        /* \"#utility.yul\":18608:18625   */\n      and\n        /* \"#utility.yul\":18597:18606   */\n      dup3\n        /* \"#utility.yul\":18578:18626   */\n      tag_247\n      jump\t// in\n    tag_448:\n        /* \"#utility.yul\":18570:18576   */\n      dup4\n        /* \"#utility.yul\":18563:18627   */\n      sstore\n        /* \"#utility.yul\":18485:18641   */\n      pop\n        /* \"#utility.yul\":18462:18641   */\n    tag_447:\n        /* \"#utility.yul\":18687:18688   */\n      0x01\n        /* \"#utility.yul\":18683:18684   */\n      0x02\n        /* \"#utility.yul\":18675:18681   */\n      dup9\n        /* \"#utility.yul\":18671:18685   */\n      mul\n        /* \"#utility.yul\":18667:18689   */\n      add\n        /* \"#utility.yul\":18661:18665   */\n      dup9\n        /* \"#utility.yul\":18654:18690   */\n      sstore\n        /* \"#utility.yul\":18089:18700   */\n      pop\n      pop\n      pop\n        /* \"#utility.yul\":18052:18939   */\n    tag_439:\n      pop\n        /* \"#utility.yul\":17642:18945   */\n      pop\n      pop\n      pop\n        /* \"#utility.yul\":17550:18945   */\n      pop\n      pop\n      jump\t// out\n        /* \"#utility.yul\":18951:19130   */\n    tag_249:\n        /* \"#utility.yul\":19091:19122   */\n      0x4f6e6c79206c616e646c6f72642063616e206163636573732074686973000000\n        /* \"#utility.yul\":19087:19088   */\n      0x00\n        /* \"#utility.yul\":19079:19085   */\n      dup3\n        /* \"#utility.yul\":19075:19089   */\n      add\n        /* \"#utility.yul\":19068:19123   */\n      mstore\n        /* \"#utility.yul\":18951:19130   */\n      pop\n      jump\t// out\n        /* \"#utility.yul\":19136:19502   */\n    tag_250:\n        /* \"#utility.yul\":19278:19281   */\n      0x00\n        /* \"#utility.yul\":19299:19366   */\n      tag_451\n        /* \"#utility.yul\":19363:19365   */\n      0x1d\n        /* \"#utility.yul\":19358:19361   */\n      dup4\n        /* \"#utility.yul\":19299:19366   */\n      tag_208\n      jump\t// in\n    tag_451:\n        /* \"#utility.yul\":19292:19366   */\n      swap2\n      pop\n        /* \"#utility.yul\":19375:19468   */\n      tag_452\n        /* \"#utility.yul\":19464:19467   */\n      dup3\n        /* \"#utility.yul\":19375:19468   */\n      tag_249\n      jump\t// in\n    tag_452:\n        /* \"#utility.yul\":19493:19495   */\n      0x20\n        /* \"#utility.yul\":19488:19491   */\n      dup3\n        /* \"#utility.yul\":19484:19496   */\n      add\n        /* \"#utility.yul\":19477:19496   */\n      swap1\n      pop\n        /* \"#utility.yul\":19136:19502   */\n      swap2\n      swap1\n      pop\n      jump\t// out\n        /* \"#utility.yul\":19508:19927   */\n    tag_115:\n        /* \"#utility.yul\":19674:19678   */\n      0x00\n        /* \"#utility.yul\":19712:19714   */\n      0x20\n        /* \"#utility.yul\":19701:19710   */\n      dup3\n        /* \"#utility.yul\":19697:19715   */\n      add\n        /* \"#utility.yul\":19689:19715   */\n      swap1\n      pop\n        /* \"#utility.yul\":19761:19770   */\n      dup2\n        /* \"#utility.yul\":19755:19759   */\n      dup2\n        /* \"#utility.yul\":19751:19771   */\n      sub\n        /* \"#utility.yul\":19747:19748   */\n      0x00\n        /* \"#utility.yul\":19736:19745   */\n      dup4\n        /* \"#utility.yul\":19732:19749   */\n      add\n        /* \"#utility.yul\":19725:19772   */\n      mstore\n        /* \"#utility.yul\":19789:19920   */\n      tag_454\n        /* \"#utility.yul\":19915:19919   */\n      dup2\n        /* \"#utility.yul\":19789:19920   */\n      tag_250\n      jump\t// in\n    tag_454:\n        /* \"#utility.yul\":19781:19920   */\n      swap1\n      pop\n        /* \"#utility.yul\":19508:19927   */\n      swap2\n      swap1\n      pop\n      jump\t// out\n        /* \"#utility.yul\":19933:20106   */\n    tag_251:\n        /* \"#utility.yul\":20073:20098   */\n      0x41677265656d656e7420616c726561647920656e646564000000000000000000\n        /* \"#utility.yul\":20069:20070   */\n      0x00\n        /* \"#utility.yul\":20061:20067   */\n      dup3\n        /* \"#utility.yul\":20057:20071   */\n      add\n        /* \"#utility.yul\":20050:20099   */\n      mstore\n        /* \"#utility.yul\":19933:20106   */\n      pop\n      jump\t// out\n        /* \"#utility.yul\":20112:20478   */\n    tag_252:\n        /* \"#utility.yul\":20254:20257   */\n      0x00\n        /* \"#utility.yul\":20275:20342   */\n      tag_457\n        /* \"#utility.yul\":20339:20341   */\n      0x17\n        /* \"#utility.yul\":20334:20337   */\n      dup4\n        /* \"#utility.yul\":20275:20342   */\n      tag_208\n      jump\t// in\n    tag_457:\n        /* \"#utility.yul\":20268:20342   */\n      swap2\n      pop\n        /* \"#utility.yul\":20351:20444   */\n      tag_458\n        /* \"#utility.yul\":20440:20443   */\n      dup3\n        /* \"#utility.yul\":20351:20444   */\n      tag_251\n      jump\t// in\n    tag_458:\n        /* \"#utility.yul\":20469:20471   */\n      0x20\n        /* \"#utility.yul\":20464:20467   */\n      dup3\n        /* \"#utility.yul\":20460:20472   */\n      add\n        /* \"#utility.yul\":20453:20472   */\n      swap1\n      pop\n        /* \"#utility.yul\":20112:20478   */\n      swap2\n      swap1\n      pop\n      jump\t// out\n        /* \"#utility.yul\":20484:20903   */\n    tag_120:\n        /* \"#utility.yul\":20650:20654   */\n      0x00\n        /* \"#utility.yul\":20688:20690   */\n      0x20\n        /* \"#utility.yul\":20677:20686   */\n      dup3\n        /* \"#utility.yul\":20673:20691   */\n      add\n        /* \"#utility.yul\":20665:20691   */\n      swap1\n      pop\n        /* \"#utility.yul\":20737:20746   */\n      dup2\n        /* \"#utility.yul\":20731:20735   */\n      dup2\n        /* \"#utility.yul\":20727:20747   */\n      sub\n        /* \"#utility.yul\":20723:20724   */\n      0x00\n        /* \"#utility.yul\":20712:20721   */\n      dup4\n        /* \"#utility.yul\":20708:20725   */\n      add\n        /* \"#utility.yul\":20701:20748   */\n      mstore\n        /* \"#utility.yul\":20765:20896   */\n      tag_460\n        /* \"#utility.yul\":20891:20895   */\n      dup2\n        /* \"#utility.yul\":20765:20896   */\n      tag_252\n      jump\t// in\n    tag_460:\n        /* \"#utility.yul\":20757:20896   */\n      swap1\n      pop\n        /* \"#utility.yul\":20484:20903   */\n      swap2\n      swap1\n      pop\n      jump\t// out\n        /* \"#utility.yul\":20909:21143   */\n    tag_253:\n        /* \"#utility.yul\":21049:21083   */\n      0x4e6f2070726576696f75732061677265656d656e7420666f756e642077697468\n        /* \"#utility.yul\":21045:21046   */\n      0x00\n        /* \"#utility.yul\":21037:21043   */\n      dup3\n        /* \"#utility.yul\":21033:21047   */\n      add\n        /* \"#utility.yul\":21026:21084   */\n      mstore\n        /* \"#utility.yul\":21118:21135   */\n      0x20796f752026206c616e646c6f72640000000000000000000000000000000000\n        /* \"#utility.yul\":21113:21115   */\n      0x20\n        /* \"#utility.yul\":21105:21111   */\n      dup3\n        /* \"#utility.yul\":21101:21116   */\n      add\n        /* \"#utility.yul\":21094:21136   */\n      mstore\n        /* \"#utility.yul\":20909:21143   */\n      pop\n      jump\t// out\n        /* \"#utility.yul\":21149:21515   */\n    tag_254:\n        /* \"#utility.yul\":21291:21294   */\n      0x00\n        /* \"#utility.yul\":21312:21379   */\n      tag_463\n        /* \"#utility.yul\":21376:21378   */\n      0x2f\n        /* \"#utility.yul\":21371:21374   */\n      dup4\n        /* \"#utility.yul\":21312:21379   */\n      tag_208\n      jump\t// in\n    tag_463:\n        /* \"#utility.yul\":21305:21379   */\n      swap2\n      pop\n        /* \"#utility.yul\":21388:21481   */\n      tag_464\n        /* \"#utility.yul\":21477:21480   */\n      dup3\n        /* \"#utility.yul\":21388:21481   */\n      tag_253\n      jump\t// in\n    tag_464:\n        /* \"#utility.yul\":21506:21508   */\n      0x40\n        /* \"#utility.yul\":21501:21504   */\n      dup3\n        /* \"#utility.yul\":21497:21509   */\n      add\n        /* \"#utility.yul\":21490:21509   */\n      swap1\n      pop\n        /* \"#utility.yul\":21149:21515   */\n      swap2\n      swap1\n      pop\n      jump\t// out\n        /* \"#utility.yul\":21521:21940   */\n    tag_174:\n        /* \"#utility.yul\":21687:21691   */\n      0x00\n        /* \"#utility.yul\":21725:21727   */\n      0x20\n        /* \"#utility.yul\":21714:21723   */\n      dup3\n        /* \"#utility.yul\":21710:21728   */\n      add\n        /* \"#utility.yul\":21702:21728   */\n      swap1\n      pop\n        /* \"#utility.yul\":21774:21783   */\n      dup2\n        /* \"#utility.yul\":21768:21772   */\n      dup2\n        /* \"#utility.yul\":21764:21784   */\n      sub\n        /* \"#utility.yul\":21760:21761   */\n      0x00\n        /* \"#utility.yul\":21749:21758   */\n      dup4\n        /* \"#utility.yul\":21745:21762   */\n      add\n        /* \"#utility.yul\":21738:21785   */\n      mstore\n        /* \"#utility.yul\":21802:21933   */\n      tag_466\n        /* \"#utility.yul\":21928:21932   */\n      dup2\n        /* \"#utility.yul\":21802:21933   */\n      tag_254\n      jump\t// in\n    tag_466:\n        /* \"#utility.yul\":21794:21933   */\n      swap1\n      pop\n        /* \"#utility.yul\":21521:21940   */\n      swap2\n      swap1\n      pop\n      jump\t// out\n        /* \"#utility.yul\":21946:22117   */\n    tag_255:\n        /* \"#utility.yul\":22086:22109   */\n      0x54696d65206c65667420746f207061792072656e740000000000000000000000\n        /* \"#utility.yul\":22082:22083   */\n      0x00\n        /* \"#utility.yul\":22074:22080   */\n      dup3\n        /* \"#utility.yul\":22070:22084   */\n      add\n        /* \"#utility.yul\":22063:22110   */\n      mstore\n        /* \"#utility.yul\":21946:22117   */\n      pop\n      jump\t// out\n        /* \"#utility.yul\":22123:22489   */\n    tag_256:\n        /* \"#utility.yul\":22265:22268   */\n      0x00\n        /* \"#utility.yul\":22286:22353   */\n      tag_469\n        /* \"#utility.yul\":22350:22352   */\n      0x15\n        /* \"#utility.yul\":22345:22348   */\n      dup4\n        /* \"#utility.yul\":22286:22353   */\n      tag_208\n      jump\t// in\n    tag_469:\n        /* \"#utility.yul\":22279:22353   */\n      swap2\n      pop\n        /* \"#utility.yul\":22362:22455   */\n      tag_470\n        /* \"#utility.yul\":22451:22454   */\n      dup3\n        /* \"#utility.yul\":22362:22455   */\n      tag_255\n      jump\t// in\n    tag_470:\n        /* \"#utility.yul\":22480:22482   */\n      0x20\n        /* \"#utility.yul\":22475:22478   */\n      dup3\n        /* \"#utility.yul\":22471:22483   */\n      add\n        /* \"#utility.yul\":22464:22483   */\n      swap1\n      pop\n        /* \"#utility.yul\":22123:22489   */\n      swap2\n      swap1\n      pop\n      jump\t// out\n        /* \"#utility.yul\":22495:22914   */\n    tag_179:\n        /* \"#utility.yul\":22661:22665   */\n      0x00\n        /* \"#utility.yul\":22699:22701   */\n      0x20\n        /* \"#utility.yul\":22688:22697   */\n      dup3\n        /* \"#utility.yul\":22684:22702   */\n      add\n        /* \"#utility.yul\":22676:22702   */\n      swap1\n      pop\n        /* \"#utility.yul\":22748:22757   */\n      dup2\n        /* \"#utility.yul\":22742:22746   */\n      dup2\n        /* \"#utility.yul\":22738:22758   */\n      sub\n        /* \"#utility.yul\":22734:22735   */\n      0x00\n        /* \"#utility.yul\":22723:22732   */\n      dup4\n        /* \"#utility.yul\":22719:22736   */\n      add\n        /* \"#utility.yul\":22712:22759   */\n      mstore\n        /* \"#utility.yul\":22776:22907   */\n      tag_472\n        /* \"#utility.yul\":22902:22906   */\n      dup2\n        /* \"#utility.yul\":22776:22907   */\n      tag_256\n      jump\t// in\n    tag_472:\n        /* \"#utility.yul\":22768:22907   */\n      swap1\n      pop\n        /* \"#utility.yul\":22495:22914   */\n      swap2\n      swap1\n      pop\n      jump\t// out\n\n    auxdata: 0xa26469706673582212204c04b31d39d49a3e9dbf30232b556072b902829c98811191fe4924df0d24c9fe64736f6c63430008160033\n}\n",
				"bytecode": {
					"linkReferences": {},
					"object": "60806040525f6002555f6003555f60045534801561001b575f80fd5b5061280e806100295f395ff3fe60806040526004361061009b575f3560e01c80635ee6086f116100635780635ee6086f1461015357806363e475bd14610198578063649ad814146101c05780637681e6d9146102045780638cdb39551461022e578063d9e8843f146102735761009b565b806303742de01461009f57806316abb8a1146100bb5780632788137e146100d7578063465d80f8146101015780634f5e44281461012b575b5f80fd5b6100b960048036038101906100b49190611c83565b61028f565b005b6100d560048036038101906100d09190611c83565b610b76565b005b3480156100e2575f80fd5b506100eb610e10565b6040516100f89190611cbd565b60405180910390f35b34801561010c575f80fd5b50610115610e16565b6040516101229190611cbd565b60405180910390f35b348015610136575f80fd5b50610151600480360381019061014c9190611c83565b610e1c565b005b34801561015e575f80fd5b5061017960048036038101906101749190611c83565b610fba565b60405161018f9a99989796959493929190611d9f565b60405180910390f35b3480156101a3575f80fd5b506101be60048036038101906101b99190611f73565b611154565b005b3480156101cb575f80fd5b506101e660048036038101906101e19190611c83565b61134b565b6040516101fb9998979695949392919061200f565b60405180910390f35b34801561020f575f80fd5b506102186114df565b6040516102259190611cbd565b60405180910390f35b348015610239575f80fd5b50610254600480360381019061024f9190611c83565b6114e5565b60405161026a9a999897969594939291906120c2565b60405180910390f35b61028d60048036038101906102889190611c83565b61168c565b005b8060055f8281526020019081526020015f206008015f9054906101000a900473ffffffffffffffffffffffffffffffffffffffff1673ffffffffffffffffffffffffffffffffffffffff163373ffffffffffffffffffffffffffffffffffffffff1603610331576040517f08c379a0000000000000000000000000000000000000000000000000000000008152600401610328906121b4565b60405180910390fd5b8160055f8281526020019081526020015f206005015460055f8381526020019081526020015f206004015461036691906121ff565b3410156103a8576040517f08c379a000000000000000000000000000000000000000000000000000000000815260040161039f9061227c565b60405180910390fd5b826001151560055f8381526020019081526020015f206007015f9054906101000a900460ff16151514610410576040517f08c379a0000000000000000000000000000000000000000000000000000000008152600401610407906122e4565b60405180910390fd5b5f73ffffffffffffffffffffffffffffffffffffffff163373ffffffffffffffffffffffffffffffffffffffff1603610447575f80fd5b5f60055f8681526020019081526020015f206008015f9054906101000a900473ffffffffffffffffffffffffffffffffffffffff1690505f60055f8781526020019081526020015f206005015460055f8881526020019081526020015f20600401546104b391906121ff565b90508173ffffffffffffffffffffffffffffffffffffffff166108fc8290811502906040515f60405180830381858888f193505050501580156104f8573d5f803e3d5ffd5b5060035f81548092919061050b90612302565b91905055503360055f8881526020019081526020015f2060070160016101000a81548173ffffffffffffffffffffffffffffffffffffffff021916908373ffffffffffffffffffffffffffffffffffffffff1602179055505f60055f8881526020019081526020015f206007015f6101000a81548160ff0219169083151502179055504260055f8881526020019081526020015f206006018190555060035460055f8881526020019081526020015f2060010181905550604051806101400160405280878152602001600354815260200160055f8981526020019081526020015f2060020180546105fb90612376565b80601f016020809104026020016040519081016040528092919081815260200182805461062790612376565b80156106725780601f1061064957610100808354040283529160200191610672565b820191905f5260205f20905b81548152906001019060200180831161065557829003601f168201915b5050505050815260200160055f8981526020019081526020015f20600301805461069b90612376565b80601f01602080910402602001604051908101604052809291908181526020018280546106c790612376565b80156107125780601f106106e957610100808354040283529160200191610712565b820191905f5260205f20905b8154815290600101906020018083116106f557829003601f168201915b5050505050815260200160055f8981526020019081526020015f2060040154815260200160055f8981526020019081526020015f206005015481526020016301e1338081526020014281526020013373ffffffffffffffffffffffffffffffffffffffff1681526020018373ffffffffffffffffffffffffffffffffffffffff1681525060065f60035481526020019081526020015f205f820151815f01556020820151816001015560408201518160020190816107d09190612543565b5060608201518160030190816107e69190612543565b506080820151816004015560a0820151816005015560c0820151816006015560e08201518160070155610100820151816008015f6101000a81548173ffffffffffffffffffffffffffffffffffffffff021916908373ffffffffffffffffffffffffffffffffffffffff160217905550610120820151816009015f6101000a81548173ffffffffffffffffffffffffffffffffffffffff021916908373ffffffffffffffffffffffffffffffffffffffff16021790555090505060045f8154809291906108b290612302565b91905055506040518061012001604052806004548152602001878152602001600354815260200160055f8981526020019081526020015f2060020180546108f890612376565b80601f016020809104026020016040519081016040528092919081815260200182805461092490612376565b801561096f5780601f106109465761010080835404028352916020019161096f565b820191905f5260205f20905b81548152906001019060200180831161095257829003601f168201915b5050505050815260200160055f8981526020019081526020015f20600301805461099890612376565b80601f01602080910402602001604051908101604052809291908181526020018280546109c490612376565b8015610a0f5780601f106109e657610100808354040283529160200191610a0f565b820191905f5260205f20905b8154815290600101906020018083116109f257829003601f168201915b5050505050815260200160055f8981526020019081526020015f206004015481526020014281526020013373ffffffffffffffffffffffffffffffffffffffff1681526020018373ffffffffffffffffffffffffffffffffffffffff1681525060075f60045481526020019081526020015f205f820151815f015560208201518160010155604082015181600201556060820151816003019081610ab39190612543565b506080820151816004019081610ac99190612543565b5060a0820151816005015560c0820151816006015560e0820151816007015f6101000a81548173ffffffffffffffffffffffffffffffffffffffff021916908373ffffffffffffffffffffffffffffffffffffffff160217905550610100820151816008015f6101000a81548173ffffffffffffffffffffffffffffffffffffffff021916908373ffffffffffffffffffffffffffffffffffffffff160217905550905050505050505050565b8060055f8281526020019081526020015f206008015f9054906101000a900473ffffffffffffffffffffffffffffffffffffffff1673ffffffffffffffffffffffffffffffffffffffff163373ffffffffffffffffffffffffffffffffffffffff1614610c18576040517f08c379a0000000000000000000000000000000000000000000000000000000008152600401610c0f9061265c565b60405180910390fd5b815f60055f8381526020019081526020015f206001015490505f60065f8381526020019081526020015f206006015460065f8481526020019081526020015f2060070154610c6691906121ff565b9050804210610caa576040517f08c379a0000000000000000000000000000000000000000000000000000000008152600401610ca1906126c4565b60405180910390fd5b5f73ffffffffffffffffffffffffffffffffffffffff163373ffffffffffffffffffffffffffffffffffffffff1603610ce1575f80fd5b5f151560055f8781526020019081526020015f206007015f9054906101000a900460ff16151514610d47576040517f08c379a0000000000000000000000000000000000000000000000000000000008152600401610d3e906122e4565b60405180910390fd5b600160055f8781526020019081526020015f206007015f6101000a81548160ff0219169083151502179055505f60055f8781526020019081526020015f2060070160019054906101000a900473ffffffffffffffffffffffffffffffffffffffff1690505f60055f8881526020019081526020015f206005015490508173ffffffffffffffffffffffffffffffffffffffff166108fc8290811502906040515f60405180830381858888f19350505050158015610e06573d5f803e3d5ffd5b5050505050505050565b60025481565b60035481565b8060055f8281526020019081526020015f206008015f9054906101000a900473ffffffffffffffffffffffffffffffffffffffff1673ffffffffffffffffffffffffffffffffffffffff163373ffffffffffffffffffffffffffffffffffffffff1614610ebe576040517f08c379a0000000000000000000000000000000000000000000000000000000008152600401610eb59061265c565b60405180910390fd5b815f60055f8381526020019081526020015f206001015490505f60065f8381526020019081526020015f206006015460065f8481526020019081526020015f2060070154610f0c91906121ff565b9050804210610f50576040517f08c379a0000000000000000000000000000000000000000000000000000000008152600401610f47906126c4565b60405180910390fd5b5f73ffffffffffffffffffffffffffffffffffffffff163373ffffffffffffffffffffffffffffffffffffffff1614610f87575f80fd5b600160055f8781526020019081526020015f206007015f6101000a81548160ff0219169083151502179055505050505050565b6006602052805f5260405f205f91509050805f015490806001015490806002018054610fe590612376565b80601f016020809104026020016040519081016040528092919081815260200182805461101190612376565b801561105c5780601f106110335761010080835404028352916020019161105c565b820191905f5260205f20905b81548152906001019060200180831161103f57829003601f168201915b50505050509080600301805461107190612376565b80601f016020809104026020016040519081016040528092919081815260200182805461109d90612376565b80156110e85780601f106110bf576101008083540402835291602001916110e8565b820191905f5260205f20905b8154815290600101906020018083116110cb57829003601f168201915b505050505090806004015490806005015490806006015490806007015490806008015f9054906101000a900473ffffffffffffffffffffffffffffffffffffffff1690806009015f9054906101000a900473ffffffffffffffffffffffffffffffffffffffff1690508a565b5f73ffffffffffffffffffffffffffffffffffffffff163373ffffffffffffffffffffffffffffffffffffffff160361118b575f80fd5b60025f81548092919061119d90612302565b91905055505f600190505f3390505f60405180610140016040528060025481526020015f81526020018881526020018781526020018681526020018581526020015f815260200184151581526020018373ffffffffffffffffffffffffffffffffffffffff1681526020018273ffffffffffffffffffffffffffffffffffffffff1681525060055f60025481526020019081526020015f205f820151815f015560208201518160010155604082015181600201908161125c9190612543565b5060608201518160030190816112729190612543565b506080820151816004015560a0820151816005015560c0820151816006015560e0820151816007015f6101000a81548160ff0219169083151502179055506101008201518160070160016101000a81548173ffffffffffffffffffffffffffffffffffffffff021916908373ffffffffffffffffffffffffffffffffffffffff160217905550610120820151816008015f6101000a81548173ffffffffffffffffffffffffffffffffffffffff021916908373ffffffffffffffffffffffffffffffffffffffff16021790555090505050505050505050565b6007602052805f5260405f205f91509050805f01549080600101549080600201549080600301805461137c90612376565b80601f01602080910402602001604051908101604052809291908181526020018280546113a890612376565b80156113f35780601f106113ca576101008083540402835291602001916113f3565b820191905f5260205f20905b8154815290600101906020018083116113d657829003601f168201915b50505050509080600401805461140890612376565b80601f016020809104026020016040519081016040528092919081815260200182805461143490612376565b801561147f5780601f106114565761010080835404028352916020019161147f565b820191905f5260205f20905b81548152906001019060200180831161146257829003601f168201915b505050505090806005015490806006015490806007015f9054906101000a900473ffffffffffffffffffffffffffffffffffffffff1690806008015f9054906101000a900473ffffffffffffffffffffffffffffffffffffffff16905089565b60045481565b6005602052805f5260405f205f91509050805f01549080600101549080600201805461151090612376565b80601f016020809104026020016040519081016040528092919081815260200182805461153c90612376565b80156115875780601f1061155e57610100808354040283529160200191611587565b820191905f5260205f20905b81548152906001019060200180831161156a57829003601f168201915b50505050509080600301805461159c90612376565b80601f01602080910402602001604051908101604052809291908181526020018280546115c890612376565b80156116135780601f106115ea57610100808354040283529160200191611613565b820191905f5260205f20905b8154815290600101906020018083116115f657829003601f168201915b505050505090806004015490806005015490806006015490806007015f9054906101000a900460ff16908060070160019054906101000a900473ffffffffffffffffffffffffffffffffffffffff1690806008015f9054906101000a900473ffffffffffffffffffffffffffffffffffffffff1690508a565b8060055f8281526020019081526020015f2060070160019054906101000a900473ffffffffffffffffffffffffffffffffffffffff1673ffffffffffffffffffffffffffffffffffffffff163373ffffffffffffffffffffffffffffffffffffffff161461172f576040517f08c379a000000000000000000000000000000000000000000000000000000000815260040161172690612752565b60405180910390fd5b815f603c60055f8481526020019081526020015f206006015461175291906121ff565b905080421015611797576040517f08c379a000000000000000000000000000000000000000000000000000000000815260040161178e906127ba565b60405180910390fd5b8360055f8281526020019081526020015f20600401543410156117ef576040517f08c379a00000000000000000000000000000000000000000000000000000000081526004016117e69061227c565b60405180910390fd5b5f73ffffffffffffffffffffffffffffffffffffffff163373ffffffffffffffffffffffffffffffffffffffff1603611826575f80fd5b5f60055f8781526020019081526020015f206008015f9054906101000a900473ffffffffffffffffffffffffffffffffffffffff1690505f60055f8881526020019081526020015f206004015490508173ffffffffffffffffffffffffffffffffffffffff166108fc8290811502906040515f60405180830381858888f193505050501580156118b8573d5f803e3d5ffd5b503360055f8981526020019081526020015f2060070160016101000a81548173ffffffffffffffffffffffffffffffffffffffff021916908373ffffffffffffffffffffffffffffffffffffffff1602179055505f60055f8981526020019081526020015f206007015f6101000a81548160ff02191690831515021790555060045f81548092919061194990612302565b9190505550604051806101200160405280600454815260200188815260200160055f8a81526020019081526020015f2060010154815260200160055f8a81526020019081526020015f2060020180546119a190612376565b80601f01602080910402602001604051908101604052809291908181526020018280546119cd90612376565b8015611a185780601f106119ef57610100808354040283529160200191611a18565b820191905f5260205f20905b8154815290600101906020018083116119fb57829003601f168201915b5050505050815260200160055f8a81526020019081526020015f206003018054611a4190612376565b80601f0160208091040260200160405190810160405280929190818152602001828054611a6d90612376565b8015611ab85780601f10611a8f57610100808354040283529160200191611ab8565b820191905f5260205f20905b815481529060010190602001808311611a9b57829003601f168201915b505050505081526020018281526020014281526020013373ffffffffffffffffffffffffffffffffffffffff16815260200160055f8a81526020019081526020015f206008015f9054906101000a900473ffffffffffffffffffffffffffffffffffffffff1673ffffffffffffffffffffffffffffffffffffffff1681525060075f60045481526020019081526020015f205f820151815f015560208201518160010155604082015181600201556060820151816003019081611b7b9190612543565b506080820151816004019081611b919190612543565b5060a0820151816005015560c0820151816006015560e0820151816007015f6101000a81548173ffffffffffffffffffffffffffffffffffffffff021916908373ffffffffffffffffffffffffffffffffffffffff160217905550610100820151816008015f6101000a81548173ffffffffffffffffffffffffffffffffffffffff021916908373ffffffffffffffffffffffffffffffffffffffff16021790555090505050505050505050565b5f604051905090565b5f80fd5b5f80fd5b5f819050919050565b611c6281611c50565b8114611c6c575f80fd5b50565b5f81359050611c7d81611c59565b92915050565b5f60208284031215611c9857611c97611c48565b5b5f611ca584828501611c6f565b91505092915050565b611cb781611c50565b82525050565b5f602082019050611cd05f830184611cae565b92915050565b5f81519050919050565b5f82825260208201905092915050565b5f5b83811015611d0d578082015181840152602081019050611cf2565b5f8484015250505050565b5f601f19601f8301169050919050565b5f611d3282611cd6565b611d3c8185611ce0565b9350611d4c818560208601611cf0565b611d5581611d18565b840191505092915050565b5f73ffffffffffffffffffffffffffffffffffffffff82169050919050565b5f611d8982611d60565b9050919050565b611d9981611d7f565b82525050565b5f61014082019050611db35f83018d611cae565b611dc0602083018c611cae565b8181036040830152611dd2818b611d28565b90508181036060830152611de6818a611d28565b9050611df56080830189611cae565b611e0260a0830188611cae565b611e0f60c0830187611cae565b611e1c60e0830186611cae565b611e2a610100830185611d90565b611e38610120830184611d90565b9b9a5050505050505050505050565b5f80fd5b5f80fd5b7f4e487b71000000000000000000000000000000000000000000000000000000005f52604160045260245ffd5b611e8582611d18565b810181811067ffffffffffffffff82111715611ea457611ea3611e4f565b5b80604052505050565b5f611eb6611c3f565b9050611ec28282611e7c565b919050565b5f67ffffffffffffffff821115611ee157611ee0611e4f565b5b611eea82611d18565b9050602081019050919050565b828183375f83830152505050565b5f611f17611f1284611ec7565b611ead565b905082815260208101848484011115611f3357611f32611e4b565b5b611f3e848285611ef7565b509392505050565b5f82601f830112611f5a57611f59611e47565b5b8135611f6a848260208601611f05565b91505092915050565b5f805f8060808587031215611f8b57611f8a611c48565b5b5f85013567ffffffffffffffff811115611fa857611fa7611c4c565b5b611fb487828801611f46565b945050602085013567ffffffffffffffff811115611fd557611fd4611c4c565b5b611fe187828801611f46565b9350506040611ff287828801611c6f565b925050606061200387828801611c6f565b91505092959194509250565b5f610120820190506120235f83018c611cae565b612030602083018b611cae565b61203d604083018a611cae565b818103606083015261204f8189611d28565b905081810360808301526120638188611d28565b905061207260a0830187611cae565b61207f60c0830186611cae565b61208c60e0830185611d90565b61209a610100830184611d90565b9a9950505050505050505050565b5f8115159050919050565b6120bc816120a8565b82525050565b5f610140820190506120d65f83018d611cae565b6120e3602083018c611cae565b81810360408301526120f5818b611d28565b90508181036060830152612109818a611d28565b90506121186080830189611cae565b61212560a0830188611cae565b61213260c0830187611cae565b61213f60e08301866120b3565b61214d610100830185611d90565b61215b610120830184611d90565b9b9a5050505050505050505050565b7f4f6e6c792074656e616e742063616e20616363657373207468697300000000005f82015250565b5f61219e601b83611ce0565b91506121a98261216a565b602082019050919050565b5f6020820190508181035f8301526121cb81612192565b9050919050565b7f4e487b71000000000000000000000000000000000000000000000000000000005f52601160045260245ffd5b5f61220982611c50565b915061221483611c50565b925082820190508082111561222c5761222b6121d2565b5b92915050565b7f4e6f7420656e6f75676820457468657220696e20796f75722077616c6c6574005f82015250565b5f612266601f83611ce0565b915061227182612232565b602082019050919050565b5f6020820190508181035f8301526122938161225a565b9050919050565b7f526f6f6d2069732063757272656e746c79206f636375706965640000000000005f82015250565b5f6122ce601a83611ce0565b91506122d98261229a565b602082019050919050565b5f6020820190508181035f8301526122fb816122c2565b9050919050565b5f61230c82611c50565b91507fffffffffffffffffffffffffffffffffffffffffffffffffffffffffffffffff820361233e5761233d6121d2565b5b600182019050919050565b7f4e487b71000000000000000000000000000000000000000000000000000000005f52602260045260245ffd5b5f600282049050600182168061238d57607f821691505b6020821081036123a05761239f612349565b5b50919050565b5f819050815f5260205f209050919050565b5f6020601f8301049050919050565b5f82821b905092915050565b5f600883026124027fffffffffffffffffffffffffffffffffffffffffffffffffffffffffffffffff826123c7565b61240c86836123c7565b95508019841693508086168417925050509392505050565b5f819050919050565b5f61244761244261243d84611c50565b612424565b611c50565b9050919050565b5f819050919050565b6124608361242d565b61247461246c8261244e565b8484546123d3565b825550505050565b5f90565b61248861247c565b612493818484612457565b505050565b5b818110156124b6576124ab5f82612480565b600181019050612499565b5050565b601f8211156124fb576124cc816123a6565b6124d5846123b8565b810160208510156124e4578190505b6124f86124f0856123b8565b830182612498565b50505b505050565b5f82821c905092915050565b5f61251b5f1984600802612500565b1980831691505092915050565b5f612533838361250c565b9150826002028217905092915050565b61254c82611cd6565b67ffffffffffffffff81111561256557612564611e4f565b5b61256f8254612376565b61257a8282856124ba565b5f60209050601f8311600181146125ab575f8415612599578287015190505b6125a38582612528565b86555061260a565b601f1984166125b9866123a6565b5f5b828110156125e0578489015182556001820191506020850194506020810190506125bb565b868310156125fd57848901516125f9601f89168261250c565b8355505b6001600288020188555050505b505050505050565b7f4f6e6c79206c616e646c6f72642063616e2061636365737320746869730000005f82015250565b5f612646601d83611ce0565b915061265182612612565b602082019050919050565b5f6020820190508181035f8301526126738161263a565b9050919050565b7f41677265656d656e7420616c726561647920656e6465640000000000000000005f82015250565b5f6126ae601783611ce0565b91506126b98261267a565b602082019050919050565b5f6020820190508181035f8301526126db816126a2565b9050919050565b7f4e6f2070726576696f75732061677265656d656e7420666f756e6420776974685f8201527f20796f752026206c616e646c6f72640000000000000000000000000000000000602082015250565b5f61273c602f83611ce0565b9150612747826126e2565b604082019050919050565b5f6020820190508181035f83015261276981612730565b9050919050565b7f54696d65206c65667420746f207061792072656e7400000000000000000000005f82015250565b5f6127a4601583611ce0565b91506127af82612770565b602082019050919050565b5f6020820190508181035f8301526127d181612798565b905091905056fea26469706673582212204c04b31d39d49a3e9dbf30232b556072b902829c98811191fe4924df0d24c9fe64736f6c63430008160033",
					"opcodes": "PUSH1 0x80 PUSH1 0x40 MSTORE PUSH0 PUSH1 0x2 SSTORE PUSH0 PUSH1 0x3 SSTORE PUSH0 PUSH1 0x4 SSTORE CALLVALUE DUP1 ISZERO PUSH2 0x1B JUMPI PUSH0 DUP1 REVERT JUMPDEST POP PUSH2 0x280E DUP1 PUSH2 0x29 PUSH0 CODECOPY PUSH0 RETURN INVALID PUSH1 0x80 PUSH1 0x40 MSTORE PUSH1 0x4 CALLDATASIZE LT PUSH2 0x9B JUMPI PUSH0 CALLDATALOAD PUSH1 0xE0 SHR DUP1 PUSH4 0x5EE6086F GT PUSH2 0x63 JUMPI DUP1 PUSH4 0x5EE6086F EQ PUSH2 0x153 JUMPI DUP1 PUSH4 0x63E475BD EQ PUSH2 0x198 JUMPI DUP1 PUSH4 0x649AD814 EQ PUSH2 0x1C0 JUMPI DUP1 PUSH4 0x7681E6D9 EQ PUSH2 0x204 JUMPI DUP1 PUSH4 0x8CDB3955 EQ PUSH2 0x22E JUMPI DUP1 PUSH4 0xD9E8843F EQ PUSH2 0x273 JUMPI PUSH2 0x9B JUMP JUMPDEST DUP1 PUSH4 0x3742DE0 EQ PUSH2 0x9F JUMPI DUP1 PUSH4 0x16ABB8A1 EQ PUSH2 0xBB JUMPI DUP1 PUSH4 0x2788137E EQ PUSH2 0xD7 JUMPI DUP1 PUSH4 0x465D80F8 EQ PUSH2 0x101 JUMPI DUP1 PUSH4 0x4F5E4428 EQ PUSH2 0x12B JUMPI JUMPDEST PUSH0 DUP1 REVERT JUMPDEST PUSH2 0xB9 PUSH1 0x4 DUP1 CALLDATASIZE SUB DUP2 ADD SWAP1 PUSH2 0xB4 SWAP2 SWAP1 PUSH2 0x1C83 JUMP JUMPDEST PUSH2 0x28F JUMP JUMPDEST STOP JUMPDEST PUSH2 0xD5 PUSH1 0x4 DUP1 CALLDATASIZE SUB DUP2 ADD SWAP1 PUSH2 0xD0 SWAP2 SWAP1 PUSH2 0x1C83 JUMP JUMPDEST PUSH2 0xB76 JUMP JUMPDEST STOP JUMPDEST CALLVALUE DUP1 ISZERO PUSH2 0xE2 JUMPI PUSH0 DUP1 REVERT JUMPDEST POP PUSH2 0xEB PUSH2 0xE10 JUMP JUMPDEST PUSH1 0x40 MLOAD PUSH2 0xF8 SWAP2 SWAP1 PUSH2 0x1CBD JUMP JUMPDEST PUSH1 0x40 MLOAD DUP1 SWAP2 SUB SWAP1 RETURN JUMPDEST CALLVALUE DUP1 ISZERO PUSH2 0x10C JUMPI PUSH0 DUP1 REVERT JUMPDEST POP PUSH2 0x115 PUSH2 0xE16 JUMP JUMPDEST PUSH1 0x40 MLOAD PUSH2 0x122 SWAP2 SWAP1 PUSH2 0x1CBD JUMP JUMPDEST PUSH1 0x40 MLOAD DUP1 SWAP2 SUB SWAP1 RETURN JUMPDEST CALLVALUE DUP1 ISZERO PUSH2 0x136 JUMPI PUSH0 DUP1 REVERT JUMPDEST POP PUSH2 0x151 PUSH1 0x4 DUP1 CALLDATASIZE SUB DUP2 ADD SWAP1 PUSH2 0x14C SWAP2 SWAP1 PUSH2 0x1C83 JUMP JUMPDEST PUSH2 0xE1C JUMP JUMPDEST STOP JUMPDEST CALLVALUE DUP1 ISZERO PUSH2 0x15E JUMPI PUSH0 DUP1 REVERT JUMPDEST POP PUSH2 0x179 PUSH1 0x4 DUP1 CALLDATASIZE SUB DUP2 ADD SWAP1 PUSH2 0x174 SWAP2 SWAP1 PUSH2 0x1C83 JUMP JUMPDEST PUSH2 0xFBA JUMP JUMPDEST PUSH1 0x40 MLOAD PUSH2 0x18F SWAP11 SWAP10 SWAP9 SWAP8 SWAP7 SWAP6 SWAP5 SWAP4 SWAP3 SWAP2 SWAP1 PUSH2 0x1D9F JUMP JUMPDEST PUSH1 0x40 MLOAD DUP1 SWAP2 SUB SWAP1 RETURN JUMPDEST CALLVALUE DUP1 ISZERO PUSH2 0x1A3 JUMPI PUSH0 DUP1 REVERT JUMPDEST POP PUSH2 0x1BE PUSH1 0x4 DUP1 CALLDATASIZE SUB DUP2 ADD SWAP1 PUSH2 0x1B9 SWAP2 SWAP1 PUSH2 0x1F73 JUMP JUMPDEST PUSH2 0x1154 JUMP JUMPDEST STOP JUMPDEST CALLVALUE DUP1 ISZERO PUSH2 0x1CB JUMPI PUSH0 DUP1 REVERT JUMPDEST POP PUSH2 0x1E6 PUSH1 0x4 DUP1 CALLDATASIZE SUB DUP2 ADD SWAP1 PUSH2 0x1E1 SWAP2 SWAP1 PUSH2 0x1C83 JUMP JUMPDEST PUSH2 0x134B JUMP JUMPDEST PUSH1 0x40 MLOAD PUSH2 0x1FB SWAP10 SWAP9 SWAP8 SWAP7 SWAP6 SWAP5 SWAP4 SWAP3 SWAP2 SWAP1 PUSH2 0x200F JUMP JUMPDEST PUSH1 0x40 MLOAD DUP1 SWAP2 SUB SWAP1 RETURN JUMPDEST CALLVALUE DUP1 ISZERO PUSH2 0x20F JUMPI PUSH0 DUP1 REVERT JUMPDEST POP PUSH2 0x218 PUSH2 0x14DF JUMP JUMPDEST PUSH1 0x40 MLOAD PUSH2 0x225 SWAP2 SWAP1 PUSH2 0x1CBD JUMP JUMPDEST PUSH1 0x40 MLOAD DUP1 SWAP2 SUB SWAP1 RETURN JUMPDEST CALLVALUE DUP1 ISZERO PUSH2 0x239 JUMPI PUSH0 DUP1 REVERT JUMPDEST POP PUSH2 0x254 PUSH1 0x4 DUP1 CALLDATASIZE SUB DUP2 ADD SWAP1 PUSH2 0x24F SWAP2 SWAP1 PUSH2 0x1C83 JUMP JUMPDEST PUSH2 0x14E5 JUMP JUMPDEST PUSH1 0x40 MLOAD PUSH2 0x26A SWAP11 SWAP10 SWAP9 SWAP8 SWAP7 SWAP6 SWAP5 SWAP4 SWAP3 SWAP2 SWAP1 PUSH2 0x20C2 JUMP JUMPDEST PUSH1 0x40 MLOAD DUP1 SWAP2 SUB SWAP1 RETURN JUMPDEST PUSH2 0x28D PUSH1 0x4 DUP1 CALLDATASIZE SUB DUP2 ADD SWAP1 PUSH2 0x288 SWAP2 SWAP1 PUSH2 0x1C83 JUMP JUMPDEST PUSH2 0x168C JUMP JUMPDEST STOP JUMPDEST DUP1 PUSH1 0x5 PUSH0 DUP3 DUP2 MSTORE PUSH1 0x20 ADD SWAP1 DUP2 MSTORE PUSH1 0x20 ADD PUSH0 KECCAK256 PUSH1 0x8 ADD PUSH0 SWAP1 SLOAD SWAP1 PUSH2 0x100 EXP SWAP1 DIV PUSH20 0xFFFFFFFFFFFFFFFFFFFFFFFFFFFFFFFFFFFFFFFF AND PUSH20 0xFFFFFFFFFFFFFFFFFFFFFFFFFFFFFFFFFFFFFFFF AND CALLER PUSH20 0xFFFFFFFFFFFFFFFFFFFFFFFFFFFFFFFFFFFFFFFF AND SUB PUSH2 0x331 JUMPI PUSH1 0x40 MLOAD PUSH32 0x8C379A000000000000000000000000000000000000000000000000000000000 DUP2 MSTORE PUSH1 0x4 ADD PUSH2 0x328 SWAP1 PUSH2 0x21B4 JUMP JUMPDEST PUSH1 0x40 MLOAD DUP1 SWAP2 SUB SWAP1 REVERT JUMPDEST DUP2 PUSH1 0x5 PUSH0 DUP3 DUP2 MSTORE PUSH1 0x20 ADD SWAP1 DUP2 MSTORE PUSH1 0x20 ADD PUSH0 KECCAK256 PUSH1 0x5 ADD SLOAD PUSH1 0x5 PUSH0 DUP4 DUP2 MSTORE PUSH1 0x20 ADD SWAP1 DUP2 MSTORE PUSH1 0x20 ADD PUSH0 KECCAK256 PUSH1 0x4 ADD SLOAD PUSH2 0x366 SWAP2 SWAP1 PUSH2 0x21FF JUMP JUMPDEST CALLVALUE LT ISZERO PUSH2 0x3A8 JUMPI PUSH1 0x40 MLOAD PUSH32 0x8C379A000000000000000000000000000000000000000000000000000000000 DUP2 MSTORE PUSH1 0x4 ADD PUSH2 0x39F SWAP1 PUSH2 0x227C JUMP JUMPDEST PUSH1 0x40 MLOAD DUP1 SWAP2 SUB SWAP1 REVERT JUMPDEST DUP3 PUSH1 0x1 ISZERO ISZERO PUSH1 0x5 PUSH0 DUP4 DUP2 MSTORE PUSH1 0x20 ADD SWAP1 DUP2 MSTORE PUSH1 0x20 ADD PUSH0 KECCAK256 PUSH1 0x7 ADD PUSH0 SWAP1 SLOAD SWAP1 PUSH2 0x100 EXP SWAP1 DIV PUSH1 0xFF AND ISZERO ISZERO EQ PUSH2 0x410 JUMPI PUSH1 0x40 MLOAD PUSH32 0x8C379A000000000000000000000000000000000000000000000000000000000 DUP2 MSTORE PUSH1 0x4 ADD PUSH2 0x407 SWAP1 PUSH2 0x22E4 JUMP JUMPDEST PUSH1 0x40 MLOAD DUP1 SWAP2 SUB SWAP1 REVERT JUMPDEST PUSH0 PUSH20 0xFFFFFFFFFFFFFFFFFFFFFFFFFFFFFFFFFFFFFFFF AND CALLER PUSH20 0xFFFFFFFFFFFFFFFFFFFFFFFFFFFFFFFFFFFFFFFF AND SUB PUSH2 0x447 JUMPI PUSH0 DUP1 REVERT JUMPDEST PUSH0 PUSH1 0x5 PUSH0 DUP7 DUP2 MSTORE PUSH1 0x20 ADD SWAP1 DUP2 MSTORE PUSH1 0x20 ADD PUSH0 KECCAK256 PUSH1 0x8 ADD PUSH0 SWAP1 SLOAD SWAP1 PUSH2 0x100 EXP SWAP1 DIV PUSH20 0xFFFFFFFFFFFFFFFFFFFFFFFFFFFFFFFFFFFFFFFF AND SWAP1 POP PUSH0 PUSH1 0x5 PUSH0 DUP8 DUP2 MSTORE PUSH1 0x20 ADD SWAP1 DUP2 MSTORE PUSH1 0x20 ADD PUSH0 KECCAK256 PUSH1 0x5 ADD SLOAD PUSH1 0x5 PUSH0 DUP9 DUP2 MSTORE PUSH1 0x20 ADD SWAP1 DUP2 MSTORE PUSH1 0x20 ADD PUSH0 KECCAK256 PUSH1 0x4 ADD SLOAD PUSH2 0x4B3 SWAP2 SWAP1 PUSH2 0x21FF JUMP JUMPDEST SWAP1 POP DUP2 PUSH20 0xFFFFFFFFFFFFFFFFFFFFFFFFFFFFFFFFFFFFFFFF AND PUSH2 0x8FC DUP3 SWAP1 DUP2 ISZERO MUL SWAP1 PUSH1 0x40 MLOAD PUSH0 PUSH1 0x40 MLOAD DUP1 DUP4 SUB DUP2 DUP6 DUP9 DUP9 CALL SWAP4 POP POP POP POP ISZERO DUP1 ISZERO PUSH2 0x4F8 JUMPI RETURNDATASIZE PUSH0 DUP1 RETURNDATACOPY RETURNDATASIZE PUSH0 REVERT JUMPDEST POP PUSH1 0x3 PUSH0 DUP2 SLOAD DUP1 SWAP3 SWAP2 SWAP1 PUSH2 0x50B SWAP1 PUSH2 0x2302 JUMP JUMPDEST SWAP2 SWAP1 POP SSTORE POP CALLER PUSH1 0x5 PUSH0 DUP9 DUP2 MSTORE PUSH1 0x20 ADD SWAP1 DUP2 MSTORE PUSH1 0x20 ADD PUSH0 KECCAK256 PUSH1 0x7 ADD PUSH1 0x1 PUSH2 0x100 EXP DUP2 SLOAD DUP2 PUSH20 0xFFFFFFFFFFFFFFFFFFFFFFFFFFFFFFFFFFFFFFFF MUL NOT AND SWAP1 DUP4 PUSH20 0xFFFFFFFFFFFFFFFFFFFFFFFFFFFFFFFFFFFFFFFF AND MUL OR SWAP1 SSTORE POP PUSH0 PUSH1 0x5 PUSH0 DUP9 DUP2 MSTORE PUSH1 0x20 ADD SWAP1 DUP2 MSTORE PUSH1 0x20 ADD PUSH0 KECCAK256 PUSH1 0x7 ADD PUSH0 PUSH2 0x100 EXP DUP2 SLOAD DUP2 PUSH1 0xFF MUL NOT AND SWAP1 DUP4 ISZERO ISZERO MUL OR SWAP1 SSTORE POP TIMESTAMP PUSH1 0x5 PUSH0 DUP9 DUP2 MSTORE PUSH1 0x20 ADD SWAP1 DUP2 MSTORE PUSH1 0x20 ADD PUSH0 KECCAK256 PUSH1 0x6 ADD DUP2 SWAP1 SSTORE POP PUSH1 0x3 SLOAD PUSH1 0x5 PUSH0 DUP9 DUP2 MSTORE PUSH1 0x20 ADD SWAP1 DUP2 MSTORE PUSH1 0x20 ADD PUSH0 KECCAK256 PUSH1 0x1 ADD DUP2 SWAP1 SSTORE POP PUSH1 0x40 MLOAD DUP1 PUSH2 0x140 ADD PUSH1 0x40 MSTORE DUP1 DUP8 DUP2 MSTORE PUSH1 0x20 ADD PUSH1 0x3 SLOAD DUP2 MSTORE PUSH1 0x20 ADD PUSH1 0x5 PUSH0 DUP10 DUP2 MSTORE PUSH1 0x20 ADD SWAP1 DUP2 MSTORE PUSH1 0x20 ADD PUSH0 KECCAK256 PUSH1 0x2 ADD DUP1 SLOAD PUSH2 0x5FB SWAP1 PUSH2 0x2376 JUMP JUMPDEST DUP1 PUSH1 0x1F ADD PUSH1 0x20 DUP1 SWAP2 DIV MUL PUSH1 0x20 ADD PUSH1 0x40 MLOAD SWAP1 DUP2 ADD PUSH1 0x40 MSTORE DUP1 SWAP3 SWAP2 SWAP1 DUP2 DUP2 MSTORE PUSH1 0x20 ADD DUP3 DUP1 SLOAD PUSH2 0x627 SWAP1 PUSH2 0x2376 JUMP JUMPDEST DUP1 ISZERO PUSH2 0x672 JUMPI DUP1 PUSH1 0x1F LT PUSH2 0x649 JUMPI PUSH2 0x100 DUP1 DUP4 SLOAD DIV MUL DUP4 MSTORE SWAP2 PUSH1 0x20 ADD SWAP2 PUSH2 0x672 JUMP JUMPDEST DUP3 ADD SWAP2 SWAP1 PUSH0 MSTORE PUSH1 0x20 PUSH0 KECCAK256 SWAP1 JUMPDEST DUP2 SLOAD DUP2 MSTORE SWAP1 PUSH1 0x1 ADD SWAP1 PUSH1 0x20 ADD DUP1 DUP4 GT PUSH2 0x655 JUMPI DUP3 SWAP1 SUB PUSH1 0x1F AND DUP3 ADD SWAP2 JUMPDEST POP POP POP POP POP DUP2 MSTORE PUSH1 0x20 ADD PUSH1 0x5 PUSH0 DUP10 DUP2 MSTORE PUSH1 0x20 ADD SWAP1 DUP2 MSTORE PUSH1 0x20 ADD PUSH0 KECCAK256 PUSH1 0x3 ADD DUP1 SLOAD PUSH2 0x69B SWAP1 PUSH2 0x2376 JUMP JUMPDEST DUP1 PUSH1 0x1F ADD PUSH1 0x20 DUP1 SWAP2 DIV MUL PUSH1 0x20 ADD PUSH1 0x40 MLOAD SWAP1 DUP2 ADD PUSH1 0x40 MSTORE DUP1 SWAP3 SWAP2 SWAP1 DUP2 DUP2 MSTORE PUSH1 0x20 ADD DUP3 DUP1 SLOAD PUSH2 0x6C7 SWAP1 PUSH2 0x2376 JUMP JUMPDEST DUP1 ISZERO PUSH2 0x712 JUMPI DUP1 PUSH1 0x1F LT PUSH2 0x6E9 JUMPI PUSH2 0x100 DUP1 DUP4 SLOAD DIV MUL DUP4 MSTORE SWAP2 PUSH1 0x20 ADD SWAP2 PUSH2 0x712 JUMP JUMPDEST DUP3 ADD SWAP2 SWAP1 PUSH0 MSTORE PUSH1 0x20 PUSH0 KECCAK256 SWAP1 JUMPDEST DUP2 SLOAD DUP2 MSTORE SWAP1 PUSH1 0x1 ADD SWAP1 PUSH1 0x20 ADD DUP1 DUP4 GT PUSH2 0x6F5 JUMPI DUP3 SWAP1 SUB PUSH1 0x1F AND DUP3 ADD SWAP2 JUMPDEST POP POP POP POP POP DUP2 MSTORE PUSH1 0x20 ADD PUSH1 0x5 PUSH0 DUP10 DUP2 MSTORE PUSH1 0x20 ADD SWAP1 DUP2 MSTORE PUSH1 0x20 ADD PUSH0 KECCAK256 PUSH1 0x4 ADD SLOAD DUP2 MSTORE PUSH1 0x20 ADD PUSH1 0x5 PUSH0 DUP10 DUP2 MSTORE PUSH1 0x20 ADD SWAP1 DUP2 MSTORE PUSH1 0x20 ADD PUSH0 KECCAK256 PUSH1 0x5 ADD SLOAD DUP2 MSTORE PUSH1 0x20 ADD PUSH4 0x1E13380 DUP2 MSTORE PUSH1 0x20 ADD TIMESTAMP DUP2 MSTORE PUSH1 0x20 ADD CALLER PUSH20 0xFFFFFFFFFFFFFFFFFFFFFFFFFFFFFFFFFFFFFFFF AND DUP2 MSTORE PUSH1 0x20 ADD DUP4 PUSH20 0xFFFFFFFFFFFFFFFFFFFFFFFFFFFFFFFFFFFFFFFF AND DUP2 MSTORE POP PUSH1 0x6 PUSH0 PUSH1 0x3 SLOAD DUP2 MSTORE PUSH1 0x20 ADD SWAP1 DUP2 MSTORE PUSH1 0x20 ADD PUSH0 KECCAK256 PUSH0 DUP3 ADD MLOAD DUP2 PUSH0 ADD SSTORE PUSH1 0x20 DUP3 ADD MLOAD DUP2 PUSH1 0x1 ADD SSTORE PUSH1 0x40 DUP3 ADD MLOAD DUP2 PUSH1 0x2 ADD SWAP1 DUP2 PUSH2 0x7D0 SWAP2 SWAP1 PUSH2 0x2543 JUMP JUMPDEST POP PUSH1 0x60 DUP3 ADD MLOAD DUP2 PUSH1 0x3 ADD SWAP1 DUP2 PUSH2 0x7E6 SWAP2 SWAP1 PUSH2 0x2543 JUMP JUMPDEST POP PUSH1 0x80 DUP3 ADD MLOAD DUP2 PUSH1 0x4 ADD SSTORE PUSH1 0xA0 DUP3 ADD MLOAD DUP2 PUSH1 0x5 ADD SSTORE PUSH1 0xC0 DUP3 ADD MLOAD DUP2 PUSH1 0x6 ADD SSTORE PUSH1 0xE0 DUP3 ADD MLOAD DUP2 PUSH1 0x7 ADD SSTORE PUSH2 0x100 DUP3 ADD MLOAD DUP2 PUSH1 0x8 ADD PUSH0 PUSH2 0x100 EXP DUP2 SLOAD DUP2 PUSH20 0xFFFFFFFFFFFFFFFFFFFFFFFFFFFFFFFFFFFFFFFF MUL NOT AND SWAP1 DUP4 PUSH20 0xFFFFFFFFFFFFFFFFFFFFFFFFFFFFFFFFFFFFFFFF AND MUL OR SWAP1 SSTORE POP PUSH2 0x120 DUP3 ADD MLOAD DUP2 PUSH1 0x9 ADD PUSH0 PUSH2 0x100 EXP DUP2 SLOAD DUP2 PUSH20 0xFFFFFFFFFFFFFFFFFFFFFFFFFFFFFFFFFFFFFFFF MUL NOT AND SWAP1 DUP4 PUSH20 0xFFFFFFFFFFFFFFFFFFFFFFFFFFFFFFFFFFFFFFFF AND MUL OR SWAP1 SSTORE POP SWAP1 POP POP PUSH1 0x4 PUSH0 DUP2 SLOAD DUP1 SWAP3 SWAP2 SWAP1 PUSH2 0x8B2 SWAP1 PUSH2 0x2302 JUMP JUMPDEST SWAP2 SWAP1 POP SSTORE POP PUSH1 0x40 MLOAD DUP1 PUSH2 0x120 ADD PUSH1 0x40 MSTORE DUP1 PUSH1 0x4 SLOAD DUP2 MSTORE PUSH1 0x20 ADD DUP8 DUP2 MSTORE PUSH1 0x20 ADD PUSH1 0x3 SLOAD DUP2 MSTORE PUSH1 0x20 ADD PUSH1 0x5 PUSH0 DUP10 DUP2 MSTORE PUSH1 0x20 ADD SWAP1 DUP2 MSTORE PUSH1 0x20 ADD PUSH0 KECCAK256 PUSH1 0x2 ADD DUP1 SLOAD PUSH2 0x8F8 SWAP1 PUSH2 0x2376 JUMP JUMPDEST DUP1 PUSH1 0x1F ADD PUSH1 0x20 DUP1 SWAP2 DIV MUL PUSH1 0x20 ADD PUSH1 0x40 MLOAD SWAP1 DUP2 ADD PUSH1 0x40 MSTORE DUP1 SWAP3 SWAP2 SWAP1 DUP2 DUP2 MSTORE PUSH1 0x20 ADD DUP3 DUP1 SLOAD PUSH2 0x924 SWAP1 PUSH2 0x2376 JUMP JUMPDEST DUP1 ISZERO PUSH2 0x96F JUMPI DUP1 PUSH1 0x1F LT PUSH2 0x946 JUMPI PUSH2 0x100 DUP1 DUP4 SLOAD DIV MUL DUP4 MSTORE SWAP2 PUSH1 0x20 ADD SWAP2 PUSH2 0x96F JUMP JUMPDEST DUP3 ADD SWAP2 SWAP1 PUSH0 MSTORE PUSH1 0x20 PUSH0 KECCAK256 SWAP1 JUMPDEST DUP2 SLOAD DUP2 MSTORE SWAP1 PUSH1 0x1 ADD SWAP1 PUSH1 0x20 ADD DUP1 DUP4 GT PUSH2 0x952 JUMPI DUP3 SWAP1 SUB PUSH1 0x1F AND DUP3 ADD SWAP2 JUMPDEST POP POP POP POP POP DUP2 MSTORE PUSH1 0x20 ADD PUSH1 0x5 PUSH0 DUP10 DUP2 MSTORE PUSH1 0x20 ADD SWAP1 DUP2 MSTORE PUSH1 0x20 ADD PUSH0 KECCAK256 PUSH1 0x3 ADD DUP1 SLOAD PUSH2 0x998 SWAP1 PUSH2 0x2376 JUMP JUMPDEST DUP1 PUSH1 0x1F ADD PUSH1 0x20 DUP1 SWAP2 DIV MUL PUSH1 0x20 ADD PUSH1 0x40 MLOAD SWAP1 DUP2 ADD PUSH1 0x40 MSTORE DUP1 SWAP3 SWAP2 SWAP1 DUP2 DUP2 MSTORE PUSH1 0x20 ADD DUP3 DUP1 SLOAD PUSH2 0x9C4 SWAP1 PUSH2 0x2376 JUMP JUMPDEST DUP1 ISZERO PUSH2 0xA0F JUMPI DUP1 PUSH1 0x1F LT PUSH2 0x9E6 JUMPI PUSH2 0x100 DUP1 DUP4 SLOAD DIV MUL DUP4 MSTORE SWAP2 PUSH1 0x20 ADD SWAP2 PUSH2 0xA0F JUMP JUMPDEST DUP3 ADD SWAP2 SWAP1 PUSH0 MSTORE PUSH1 0x20 PUSH0 KECCAK256 SWAP1 JUMPDEST DUP2 SLOAD DUP2 MSTORE SWAP1 PUSH1 0x1 ADD SWAP1 PUSH1 0x20 ADD DUP1 DUP4 GT PUSH2 0x9F2 JUMPI DUP3 SWAP1 SUB PUSH1 0x1F AND DUP3 ADD SWAP2 JUMPDEST POP POP POP POP POP DUP2 MSTORE PUSH1 0x20 ADD PUSH1 0x5 PUSH0 DUP10 DUP2 MSTORE PUSH1 0x20 ADD SWAP1 DUP2 MSTORE PUSH1 0x20 ADD PUSH0 KECCAK256 PUSH1 0x4 ADD SLOAD DUP2 MSTORE PUSH1 0x20 ADD TIMESTAMP DUP2 MSTORE PUSH1 0x20 ADD CALLER PUSH20 0xFFFFFFFFFFFFFFFFFFFFFFFFFFFFFFFFFFFFFFFF AND DUP2 MSTORE PUSH1 0x20 ADD DUP4 PUSH20 0xFFFFFFFFFFFFFFFFFFFFFFFFFFFFFFFFFFFFFFFF AND DUP2 MSTORE POP PUSH1 0x7 PUSH0 PUSH1 0x4 SLOAD DUP2 MSTORE PUSH1 0x20 ADD SWAP1 DUP2 MSTORE PUSH1 0x20 ADD PUSH0 KECCAK256 PUSH0 DUP3 ADD MLOAD DUP2 PUSH0 ADD SSTORE PUSH1 0x20 DUP3 ADD MLOAD DUP2 PUSH1 0x1 ADD SSTORE PUSH1 0x40 DUP3 ADD MLOAD DUP2 PUSH1 0x2 ADD SSTORE PUSH1 0x60 DUP3 ADD MLOAD DUP2 PUSH1 0x3 ADD SWAP1 DUP2 PUSH2 0xAB3 SWAP2 SWAP1 PUSH2 0x2543 JUMP JUMPDEST POP PUSH1 0x80 DUP3 ADD MLOAD DUP2 PUSH1 0x4 ADD SWAP1 DUP2 PUSH2 0xAC9 SWAP2 SWAP1 PUSH2 0x2543 JUMP JUMPDEST POP PUSH1 0xA0 DUP3 ADD MLOAD DUP2 PUSH1 0x5 ADD SSTORE PUSH1 0xC0 DUP3 ADD MLOAD DUP2 PUSH1 0x6 ADD SSTORE PUSH1 0xE0 DUP3 ADD MLOAD DUP2 PUSH1 0x7 ADD PUSH0 PUSH2 0x100 EXP DUP2 SLOAD DUP2 PUSH20 0xFFFFFFFFFFFFFFFFFFFFFFFFFFFFFFFFFFFFFFFF MUL NOT AND SWAP1 DUP4 PUSH20 0xFFFFFFFFFFFFFFFFFFFFFFFFFFFFFFFFFFFFFFFF AND MUL OR SWAP1 SSTORE POP PUSH2 0x100 DUP3 ADD MLOAD DUP2 PUSH1 0x8 ADD PUSH0 PUSH2 0x100 EXP DUP2 SLOAD DUP2 PUSH20 0xFFFFFFFFFFFFFFFFFFFFFFFFFFFFFFFFFFFFFFFF MUL NOT AND SWAP1 DUP4 PUSH20 0xFFFFFFFFFFFFFFFFFFFFFFFFFFFFFFFFFFFFFFFF AND MUL OR SWAP1 SSTORE POP SWAP1 POP POP POP POP POP POP POP POP JUMP JUMPDEST DUP1 PUSH1 0x5 PUSH0 DUP3 DUP2 MSTORE PUSH1 0x20 ADD SWAP1 DUP2 MSTORE PUSH1 0x20 ADD PUSH0 KECCAK256 PUSH1 0x8 ADD PUSH0 SWAP1 SLOAD SWAP1 PUSH2 0x100 EXP SWAP1 DIV PUSH20 0xFFFFFFFFFFFFFFFFFFFFFFFFFFFFFFFFFFFFFFFF AND PUSH20 0xFFFFFFFFFFFFFFFFFFFFFFFFFFFFFFFFFFFFFFFF AND CALLER PUSH20 0xFFFFFFFFFFFFFFFFFFFFFFFFFFFFFFFFFFFFFFFF AND EQ PUSH2 0xC18 JUMPI PUSH1 0x40 MLOAD PUSH32 0x8C379A000000000000000000000000000000000000000000000000000000000 DUP2 MSTORE PUSH1 0x4 ADD PUSH2 0xC0F SWAP1 PUSH2 0x265C JUMP JUMPDEST PUSH1 0x40 MLOAD DUP1 SWAP2 SUB SWAP1 REVERT JUMPDEST DUP2 PUSH0 PUSH1 0x5 PUSH0 DUP4 DUP2 MSTORE PUSH1 0x20 ADD SWAP1 DUP2 MSTORE PUSH1 0x20 ADD PUSH0 KECCAK256 PUSH1 0x1 ADD SLOAD SWAP1 POP PUSH0 PUSH1 0x6 PUSH0 DUP4 DUP2 MSTORE PUSH1 0x20 ADD SWAP1 DUP2 MSTORE PUSH1 0x20 ADD PUSH0 KECCAK256 PUSH1 0x6 ADD SLOAD PUSH1 0x6 PUSH0 DUP5 DUP2 MSTORE PUSH1 0x20 ADD SWAP1 DUP2 MSTORE PUSH1 0x20 ADD PUSH0 KECCAK256 PUSH1 0x7 ADD SLOAD PUSH2 0xC66 SWAP2 SWAP1 PUSH2 0x21FF JUMP JUMPDEST SWAP1 POP DUP1 TIMESTAMP LT PUSH2 0xCAA JUMPI PUSH1 0x40 MLOAD PUSH32 0x8C379A000000000000000000000000000000000000000000000000000000000 DUP2 MSTORE PUSH1 0x4 ADD PUSH2 0xCA1 SWAP1 PUSH2 0x26C4 JUMP JUMPDEST PUSH1 0x40 MLOAD DUP1 SWAP2 SUB SWAP1 REVERT JUMPDEST PUSH0 PUSH20 0xFFFFFFFFFFFFFFFFFFFFFFFFFFFFFFFFFFFFFFFF AND CALLER PUSH20 0xFFFFFFFFFFFFFFFFFFFFFFFFFFFFFFFFFFFFFFFF AND SUB PUSH2 0xCE1 JUMPI PUSH0 DUP1 REVERT JUMPDEST PUSH0 ISZERO ISZERO PUSH1 0x5 PUSH0 DUP8 DUP2 MSTORE PUSH1 0x20 ADD SWAP1 DUP2 MSTORE PUSH1 0x20 ADD PUSH0 KECCAK256 PUSH1 0x7 ADD PUSH0 SWAP1 SLOAD SWAP1 PUSH2 0x100 EXP SWAP1 DIV PUSH1 0xFF AND ISZERO ISZERO EQ PUSH2 0xD47 JUMPI PUSH1 0x40 MLOAD PUSH32 0x8C379A000000000000000000000000000000000000000000000000000000000 DUP2 MSTORE PUSH1 0x4 ADD PUSH2 0xD3E SWAP1 PUSH2 0x22E4 JUMP JUMPDEST PUSH1 0x40 MLOAD DUP1 SWAP2 SUB SWAP1 REVERT JUMPDEST PUSH1 0x1 PUSH1 0x5 PUSH0 DUP8 DUP2 MSTORE PUSH1 0x20 ADD SWAP1 DUP2 MSTORE PUSH1 0x20 ADD PUSH0 KECCAK256 PUSH1 0x7 ADD PUSH0 PUSH2 0x100 EXP DUP2 SLOAD DUP2 PUSH1 0xFF MUL NOT AND SWAP1 DUP4 ISZERO ISZERO MUL OR SWAP1 SSTORE POP PUSH0 PUSH1 0x5 PUSH0 DUP8 DUP2 MSTORE PUSH1 0x20 ADD SWAP1 DUP2 MSTORE PUSH1 0x20 ADD PUSH0 KECCAK256 PUSH1 0x7 ADD PUSH1 0x1 SWAP1 SLOAD SWAP1 PUSH2 0x100 EXP SWAP1 DIV PUSH20 0xFFFFFFFFFFFFFFFFFFFFFFFFFFFFFFFFFFFFFFFF AND SWAP1 POP PUSH0 PUSH1 0x5 PUSH0 DUP9 DUP2 MSTORE PUSH1 0x20 ADD SWAP1 DUP2 MSTORE PUSH1 0x20 ADD PUSH0 KECCAK256 PUSH1 0x5 ADD SLOAD SWAP1 POP DUP2 PUSH20 0xFFFFFFFFFFFFFFFFFFFFFFFFFFFFFFFFFFFFFFFF AND PUSH2 0x8FC DUP3 SWAP1 DUP2 ISZERO MUL SWAP1 PUSH1 0x40 MLOAD PUSH0 PUSH1 0x40 MLOAD DUP1 DUP4 SUB DUP2 DUP6 DUP9 DUP9 CALL SWAP4 POP POP POP POP ISZERO DUP1 ISZERO PUSH2 0xE06 JUMPI RETURNDATASIZE PUSH0 DUP1 RETURNDATACOPY RETURNDATASIZE PUSH0 REVERT JUMPDEST POP POP POP POP POP POP POP POP JUMP JUMPDEST PUSH1 0x2 SLOAD DUP2 JUMP JUMPDEST PUSH1 0x3 SLOAD DUP2 JUMP JUMPDEST DUP1 PUSH1 0x5 PUSH0 DUP3 DUP2 MSTORE PUSH1 0x20 ADD SWAP1 DUP2 MSTORE PUSH1 0x20 ADD PUSH0 KECCAK256 PUSH1 0x8 ADD PUSH0 SWAP1 SLOAD SWAP1 PUSH2 0x100 EXP SWAP1 DIV PUSH20 0xFFFFFFFFFFFFFFFFFFFFFFFFFFFFFFFFFFFFFFFF AND PUSH20 0xFFFFFFFFFFFFFFFFFFFFFFFFFFFFFFFFFFFFFFFF AND CALLER PUSH20 0xFFFFFFFFFFFFFFFFFFFFFFFFFFFFFFFFFFFFFFFF AND EQ PUSH2 0xEBE JUMPI PUSH1 0x40 MLOAD PUSH32 0x8C379A000000000000000000000000000000000000000000000000000000000 DUP2 MSTORE PUSH1 0x4 ADD PUSH2 0xEB5 SWAP1 PUSH2 0x265C JUMP JUMPDEST PUSH1 0x40 MLOAD DUP1 SWAP2 SUB SWAP1 REVERT JUMPDEST DUP2 PUSH0 PUSH1 0x5 PUSH0 DUP4 DUP2 MSTORE PUSH1 0x20 ADD SWAP1 DUP2 MSTORE PUSH1 0x20 ADD PUSH0 KECCAK256 PUSH1 0x1 ADD SLOAD SWAP1 POP PUSH0 PUSH1 0x6 PUSH0 DUP4 DUP2 MSTORE PUSH1 0x20 ADD SWAP1 DUP2 MSTORE PUSH1 0x20 ADD PUSH0 KECCAK256 PUSH1 0x6 ADD SLOAD PUSH1 0x6 PUSH0 DUP5 DUP2 MSTORE PUSH1 0x20 ADD SWAP1 DUP2 MSTORE PUSH1 0x20 ADD PUSH0 KECCAK256 PUSH1 0x7 ADD SLOAD PUSH2 0xF0C SWAP2 SWAP1 PUSH2 0x21FF JUMP JUMPDEST SWAP1 POP DUP1 TIMESTAMP LT PUSH2 0xF50 JUMPI PUSH1 0x40 MLOAD PUSH32 0x8C379A000000000000000000000000000000000000000000000000000000000 DUP2 MSTORE PUSH1 0x4 ADD PUSH2 0xF47 SWAP1 PUSH2 0x26C4 JUMP JUMPDEST PUSH1 0x40 MLOAD DUP1 SWAP2 SUB SWAP1 REVERT JUMPDEST PUSH0 PUSH20 0xFFFFFFFFFFFFFFFFFFFFFFFFFFFFFFFFFFFFFFFF AND CALLER PUSH20 0xFFFFFFFFFFFFFFFFFFFFFFFFFFFFFFFFFFFFFFFF AND EQ PUSH2 0xF87 JUMPI PUSH0 DUP1 REVERT JUMPDEST PUSH1 0x1 PUSH1 0x5 PUSH0 DUP8 DUP2 MSTORE PUSH1 0x20 ADD SWAP1 DUP2 MSTORE PUSH1 0x20 ADD PUSH0 KECCAK256 PUSH1 0x7 ADD PUSH0 PUSH2 0x100 EXP DUP2 SLOAD DUP2 PUSH1 0xFF MUL NOT AND SWAP1 DUP4 ISZERO ISZERO MUL OR SWAP1 SSTORE POP POP POP POP POP POP JUMP JUMPDEST PUSH1 0x6 PUSH1 0x20 MSTORE DUP1 PUSH0 MSTORE PUSH1 0x40 PUSH0 KECCAK256 PUSH0 SWAP2 POP SWAP1 POP DUP1 PUSH0 ADD SLOAD SWAP1 DUP1 PUSH1 0x1 ADD SLOAD SWAP1 DUP1 PUSH1 0x2 ADD DUP1 SLOAD PUSH2 0xFE5 SWAP1 PUSH2 0x2376 JUMP JUMPDEST DUP1 PUSH1 0x1F ADD PUSH1 0x20 DUP1 SWAP2 DIV MUL PUSH1 0x20 ADD PUSH1 0x40 MLOAD SWAP1 DUP2 ADD PUSH1 0x40 MSTORE DUP1 SWAP3 SWAP2 SWAP1 DUP2 DUP2 MSTORE PUSH1 0x20 ADD DUP3 DUP1 SLOAD PUSH2 0x1011 SWAP1 PUSH2 0x2376 JUMP JUMPDEST DUP1 ISZERO PUSH2 0x105C JUMPI DUP1 PUSH1 0x1F LT PUSH2 0x1033 JUMPI PUSH2 0x100 DUP1 DUP4 SLOAD DIV MUL DUP4 MSTORE SWAP2 PUSH1 0x20 ADD SWAP2 PUSH2 0x105C JUMP JUMPDEST DUP3 ADD SWAP2 SWAP1 PUSH0 MSTORE PUSH1 0x20 PUSH0 KECCAK256 SWAP1 JUMPDEST DUP2 SLOAD DUP2 MSTORE SWAP1 PUSH1 0x1 ADD SWAP1 PUSH1 0x20 ADD DUP1 DUP4 GT PUSH2 0x103F JUMPI DUP3 SWAP1 SUB PUSH1 0x1F AND DUP3 ADD SWAP2 JUMPDEST POP POP POP POP POP SWAP1 DUP1 PUSH1 0x3 ADD DUP1 SLOAD PUSH2 0x1071 SWAP1 PUSH2 0x2376 JUMP JUMPDEST DUP1 PUSH1 0x1F ADD PUSH1 0x20 DUP1 SWAP2 DIV MUL PUSH1 0x20 ADD PUSH1 0x40 MLOAD SWAP1 DUP2 ADD PUSH1 0x40 MSTORE DUP1 SWAP3 SWAP2 SWAP1 DUP2 DUP2 MSTORE PUSH1 0x20 ADD DUP3 DUP1 SLOAD PUSH2 0x109D SWAP1 PUSH2 0x2376 JUMP JUMPDEST DUP1 ISZERO PUSH2 0x10E8 JUMPI DUP1 PUSH1 0x1F LT PUSH2 0x10BF JUMPI PUSH2 0x100 DUP1 DUP4 SLOAD DIV MUL DUP4 MSTORE SWAP2 PUSH1 0x20 ADD SWAP2 PUSH2 0x10E8 JUMP JUMPDEST DUP3 ADD SWAP2 SWAP1 PUSH0 MSTORE PUSH1 0x20 PUSH0 KECCAK256 SWAP1 JUMPDEST DUP2 SLOAD DUP2 MSTORE SWAP1 PUSH1 0x1 ADD SWAP1 PUSH1 0x20 ADD DUP1 DUP4 GT PUSH2 0x10CB JUMPI DUP3 SWAP1 SUB PUSH1 0x1F AND DUP3 ADD SWAP2 JUMPDEST POP POP POP POP POP SWAP1 DUP1 PUSH1 0x4 ADD SLOAD SWAP1 DUP1 PUSH1 0x5 ADD SLOAD SWAP1 DUP1 PUSH1 0x6 ADD SLOAD SWAP1 DUP1 PUSH1 0x7 ADD SLOAD SWAP1 DUP1 PUSH1 0x8 ADD PUSH0 SWAP1 SLOAD SWAP1 PUSH2 0x100 EXP SWAP1 DIV PUSH20 0xFFFFFFFFFFFFFFFFFFFFFFFFFFFFFFFFFFFFFFFF AND SWAP1 DUP1 PUSH1 0x9 ADD PUSH0 SWAP1 SLOAD SWAP1 PUSH2 0x100 EXP SWAP1 DIV PUSH20 0xFFFFFFFFFFFFFFFFFFFFFFFFFFFFFFFFFFFFFFFF AND SWAP1 POP DUP11 JUMP JUMPDEST PUSH0 PUSH20 0xFFFFFFFFFFFFFFFFFFFFFFFFFFFFFFFFFFFFFFFF AND CALLER PUSH20 0xFFFFFFFFFFFFFFFFFFFFFFFFFFFFFFFFFFFFFFFF AND SUB PUSH2 0x118B JUMPI PUSH0 DUP1 REVERT JUMPDEST PUSH1 0x2 PUSH0 DUP2 SLOAD DUP1 SWAP3 SWAP2 SWAP1 PUSH2 0x119D SWAP1 PUSH2 0x2302 JUMP JUMPDEST SWAP2 SWAP1 POP SSTORE POP PUSH0 PUSH1 0x1 SWAP1 POP PUSH0 CALLER SWAP1 POP PUSH0 PUSH1 0x40 MLOAD DUP1 PUSH2 0x140 ADD PUSH1 0x40 MSTORE DUP1 PUSH1 0x2 SLOAD DUP2 MSTORE PUSH1 0x20 ADD PUSH0 DUP2 MSTORE PUSH1 0x20 ADD DUP9 DUP2 MSTORE PUSH1 0x20 ADD DUP8 DUP2 MSTORE PUSH1 0x20 ADD DUP7 DUP2 MSTORE PUSH1 0x20 ADD DUP6 DUP2 MSTORE PUSH1 0x20 ADD PUSH0 DUP2 MSTORE PUSH1 0x20 ADD DUP5 ISZERO ISZERO DUP2 MSTORE PUSH1 0x20 ADD DUP4 PUSH20 0xFFFFFFFFFFFFFFFFFFFFFFFFFFFFFFFFFFFFFFFF AND DUP2 MSTORE PUSH1 0x20 ADD DUP3 PUSH20 0xFFFFFFFFFFFFFFFFFFFFFFFFFFFFFFFFFFFFFFFF AND DUP2 MSTORE POP PUSH1 0x5 PUSH0 PUSH1 0x2 SLOAD DUP2 MSTORE PUSH1 0x20 ADD SWAP1 DUP2 MSTORE PUSH1 0x20 ADD PUSH0 KECCAK256 PUSH0 DUP3 ADD MLOAD DUP2 PUSH0 ADD SSTORE PUSH1 0x20 DUP3 ADD MLOAD DUP2 PUSH1 0x1 ADD SSTORE PUSH1 0x40 DUP3 ADD MLOAD DUP2 PUSH1 0x2 ADD SWAP1 DUP2 PUSH2 0x125C SWAP2 SWAP1 PUSH2 0x2543 JUMP JUMPDEST POP PUSH1 0x60 DUP3 ADD MLOAD DUP2 PUSH1 0x3 ADD SWAP1 DUP2 PUSH2 0x1272 SWAP2 SWAP1 PUSH2 0x2543 JUMP JUMPDEST POP PUSH1 0x80 DUP3 ADD MLOAD DUP2 PUSH1 0x4 ADD SSTORE PUSH1 0xA0 DUP3 ADD MLOAD DUP2 PUSH1 0x5 ADD SSTORE PUSH1 0xC0 DUP3 ADD MLOAD DUP2 PUSH1 0x6 ADD SSTORE PUSH1 0xE0 DUP3 ADD MLOAD DUP2 PUSH1 0x7 ADD PUSH0 PUSH2 0x100 EXP DUP2 SLOAD DUP2 PUSH1 0xFF MUL NOT AND SWAP1 DUP4 ISZERO ISZERO MUL OR SWAP1 SSTORE POP PUSH2 0x100 DUP3 ADD MLOAD DUP2 PUSH1 0x7 ADD PUSH1 0x1 PUSH2 0x100 EXP DUP2 SLOAD DUP2 PUSH20 0xFFFFFFFFFFFFFFFFFFFFFFFFFFFFFFFFFFFFFFFF MUL NOT AND SWAP1 DUP4 PUSH20 0xFFFFFFFFFFFFFFFFFFFFFFFFFFFFFFFFFFFFFFFF AND MUL OR SWAP1 SSTORE POP PUSH2 0x120 DUP3 ADD MLOAD DUP2 PUSH1 0x8 ADD PUSH0 PUSH2 0x100 EXP DUP2 SLOAD DUP2 PUSH20 0xFFFFFFFFFFFFFFFFFFFFFFFFFFFFFFFFFFFFFFFF MUL NOT AND SWAP1 DUP4 PUSH20 0xFFFFFFFFFFFFFFFFFFFFFFFFFFFFFFFFFFFFFFFF AND MUL OR SWAP1 SSTORE POP SWAP1 POP POP POP POP POP POP POP POP POP JUMP JUMPDEST PUSH1 0x7 PUSH1 0x20 MSTORE DUP1 PUSH0 MSTORE PUSH1 0x40 PUSH0 KECCAK256 PUSH0 SWAP2 POP SWAP1 POP DUP1 PUSH0 ADD SLOAD SWAP1 DUP1 PUSH1 0x1 ADD SLOAD SWAP1 DUP1 PUSH1 0x2 ADD SLOAD SWAP1 DUP1 PUSH1 0x3 ADD DUP1 SLOAD PUSH2 0x137C SWAP1 PUSH2 0x2376 JUMP JUMPDEST DUP1 PUSH1 0x1F ADD PUSH1 0x20 DUP1 SWAP2 DIV MUL PUSH1 0x20 ADD PUSH1 0x40 MLOAD SWAP1 DUP2 ADD PUSH1 0x40 MSTORE DUP1 SWAP3 SWAP2 SWAP1 DUP2 DUP2 MSTORE PUSH1 0x20 ADD DUP3 DUP1 SLOAD PUSH2 0x13A8 SWAP1 PUSH2 0x2376 JUMP JUMPDEST DUP1 ISZERO PUSH2 0x13F3 JUMPI DUP1 PUSH1 0x1F LT PUSH2 0x13CA JUMPI PUSH2 0x100 DUP1 DUP4 SLOAD DIV MUL DUP4 MSTORE SWAP2 PUSH1 0x20 ADD SWAP2 PUSH2 0x13F3 JUMP JUMPDEST DUP3 ADD SWAP2 SWAP1 PUSH0 MSTORE PUSH1 0x20 PUSH0 KECCAK256 SWAP1 JUMPDEST DUP2 SLOAD DUP2 MSTORE SWAP1 PUSH1 0x1 ADD SWAP1 PUSH1 0x20 ADD DUP1 DUP4 GT PUSH2 0x13D6 JUMPI DUP3 SWAP1 SUB PUSH1 0x1F AND DUP3 ADD SWAP2 JUMPDEST POP POP POP POP POP SWAP1 DUP1 PUSH1 0x4 ADD DUP1 SLOAD PUSH2 0x1408 SWAP1 PUSH2 0x2376 JUMP JUMPDEST DUP1 PUSH1 0x1F ADD PUSH1 0x20 DUP1 SWAP2 DIV MUL PUSH1 0x20 ADD PUSH1 0x40 MLOAD SWAP1 DUP2 ADD PUSH1 0x40 MSTORE DUP1 SWAP3 SWAP2 SWAP1 DUP2 DUP2 MSTORE PUSH1 0x20 ADD DUP3 DUP1 SLOAD PUSH2 0x1434 SWAP1 PUSH2 0x2376 JUMP JUMPDEST DUP1 ISZERO PUSH2 0x147F JUMPI DUP1 PUSH1 0x1F LT PUSH2 0x1456 JUMPI PUSH2 0x100 DUP1 DUP4 SLOAD DIV MUL DUP4 MSTORE SWAP2 PUSH1 0x20 ADD SWAP2 PUSH2 0x147F JUMP JUMPDEST DUP3 ADD SWAP2 SWAP1 PUSH0 MSTORE PUSH1 0x20 PUSH0 KECCAK256 SWAP1 JUMPDEST DUP2 SLOAD DUP2 MSTORE SWAP1 PUSH1 0x1 ADD SWAP1 PUSH1 0x20 ADD DUP1 DUP4 GT PUSH2 0x1462 JUMPI DUP3 SWAP1 SUB PUSH1 0x1F AND DUP3 ADD SWAP2 JUMPDEST POP POP POP POP POP SWAP1 DUP1 PUSH1 0x5 ADD SLOAD SWAP1 DUP1 PUSH1 0x6 ADD SLOAD SWAP1 DUP1 PUSH1 0x7 ADD PUSH0 SWAP1 SLOAD SWAP1 PUSH2 0x100 EXP SWAP1 DIV PUSH20 0xFFFFFFFFFFFFFFFFFFFFFFFFFFFFFFFFFFFFFFFF AND SWAP1 DUP1 PUSH1 0x8 ADD PUSH0 SWAP1 SLOAD SWAP1 PUSH2 0x100 EXP SWAP1 DIV PUSH20 0xFFFFFFFFFFFFFFFFFFFFFFFFFFFFFFFFFFFFFFFF AND SWAP1 POP DUP10 JUMP JUMPDEST PUSH1 0x4 SLOAD DUP2 JUMP JUMPDEST PUSH1 0x5 PUSH1 0x20 MSTORE DUP1 PUSH0 MSTORE PUSH1 0x40 PUSH0 KECCAK256 PUSH0 SWAP2 POP SWAP1 POP DUP1 PUSH0 ADD SLOAD SWAP1 DUP1 PUSH1 0x1 ADD SLOAD SWAP1 DUP1 PUSH1 0x2 ADD DUP1 SLOAD PUSH2 0x1510 SWAP1 PUSH2 0x2376 JUMP JUMPDEST DUP1 PUSH1 0x1F ADD PUSH1 0x20 DUP1 SWAP2 DIV MUL PUSH1 0x20 ADD PUSH1 0x40 MLOAD SWAP1 DUP2 ADD PUSH1 0x40 MSTORE DUP1 SWAP3 SWAP2 SWAP1 DUP2 DUP2 MSTORE PUSH1 0x20 ADD DUP3 DUP1 SLOAD PUSH2 0x153C SWAP1 PUSH2 0x2376 JUMP JUMPDEST DUP1 ISZERO PUSH2 0x1587 JUMPI DUP1 PUSH1 0x1F LT PUSH2 0x155E JUMPI PUSH2 0x100 DUP1 DUP4 SLOAD DIV MUL DUP4 MSTORE SWAP2 PUSH1 0x20 ADD SWAP2 PUSH2 0x1587 JUMP JUMPDEST DUP3 ADD SWAP2 SWAP1 PUSH0 MSTORE PUSH1 0x20 PUSH0 KECCAK256 SWAP1 JUMPDEST DUP2 SLOAD DUP2 MSTORE SWAP1 PUSH1 0x1 ADD SWAP1 PUSH1 0x20 ADD DUP1 DUP4 GT PUSH2 0x156A JUMPI DUP3 SWAP1 SUB PUSH1 0x1F AND DUP3 ADD SWAP2 JUMPDEST POP POP POP POP POP SWAP1 DUP1 PUSH1 0x3 ADD DUP1 SLOAD PUSH2 0x159C SWAP1 PUSH2 0x2376 JUMP JUMPDEST DUP1 PUSH1 0x1F ADD PUSH1 0x20 DUP1 SWAP2 DIV MUL PUSH1 0x20 ADD PUSH1 0x40 MLOAD SWAP1 DUP2 ADD PUSH1 0x40 MSTORE DUP1 SWAP3 SWAP2 SWAP1 DUP2 DUP2 MSTORE PUSH1 0x20 ADD DUP3 DUP1 SLOAD PUSH2 0x15C8 SWAP1 PUSH2 0x2376 JUMP JUMPDEST DUP1 ISZERO PUSH2 0x1613 JUMPI DUP1 PUSH1 0x1F LT PUSH2 0x15EA JUMPI PUSH2 0x100 DUP1 DUP4 SLOAD DIV MUL DUP4 MSTORE SWAP2 PUSH1 0x20 ADD SWAP2 PUSH2 0x1613 JUMP JUMPDEST DUP3 ADD SWAP2 SWAP1 PUSH0 MSTORE PUSH1 0x20 PUSH0 KECCAK256 SWAP1 JUMPDEST DUP2 SLOAD DUP2 MSTORE SWAP1 PUSH1 0x1 ADD SWAP1 PUSH1 0x20 ADD DUP1 DUP4 GT PUSH2 0x15F6 JUMPI DUP3 SWAP1 SUB PUSH1 0x1F AND DUP3 ADD SWAP2 JUMPDEST POP POP POP POP POP SWAP1 DUP1 PUSH1 0x4 ADD SLOAD SWAP1 DUP1 PUSH1 0x5 ADD SLOAD SWAP1 DUP1 PUSH1 0x6 ADD SLOAD SWAP1 DUP1 PUSH1 0x7 ADD PUSH0 SWAP1 SLOAD SWAP1 PUSH2 0x100 EXP SWAP1 DIV PUSH1 0xFF AND SWAP1 DUP1 PUSH1 0x7 ADD PUSH1 0x1 SWAP1 SLOAD SWAP1 PUSH2 0x100 EXP SWAP1 DIV PUSH20 0xFFFFFFFFFFFFFFFFFFFFFFFFFFFFFFFFFFFFFFFF AND SWAP1 DUP1 PUSH1 0x8 ADD PUSH0 SWAP1 SLOAD SWAP1 PUSH2 0x100 EXP SWAP1 DIV PUSH20 0xFFFFFFFFFFFFFFFFFFFFFFFFFFFFFFFFFFFFFFFF AND SWAP1 POP DUP11 JUMP JUMPDEST DUP1 PUSH1 0x5 PUSH0 DUP3 DUP2 MSTORE PUSH1 0x20 ADD SWAP1 DUP2 MSTORE PUSH1 0x20 ADD PUSH0 KECCAK256 PUSH1 0x7 ADD PUSH1 0x1 SWAP1 SLOAD SWAP1 PUSH2 0x100 EXP SWAP1 DIV PUSH20 0xFFFFFFFFFFFFFFFFFFFFFFFFFFFFFFFFFFFFFFFF AND PUSH20 0xFFFFFFFFFFFFFFFFFFFFFFFFFFFFFFFFFFFFFFFF AND CALLER PUSH20 0xFFFFFFFFFFFFFFFFFFFFFFFFFFFFFFFFFFFFFFFF AND EQ PUSH2 0x172F JUMPI PUSH1 0x40 MLOAD PUSH32 0x8C379A000000000000000000000000000000000000000000000000000000000 DUP2 MSTORE PUSH1 0x4 ADD PUSH2 0x1726 SWAP1 PUSH2 0x2752 JUMP JUMPDEST PUSH1 0x40 MLOAD DUP1 SWAP2 SUB SWAP1 REVERT JUMPDEST DUP2 PUSH0 PUSH1 0x3C PUSH1 0x5 PUSH0 DUP5 DUP2 MSTORE PUSH1 0x20 ADD SWAP1 DUP2 MSTORE PUSH1 0x20 ADD PUSH0 KECCAK256 PUSH1 0x6 ADD SLOAD PUSH2 0x1752 SWAP2 SWAP1 PUSH2 0x21FF JUMP JUMPDEST SWAP1 POP DUP1 TIMESTAMP LT ISZERO PUSH2 0x1797 JUMPI PUSH1 0x40 MLOAD PUSH32 0x8C379A000000000000000000000000000000000000000000000000000000000 DUP2 MSTORE PUSH1 0x4 ADD PUSH2 0x178E SWAP1 PUSH2 0x27BA JUMP JUMPDEST PUSH1 0x40 MLOAD DUP1 SWAP2 SUB SWAP1 REVERT JUMPDEST DUP4 PUSH1 0x5 PUSH0 DUP3 DUP2 MSTORE PUSH1 0x20 ADD SWAP1 DUP2 MSTORE PUSH1 0x20 ADD PUSH0 KECCAK256 PUSH1 0x4 ADD SLOAD CALLVALUE LT ISZERO PUSH2 0x17EF JUMPI PUSH1 0x40 MLOAD PUSH32 0x8C379A000000000000000000000000000000000000000000000000000000000 DUP2 MSTORE PUSH1 0x4 ADD PUSH2 0x17E6 SWAP1 PUSH2 0x227C JUMP JUMPDEST PUSH1 0x40 MLOAD DUP1 SWAP2 SUB SWAP1 REVERT JUMPDEST PUSH0 PUSH20 0xFFFFFFFFFFFFFFFFFFFFFFFFFFFFFFFFFFFFFFFF AND CALLER PUSH20 0xFFFFFFFFFFFFFFFFFFFFFFFFFFFFFFFFFFFFFFFF AND SUB PUSH2 0x1826 JUMPI PUSH0 DUP1 REVERT JUMPDEST PUSH0 PUSH1 0x5 PUSH0 DUP8 DUP2 MSTORE PUSH1 0x20 ADD SWAP1 DUP2 MSTORE PUSH1 0x20 ADD PUSH0 KECCAK256 PUSH1 0x8 ADD PUSH0 SWAP1 SLOAD SWAP1 PUSH2 0x100 EXP SWAP1 DIV PUSH20 0xFFFFFFFFFFFFFFFFFFFFFFFFFFFFFFFFFFFFFFFF AND SWAP1 POP PUSH0 PUSH1 0x5 PUSH0 DUP9 DUP2 MSTORE PUSH1 0x20 ADD SWAP1 DUP2 MSTORE PUSH1 0x20 ADD PUSH0 KECCAK256 PUSH1 0x4 ADD SLOAD SWAP1 POP DUP2 PUSH20 0xFFFFFFFFFFFFFFFFFFFFFFFFFFFFFFFFFFFFFFFF AND PUSH2 0x8FC DUP3 SWAP1 DUP2 ISZERO MUL SWAP1 PUSH1 0x40 MLOAD PUSH0 PUSH1 0x40 MLOAD DUP1 DUP4 SUB DUP2 DUP6 DUP9 DUP9 CALL SWAP4 POP POP POP POP ISZERO DUP1 ISZERO PUSH2 0x18B8 JUMPI RETURNDATASIZE PUSH0 DUP1 RETURNDATACOPY RETURNDATASIZE PUSH0 REVERT JUMPDEST POP CALLER PUSH1 0x5 PUSH0 DUP10 DUP2 MSTORE PUSH1 0x20 ADD SWAP1 DUP2 MSTORE PUSH1 0x20 ADD PUSH0 KECCAK256 PUSH1 0x7 ADD PUSH1 0x1 PUSH2 0x100 EXP DUP2 SLOAD DUP2 PUSH20 0xFFFFFFFFFFFFFFFFFFFFFFFFFFFFFFFFFFFFFFFF MUL NOT AND SWAP1 DUP4 PUSH20 0xFFFFFFFFFFFFFFFFFFFFFFFFFFFFFFFFFFFFFFFF AND MUL OR SWAP1 SSTORE POP PUSH0 PUSH1 0x5 PUSH0 DUP10 DUP2 MSTORE PUSH1 0x20 ADD SWAP1 DUP2 MSTORE PUSH1 0x20 ADD PUSH0 KECCAK256 PUSH1 0x7 ADD PUSH0 PUSH2 0x100 EXP DUP2 SLOAD DUP2 PUSH1 0xFF MUL NOT AND SWAP1 DUP4 ISZERO ISZERO MUL OR SWAP1 SSTORE POP PUSH1 0x4 PUSH0 DUP2 SLOAD DUP1 SWAP3 SWAP2 SWAP1 PUSH2 0x1949 SWAP1 PUSH2 0x2302 JUMP JUMPDEST SWAP2 SWAP1 POP SSTORE POP PUSH1 0x40 MLOAD DUP1 PUSH2 0x120 ADD PUSH1 0x40 MSTORE DUP1 PUSH1 0x4 SLOAD DUP2 MSTORE PUSH1 0x20 ADD DUP9 DUP2 MSTORE PUSH1 0x20 ADD PUSH1 0x5 PUSH0 DUP11 DUP2 MSTORE PUSH1 0x20 ADD SWAP1 DUP2 MSTORE PUSH1 0x20 ADD PUSH0 KECCAK256 PUSH1 0x1 ADD SLOAD DUP2 MSTORE PUSH1 0x20 ADD PUSH1 0x5 PUSH0 DUP11 DUP2 MSTORE PUSH1 0x20 ADD SWAP1 DUP2 MSTORE PUSH1 0x20 ADD PUSH0 KECCAK256 PUSH1 0x2 ADD DUP1 SLOAD PUSH2 0x19A1 SWAP1 PUSH2 0x2376 JUMP JUMPDEST DUP1 PUSH1 0x1F ADD PUSH1 0x20 DUP1 SWAP2 DIV MUL PUSH1 0x20 ADD PUSH1 0x40 MLOAD SWAP1 DUP2 ADD PUSH1 0x40 MSTORE DUP1 SWAP3 SWAP2 SWAP1 DUP2 DUP2 MSTORE PUSH1 0x20 ADD DUP3 DUP1 SLOAD PUSH2 0x19CD SWAP1 PUSH2 0x2376 JUMP JUMPDEST DUP1 ISZERO PUSH2 0x1A18 JUMPI DUP1 PUSH1 0x1F LT PUSH2 0x19EF JUMPI PUSH2 0x100 DUP1 DUP4 SLOAD DIV MUL DUP4 MSTORE SWAP2 PUSH1 0x20 ADD SWAP2 PUSH2 0x1A18 JUMP JUMPDEST DUP3 ADD SWAP2 SWAP1 PUSH0 MSTORE PUSH1 0x20 PUSH0 KECCAK256 SWAP1 JUMPDEST DUP2 SLOAD DUP2 MSTORE SWAP1 PUSH1 0x1 ADD SWAP1 PUSH1 0x20 ADD DUP1 DUP4 GT PUSH2 0x19FB JUMPI DUP3 SWAP1 SUB PUSH1 0x1F AND DUP3 ADD SWAP2 JUMPDEST POP POP POP POP POP DUP2 MSTORE PUSH1 0x20 ADD PUSH1 0x5 PUSH0 DUP11 DUP2 MSTORE PUSH1 0x20 ADD SWAP1 DUP2 MSTORE PUSH1 0x20 ADD PUSH0 KECCAK256 PUSH1 0x3 ADD DUP1 SLOAD PUSH2 0x1A41 SWAP1 PUSH2 0x2376 JUMP JUMPDEST DUP1 PUSH1 0x1F ADD PUSH1 0x20 DUP1 SWAP2 DIV MUL PUSH1 0x20 ADD PUSH1 0x40 MLOAD SWAP1 DUP2 ADD PUSH1 0x40 MSTORE DUP1 SWAP3 SWAP2 SWAP1 DUP2 DUP2 MSTORE PUSH1 0x20 ADD DUP3 DUP1 SLOAD PUSH2 0x1A6D SWAP1 PUSH2 0x2376 JUMP JUMPDEST DUP1 ISZERO PUSH2 0x1AB8 JUMPI DUP1 PUSH1 0x1F LT PUSH2 0x1A8F JUMPI PUSH2 0x100 DUP1 DUP4 SLOAD DIV MUL DUP4 MSTORE SWAP2 PUSH1 0x20 ADD SWAP2 PUSH2 0x1AB8 JUMP JUMPDEST DUP3 ADD SWAP2 SWAP1 PUSH0 MSTORE PUSH1 0x20 PUSH0 KECCAK256 SWAP1 JUMPDEST DUP2 SLOAD DUP2 MSTORE SWAP1 PUSH1 0x1 ADD SWAP1 PUSH1 0x20 ADD DUP1 DUP4 GT PUSH2 0x1A9B JUMPI DUP3 SWAP1 SUB PUSH1 0x1F AND DUP3 ADD SWAP2 JUMPDEST POP POP POP POP POP DUP2 MSTORE PUSH1 0x20 ADD DUP3 DUP2 MSTORE PUSH1 0x20 ADD TIMESTAMP DUP2 MSTORE PUSH1 0x20 ADD CALLER PUSH20 0xFFFFFFFFFFFFFFFFFFFFFFFFFFFFFFFFFFFFFFFF AND DUP2 MSTORE PUSH1 0x20 ADD PUSH1 0x5 PUSH0 DUP11 DUP2 MSTORE PUSH1 0x20 ADD SWAP1 DUP2 MSTORE PUSH1 0x20 ADD PUSH0 KECCAK256 PUSH1 0x8 ADD PUSH0 SWAP1 SLOAD SWAP1 PUSH2 0x100 EXP SWAP1 DIV PUSH20 0xFFFFFFFFFFFFFFFFFFFFFFFFFFFFFFFFFFFFFFFF AND PUSH20 0xFFFFFFFFFFFFFFFFFFFFFFFFFFFFFFFFFFFFFFFF AND DUP2 MSTORE POP PUSH1 0x7 PUSH0 PUSH1 0x4 SLOAD DUP2 MSTORE PUSH1 0x20 ADD SWAP1 DUP2 MSTORE PUSH1 0x20 ADD PUSH0 KECCAK256 PUSH0 DUP3 ADD MLOAD DUP2 PUSH0 ADD SSTORE PUSH1 0x20 DUP3 ADD MLOAD DUP2 PUSH1 0x1 ADD SSTORE PUSH1 0x40 DUP3 ADD MLOAD DUP2 PUSH1 0x2 ADD SSTORE PUSH1 0x60 DUP3 ADD MLOAD DUP2 PUSH1 0x3 ADD SWAP1 DUP2 PUSH2 0x1B7B SWAP2 SWAP1 PUSH2 0x2543 JUMP JUMPDEST POP PUSH1 0x80 DUP3 ADD MLOAD DUP2 PUSH1 0x4 ADD SWAP1 DUP2 PUSH2 0x1B91 SWAP2 SWAP1 PUSH2 0x2543 JUMP JUMPDEST POP PUSH1 0xA0 DUP3 ADD MLOAD DUP2 PUSH1 0x5 ADD SSTORE PUSH1 0xC0 DUP3 ADD MLOAD DUP2 PUSH1 0x6 ADD SSTORE PUSH1 0xE0 DUP3 ADD MLOAD DUP2 PUSH1 0x7 ADD PUSH0 PUSH2 0x100 EXP DUP2 SLOAD DUP2 PUSH20 0xFFFFFFFFFFFFFFFFFFFFFFFFFFFFFFFFFFFFFFFF MUL NOT AND SWAP1 DUP4 PUSH20 0xFFFFFFFFFFFFFFFFFFFFFFFFFFFFFFFFFFFFFFFF AND MUL OR SWAP1 SSTORE POP PUSH2 0x100 DUP3 ADD MLOAD DUP2 PUSH1 0x8 ADD PUSH0 PUSH2 0x100 EXP DUP2 SLOAD DUP2 PUSH20 0xFFFFFFFFFFFFFFFFFFFFFFFFFFFFFFFFFFFFFFFF MUL NOT AND SWAP1 DUP4 PUSH20 0xFFFFFFFFFFFFFFFFFFFFFFFFFFFFFFFFFFFFFFFF AND MUL OR SWAP1 SSTORE POP SWAP1 POP POP POP POP POP POP POP POP POP JUMP JUMPDEST PUSH0 PUSH1 0x40 MLOAD SWAP1 POP SWAP1 JUMP JUMPDEST PUSH0 DUP1 REVERT JUMPDEST PUSH0 DUP1 REVERT JUMPDEST PUSH0 DUP2 SWAP1 POP SWAP2 SWAP1 POP JUMP JUMPDEST PUSH2 0x1C62 DUP2 PUSH2 0x1C50 JUMP JUMPDEST DUP2 EQ PUSH2 0x1C6C JUMPI PUSH0 DUP1 REVERT JUMPDEST POP JUMP JUMPDEST PUSH0 DUP2 CALLDATALOAD SWAP1 POP PUSH2 0x1C7D DUP2 PUSH2 0x1C59 JUMP JUMPDEST SWAP3 SWAP2 POP POP JUMP JUMPDEST PUSH0 PUSH1 0x20 DUP3 DUP5 SUB SLT ISZERO PUSH2 0x1C98 JUMPI PUSH2 0x1C97 PUSH2 0x1C48 JUMP JUMPDEST JUMPDEST PUSH0 PUSH2 0x1CA5 DUP5 DUP3 DUP6 ADD PUSH2 0x1C6F JUMP JUMPDEST SWAP2 POP POP SWAP3 SWAP2 POP POP JUMP JUMPDEST PUSH2 0x1CB7 DUP2 PUSH2 0x1C50 JUMP JUMPDEST DUP3 MSTORE POP POP JUMP JUMPDEST PUSH0 PUSH1 0x20 DUP3 ADD SWAP1 POP PUSH2 0x1CD0 PUSH0 DUP4 ADD DUP5 PUSH2 0x1CAE JUMP JUMPDEST SWAP3 SWAP2 POP POP JUMP JUMPDEST PUSH0 DUP2 MLOAD SWAP1 POP SWAP2 SWAP1 POP JUMP JUMPDEST PUSH0 DUP3 DUP3 MSTORE PUSH1 0x20 DUP3 ADD SWAP1 POP SWAP3 SWAP2 POP POP JUMP JUMPDEST PUSH0 JUMPDEST DUP4 DUP2 LT ISZERO PUSH2 0x1D0D JUMPI DUP1 DUP3 ADD MLOAD DUP2 DUP5 ADD MSTORE PUSH1 0x20 DUP2 ADD SWAP1 POP PUSH2 0x1CF2 JUMP JUMPDEST PUSH0 DUP5 DUP5 ADD MSTORE POP POP POP POP JUMP JUMPDEST PUSH0 PUSH1 0x1F NOT PUSH1 0x1F DUP4 ADD AND SWAP1 POP SWAP2 SWAP1 POP JUMP JUMPDEST PUSH0 PUSH2 0x1D32 DUP3 PUSH2 0x1CD6 JUMP JUMPDEST PUSH2 0x1D3C DUP2 DUP6 PUSH2 0x1CE0 JUMP JUMPDEST SWAP4 POP PUSH2 0x1D4C DUP2 DUP6 PUSH1 0x20 DUP7 ADD PUSH2 0x1CF0 JUMP JUMPDEST PUSH2 0x1D55 DUP2 PUSH2 0x1D18 JUMP JUMPDEST DUP5 ADD SWAP2 POP POP SWAP3 SWAP2 POP POP JUMP JUMPDEST PUSH0 PUSH20 0xFFFFFFFFFFFFFFFFFFFFFFFFFFFFFFFFFFFFFFFF DUP3 AND SWAP1 POP SWAP2 SWAP1 POP JUMP JUMPDEST PUSH0 PUSH2 0x1D89 DUP3 PUSH2 0x1D60 JUMP JUMPDEST SWAP1 POP SWAP2 SWAP1 POP JUMP JUMPDEST PUSH2 0x1D99 DUP2 PUSH2 0x1D7F JUMP JUMPDEST DUP3 MSTORE POP POP JUMP JUMPDEST PUSH0 PUSH2 0x140 DUP3 ADD SWAP1 POP PUSH2 0x1DB3 PUSH0 DUP4 ADD DUP14 PUSH2 0x1CAE JUMP JUMPDEST PUSH2 0x1DC0 PUSH1 0x20 DUP4 ADD DUP13 PUSH2 0x1CAE JUMP JUMPDEST DUP2 DUP2 SUB PUSH1 0x40 DUP4 ADD MSTORE PUSH2 0x1DD2 DUP2 DUP12 PUSH2 0x1D28 JUMP JUMPDEST SWAP1 POP DUP2 DUP2 SUB PUSH1 0x60 DUP4 ADD MSTORE PUSH2 0x1DE6 DUP2 DUP11 PUSH2 0x1D28 JUMP JUMPDEST SWAP1 POP PUSH2 0x1DF5 PUSH1 0x80 DUP4 ADD DUP10 PUSH2 0x1CAE JUMP JUMPDEST PUSH2 0x1E02 PUSH1 0xA0 DUP4 ADD DUP9 PUSH2 0x1CAE JUMP JUMPDEST PUSH2 0x1E0F PUSH1 0xC0 DUP4 ADD DUP8 PUSH2 0x1CAE JUMP JUMPDEST PUSH2 0x1E1C PUSH1 0xE0 DUP4 ADD DUP7 PUSH2 0x1CAE JUMP JUMPDEST PUSH2 0x1E2A PUSH2 0x100 DUP4 ADD DUP6 PUSH2 0x1D90 JUMP JUMPDEST PUSH2 0x1E38 PUSH2 0x120 DUP4 ADD DUP5 PUSH2 0x1D90 JUMP JUMPDEST SWAP12 SWAP11 POP POP POP POP POP POP POP POP POP POP POP JUMP JUMPDEST PUSH0 DUP1 REVERT JUMPDEST PUSH0 DUP1 REVERT JUMPDEST PUSH32 0x4E487B7100000000000000000000000000000000000000000000000000000000 PUSH0 MSTORE PUSH1 0x41 PUSH1 0x4 MSTORE PUSH1 0x24 PUSH0 REVERT JUMPDEST PUSH2 0x1E85 DUP3 PUSH2 0x1D18 JUMP JUMPDEST DUP2 ADD DUP2 DUP2 LT PUSH8 0xFFFFFFFFFFFFFFFF DUP3 GT OR ISZERO PUSH2 0x1EA4 JUMPI PUSH2 0x1EA3 PUSH2 0x1E4F JUMP JUMPDEST JUMPDEST DUP1 PUSH1 0x40 MSTORE POP POP POP JUMP JUMPDEST PUSH0 PUSH2 0x1EB6 PUSH2 0x1C3F JUMP JUMPDEST SWAP1 POP PUSH2 0x1EC2 DUP3 DUP3 PUSH2 0x1E7C JUMP JUMPDEST SWAP2 SWAP1 POP JUMP JUMPDEST PUSH0 PUSH8 0xFFFFFFFFFFFFFFFF DUP3 GT ISZERO PUSH2 0x1EE1 JUMPI PUSH2 0x1EE0 PUSH2 0x1E4F JUMP JUMPDEST JUMPDEST PUSH2 0x1EEA DUP3 PUSH2 0x1D18 JUMP JUMPDEST SWAP1 POP PUSH1 0x20 DUP2 ADD SWAP1 POP SWAP2 SWAP1 POP JUMP JUMPDEST DUP3 DUP2 DUP4 CALLDATACOPY PUSH0 DUP4 DUP4 ADD MSTORE POP POP POP JUMP JUMPDEST PUSH0 PUSH2 0x1F17 PUSH2 0x1F12 DUP5 PUSH2 0x1EC7 JUMP JUMPDEST PUSH2 0x1EAD JUMP JUMPDEST SWAP1 POP DUP3 DUP2 MSTORE PUSH1 0x20 DUP2 ADD DUP5 DUP5 DUP5 ADD GT ISZERO PUSH2 0x1F33 JUMPI PUSH2 0x1F32 PUSH2 0x1E4B JUMP JUMPDEST JUMPDEST PUSH2 0x1F3E DUP5 DUP3 DUP6 PUSH2 0x1EF7 JUMP JUMPDEST POP SWAP4 SWAP3 POP POP POP JUMP JUMPDEST PUSH0 DUP3 PUSH1 0x1F DUP4 ADD SLT PUSH2 0x1F5A JUMPI PUSH2 0x1F59 PUSH2 0x1E47 JUMP JUMPDEST JUMPDEST DUP2 CALLDATALOAD PUSH2 0x1F6A DUP5 DUP3 PUSH1 0x20 DUP7 ADD PUSH2 0x1F05 JUMP JUMPDEST SWAP2 POP POP SWAP3 SWAP2 POP POP JUMP JUMPDEST PUSH0 DUP1 PUSH0 DUP1 PUSH1 0x80 DUP6 DUP8 SUB SLT ISZERO PUSH2 0x1F8B JUMPI PUSH2 0x1F8A PUSH2 0x1C48 JUMP JUMPDEST JUMPDEST PUSH0 DUP6 ADD CALLDATALOAD PUSH8 0xFFFFFFFFFFFFFFFF DUP2 GT ISZERO PUSH2 0x1FA8 JUMPI PUSH2 0x1FA7 PUSH2 0x1C4C JUMP JUMPDEST JUMPDEST PUSH2 0x1FB4 DUP8 DUP3 DUP9 ADD PUSH2 0x1F46 JUMP JUMPDEST SWAP5 POP POP PUSH1 0x20 DUP6 ADD CALLDATALOAD PUSH8 0xFFFFFFFFFFFFFFFF DUP2 GT ISZERO PUSH2 0x1FD5 JUMPI PUSH2 0x1FD4 PUSH2 0x1C4C JUMP JUMPDEST JUMPDEST PUSH2 0x1FE1 DUP8 DUP3 DUP9 ADD PUSH2 0x1F46 JUMP JUMPDEST SWAP4 POP POP PUSH1 0x40 PUSH2 0x1FF2 DUP8 DUP3 DUP9 ADD PUSH2 0x1C6F JUMP JUMPDEST SWAP3 POP POP PUSH1 0x60 PUSH2 0x2003 DUP8 DUP3 DUP9 ADD PUSH2 0x1C6F JUMP JUMPDEST SWAP2 POP POP SWAP3 SWAP6 SWAP2 SWAP5 POP SWAP3 POP JUMP JUMPDEST PUSH0 PUSH2 0x120 DUP3 ADD SWAP1 POP PUSH2 0x2023 PUSH0 DUP4 ADD DUP13 PUSH2 0x1CAE JUMP JUMPDEST PUSH2 0x2030 PUSH1 0x20 DUP4 ADD DUP12 PUSH2 0x1CAE JUMP JUMPDEST PUSH2 0x203D PUSH1 0x40 DUP4 ADD DUP11 PUSH2 0x1CAE JUMP JUMPDEST DUP2 DUP2 SUB PUSH1 0x60 DUP4 ADD MSTORE PUSH2 0x204F DUP2 DUP10 PUSH2 0x1D28 JUMP JUMPDEST SWAP1 POP DUP2 DUP2 SUB PUSH1 0x80 DUP4 ADD MSTORE PUSH2 0x2063 DUP2 DUP9 PUSH2 0x1D28 JUMP JUMPDEST SWAP1 POP PUSH2 0x2072 PUSH1 0xA0 DUP4 ADD DUP8 PUSH2 0x1CAE JUMP JUMPDEST PUSH2 0x207F PUSH1 0xC0 DUP4 ADD DUP7 PUSH2 0x1CAE JUMP JUMPDEST PUSH2 0x208C PUSH1 0xE0 DUP4 ADD DUP6 PUSH2 0x1D90 JUMP JUMPDEST PUSH2 0x209A PUSH2 0x100 DUP4 ADD DUP5 PUSH2 0x1D90 JUMP JUMPDEST SWAP11 SWAP10 POP POP POP POP POP POP POP POP POP POP JUMP JUMPDEST PUSH0 DUP2 ISZERO ISZERO SWAP1 POP SWAP2 SWAP1 POP JUMP JUMPDEST PUSH2 0x20BC DUP2 PUSH2 0x20A8 JUMP JUMPDEST DUP3 MSTORE POP POP JUMP JUMPDEST PUSH0 PUSH2 0x140 DUP3 ADD SWAP1 POP PUSH2 0x20D6 PUSH0 DUP4 ADD DUP14 PUSH2 0x1CAE JUMP JUMPDEST PUSH2 0x20E3 PUSH1 0x20 DUP4 ADD DUP13 PUSH2 0x1CAE JUMP JUMPDEST DUP2 DUP2 SUB PUSH1 0x40 DUP4 ADD MSTORE PUSH2 0x20F5 DUP2 DUP12 PUSH2 0x1D28 JUMP JUMPDEST SWAP1 POP DUP2 DUP2 SUB PUSH1 0x60 DUP4 ADD MSTORE PUSH2 0x2109 DUP2 DUP11 PUSH2 0x1D28 JUMP JUMPDEST SWAP1 POP PUSH2 0x2118 PUSH1 0x80 DUP4 ADD DUP10 PUSH2 0x1CAE JUMP JUMPDEST PUSH2 0x2125 PUSH1 0xA0 DUP4 ADD DUP9 PUSH2 0x1CAE JUMP JUMPDEST PUSH2 0x2132 PUSH1 0xC0 DUP4 ADD DUP8 PUSH2 0x1CAE JUMP JUMPDEST PUSH2 0x213F PUSH1 0xE0 DUP4 ADD DUP7 PUSH2 0x20B3 JUMP JUMPDEST PUSH2 0x214D PUSH2 0x100 DUP4 ADD DUP6 PUSH2 0x1D90 JUMP JUMPDEST PUSH2 0x215B PUSH2 0x120 DUP4 ADD DUP5 PUSH2 0x1D90 JUMP JUMPDEST SWAP12 SWAP11 POP POP POP POP POP POP POP POP POP POP POP JUMP JUMPDEST PUSH32 0x4F6E6C792074656E616E742063616E2061636365737320746869730000000000 PUSH0 DUP3 ADD MSTORE POP JUMP JUMPDEST PUSH0 PUSH2 0x219E PUSH1 0x1B DUP4 PUSH2 0x1CE0 JUMP JUMPDEST SWAP2 POP PUSH2 0x21A9 DUP3 PUSH2 0x216A JUMP JUMPDEST PUSH1 0x20 DUP3 ADD SWAP1 POP SWAP2 SWAP1 POP JUMP JUMPDEST PUSH0 PUSH1 0x20 DUP3 ADD SWAP1 POP DUP2 DUP2 SUB PUSH0 DUP4 ADD MSTORE PUSH2 0x21CB DUP2 PUSH2 0x2192 JUMP JUMPDEST SWAP1 POP SWAP2 SWAP1 POP JUMP JUMPDEST PUSH32 0x4E487B7100000000000000000000000000000000000000000000000000000000 PUSH0 MSTORE PUSH1 0x11 PUSH1 0x4 MSTORE PUSH1 0x24 PUSH0 REVERT JUMPDEST PUSH0 PUSH2 0x2209 DUP3 PUSH2 0x1C50 JUMP JUMPDEST SWAP2 POP PUSH2 0x2214 DUP4 PUSH2 0x1C50 JUMP JUMPDEST SWAP3 POP DUP3 DUP3 ADD SWAP1 POP DUP1 DUP3 GT ISZERO PUSH2 0x222C JUMPI PUSH2 0x222B PUSH2 0x21D2 JUMP JUMPDEST JUMPDEST SWAP3 SWAP2 POP POP JUMP JUMPDEST PUSH32 0x4E6F7420656E6F75676820457468657220696E20796F75722077616C6C657400 PUSH0 DUP3 ADD MSTORE POP JUMP JUMPDEST PUSH0 PUSH2 0x2266 PUSH1 0x1F DUP4 PUSH2 0x1CE0 JUMP JUMPDEST SWAP2 POP PUSH2 0x2271 DUP3 PUSH2 0x2232 JUMP JUMPDEST PUSH1 0x20 DUP3 ADD SWAP1 POP SWAP2 SWAP1 POP JUMP JUMPDEST PUSH0 PUSH1 0x20 DUP3 ADD SWAP1 POP DUP2 DUP2 SUB PUSH0 DUP4 ADD MSTORE PUSH2 0x2293 DUP2 PUSH2 0x225A JUMP JUMPDEST SWAP1 POP SWAP2 SWAP1 POP JUMP JUMPDEST PUSH32 0x526F6F6D2069732063757272656E746C79206F63637570696564000000000000 PUSH0 DUP3 ADD MSTORE POP JUMP JUMPDEST PUSH0 PUSH2 0x22CE PUSH1 0x1A DUP4 PUSH2 0x1CE0 JUMP JUMPDEST SWAP2 POP PUSH2 0x22D9 DUP3 PUSH2 0x229A JUMP JUMPDEST PUSH1 0x20 DUP3 ADD SWAP1 POP SWAP2 SWAP1 POP JUMP JUMPDEST PUSH0 PUSH1 0x20 DUP3 ADD SWAP1 POP DUP2 DUP2 SUB PUSH0 DUP4 ADD MSTORE PUSH2 0x22FB DUP2 PUSH2 0x22C2 JUMP JUMPDEST SWAP1 POP SWAP2 SWAP1 POP JUMP JUMPDEST PUSH0 PUSH2 0x230C DUP3 PUSH2 0x1C50 JUMP JUMPDEST SWAP2 POP PUSH32 0xFFFFFFFFFFFFFFFFFFFFFFFFFFFFFFFFFFFFFFFFFFFFFFFFFFFFFFFFFFFFFFFF DUP3 SUB PUSH2 0x233E JUMPI PUSH2 0x233D PUSH2 0x21D2 JUMP JUMPDEST JUMPDEST PUSH1 0x1 DUP3 ADD SWAP1 POP SWAP2 SWAP1 POP JUMP JUMPDEST PUSH32 0x4E487B7100000000000000000000000000000000000000000000000000000000 PUSH0 MSTORE PUSH1 0x22 PUSH1 0x4 MSTORE PUSH1 0x24 PUSH0 REVERT JUMPDEST PUSH0 PUSH1 0x2 DUP3 DIV SWAP1 POP PUSH1 0x1 DUP3 AND DUP1 PUSH2 0x238D JUMPI PUSH1 0x7F DUP3 AND SWAP2 POP JUMPDEST PUSH1 0x20 DUP3 LT DUP2 SUB PUSH2 0x23A0 JUMPI PUSH2 0x239F PUSH2 0x2349 JUMP JUMPDEST JUMPDEST POP SWAP2 SWAP1 POP JUMP JUMPDEST PUSH0 DUP2 SWAP1 POP DUP2 PUSH0 MSTORE PUSH1 0x20 PUSH0 KECCAK256 SWAP1 POP SWAP2 SWAP1 POP JUMP JUMPDEST PUSH0 PUSH1 0x20 PUSH1 0x1F DUP4 ADD DIV SWAP1 POP SWAP2 SWAP1 POP JUMP JUMPDEST PUSH0 DUP3 DUP3 SHL SWAP1 POP SWAP3 SWAP2 POP POP JUMP JUMPDEST PUSH0 PUSH1 0x8 DUP4 MUL PUSH2 0x2402 PUSH32 0xFFFFFFFFFFFFFFFFFFFFFFFFFFFFFFFFFFFFFFFFFFFFFFFFFFFFFFFFFFFFFFFF DUP3 PUSH2 0x23C7 JUMP JUMPDEST PUSH2 0x240C DUP7 DUP4 PUSH2 0x23C7 JUMP JUMPDEST SWAP6 POP DUP1 NOT DUP5 AND SWAP4 POP DUP1 DUP7 AND DUP5 OR SWAP3 POP POP POP SWAP4 SWAP3 POP POP POP JUMP JUMPDEST PUSH0 DUP2 SWAP1 POP SWAP2 SWAP1 POP JUMP JUMPDEST PUSH0 PUSH2 0x2447 PUSH2 0x2442 PUSH2 0x243D DUP5 PUSH2 0x1C50 JUMP JUMPDEST PUSH2 0x2424 JUMP JUMPDEST PUSH2 0x1C50 JUMP JUMPDEST SWAP1 POP SWAP2 SWAP1 POP JUMP JUMPDEST PUSH0 DUP2 SWAP1 POP SWAP2 SWAP1 POP JUMP JUMPDEST PUSH2 0x2460 DUP4 PUSH2 0x242D JUMP JUMPDEST PUSH2 0x2474 PUSH2 0x246C DUP3 PUSH2 0x244E JUMP JUMPDEST DUP5 DUP5 SLOAD PUSH2 0x23D3 JUMP JUMPDEST DUP3 SSTORE POP POP POP POP JUMP JUMPDEST PUSH0 SWAP1 JUMP JUMPDEST PUSH2 0x2488 PUSH2 0x247C JUMP JUMPDEST PUSH2 0x2493 DUP2 DUP5 DUP5 PUSH2 0x2457 JUMP JUMPDEST POP POP POP JUMP JUMPDEST JUMPDEST DUP2 DUP2 LT ISZERO PUSH2 0x24B6 JUMPI PUSH2 0x24AB PUSH0 DUP3 PUSH2 0x2480 JUMP JUMPDEST PUSH1 0x1 DUP2 ADD SWAP1 POP PUSH2 0x2499 JUMP JUMPDEST POP POP JUMP JUMPDEST PUSH1 0x1F DUP3 GT ISZERO PUSH2 0x24FB JUMPI PUSH2 0x24CC DUP2 PUSH2 0x23A6 JUMP JUMPDEST PUSH2 0x24D5 DUP5 PUSH2 0x23B8 JUMP JUMPDEST DUP2 ADD PUSH1 0x20 DUP6 LT ISZERO PUSH2 0x24E4 JUMPI DUP2 SWAP1 POP JUMPDEST PUSH2 0x24F8 PUSH2 0x24F0 DUP6 PUSH2 0x23B8 JUMP JUMPDEST DUP4 ADD DUP3 PUSH2 0x2498 JUMP JUMPDEST POP POP JUMPDEST POP POP POP JUMP JUMPDEST PUSH0 DUP3 DUP3 SHR SWAP1 POP SWAP3 SWAP2 POP POP JUMP JUMPDEST PUSH0 PUSH2 0x251B PUSH0 NOT DUP5 PUSH1 0x8 MUL PUSH2 0x2500 JUMP JUMPDEST NOT DUP1 DUP4 AND SWAP2 POP POP SWAP3 SWAP2 POP POP JUMP JUMPDEST PUSH0 PUSH2 0x2533 DUP4 DUP4 PUSH2 0x250C JUMP JUMPDEST SWAP2 POP DUP3 PUSH1 0x2 MUL DUP3 OR SWAP1 POP SWAP3 SWAP2 POP POP JUMP JUMPDEST PUSH2 0x254C DUP3 PUSH2 0x1CD6 JUMP JUMPDEST PUSH8 0xFFFFFFFFFFFFFFFF DUP2 GT ISZERO PUSH2 0x2565 JUMPI PUSH2 0x2564 PUSH2 0x1E4F JUMP JUMPDEST JUMPDEST PUSH2 0x256F DUP3 SLOAD PUSH2 0x2376 JUMP JUMPDEST PUSH2 0x257A DUP3 DUP3 DUP6 PUSH2 0x24BA JUMP JUMPDEST PUSH0 PUSH1 0x20 SWAP1 POP PUSH1 0x1F DUP4 GT PUSH1 0x1 DUP2 EQ PUSH2 0x25AB JUMPI PUSH0 DUP5 ISZERO PUSH2 0x2599 JUMPI DUP3 DUP8 ADD MLOAD SWAP1 POP JUMPDEST PUSH2 0x25A3 DUP6 DUP3 PUSH2 0x2528 JUMP JUMPDEST DUP7 SSTORE POP PUSH2 0x260A JUMP JUMPDEST PUSH1 0x1F NOT DUP5 AND PUSH2 0x25B9 DUP7 PUSH2 0x23A6 JUMP JUMPDEST PUSH0 JUMPDEST DUP3 DUP2 LT ISZERO PUSH2 0x25E0 JUMPI DUP5 DUP10 ADD MLOAD DUP3 SSTORE PUSH1 0x1 DUP3 ADD SWAP2 POP PUSH1 0x20 DUP6 ADD SWAP5 POP PUSH1 0x20 DUP2 ADD SWAP1 POP PUSH2 0x25BB JUMP JUMPDEST DUP7 DUP4 LT ISZERO PUSH2 0x25FD JUMPI DUP5 DUP10 ADD MLOAD PUSH2 0x25F9 PUSH1 0x1F DUP10 AND DUP3 PUSH2 0x250C JUMP JUMPDEST DUP4 SSTORE POP JUMPDEST PUSH1 0x1 PUSH1 0x2 DUP9 MUL ADD DUP9 SSTORE POP POP POP JUMPDEST POP POP POP POP POP POP JUMP JUMPDEST PUSH32 0x4F6E6C79206C616E646C6F72642063616E206163636573732074686973000000 PUSH0 DUP3 ADD MSTORE POP JUMP JUMPDEST PUSH0 PUSH2 0x2646 PUSH1 0x1D DUP4 PUSH2 0x1CE0 JUMP JUMPDEST SWAP2 POP PUSH2 0x2651 DUP3 PUSH2 0x2612 JUMP JUMPDEST PUSH1 0x20 DUP3 ADD SWAP1 POP SWAP2 SWAP1 POP JUMP JUMPDEST PUSH0 PUSH1 0x20 DUP3 ADD SWAP1 POP DUP2 DUP2 SUB PUSH0 DUP4 ADD MSTORE PUSH2 0x2673 DUP2 PUSH2 0x263A JUMP JUMPDEST SWAP1 POP SWAP2 SWAP1 POP JUMP JUMPDEST PUSH32 0x41677265656D656E7420616C726561647920656E646564000000000000000000 PUSH0 DUP3 ADD MSTORE POP JUMP JUMPDEST PUSH0 PUSH2 0x26AE PUSH1 0x17 DUP4 PUSH2 0x1CE0 JUMP JUMPDEST SWAP2 POP PUSH2 0x26B9 DUP3 PUSH2 0x267A JUMP JUMPDEST PUSH1 0x20 DUP3 ADD SWAP1 POP SWAP2 SWAP1 POP JUMP JUMPDEST PUSH0 PUSH1 0x20 DUP3 ADD SWAP1 POP DUP2 DUP2 SUB PUSH0 DUP4 ADD MSTORE PUSH2 0x26DB DUP2 PUSH2 0x26A2 JUMP JUMPDEST SWAP1 POP SWAP2 SWAP1 POP JUMP JUMPDEST PUSH32 0x4E6F2070726576696F75732061677265656D656E7420666F756E642077697468 PUSH0 DUP3 ADD MSTORE PUSH32 0x20796F752026206C616E646C6F72640000000000000000000000000000000000 PUSH1 0x20 DUP3 ADD MSTORE POP JUMP JUMPDEST PUSH0 PUSH2 0x273C PUSH1 0x2F DUP4 PUSH2 0x1CE0 JUMP JUMPDEST SWAP2 POP PUSH2 0x2747 DUP3 PUSH2 0x26E2 JUMP JUMPDEST PUSH1 0x40 DUP3 ADD SWAP1 POP SWAP2 SWAP1 POP JUMP JUMPDEST PUSH0 PUSH1 0x20 DUP3 ADD SWAP1 POP DUP2 DUP2 SUB PUSH0 DUP4 ADD MSTORE PUSH2 0x2769 DUP2 PUSH2 0x2730 JUMP JUMPDEST SWAP1 POP SWAP2 SWAP1 POP JUMP JUMPDEST PUSH32 0x54696D65206C65667420746F207061792072656E740000000000000000000000 PUSH0 DUP3 ADD MSTORE POP JUMP JUMPDEST PUSH0 PUSH2 0x27A4 PUSH1 0x15 DUP4 PUSH2 0x1CE0 JUMP JUMPDEST SWAP2 POP PUSH2 0x27AF DUP3 PUSH2 0x2770 JUMP JUMPDEST PUSH1 0x20 DUP3 ADD SWAP1 POP SWAP2 SWAP1 POP JUMP JUMPDEST PUSH0 PUSH1 0x20 DUP3 ADD SWAP1 POP DUP2 DUP2 SUB PUSH0 DUP4 ADD MSTORE PUSH2 0x27D1 DUP2 PUSH2 0x2798 JUMP JUMPDEST SWAP1 POP SWAP2 SWAP1 POP JUMP INVALID LOG2 PUSH5 0x6970667358 0x22 SLT KECCAK256 0x4C DIV 0xB3 SAR CODECOPY 0xD4 SWAP11 RETURNDATACOPY SWAP14 0xBF ADDRESS 0x23 0x2B SSTORE PUSH1 0x72 0xB9 MUL DUP3 SWAP13 SWAP9 DUP2 GT SWAP2 INVALID 0x49 0x24 0xDF 0xD 0x24 0xC9 INVALID PUSH5 0x736F6C6343 STOP ADDMOD AND STOP CALLER "
				},
				"gasEstimates": {
					"creation": {
						"codeDepositCost": "2050800",
						"executionCost": "17191",
						"totalCost": "2067991"
					},
					"external": {
						"RentMap(uint256)": "infinite",
						"RoomAgreementMap(uint256)": "infinite",
						"RoomMap(uint256)": "infinite",
						"addRoom(string,string,uint256,uint256)": "infinite",
						"agreementCompleted(uint256)": "infinite",
						"agreementTerminated(uint256)": "infinite",
						"agreement_idx()": "2492",
						"payRent(uint256)": "infinite",
						"rent_idx()": "2491",
						"room_idx()": "2470",
						"signAgreement(uint256)": "infinite"
					}
				},
				"methodIdentifiers": {
					"RentMap(uint256)": "649ad814",
					"RoomAgreementMap(uint256)": "5ee6086f",
					"RoomMap(uint256)": "8cdb3955",
					"addRoom(string,string,uint256,uint256)": "63e475bd",
					"agreementCompleted(uint256)": "16abb8a1",
					"agreementTerminated(uint256)": "4f5e4428",
					"agreement_idx()": "465d80f8",
					"payRent(uint256)": "d9e8843f",
					"rent_idx()": "7681e6d9",
					"room_idx()": "2788137e",
					"signAgreement(uint256)": "03742de0"
				}
			},
			"storageLayout": {
				"storage": [
					{
						"astId": 3,
						"contract": "Hostel.sol:Hostel",
						"label": "tenant",
						"offset": 0,
						"slot": "0",
						"type": "t_address_payable"
					},
					{
						"astId": 5,
						"contract": "Hostel.sol:Hostel",
						"label": "landlord",
						"offset": 0,
						"slot": "1",
						"type": "t_address_payable"
					},
					{
						"astId": 8,
						"contract": "Hostel.sol:Hostel",
						"label": "room_idx",
						"offset": 0,
						"slot": "2",
						"type": "t_uint256"
					},
					{
						"astId": 11,
						"contract": "Hostel.sol:Hostel",
						"label": "agreement_idx",
						"offset": 0,
						"slot": "3",
						"type": "t_uint256"
					},
					{
						"astId": 14,
						"contract": "Hostel.sol:Hostel",
						"label": "rent_idx",
						"offset": 0,
						"slot": "4",
						"type": "t_uint256"
					},
					{
						"astId": 40,
						"contract": "Hostel.sol:Hostel",
						"label": "RoomMap",
						"offset": 0,
						"slot": "5",
						"type": "t_mapping(t_uint256,t_struct(Room)35_storage)"
					},
					{
						"astId": 66,
						"contract": "Hostel.sol:Hostel",
						"label": "RoomAgreementMap",
						"offset": 0,
						"slot": "6",
						"type": "t_mapping(t_uint256,t_struct(RoomAgreement)61_storage)"
					},
					{
						"astId": 90,
						"contract": "Hostel.sol:Hostel",
						"label": "RentMap",
						"offset": 0,
						"slot": "7",
						"type": "t_mapping(t_uint256,t_struct(Rent)85_storage)"
					}
				],
				"types": {
					"t_address_payable": {
						"encoding": "inplace",
						"label": "address payable",
						"numberOfBytes": "20"
					},
					"t_bool": {
						"encoding": "inplace",
						"label": "bool",
						"numberOfBytes": "1"
					},
					"t_mapping(t_uint256,t_struct(Rent)85_storage)": {
						"encoding": "mapping",
						"key": "t_uint256",
						"label": "mapping(uint256 => struct Hostel.Rent)",
						"numberOfBytes": "32",
						"value": "t_struct(Rent)85_storage"
					},
					"t_mapping(t_uint256,t_struct(Room)35_storage)": {
						"encoding": "mapping",
						"key": "t_uint256",
						"label": "mapping(uint256 => struct Hostel.Room)",
						"numberOfBytes": "32",
						"value": "t_struct(Room)35_storage"
					},
					"t_mapping(t_uint256,t_struct(RoomAgreement)61_storage)": {
						"encoding": "mapping",
						"key": "t_uint256",
						"label": "mapping(uint256 => struct Hostel.RoomAgreement)",
						"numberOfBytes": "32",
						"value": "t_struct(RoomAgreement)61_storage"
					},
					"t_string_storage": {
						"encoding": "bytes",
						"label": "string",
						"numberOfBytes": "32"
					},
					"t_struct(Rent)85_storage": {
						"encoding": "inplace",
						"label": "struct Hostel.Rent",
						"members": [
							{
								"astId": 68,
								"contract": "Hostel.sol:Hostel",
								"label": "rent_no",
								"offset": 0,
								"slot": "0",
								"type": "t_uint256"
							},
							{
								"astId": 70,
								"contract": "Hostel.sol:Hostel",
								"label": "room_id",
								"offset": 0,
								"slot": "1",
								"type": "t_uint256"
							},
							{
								"astId": 72,
								"contract": "Hostel.sol:Hostel",
								"label": "agreement_id",
								"offset": 0,
								"slot": "2",
								"type": "t_uint256"
							},
							{
								"astId": 74,
								"contract": "Hostel.sol:Hostel",
								"label": "room_name",
								"offset": 0,
								"slot": "3",
								"type": "t_string_storage"
							},
							{
								"astId": 76,
								"contract": "Hostel.sol:Hostel",
								"label": "room_address",
								"offset": 0,
								"slot": "4",
								"type": "t_string_storage"
							},
							{
								"astId": 78,
								"contract": "Hostel.sol:Hostel",
								"label": "rent_per_month",
								"offset": 0,
								"slot": "5",
								"type": "t_uint256"
							},
							{
								"astId": 80,
								"contract": "Hostel.sol:Hostel",
								"label": "timestamp",
								"offset": 0,
								"slot": "6",
								"type": "t_uint256"
							},
							{
								"astId": 82,
								"contract": "Hostel.sol:Hostel",
								"label": "tenant_address",
								"offset": 0,
								"slot": "7",
								"type": "t_address_payable"
							},
							{
								"astId": 84,
								"contract": "Hostel.sol:Hostel",
								"label": "landlord_address",
								"offset": 0,
								"slot": "8",
								"type": "t_address_payable"
							}
						],
						"numberOfBytes": "288"
					},
					"t_struct(Room)35_storage": {
						"encoding": "inplace",
						"label": "struct Hostel.Room",
						"members": [
							{
								"astId": 16,
								"contract": "Hostel.sol:Hostel",
								"label": "room_id",
								"offset": 0,
								"slot": "0",
								"type": "t_uint256"
							},
							{
								"astId": 18,
								"contract": "Hostel.sol:Hostel",
								"label": "agreement_id",
								"offset": 0,
								"slot": "1",
								"type": "t_uint256"
							},
							{
								"astId": 20,
								"contract": "Hostel.sol:Hostel",
								"label": "room_name",
								"offset": 0,
								"slot": "2",
								"type": "t_string_storage"
							},
							{
								"astId": 22,
								"contract": "Hostel.sol:Hostel",
								"label": "room_address",
								"offset": 0,
								"slot": "3",
								"type": "t_string_storage"
							},
							{
								"astId": 24,
								"contract": "Hostel.sol:Hostel",
								"label": "rent_per_month",
								"offset": 0,
								"slot": "4",
								"type": "t_uint256"
							},
							{
								"astId": 26,
								"contract": "Hostel.sol:Hostel",
								"label": "security_deposit",
								"offset": 0,
								"slot": "5",
								"type": "t_uint256"
							},
							{
								"astId": 28,
								"contract": "Hostel.sol:Hostel",
								"label": "timestamp",
								"offset": 0,
								"slot": "6",
								"type": "t_uint256"
							},
							{
								"astId": 30,
								"contract": "Hostel.sol:Hostel",
								"label": "vacant",
								"offset": 0,
								"slot": "7",
								"type": "t_bool"
							},
							{
								"astId": 32,
								"contract": "Hostel.sol:Hostel",
								"label": "tenant_address",
								"offset": 1,
								"slot": "7",
								"type": "t_address_payable"
							},
							{
								"astId": 34,
								"contract": "Hostel.sol:Hostel",
								"label": "landlord_address",
								"offset": 0,
								"slot": "8",
								"type": "t_address_payable"
							}
						],
						"numberOfBytes": "288"
					},
					"t_struct(RoomAgreement)61_storage": {
						"encoding": "inplace",
						"label": "struct Hostel.RoomAgreement",
						"members": [
							{
								"astId": 42,
								"contract": "Hostel.sol:Hostel",
								"label": "room_id",
								"offset": 0,
								"slot": "0",
								"type": "t_uint256"
							},
							{
								"astId": 44,
								"contract": "Hostel.sol:Hostel",
								"label": "agreement_id",
								"offset": 0,
								"slot": "1",
								"type": "t_uint256"
							},
							{
								"astId": 46,
								"contract": "Hostel.sol:Hostel",
								"label": "room_name",
								"offset": 0,
								"slot": "2",
								"type": "t_string_storage"
							},
							{
								"astId": 48,
								"contract": "Hostel.sol:Hostel",
								"label": "room_address",
								"offset": 0,
								"slot": "3",
								"type": "t_string_storage"
							},
							{
								"astId": 50,
								"contract": "Hostel.sol:Hostel",
								"label": "rent_per_month",
								"offset": 0,
								"slot": "4",
								"type": "t_uint256"
							},
							{
								"astId": 52,
								"contract": "Hostel.sol:Hostel",
								"label": "security_deposit",
								"offset": 0,
								"slot": "5",
								"type": "t_uint256"
							},
							{
								"astId": 54,
								"contract": "Hostel.sol:Hostel",
								"label": "lock_in_period",
								"offset": 0,
								"slot": "6",
								"type": "t_uint256"
							},
							{
								"astId": 56,
								"contract": "Hostel.sol:Hostel",
								"label": "timestamp",
								"offset": 0,
								"slot": "7",
								"type": "t_uint256"
							},
							{
								"astId": 58,
								"contract": "Hostel.sol:Hostel",
								"label": "tenant_address",
								"offset": 0,
								"slot": "8",
								"type": "t_address_payable"
							},
							{
								"astId": 60,
								"contract": "Hostel.sol:Hostel",
								"label": "landlord_address",
								"offset": 0,
								"slot": "9",
								"type": "t_address_payable"
							}
						],
						"numberOfBytes": "320"
					},
					"t_uint256": {
						"encoding": "inplace",
						"label": "uint256",
						"numberOfBytes": "32"
					}
				}
			},
			"userdoc": {
				"kind": "user",
				"methods": {},
				"version": 1
			}
		}
	}
}